{
  "_format": "hh-sol-artifact-1",
  "contractName": "Staking",
  "sourceName": "contracts/contract/Staking.sol",
  "abi": [
    {
      "inputs": [
        {
          "internalType": "contract Storage",
          "name": "storageAddress",
          "type": "address"
        },
        {
          "internalType": "contract ERC20",
          "name": "_ggp",
          "type": "address"
        }
      ],
      "stateMutability": "nonpayable",
      "type": "constructor"
    },
    {
      "anonymous": false,
      "inputs": [
        {
          "indexed": true,
          "internalType": "address",
          "name": "node",
          "type": "address"
        },
        {
          "indexed": false,
          "internalType": "uint256",
          "name": "amount",
          "type": "uint256"
        },
        {
          "indexed": false,
          "internalType": "uint256",
          "name": "ethValue",
          "type": "uint256"
        },
        {
          "indexed": false,
          "internalType": "uint256",
          "name": "time",
          "type": "uint256"
        }
      ],
      "name": "GGPSlashed",
      "type": "event"
    },
    {
      "anonymous": false,
      "inputs": [
        {
          "indexed": true,
          "internalType": "address",
          "name": "from",
          "type": "address"
        },
        {
          "indexed": false,
          "internalType": "uint256",
          "name": "amount",
          "type": "uint256"
        },
        {
          "indexed": false,
          "internalType": "uint256",
          "name": "time",
          "type": "uint256"
        }
      ],
      "name": "GGPStaked",
      "type": "event"
    },
    {
      "anonymous": false,
      "inputs": [
        {
          "indexed": true,
          "internalType": "address",
          "name": "to",
          "type": "address"
        },
        {
          "indexed": false,
          "internalType": "uint256",
          "name": "amount",
          "type": "uint256"
        },
        {
          "indexed": false,
          "internalType": "uint256",
          "name": "time",
          "type": "uint256"
        }
      ],
      "name": "GGPWithdrawn",
      "type": "event"
    },
    {
      "inputs": [
        {
          "internalType": "address",
          "name": "_nodeAddress",
          "type": "address"
        }
      ],
      "name": "getNodeGGPStake",
      "outputs": [
        {
          "internalType": "uint256",
          "name": "",
          "type": "uint256"
        }
      ],
      "stateMutability": "view",
      "type": "function"
    },
    {
      "inputs": [
        {
          "internalType": "address",
          "name": "_nodeAddress",
          "type": "address"
        }
      ],
      "name": "getNodeGGPStakedTime",
      "outputs": [
        {
          "internalType": "uint256",
          "name": "",
          "type": "uint256"
        }
      ],
      "stateMutability": "view",
      "type": "function"
    },
    {
      "inputs": [
        {
          "internalType": "address",
          "name": "_nodeAddress",
          "type": "address"
        }
      ],
      "name": "getNodeMinimumGGPStake",
      "outputs": [
        {
          "internalType": "uint256",
          "name": "",
          "type": "uint256"
        }
      ],
      "stateMutability": "view",
      "type": "function"
    },
    {
      "inputs": [
        {
          "internalType": "string",
          "name": "_contractName",
          "type": "string"
        }
      ],
      "name": "getPublicContractAddress",
      "outputs": [
        {
          "internalType": "address",
          "name": "",
          "type": "address"
        }
      ],
      "stateMutability": "view",
      "type": "function"
    },
    {
      "inputs": [
        {
          "internalType": "bytes32",
          "name": "settingNameSpace",
          "type": "bytes32"
        },
        {
          "internalType": "string",
          "name": "_settingPath",
          "type": "string"
        }
      ],
      "name": "getSettingAddress",
      "outputs": [
        {
          "internalType": "address",
          "name": "",
          "type": "address"
        }
      ],
      "stateMutability": "view",
      "type": "function"
    },
    {
      "inputs": [
        {
          "internalType": "bytes32",
          "name": "settingNameSpace",
          "type": "bytes32"
        },
        {
          "internalType": "string",
          "name": "_settingPath",
          "type": "string"
        }
      ],
      "name": "getSettingBool",
      "outputs": [
        {
          "internalType": "bool",
          "name": "",
          "type": "bool"
        }
      ],
      "stateMutability": "view",
      "type": "function"
    },
    {
      "inputs": [
        {
          "internalType": "bytes32",
          "name": "settingNameSpace",
          "type": "bytes32"
        },
        {
          "internalType": "string",
          "name": "_settingPath",
          "type": "string"
        }
      ],
      "name": "getSettingUint",
      "outputs": [
        {
          "internalType": "uint256",
          "name": "",
          "type": "uint256"
        }
      ],
      "stateMutability": "view",
      "type": "function"
    },
    {
      "inputs": [],
      "name": "getTotalEffectiveGGPStake",
      "outputs": [
        {
          "internalType": "uint256",
          "name": "",
          "type": "uint256"
        }
      ],
      "stateMutability": "view",
      "type": "function"
    },
    {
      "inputs": [],
      "name": "getTotalGGPStake",
      "outputs": [
        {
          "internalType": "uint256",
          "name": "",
          "type": "uint256"
        }
      ],
      "stateMutability": "view",
      "type": "function"
    },
    {
      "inputs": [],
      "name": "ggp",
      "outputs": [
        {
          "internalType": "contract ERC20",
          "name": "",
          "type": "address"
        }
      ],
      "stateMutability": "view",
      "type": "function"
    },
    {
      "inputs": [
        {
          "internalType": "uint256",
          "name": "_amount",
          "type": "uint256"
        }
      ],
      "name": "stakeGGP",
      "outputs": [],
      "stateMutability": "nonpayable",
      "type": "function"
    },
    {
      "inputs": [],
      "name": "version",
      "outputs": [
        {
          "internalType": "uint8",
          "name": "",
          "type": "uint8"
        }
      ],
      "stateMutability": "view",
      "type": "function"
    }
  ],
  "bytecode": "0x60a060405234801561001057600080fd5b50604051610ee9380380610ee983398101604081905261002f91610079565b6000805460ff196001600160a01b0394851661010002166001600160a81b0319909116176001179055166080526100b3565b6001600160a01b038116811461007657600080fd5b50565b6000806040838503121561008c57600080fd5b825161009781610061565b60208401519092506100a881610061565b809150509250929050565b608051610e066100e3600039600081816101a7015281816103f2015281816104f101526105eb0152610e066000f3fe608060405234801561001057600080fd5b50600436106100b45760003560e01c8063bf79cbf611610071578063bf79cbf614610174578063cff0b6481461017c578063e4af4c2a1461018f578063f321df49146101a2578063f4d70e78146101c9578063f7dadb05146101dc57600080fd5b8063063885e1146100b957806306eaa68b146100df578063232de7161461010a57806354fd4d501461012d57806368a239e91461014c5780636ae0785114610161575b600080fd5b6100cc6100c7366004610aed565b6101e4565b6040519081526020015b60405180910390f35b6100f26100ed366004610bad565b610338565b6040516001600160a01b0390911681526020016100d6565b61011d610118366004610bad565b610372565b60405190151581526020016100d6565b60005461013a9060ff1681565b60405160ff90911681526020016100d6565b61015f61015a366004610bf4565b6103a5565b005b6100cc61016f366004610aed565b6106b1565b6100cc6106e8565b6100f261018a366004610c0d565b610718565b6100cc61019d366004610aed565b61077c565b6100f27f000000000000000000000000000000000000000000000000000000000000000081565b6100cc6101d7366004610bad565b610792565b6100cc6107aa565b6000806102176040518060400160405280600f81526020016e26b4b734b837b7b626b0b730b3b2b960891b815250610718565b90506000610242604051806040016040528060068152602001654f7261636c6560d01b815250610718565b90506000816001600160a01b031663bece349b6040518163ffffffff1660e01b81526004016040805180830381865afa158015610283573d6000803e3d6000fd5b505050506040513d601f19601f820116820180604052508101906102a79190610c4a565b506040516331b73e6360e11b81526001600160a01b038781166004830152919250600a9183919086169063636e7cc690602401602060405180830381865afa1580156102f7573d6000803e3d6000fd5b505050506040513d601f19601f8201168201806040525081019061031b9190610c6e565b6103259190610c87565b61032f9190610c87565b95945050505050565b600061036b8383604051602001610350929190610ce4565b60405160208183030381529060405280519060200120610847565b9392505050565b600061036b838360405160200161038a929190610ce4565b604051602081830303815290604052805190602001206108b9565b60006103cd6040518060400160405280600581526020016415985d5b1d60da1b815250610718565b6040516323b872dd60e01b8152336004820152306024820152604481018490529091507f00000000000000000000000000000000000000000000000000000000000000006001600160a01b0316906323b872dd906064016020604051808303816000875af1158015610443573d6000803e3d6000fd5b505050506040513d601f19601f820116820180604052508101906104679190610cf6565b6104cb5760405162461bcd60e51b815260206004820152602a60248201527f436f756c64206e6f74207472616e736665722047475020746f207374616b696e60448201526919c818dbdb9d1c9858dd60b21b60648201526084015b60405180910390fd5b60405163095ea7b360e01b81526001600160a01b038281166004830152602482018490527f0000000000000000000000000000000000000000000000000000000000000000169063095ea7b3906044016020604051808303816000875af115801561053a573d6000803e3d6000fd5b505050506040513d601f19601f8201168201806040525081019061055e9190610cf6565b6105b65760405162461bcd60e51b815260206004820152602360248201527f436f756c64206e6f7420617070726f7665207661756c7420474750206465706f6044820152621cda5d60ea1b60648201526084016104c2565b604051631e88852b60e31b81526060600482015260076064820152665374616b696e6760c81b60848201526001600160a01b037f0000000000000000000000000000000000000000000000000000000000000000811660248301526044820184905282169063f44429589060a401600060405180830381600087803b15801561063e57600080fd5b505af1158015610652573d6000803e3d6000fd5b5050505061065f8261092b565b6106693383610958565b610673334261098c565b6040805183815242602082015233917f67ab2b1c624dd0180907e076b47704de327205d1d9776c4cc57c38d403f1537e910160405180910390a25050565b60006106e2826040516020016106c79190610d18565b604051602081830303815290604052805190602001206109bc565b92915050565b60006107137f5bdc63139bd8ae737418a383d66cd3a9a541875ea444828939a46705c273b6226109bc565b905090565b60008061072f836040516020016103509190610d54565b90506001600160a01b0381166106e25760405162461bcd60e51b815260206004820152601260248201527110dbdb9d1c9858dd081b9bdd08199bdd5b9960721b60448201526064016104c2565b60006106e2826040516020016106c79190610d79565b600061036b83836040516020016106c7929190610ce4565b6000806107dd6040518060400160405280600f81526020016e26b4b734b837b7b626b0b730b3b2b960891b815250610718565b9050806001600160a01b031663f7dadb056040518163ffffffff1660e01b8152600401602060405180830381865afa15801561081d573d6000803e3d6000fd5b505050506040513d601f19601f820116820180604052508101906108419190610c6e565b91505090565b600080546040516321f8a72160e01b8152600481018490526101009091046001600160a01b0316906321f8a72190602401602060405180830381865afa158015610895573d6000803e3d6000fd5b505050506040513d601f19601f820116820180604052508101906106e29190610db3565b60008054604051633d70e7e560e11b8152600481018490526101009091046001600160a01b031690637ae1cfca90602401602060405180830381865afa158015610907573d6000803e3d6000fd5b505050506040513d601f19601f820116820180604052508101906106e29190610cf6565b6109557f5bdc63139bd8ae737418a383d66cd3a9a541875ea444828939a46705c273b62282610a2e565b50565b6109888260405160200161096c9190610d18565b6040516020818303038152906040528051906020012082610a2e565b5050565b610988826040516020016109a09190610d79565b6040516020818303038152906040528051906020012082610a9c565b6000805460405163bd02d0f560e01b8152600481018490526101009091046001600160a01b03169063bd02d0f590602401602060405180830381865afa158015610a0a573d6000803e3d6000fd5b505050506040513d601f19601f820116820180604052508101906106e29190610c6e565b600054604051632b6cd4f760e21b815260048101849052602481018390526101009091046001600160a01b03169063adb353dc906044015b600060405180830381600087803b158015610a8057600080fd5b505af1158015610a94573d6000803e3d6000fd5b505050505050565b600054604051637152429d60e11b815260048101849052602481018390526101009091046001600160a01b03169063e2a4853a90604401610a66565b6001600160a01b038116811461095557600080fd5b600060208284031215610aff57600080fd5b813561036b81610ad8565b634e487b7160e01b600052604160045260246000fd5b600082601f830112610b3157600080fd5b813567ffffffffffffffff80821115610b4c57610b4c610b0a565b604051601f8301601f19908116603f01168101908282118183101715610b7457610b74610b0a565b81604052838152866020858801011115610b8d57600080fd5b836020870160208301376000602085830101528094505050505092915050565b60008060408385031215610bc057600080fd5b82359150602083013567ffffffffffffffff811115610bde57600080fd5b610bea85828601610b20565b9150509250929050565b600060208284031215610c0657600080fd5b5035919050565b600060208284031215610c1f57600080fd5b813567ffffffffffffffff811115610c3657600080fd5b610c4284828501610b20565b949350505050565b60008060408385031215610c5d57600080fd5b505080516020909101519092909150565b600060208284031215610c8057600080fd5b5051919050565b600082610ca457634e487b7160e01b600052601260045260246000fd5b500490565b6000815160005b81811015610cca5760208185018101518683015201610cb0565b81811115610cd9576000828601525b509290920192915050565b8281526000610c426020830184610ca9565b600060208284031215610d0857600080fd5b8151801515811461036b57600080fd5b7519d9dc0b9cdd185ad9590b9b9bd9194b985b5bdd5b9d60521b815260609190911b6bffffffffffffffffffffffff19166016820152602a0190565b6f636f6e74726163742e6164647265737360801b8152600061036b6010830184610ca9565b736767702e7374616b65642e6e6f64652e74696d6560601b815260609190911b6bffffffffffffffffffffffff1916601482015260280190565b600060208284031215610dc557600080fd5b815161036b81610ad856fea26469706673582212207ad79bae4626fcd00dc18f460aa0256a71e3d769269d7056dc4d03b7286c367364736f6c634300080d0033",
  "linkReferences": {},
  "deployedLinkReferences": {}
}