{
  "_format": "hh-sol-artifact-1",
  "contractName": "TokenGGP",
  "sourceName": "contracts/contract/tokens/TokenGGP.sol",
  "abi": [
    {
      "inputs": [
        {
          "internalType": "contract Storage",
          "name": "storageAddress",
          "type": "address"
        }
      ],
      "stateMutability": "nonpayable",
      "type": "constructor"
    },
    {
      "anonymous": false,
      "inputs": [
        {
          "indexed": true,
          "internalType": "address",
          "name": "owner",
          "type": "address"
        },
        {
          "indexed": true,
          "internalType": "address",
          "name": "spender",
          "type": "address"
        },
        {
          "indexed": false,
          "internalType": "uint256",
          "name": "amount",
          "type": "uint256"
        }
      ],
      "name": "Approval",
      "type": "event"
    },
    {
      "anonymous": false,
      "inputs": [
        {
          "indexed": true,
          "internalType": "address",
          "name": "from",
          "type": "address"
        },
        {
          "indexed": false,
          "internalType": "uint256",
          "name": "amount",
          "type": "uint256"
        },
        {
          "indexed": false,
          "internalType": "uint256",
          "name": "time",
          "type": "uint256"
        }
      ],
      "name": "GGPFixedSupplyBurn",
      "type": "event"
    },
    {
      "anonymous": false,
      "inputs": [
        {
          "indexed": false,
          "internalType": "address",
          "name": "sender",
          "type": "address"
        },
        {
          "indexed": false,
          "internalType": "uint256",
          "name": "value",
          "type": "uint256"
        },
        {
          "indexed": false,
          "internalType": "uint256",
          "name": "inflationCalcTime",
          "type": "uint256"
        }
      ],
      "name": "GGPInflationLog",
      "type": "event"
    },
    {
      "anonymous": false,
      "inputs": [
        {
          "indexed": false,
          "internalType": "address",
          "name": "_minter",
          "type": "address"
        },
        {
          "indexed": false,
          "internalType": "address",
          "name": "_address",
          "type": "address"
        },
        {
          "indexed": false,
          "internalType": "uint256",
          "name": "_value",
          "type": "uint256"
        }
      ],
      "name": "MintGGPToken",
      "type": "event"
    },
    {
      "anonymous": false,
      "inputs": [
        {
          "indexed": true,
          "internalType": "address",
          "name": "from",
          "type": "address"
        },
        {
          "indexed": true,
          "internalType": "address",
          "name": "to",
          "type": "address"
        },
        {
          "indexed": false,
          "internalType": "uint256",
          "name": "amount",
          "type": "uint256"
        }
      ],
      "name": "Transfer",
      "type": "event"
    },
    {
      "inputs": [],
      "name": "DOMAIN_SEPARATOR",
      "outputs": [
        {
          "internalType": "bytes32",
          "name": "",
          "type": "bytes32"
        }
      ],
      "stateMutability": "view",
      "type": "function"
    },
    {
      "inputs": [
        {
          "internalType": "address",
          "name": "",
          "type": "address"
        },
        {
          "internalType": "address",
          "name": "",
          "type": "address"
        }
      ],
      "name": "allowance",
      "outputs": [
        {
          "internalType": "uint256",
          "name": "",
          "type": "uint256"
        }
      ],
      "stateMutability": "view",
      "type": "function"
    },
    {
      "inputs": [
        {
          "internalType": "address",
          "name": "spender",
          "type": "address"
        },
        {
          "internalType": "uint256",
          "name": "amount",
          "type": "uint256"
        }
      ],
      "name": "approve",
      "outputs": [
        {
          "internalType": "bool",
          "name": "",
          "type": "bool"
        }
      ],
      "stateMutability": "nonpayable",
      "type": "function"
    },
    {
      "inputs": [
        {
          "internalType": "address",
          "name": "",
          "type": "address"
        }
      ],
      "name": "balanceOf",
      "outputs": [
        {
          "internalType": "uint256",
          "name": "",
          "type": "uint256"
        }
      ],
      "stateMutability": "view",
      "type": "function"
    },
    {
      "inputs": [
        {
          "internalType": "uint256",
          "name": "amount",
          "type": "uint256"
        }
      ],
      "name": "burn",
      "outputs": [],
      "stateMutability": "nonpayable",
      "type": "function"
    },
    {
      "inputs": [],
      "name": "decimals",
      "outputs": [
        {
          "internalType": "uint8",
          "name": "",
          "type": "uint8"
        }
      ],
      "stateMutability": "view",
      "type": "function"
    },
    {
      "inputs": [],
      "name": "getInflationCalcTime",
      "outputs": [
        {
          "internalType": "uint256",
          "name": "",
          "type": "uint256"
        }
      ],
      "stateMutability": "view",
      "type": "function"
    },
    {
      "inputs": [],
      "name": "getInflationIntervalRate",
      "outputs": [
        {
          "internalType": "uint256",
          "name": "",
          "type": "uint256"
        }
      ],
      "stateMutability": "view",
      "type": "function"
    },
    {
      "inputs": [],
      "name": "getInflationIntervalStartTime",
      "outputs": [
        {
          "internalType": "uint256",
          "name": "",
          "type": "uint256"
        }
      ],
      "stateMutability": "view",
      "type": "function"
    },
    {
      "inputs": [],
      "name": "getInflationIntervalTime",
      "outputs": [
        {
          "internalType": "uint256",
          "name": "",
          "type": "uint256"
        }
      ],
      "stateMutability": "pure",
      "type": "function"
    },
    {
      "inputs": [],
      "name": "getInflationIntervalsPassed",
      "outputs": [
        {
          "internalType": "uint256",
          "name": "",
          "type": "uint256"
        }
      ],
      "stateMutability": "view",
      "type": "function"
    },
    {
      "inputs": [],
      "name": "getInflationRewardsContractAddress",
      "outputs": [
        {
          "internalType": "address",
          "name": "",
          "type": "address"
        }
      ],
      "stateMutability": "view",
      "type": "function"
    },
    {
      "inputs": [
        {
          "internalType": "string",
          "name": "_contractName",
          "type": "string"
        }
      ],
      "name": "getPublicContractAddress",
      "outputs": [
        {
          "internalType": "address",
          "name": "",
          "type": "address"
        }
      ],
      "stateMutability": "view",
      "type": "function"
    },
    {
      "inputs": [
        {
          "internalType": "bytes32",
          "name": "settingNameSpace",
          "type": "bytes32"
        },
        {
          "internalType": "string",
          "name": "_settingPath",
          "type": "string"
        }
      ],
      "name": "getSettingAddress",
      "outputs": [
        {
          "internalType": "address",
          "name": "",
          "type": "address"
        }
      ],
      "stateMutability": "view",
      "type": "function"
    },
    {
      "inputs": [
        {
          "internalType": "bytes32",
          "name": "settingNameSpace",
          "type": "bytes32"
        },
        {
          "internalType": "string",
          "name": "_settingPath",
          "type": "string"
        }
      ],
      "name": "getSettingBool",
      "outputs": [
        {
          "internalType": "bool",
          "name": "",
          "type": "bool"
        }
      ],
      "stateMutability": "view",
      "type": "function"
    },
    {
      "inputs": [
        {
          "internalType": "bytes32",
          "name": "settingNameSpace",
          "type": "bytes32"
        },
        {
          "internalType": "string",
          "name": "_settingPath",
          "type": "string"
        }
      ],
      "name": "getSettingUint",
      "outputs": [
        {
          "internalType": "uint256",
          "name": "",
          "type": "uint256"
        }
      ],
      "stateMutability": "view",
      "type": "function"
    },
    {
      "inputs": [],
      "name": "inflationCalculate",
      "outputs": [
        {
          "internalType": "uint256",
          "name": "",
          "type": "uint256"
        }
      ],
      "stateMutability": "view",
      "type": "function"
    },
    {
      "inputs": [],
      "name": "inflationMintTokens",
      "outputs": [
        {
          "internalType": "uint256",
          "name": "",
          "type": "uint256"
        }
      ],
      "stateMutability": "nonpayable",
      "type": "function"
    },
    {
      "inputs": [],
      "name": "name",
      "outputs": [
        {
          "internalType": "string",
          "name": "",
          "type": "string"
        }
      ],
      "stateMutability": "view",
      "type": "function"
    },
    {
      "inputs": [
        {
          "internalType": "address",
          "name": "",
          "type": "address"
        }
      ],
      "name": "nonces",
      "outputs": [
        {
          "internalType": "uint256",
          "name": "",
          "type": "uint256"
        }
      ],
      "stateMutability": "view",
      "type": "function"
    },
    {
      "inputs": [
        {
          "internalType": "address",
          "name": "owner",
          "type": "address"
        },
        {
          "internalType": "address",
          "name": "spender",
          "type": "address"
        },
        {
          "internalType": "uint256",
          "name": "value",
          "type": "uint256"
        },
        {
          "internalType": "uint256",
          "name": "deadline",
          "type": "uint256"
        },
        {
          "internalType": "uint8",
          "name": "v",
          "type": "uint8"
        },
        {
          "internalType": "bytes32",
          "name": "r",
          "type": "bytes32"
        },
        {
          "internalType": "bytes32",
          "name": "s",
          "type": "bytes32"
        }
      ],
      "name": "permit",
      "outputs": [],
      "stateMutability": "nonpayable",
      "type": "function"
    },
    {
      "inputs": [],
      "name": "symbol",
      "outputs": [
        {
          "internalType": "string",
          "name": "",
          "type": "string"
        }
      ],
      "stateMutability": "view",
      "type": "function"
    },
    {
      "inputs": [],
      "name": "totalSupply",
      "outputs": [
        {
          "internalType": "uint256",
          "name": "",
          "type": "uint256"
        }
      ],
      "stateMutability": "view",
      "type": "function"
    },
    {
      "inputs": [
        {
          "internalType": "address",
          "name": "to",
          "type": "address"
        },
        {
          "internalType": "uint256",
          "name": "amount",
          "type": "uint256"
        }
      ],
      "name": "transfer",
      "outputs": [
        {
          "internalType": "bool",
          "name": "",
          "type": "bool"
        }
      ],
      "stateMutability": "nonpayable",
      "type": "function"
    },
    {
      "inputs": [
        {
          "internalType": "address",
          "name": "from",
          "type": "address"
        },
        {
          "internalType": "address",
          "name": "to",
          "type": "address"
        },
        {
          "internalType": "uint256",
          "name": "amount",
          "type": "uint256"
        }
      ],
      "name": "transferFrom",
      "outputs": [
        {
          "internalType": "bool",
          "name": "",
          "type": "bool"
        }
      ],
      "stateMutability": "nonpayable",
      "type": "function"
    },
    {
      "inputs": [],
      "name": "version",
      "outputs": [
        {
          "internalType": "uint8",
          "name": "",
          "type": "uint8"
        }
      ],
      "stateMutability": "view",
      "type": "function"
    }
  ],
  "bytecode": "0x60e060405260006007553480156200001657600080fd5b50604051620030733803806200307383398181016040528101906200003c91906200044c565b6040518060400160405280601181526020017f476f476f506f6f6c2050726f746f636f6c0000000000000000000000000000008152506040518060400160405280600381526020017f474750000000000000000000000000000000000000000000000000000000000081525060128380600060016101000a81548173ffffffffffffffffffffffffffffffffffffffff021916908373ffffffffffffffffffffffffffffffffffffffff160217905550508260019080519060200190620001059291906200031e565b5081600290805190602001906200011e9291906200031e565b508060ff1660808160ff16815250504660a0818152505062000145620001ba60201b60201c565b60c0818152505050505060016000806101000a81548160ff021916908360ff1602179055506040516020016200017b9062000529565b60405160208183030381529060405280519060200120600881905550620001b33369d3c21bcecceda10000006200024a60201b60201c565b50620007c2565b60007f8b73c3c69bb8fe3d512ecc4cf759cc79239f7b179b0ffacaa9a75d522b39400f6001604051620001ee91906200065c565b60405180910390207fc89efdaa54c0f20c7adf612882df0950f5a951637e0307cdcb4c672f298b8bc646306040516020016200022f959493929190620006bc565b60405160208183030381529060405280519060200120905090565b80600360008282546200025e919062000748565b9250508190555080600460008473ffffffffffffffffffffffffffffffffffffffff1673ffffffffffffffffffffffffffffffffffffffff168152602001908152602001600020600082825401925050819055508173ffffffffffffffffffffffffffffffffffffffff16600073ffffffffffffffffffffffffffffffffffffffff167fddf252ad1be2c89b69c2b068fc378daa952ba7f163c4a11628f55a4df523b3ef83604051620003129190620007a5565b60405180910390a35050565b8280546200032c906200057c565b90600052602060002090601f0160209004810192826200035057600085556200039c565b82601f106200036b57805160ff19168380011785556200039c565b828001600101855582156200039c579182015b828111156200039b5782518255916020019190600101906200037e565b5b509050620003ab9190620003af565b5090565b5b80821115620003ca576000816000905550600101620003b0565b5090565b600080fd5b600073ffffffffffffffffffffffffffffffffffffffff82169050919050565b60006200040082620003d3565b9050919050565b60006200041482620003f3565b9050919050565b620004268162000407565b81146200043257600080fd5b50565b60008151905062000446816200041b565b92915050565b600060208284031215620004655762000464620003ce565b5b6000620004758482850162000435565b91505092915050565b600081905092915050565b7f64616f2e70726f746f636f6c2e73657474696e672e0000000000000000000000600082015250565b6000620004c16015836200047e565b9150620004ce8262000489565b601582019050919050565b7f64616f2e70726f746f636f6c2e00000000000000000000000000000000000000600082015250565b600062000511600d836200047e565b91506200051e82620004d9565b600d82019050919050565b60006200053682620004b2565b9150620005438262000502565b9150819050919050565b7f4e487b7100000000000000000000000000000000000000000000000000000000600052602260045260246000fd5b600060028204905060018216806200059557607f821691505b602082108103620005ab57620005aa6200054d565b5b50919050565b600081905092915050565b60008190508160005260206000209050919050565b60008154620005e0816200057c565b620005ec8186620005b1565b945060018216600081146200060a57600181146200061c5762000653565b60ff1983168652818601935062000653565b6200062785620005bc565b60005b838110156200064b578154818901526001820191506020810190506200062a565b838801955050505b50505092915050565b60006200066a8284620005d1565b915081905092915050565b6000819050919050565b6200068a8162000675565b82525050565b6000819050919050565b620006a58162000690565b82525050565b620006b681620003f3565b82525050565b600060a082019050620006d360008301886200067f565b620006e260208301876200067f565b620006f160408301866200067f565b6200070060608301856200069a565b6200070f6080830184620006ab565b9695505050505050565b7f4e487b7100000000000000000000000000000000000000000000000000000000600052601160045260246000fd5b6000620007558262000690565b9150620007628362000690565b9250827fffffffffffffffffffffffffffffffffffffffffffffffffffffffffffffffff038211156200079a576200079962000719565b5b828201905092915050565b6000602082019050620007bc60008301846200069a565b92915050565b60805160a05160c051612881620007f26000396000610c1301526000610bdf01526000610bb901526128816000f3fe608060405234801561001057600080fd5b506004361061018e5760003560e01c806370a08231116100de578063c1a2600611610097578063d505accf11610071578063d505accf146104b5578063dd62ed3e146104d1578063ee96d77414610501578063f4d70e781461051f5761018e565b8063c1a2600614610449578063c32c367a14610467578063cff0b648146104855761018e565b806370a082311461035f5780637ecebe001461038f5780637f79e64a146103bf57806395d89b41146103dd578063a9059cbb146103fb578063b933c49e1461042b5761018e565b8063232de7161161014b5780633644e515116101255780633644e515146102e957806342966c681461030757806354fd4d501461032357806363657510146103415761018e565b8063232de7161461026b57806323b872dd1461029b578063313ce567146102cb5761018e565b80630534f6db1461019357806306eaa68b146101b157806306fdde03146101e157806308824003146101ff578063095ea7b31461021d57806318160ddd1461024d575b600080fd5b61019b61054f565b6040516101a89190611920565b60405180910390f35b6101cb60048036038101906101c69190611acb565b610597565b6040516101d89190611b68565b60405180910390f35b6101e96105d2565b6040516101f69190611c0b565b60405180910390f35b610207610660565b6040516102149190611920565b60405180910390f35b61023760048036038101906102329190611c85565b61083a565b6040516102449190611ce0565b60405180910390f35b61025561092c565b6040516102629190611920565b60405180910390f35b61028560048036038101906102809190611acb565b610932565b6040516102929190611ce0565b60405180910390f35b6102b560048036038101906102b09190611cfb565b61096d565b6040516102c29190611ce0565b60405180910390f35b6102d3610bb7565b6040516102e09190611d6a565b60405180910390f35b6102f1610bdb565b6040516102fe9190611d94565b60405180910390f35b610321600480360381019061031c9190611daf565b610c38565b005b61032b610c45565b6040516103389190611d6a565b60405180910390f35b610349610c56565b6040516103569190611920565b60405180910390f35b61037960048036038101906103749190611ddc565b610c61565b6040516103869190611920565b60405180910390f35b6103a960048036038101906103a49190611ddc565b610c79565b6040516103b69190611920565b60405180910390f35b6103c7610c91565b6040516103d49190611920565b60405180910390f35b6103e5610ca0565b6040516103f29190611c0b565b60405180910390f35b61041560048036038101906104109190611c85565b610d2e565b6040516104229190611ce0565b60405180910390f35b610433610e42565b6040516104409190611920565b60405180910390f35b610451610e51565b60405161045e9190611920565b60405180910390f35b61046f610e68565b60405161047c9190611b68565b60405180910390f35b61049f600480360381019061049a9190611e09565b610ead565b6040516104ac9190611b68565b60405180910390f35b6104cf60048036038101906104ca9190611e7e565b610f59565b005b6104eb60048036038101906104e69190611f20565b611252565b6040516104f89190611920565b60405180910390f35b610509611277565b6040516105169190611920565b60405180910390f35b61053960048036038101906105349190611acb565b6112bf565b6040516105469190611920565b60405180910390f35b60006105926008546040518060400160405280601c81526020017f6767702e696e666c6174696f6e2e696e74657276616c2e7374617274000000008152506112bf565b905090565b60006105ca83836040516020016105af929190611fbd565b604051602081830303815290604052805190602001206112fa565b905092915050565b600180546105df90612014565b80601f016020809104026020016040519081016040528092919081815260200182805461060b90612014565b80156106585780601f1061062d57610100808354040283529160200191610658565b820191906000526020600020905b81548152906001019060200180831161063b57829003601f168201915b505050505081565b60008061066b61139e565b90506000610678826113d0565b90506000810361068d57600092505050610837565b60006106cd6040518060400160405280600581526020017f5661756c74000000000000000000000000000000000000000000000000000000815250611405565b9050600073ffffffffffffffffffffffffffffffffffffffff168173ffffffffffffffffffffffffffffffffffffffff160361073e576040517f08c379a000000000000000000000000000000000000000000000000000000000815260040161073590612091565b60405180910390fd5b6000819050600061074e846114b1565b905083620151808661076091906120e0565b61076a9190612136565b60078190555060008111156107f1576107833082611577565b8173ffffffffffffffffffffffffffffffffffffffff1663f444295830836040518363ffffffff1660e01b81526004016107be92919061223b565b600060405180830381600087803b1580156107d857600080fd5b505af11580156107ec573d6000803e3d6000fd5b505050505b7f5fdac2d68dba8699193bd645ebe5fa18d2ae4f94c71b9cc5cc66d49b69731eec338260075460405161082693929190612277565b60405180910390a180955050505050505b90565b600081600560003373ffffffffffffffffffffffffffffffffffffffff1673ffffffffffffffffffffffffffffffffffffffff16815260200190815260200160002060008573ffffffffffffffffffffffffffffffffffffffff1673ffffffffffffffffffffffffffffffffffffffff168152602001908152602001600020819055508273ffffffffffffffffffffffffffffffffffffffff163373ffffffffffffffffffffffffffffffffffffffff167f8c5be1e5ebec7d5bd14f71427d1e84f3dd0314c0f7b2291e5b200ac8c7c3b9258460405161091a9190611920565b60405180910390a36001905092915050565b60035481565b6000610965838360405160200161094a929190611fbd565b60405160208183030381529060405280519060200120611647565b905092915050565b600080600560008673ffffffffffffffffffffffffffffffffffffffff1673ffffffffffffffffffffffffffffffffffffffff16815260200190815260200160002060003373ffffffffffffffffffffffffffffffffffffffff1673ffffffffffffffffffffffffffffffffffffffff1681526020019081526020016000205490507fffffffffffffffffffffffffffffffffffffffffffffffffffffffffffffffff8114610aa3578281610a2291906122ae565b600560008773ffffffffffffffffffffffffffffffffffffffff1673ffffffffffffffffffffffffffffffffffffffff16815260200190815260200160002060003373ffffffffffffffffffffffffffffffffffffffff1673ffffffffffffffffffffffffffffffffffffffff168152602001908152602001600020819055505b82600460008773ffffffffffffffffffffffffffffffffffffffff1673ffffffffffffffffffffffffffffffffffffffff1681526020019081526020016000206000828254610af291906122ae565b9250508190555082600460008673ffffffffffffffffffffffffffffffffffffffff1673ffffffffffffffffffffffffffffffffffffffff168152602001908152602001600020600082825401925050819055508373ffffffffffffffffffffffffffffffffffffffff168573ffffffffffffffffffffffffffffffffffffffff167fddf252ad1be2c89b69c2b068fc378daa952ba7f163c4a11628f55a4df523b3ef85604051610ba39190611920565b60405180910390a360019150509392505050565b7f000000000000000000000000000000000000000000000000000000000000000081565b60007f00000000000000000000000000000000000000000000000000000000000000004614610c1157610c0c6116eb565b610c33565b7f00000000000000000000000000000000000000000000000000000000000000005b905090565b610c423382611777565b50565b60008054906101000a900460ff1681565b600062015180905090565b60046020528060005260406000206000915090505481565b60066020528060005260406000206000915090505481565b6000610c9b61139e565b905090565b60028054610cad90612014565b80601f0160208091040260200160405190810160405280929190818152602001828054610cd990612014565b8015610d265780601f10610cfb57610100808354040283529160200191610d26565b820191906000526020600020905b815481529060010190602001808311610d0957829003601f168201915b505050505081565b600081600460003373ffffffffffffffffffffffffffffffffffffffff1673ffffffffffffffffffffffffffffffffffffffff1681526020019081526020016000206000828254610d7f91906122ae565b9250508190555081600460008573ffffffffffffffffffffffffffffffffffffffff1673ffffffffffffffffffffffffffffffffffffffff168152602001908152602001600020600082825401925050819055508273ffffffffffffffffffffffffffffffffffffffff163373ffffffffffffffffffffffffffffffffffffffff167fddf252ad1be2c89b69c2b068fc378daa952ba7f163c4a11628f55a4df523b3ef84604051610e309190611920565b60405180910390a36001905092915050565b6000610e4c611847565b905090565b6000610e63610e5e611847565b6114b1565b905090565b6000610ea86040518060400160405280600781526020017f7265776172647300000000000000000000000000000000000000000000000000815250611405565b905090565b600080610edf83604051602001610ec4919061232e565b604051602081830303815290604052805190602001206112fa565b9050600073ffffffffffffffffffffffffffffffffffffffff168173ffffffffffffffffffffffffffffffffffffffff1603610f50576040517f08c379a0000000000000000000000000000000000000000000000000000000008152600401610f479061239c565b60405180910390fd5b80915050919050565b42841015610f9c576040517f08c379a0000000000000000000000000000000000000000000000000000000008152600401610f9390612408565b60405180910390fd5b60006001610fa8610bdb565b7f6e71edae12b1b97f4d1f60370fef10105fa2faae0126114a169c64845d6126c98a8a8a600660008f73ffffffffffffffffffffffffffffffffffffffff1673ffffffffffffffffffffffffffffffffffffffff1681526020019081526020016000206000815480929190600101919050558b60405160200161103096959493929190612428565b604051602081830303815290604052805190602001206040516020016110579291906124d5565b604051602081830303815290604052805190602001208585856040516000815260200160405260405161108d949392919061250c565b6020604051602081039080840390855afa1580156110af573d6000803e3d6000fd5b505050602060405103519050600073ffffffffffffffffffffffffffffffffffffffff168173ffffffffffffffffffffffffffffffffffffffff161415801561112357508773ffffffffffffffffffffffffffffffffffffffff168173ffffffffffffffffffffffffffffffffffffffff16145b611162576040517f08c379a00000000000000000000000000000000000000000000000000000000081526004016111599061259d565b60405180910390fd5b85600560008373ffffffffffffffffffffffffffffffffffffffff1673ffffffffffffffffffffffffffffffffffffffff16815260200190815260200160002060008973ffffffffffffffffffffffffffffffffffffffff1673ffffffffffffffffffffffffffffffffffffffff16815260200190815260200160002081905550508573ffffffffffffffffffffffffffffffffffffffff168773ffffffffffffffffffffffffffffffffffffffff167f8c5be1e5ebec7d5bd14f71427d1e84f3dd0314c0f7b2291e5b200ac8c7c3b925876040516112419190611920565b60405180910390a350505050505050565b6005602052816000526040600020602052806000526040600020600091509150505481565b60006112ba6008546040518060400160405280601b81526020017f6767702e696e666c6174696f6e2e696e74657276616c2e7261746500000000008152506112bf565b905090565b60006112f283836040516020016112d7929190611fbd565b60405160208183030381529060405280519060200120611863565b905092915050565b60008060019054906101000a900473ffffffffffffffffffffffffffffffffffffffff1673ffffffffffffffffffffffffffffffffffffffff166321f8a721836040518263ffffffff1660e01b81526004016113569190611d94565b602060405180830381865afa158015611373573d6000803e3d6000fd5b505050506040513d601f19601f8201168201806040525081019061139791906125d2565b9050919050565b6000806113a961054f565b905060006007541480156113bc57504281105b6113c8576007546113ca565b805b91505090565b6000808211156113fb576201518082426113ea91906122ae565b6113f4919061262e565b9050611400565b600090505b919050565b6000806114378360405160200161141c919061232e565b604051602081830303815290604052805190602001206112fa565b9050600073ffffffffffffffffffffffffffffffffffffffff168173ffffffffffffffffffffffffffffffffffffffff16036114a8576040517f08c379a000000000000000000000000000000000000000000000000000000000815260040161149f9061239c565b60405180910390fd5b80915050919050565b60008060009050600083111561156e5760006115046008546040518060400160405280601b81526020017f6767702e696e666c6174696f6e2e696e74657276616c2e7261746500000000008152506112bf565b9050600081111561156c5760006003549050600081905060005b8681101561155a57670de0b6b3a7640000848361153b9190612136565b611545919061262e565b915080806115529061265f565b91505061151e565b50818161156791906122ae565b935050505b505b80915050919050565b806003600082825461158991906120e0565b9250508190555080600460008473ffffffffffffffffffffffffffffffffffffffff1673ffffffffffffffffffffffffffffffffffffffff168152602001908152602001600020600082825401925050819055508173ffffffffffffffffffffffffffffffffffffffff16600073ffffffffffffffffffffffffffffffffffffffff167fddf252ad1be2c89b69c2b068fc378daa952ba7f163c4a11628f55a4df523b3ef8360405161163b9190611920565b60405180910390a35050565b60008060019054906101000a900473ffffffffffffffffffffffffffffffffffffffff1673ffffffffffffffffffffffffffffffffffffffff16637ae1cfca836040518263ffffffff1660e01b81526004016116a39190611d94565b602060405180830381865afa1580156116c0573d6000803e3d6000fd5b505050506040513d601f19601f820116820180604052508101906116e491906126d3565b9050919050565b60007f8b73c3c69bb8fe3d512ecc4cf759cc79239f7b179b0ffacaa9a75d522b39400f600160405161171d919061279f565b60405180910390207fc89efdaa54c0f20c7adf612882df0950f5a951637e0307cdcb4c672f298b8bc6463060405160200161175c9594939291906127b6565b60405160208183030381529060405280519060200120905090565b80600460008473ffffffffffffffffffffffffffffffffffffffff1673ffffffffffffffffffffffffffffffffffffffff16815260200190815260200160002060008282546117c691906122ae565b9250508190555080600360008282540392505081905550600073ffffffffffffffffffffffffffffffffffffffff168273ffffffffffffffffffffffffffffffffffffffff167fddf252ad1be2c89b69c2b068fc378daa952ba7f163c4a11628f55a4df523b3ef8360405161183b9190611920565b60405180910390a35050565b60008061185261139e565b905061185d816113d0565b91505090565b60008060019054906101000a900473ffffffffffffffffffffffffffffffffffffffff1673ffffffffffffffffffffffffffffffffffffffff1663bd02d0f5836040518263ffffffff1660e01b81526004016118bf9190611d94565b602060405180830381865afa1580156118dc573d6000803e3d6000fd5b505050506040513d601f19601f82011682018060405250810190611900919061281e565b9050919050565b6000819050919050565b61191a81611907565b82525050565b60006020820190506119356000830184611911565b92915050565b6000604051905090565b600080fd5b600080fd5b6000819050919050565b6119628161194f565b811461196d57600080fd5b50565b60008135905061197f81611959565b92915050565b600080fd5b600080fd5b6000601f19601f8301169050919050565b7f4e487b7100000000000000000000000000000000000000000000000000000000600052604160045260246000fd5b6119d88261198f565b810181811067ffffffffffffffff821117156119f7576119f66119a0565b5b80604052505050565b6000611a0a61193b565b9050611a1682826119cf565b919050565b600067ffffffffffffffff821115611a3657611a356119a0565b5b611a3f8261198f565b9050602081019050919050565b82818337600083830152505050565b6000611a6e611a6984611a1b565b611a00565b905082815260208101848484011115611a8a57611a8961198a565b5b611a95848285611a4c565b509392505050565b600082601f830112611ab257611ab1611985565b5b8135611ac2848260208601611a5b565b91505092915050565b60008060408385031215611ae257611ae1611945565b5b6000611af085828601611970565b925050602083013567ffffffffffffffff811115611b1157611b1061194a565b5b611b1d85828601611a9d565b9150509250929050565b600073ffffffffffffffffffffffffffffffffffffffff82169050919050565b6000611b5282611b27565b9050919050565b611b6281611b47565b82525050565b6000602082019050611b7d6000830184611b59565b92915050565b600081519050919050565b600082825260208201905092915050565b60005b83811015611bbd578082015181840152602081019050611ba2565b83811115611bcc576000848401525b50505050565b6000611bdd82611b83565b611be78185611b8e565b9350611bf7818560208601611b9f565b611c008161198f565b840191505092915050565b60006020820190508181036000830152611c258184611bd2565b905092915050565b611c3681611b47565b8114611c4157600080fd5b50565b600081359050611c5381611c2d565b92915050565b611c6281611907565b8114611c6d57600080fd5b50565b600081359050611c7f81611c59565b92915050565b60008060408385031215611c9c57611c9b611945565b5b6000611caa85828601611c44565b9250506020611cbb85828601611c70565b9150509250929050565b60008115159050919050565b611cda81611cc5565b82525050565b6000602082019050611cf56000830184611cd1565b92915050565b600080600060608486031215611d1457611d13611945565b5b6000611d2286828701611c44565b9350506020611d3386828701611c44565b9250506040611d4486828701611c70565b9150509250925092565b600060ff82169050919050565b611d6481611d4e565b82525050565b6000602082019050611d7f6000830184611d5b565b92915050565b611d8e8161194f565b82525050565b6000602082019050611da96000830184611d85565b92915050565b600060208284031215611dc557611dc4611945565b5b6000611dd384828501611c70565b91505092915050565b600060208284031215611df257611df1611945565b5b6000611e0084828501611c44565b91505092915050565b600060208284031215611e1f57611e1e611945565b5b600082013567ffffffffffffffff811115611e3d57611e3c61194a565b5b611e4984828501611a9d565b91505092915050565b611e5b81611d4e565b8114611e6657600080fd5b50565b600081359050611e7881611e52565b92915050565b600080600080600080600060e0888a031215611e9d57611e9c611945565b5b6000611eab8a828b01611c44565b9750506020611ebc8a828b01611c44565b9650506040611ecd8a828b01611c70565b9550506060611ede8a828b01611c70565b9450506080611eef8a828b01611e69565b93505060a0611f008a828b01611970565b92505060c0611f118a828b01611970565b91505092959891949750929550565b60008060408385031215611f3757611f36611945565b5b6000611f4585828601611c44565b9250506020611f5685828601611c44565b9150509250929050565b6000819050919050565b611f7b611f768261194f565b611f60565b82525050565b600081905092915050565b6000611f9782611b83565b611fa18185611f81565b9350611fb1818560208601611b9f565b80840191505092915050565b6000611fc98285611f6a565b602082019150611fd98284611f8c565b91508190509392505050565b7f4e487b7100000000000000000000000000000000000000000000000000000000600052602260045260246000fd5b6000600282049050600182168061202c57607f821691505b60208210810361203f5761203e611fe5565b5b50919050565b7f5661756c742061646472657373206e6f74207365740000000000000000000000600082015250565b600061207b601583611b8e565b915061208682612045565b602082019050919050565b600060208201905081810360008301526120aa8161206e565b9050919050565b7f4e487b7100000000000000000000000000000000000000000000000000000000600052601160045260246000fd5b60006120eb82611907565b91506120f683611907565b9250827fffffffffffffffffffffffffffffffffffffffffffffffffffffffffffffffff0382111561212b5761212a6120b1565b5b828201905092915050565b600061214182611907565b915061214c83611907565b9250817fffffffffffffffffffffffffffffffffffffffffffffffffffffffffffffffff0483118215151615612185576121846120b1565b5b828202905092915050565b7f726f636b657452657761726473506f6f6c000000000000000000000000000000600082015250565b60006121c6601183611b8e565b91506121d182612190565b602082019050919050565b6000819050919050565b60006122016121fc6121f784611b27565b6121dc565b611b27565b9050919050565b6000612213826121e6565b9050919050565b600061222582612208565b9050919050565b6122358161221a565b82525050565b60006060820190508181036000830152612254816121b9565b9050612263602083018561222c565b6122706040830184611911565b9392505050565b600060608201905061228c6000830186611b59565b6122996020830185611911565b6122a66040830184611911565b949350505050565b60006122b982611907565b91506122c483611907565b9250828210156122d7576122d66120b1565b5b828203905092915050565b7f636f6e74726163742e6164647265737300000000000000000000000000000000600082015250565b6000612318601083611f81565b9150612323826122e2565b601082019050919050565b60006123398261230b565b91506123458284611f8c565b915081905092915050565b7f436f6e7472616374206e6f7420666f756e640000000000000000000000000000600082015250565b6000612386601283611b8e565b915061239182612350565b602082019050919050565b600060208201905081810360008301526123b581612379565b9050919050565b7f5045524d49545f444541444c494e455f45585049524544000000000000000000600082015250565b60006123f2601783611b8e565b91506123fd826123bc565b602082019050919050565b60006020820190508181036000830152612421816123e5565b9050919050565b600060c08201905061243d6000830189611d85565b61244a6020830188611b59565b6124576040830187611b59565b6124646060830186611911565b6124716080830185611911565b61247e60a0830184611911565b979650505050505050565b7f1901000000000000000000000000000000000000000000000000000000000000600082015250565b60006124bf600283611f81565b91506124ca82612489565b600282019050919050565b60006124e0826124b2565b91506124ec8285611f6a565b6020820191506124fc8284611f6a565b6020820191508190509392505050565b60006080820190506125216000830187611d85565b61252e6020830186611d5b565b61253b6040830185611d85565b6125486060830184611d85565b95945050505050565b7f494e56414c49445f5349474e4552000000000000000000000000000000000000600082015250565b6000612587600e83611b8e565b915061259282612551565b602082019050919050565b600060208201905081810360008301526125b68161257a565b9050919050565b6000815190506125cc81611c2d565b92915050565b6000602082840312156125e8576125e7611945565b5b60006125f6848285016125bd565b91505092915050565b7f4e487b7100000000000000000000000000000000000000000000000000000000600052601260045260246000fd5b600061263982611907565b915061264483611907565b925082612654576126536125ff565b5b828204905092915050565b600061266a82611907565b91507fffffffffffffffffffffffffffffffffffffffffffffffffffffffffffffffff820361269c5761269b6120b1565b5b600182019050919050565b6126b081611cc5565b81146126bb57600080fd5b50565b6000815190506126cd816126a7565b92915050565b6000602082840312156126e9576126e8611945565b5b60006126f7848285016126be565b91505092915050565b600081905092915050565b60008190508160005260206000209050919050565b6000815461272d81612014565b6127378186612700565b94506001821660008114612752576001811461276357612796565b60ff19831686528186019350612796565b61276c8561270b565b60005b8381101561278e5781548189015260018201915060208101905061276f565b838801955050505b50505092915050565b60006127ab8284612720565b915081905092915050565b600060a0820190506127cb6000830188611d85565b6127d86020830187611d85565b6127e56040830186611d85565b6127f26060830185611911565b6127ff6080830184611b59565b9695505050505050565b60008151905061281881611c59565b92915050565b60006020828403121561283457612833611945565b5b600061284284828501612809565b9150509291505056fea2646970667358221220124869b2e98f07dad62a0fd89c347ea365a3267d626566541f3e8bfca3a87dd964736f6c634300080d0033",
  "linkReferences": {},
  "deployedLinkReferences": {}
}