{
  "_format": "hh-sol-artifact-1",
  "contractName": "TokenGGP",
  "sourceName": "contracts/contract/tokens/TokenGGP.sol",
  "abi": [
    {
      "inputs": [
        {
          "internalType": "contract Storage",
          "name": "storageAddress",
          "type": "address"
        }
      ],
      "stateMutability": "nonpayable",
      "type": "constructor"
    },
    {
      "anonymous": false,
      "inputs": [
        {
          "indexed": true,
          "internalType": "address",
          "name": "owner",
          "type": "address"
        },
        {
          "indexed": true,
          "internalType": "address",
          "name": "spender",
          "type": "address"
        },
        {
          "indexed": false,
          "internalType": "uint256",
          "name": "amount",
          "type": "uint256"
        }
      ],
      "name": "Approval",
      "type": "event"
    },
    {
      "anonymous": false,
      "inputs": [
        {
          "indexed": true,
          "internalType": "address",
          "name": "from",
          "type": "address"
        },
        {
          "indexed": false,
          "internalType": "uint256",
          "name": "amount",
          "type": "uint256"
        },
        {
          "indexed": false,
          "internalType": "uint256",
          "name": "time",
          "type": "uint256"
        }
      ],
      "name": "GGPFixedSupplyBurn",
      "type": "event"
    },
    {
      "anonymous": false,
      "inputs": [
        {
          "indexed": false,
          "internalType": "address",
          "name": "sender",
          "type": "address"
        },
        {
          "indexed": false,
          "internalType": "uint256",
          "name": "value",
          "type": "uint256"
        },
        {
          "indexed": false,
          "internalType": "uint256",
          "name": "inflationCalcTime",
          "type": "uint256"
        }
      ],
      "name": "GGPInflationLog",
      "type": "event"
    },
    {
      "anonymous": false,
      "inputs": [
        {
          "indexed": false,
          "internalType": "address",
          "name": "_minter",
          "type": "address"
        },
        {
          "indexed": false,
          "internalType": "address",
          "name": "_address",
          "type": "address"
        },
        {
          "indexed": false,
          "internalType": "uint256",
          "name": "_value",
          "type": "uint256"
        }
      ],
      "name": "MintGGPToken",
      "type": "event"
    },
    {
      "anonymous": false,
      "inputs": [
        {
          "indexed": true,
          "internalType": "address",
          "name": "from",
          "type": "address"
        },
        {
          "indexed": true,
          "internalType": "address",
          "name": "to",
          "type": "address"
        },
        {
          "indexed": false,
          "internalType": "uint256",
          "name": "amount",
          "type": "uint256"
        }
      ],
      "name": "Transfer",
      "type": "event"
    },
    {
      "inputs": [],
      "name": "DOMAIN_SEPARATOR",
      "outputs": [
        {
          "internalType": "bytes32",
          "name": "",
          "type": "bytes32"
        }
      ],
      "stateMutability": "view",
      "type": "function"
    },
    {
      "inputs": [
        {
          "internalType": "address",
          "name": "",
          "type": "address"
        },
        {
          "internalType": "address",
          "name": "",
          "type": "address"
        }
      ],
      "name": "allowance",
      "outputs": [
        {
          "internalType": "uint256",
          "name": "",
          "type": "uint256"
        }
      ],
      "stateMutability": "view",
      "type": "function"
    },
    {
      "inputs": [
        {
          "internalType": "address",
          "name": "spender",
          "type": "address"
        },
        {
          "internalType": "uint256",
          "name": "amount",
          "type": "uint256"
        }
      ],
      "name": "approve",
      "outputs": [
        {
          "internalType": "bool",
          "name": "",
          "type": "bool"
        }
      ],
      "stateMutability": "nonpayable",
      "type": "function"
    },
    {
      "inputs": [
        {
          "internalType": "address",
          "name": "",
          "type": "address"
        }
      ],
      "name": "balanceOf",
      "outputs": [
        {
          "internalType": "uint256",
          "name": "",
          "type": "uint256"
        }
      ],
      "stateMutability": "view",
      "type": "function"
    },
    {
      "inputs": [
        {
          "internalType": "uint256",
          "name": "amount",
          "type": "uint256"
        }
      ],
      "name": "burn",
      "outputs": [],
      "stateMutability": "nonpayable",
      "type": "function"
    },
    {
      "inputs": [],
      "name": "decimals",
      "outputs": [
        {
          "internalType": "uint8",
          "name": "",
          "type": "uint8"
        }
      ],
      "stateMutability": "view",
      "type": "function"
    },
    {
      "inputs": [
        {
          "internalType": "string",
          "name": "_contractName",
          "type": "string"
        }
      ],
      "name": "getPublicContractAddress",
      "outputs": [
        {
          "internalType": "address",
          "name": "",
          "type": "address"
        }
      ],
      "stateMutability": "view",
      "type": "function"
    },
    {
      "inputs": [
        {
          "internalType": "bytes32",
          "name": "settingNameSpace",
          "type": "bytes32"
        },
        {
          "internalType": "string",
          "name": "_settingPath",
          "type": "string"
        }
      ],
      "name": "getSettingAddress",
      "outputs": [
        {
          "internalType": "address",
          "name": "",
          "type": "address"
        }
      ],
      "stateMutability": "view",
      "type": "function"
    },
    {
      "inputs": [
        {
          "internalType": "bytes32",
          "name": "settingNameSpace",
          "type": "bytes32"
        },
        {
          "internalType": "string",
          "name": "_settingPath",
          "type": "string"
        }
      ],
      "name": "getSettingBool",
      "outputs": [
        {
          "internalType": "bool",
          "name": "",
          "type": "bool"
        }
      ],
      "stateMutability": "view",
      "type": "function"
    },
    {
      "inputs": [
        {
          "internalType": "bytes32",
          "name": "settingNameSpace",
          "type": "bytes32"
        },
        {
          "internalType": "string",
          "name": "_settingPath",
          "type": "string"
        }
      ],
      "name": "getSettingUint",
      "outputs": [
        {
          "internalType": "uint256",
          "name": "",
          "type": "uint256"
        }
      ],
      "stateMutability": "view",
      "type": "function"
    },
    {
      "inputs": [],
      "name": "name",
      "outputs": [
        {
          "internalType": "string",
          "name": "",
          "type": "string"
        }
      ],
      "stateMutability": "view",
      "type": "function"
    },
    {
      "inputs": [
        {
          "internalType": "address",
          "name": "",
          "type": "address"
        }
      ],
      "name": "nonces",
      "outputs": [
        {
          "internalType": "uint256",
          "name": "",
          "type": "uint256"
        }
      ],
      "stateMutability": "view",
      "type": "function"
    },
    {
      "inputs": [
        {
          "internalType": "address",
          "name": "owner",
          "type": "address"
        },
        {
          "internalType": "address",
          "name": "spender",
          "type": "address"
        },
        {
          "internalType": "uint256",
          "name": "value",
          "type": "uint256"
        },
        {
          "internalType": "uint256",
          "name": "deadline",
          "type": "uint256"
        },
        {
          "internalType": "uint8",
          "name": "v",
          "type": "uint8"
        },
        {
          "internalType": "bytes32",
          "name": "r",
          "type": "bytes32"
        },
        {
          "internalType": "bytes32",
          "name": "s",
          "type": "bytes32"
        }
      ],
      "name": "permit",
      "outputs": [],
      "stateMutability": "nonpayable",
      "type": "function"
    },
    {
      "inputs": [],
      "name": "symbol",
      "outputs": [
        {
          "internalType": "string",
          "name": "",
          "type": "string"
        }
      ],
      "stateMutability": "view",
      "type": "function"
    },
    {
      "inputs": [],
      "name": "totalSupply",
      "outputs": [
        {
          "internalType": "uint256",
          "name": "",
          "type": "uint256"
        }
      ],
      "stateMutability": "view",
      "type": "function"
    },
    {
      "inputs": [
        {
          "internalType": "address",
          "name": "to",
          "type": "address"
        },
        {
          "internalType": "uint256",
          "name": "amount",
          "type": "uint256"
        }
      ],
      "name": "transfer",
      "outputs": [
        {
          "internalType": "bool",
          "name": "",
          "type": "bool"
        }
      ],
      "stateMutability": "nonpayable",
      "type": "function"
    },
    {
      "inputs": [
        {
          "internalType": "address",
          "name": "from",
          "type": "address"
        },
        {
          "internalType": "address",
          "name": "to",
          "type": "address"
        },
        {
          "internalType": "uint256",
          "name": "amount",
          "type": "uint256"
        }
      ],
      "name": "transferFrom",
      "outputs": [
        {
          "internalType": "bool",
          "name": "",
          "type": "bool"
        }
      ],
      "stateMutability": "nonpayable",
      "type": "function"
    },
    {
      "inputs": [],
      "name": "version",
      "outputs": [
        {
          "internalType": "uint8",
          "name": "",
          "type": "uint8"
        }
      ],
      "stateMutability": "view",
      "type": "function"
    }
  ],
  "bytecode": "0x60e060405260006007553480156200001657600080fd5b50604051620014db380380620014db833981016040819052620000399162000322565b604080518082018252601181527011dbd1dbd41bdbdb08141c9bdd1bd8dbdb607a1b60208083019182528351808501909452600384526204747560ec1b9084015260008054610100600160a81b0319166101006001600160a01b038716021790558151919291601291620000b191600191906200027c565b508151620000c79060029060208501906200027c565b5060ff81166080524660a052620000dd62000173565b60c05250506000805460ff19166001179055506040516200013a906020017f64616f2e70726f746f636f6c2e73657474696e672e000000000000000000000081526c3230b797383937ba37b1b7b61760991b601582015260220190565b60408051601f1981840301815291905280516020909101206008556200016c336a129c8f71ad02e2a68000006200020f565b506200045a565b60007f8b73c3c69bb8fe3d512ecc4cf759cc79239f7b179b0ffacaa9a75d522b39400f6001604051620001a7919062000390565b6040805191829003822060208301939093528101919091527fc89efdaa54c0f20c7adf612882df0950f5a951637e0307cdcb4c672f298b8bc660608201524660808201523060a082015260c00160405160208183030381529060405280519060200120905090565b806003600082825462000223919062000433565b90915550506001600160a01b0382166000818152600460209081526040808320805486019055518481527fddf252ad1be2c89b69c2b068fc378daa952ba7f163c4a11628f55a4df523b3ef910160405180910390a35050565b8280546200028a9062000354565b90600052602060002090601f016020900481019282620002ae5760008555620002f9565b82601f10620002c957805160ff1916838001178555620002f9565b82800160010185558215620002f9579182015b82811115620002f9578251825591602001919060010190620002dc565b50620003079291506200030b565b5090565b5b808211156200030757600081556001016200030c565b6000602082840312156200033557600080fd5b81516001600160a01b03811681146200034d57600080fd5b9392505050565b600181811c908216806200036957607f821691505b6020821081036200038a57634e487b7160e01b600052602260045260246000fd5b50919050565b600080835481600182811c915080831680620003ad57607f831692505b60208084108203620003cd57634e487b7160e01b86526022600452602486fd5b818015620003e45760018114620003f65762000425565b60ff1986168952848901965062000425565b60008a81526020902060005b868110156200041d5781548b82015290850190830162000402565b505084890196505b509498975050505050505050565b600082198211156200045557634e487b7160e01b600052601160045260246000fd5b500190565b60805160a05160c0516110516200048a60003960006105740152600061053f015260006101c501526110516000f3fe608060405234801561001057600080fd5b50600436106101165760003560e01c806354fd4d50116100a2578063a9059cbb11610071578063a9059cbb1461026b578063cff0b6481461027e578063d505accf14610291578063dd62ed3e146102a4578063f4d70e78146102cf57600080fd5b806354fd4d501461021657806370a08231146102235780637ecebe001461024357806395d89b411461026357600080fd5b8063232de716116100e9578063232de7161461019a57806323b872dd146101ad578063313ce567146101c05780633644e515146101f957806342966c681461020157600080fd5b806306eaa68b1461011b57806306fdde031461014b578063095ea7b31461016057806318160ddd14610183575b600080fd5b61012e610129366004610c1c565b6102e2565b6040516001600160a01b0390911681526020015b60405180910390f35b61015361031c565b6040516101429190610c93565b61017361016e366004610cdb565b6103aa565b6040519015158152602001610142565b61018c60035481565b604051908152602001610142565b6101736101a8366004610c1c565b610416565b6101736101bb366004610d07565b610449565b6101e77f000000000000000000000000000000000000000000000000000000000000000081565b60405160ff9091168152602001610142565b61018c61053b565b61021461020f366004610d48565b610596565b005b6000546101e79060ff1681565b61018c610231366004610d61565b60046020526000908152604090205481565b61018c610251366004610d61565b60066020526000908152604090205481565b6101536105a3565b610173610279366004610cdb565b6105b0565b61012e61028c366004610d7e565b610628565b61021461029f366004610dbb565b610697565b61018c6102b2366004610e32565b600560209081526000928352604080842090915290825290205481565b61018c6102dd366004610c1c565b6108db565b600061031583836040516020016102fa929190610e6b565b6040516020818303038152906040528051906020012061090e565b9392505050565b6001805461032990610e91565b80601f016020809104026020016040519081016040528092919081815260200182805461035590610e91565b80156103a25780601f10610377576101008083540402835291602001916103a2565b820191906000526020600020905b81548152906001019060200180831161038557829003601f168201915b505050505081565b3360008181526005602090815260408083206001600160a01b038716808552925280832085905551919290917f8c5be1e5ebec7d5bd14f71427d1e84f3dd0314c0f7b2291e5b200ac8c7c3b925906104059086815260200190565b60405180910390a350600192915050565b6000610315838360405160200161042e929190610e6b565b60405160208183030381529060405280519060200120610980565b6001600160a01b038316600090815260056020908152604080832033845290915281205460001981146104a5576104808382610ecb565b6001600160a01b03861660009081526005602090815260408083203384529091529020555b6001600160a01b038516600090815260046020526040812080548592906104cd908490610ecb565b90915550506001600160a01b03808516600081815260046020526040908190208054870190555190918716907fddf252ad1be2c89b69c2b068fc378daa952ba7f163c4a11628f55a4df523b3ef906105289087815260200190565b60405180910390a3506001949350505050565b60007f000000000000000000000000000000000000000000000000000000000000000046146105715761056c6109f2565b905090565b507f000000000000000000000000000000000000000000000000000000000000000090565b6105a03382610a8c565b50565b6002805461032990610e91565b336000908152600460205260408120805483919083906105d1908490610ecb565b90915550506001600160a01b038316600081815260046020526040908190208054850190555133907fddf252ad1be2c89b69c2b068fc378daa952ba7f163c4a11628f55a4df523b3ef906104059086815260200190565b60008061063f836040516020016102fa9190610ef0565b90506001600160a01b0381166106915760405162461bcd60e51b815260206004820152601260248201527110dbdb9d1c9858dd081b9bdd08199bdd5b9960721b60448201526064015b60405180910390fd5b92915050565b428410156106e75760405162461bcd60e51b815260206004820152601760248201527f5045524d49545f444541444c494e455f455850495245440000000000000000006044820152606401610688565b600060016106f361053b565b6001600160a01b038a811660008181526006602090815260409182902080546001810190915582517f6e71edae12b1b97f4d1f60370fef10105fa2faae0126114a169c64845d6126c98184015280840194909452938d166060840152608083018c905260a083019390935260c08083018b90528151808403909101815260e08301909152805192019190912061190160f01b6101008301526101028201929092526101228101919091526101420160408051601f198184030181528282528051602091820120600084529083018083525260ff871690820152606081018590526080810184905260a0016020604051602081039080840390855afa1580156107ff573d6000803e3d6000fd5b5050604051601f1901519150506001600160a01b038116158015906108355750876001600160a01b0316816001600160a01b0316145b6108725760405162461bcd60e51b815260206004820152600e60248201526d24a72b20a624a22fa9a4a3a722a960911b6044820152606401610688565b6001600160a01b0390811660009081526005602090815260408083208a8516808552908352928190208990555188815291928a16917f8c5be1e5ebec7d5bd14f71427d1e84f3dd0314c0f7b2291e5b200ac8c7c3b925910160405180910390a350505050505050565b600061031583836040516020016108f3929190610e6b565b60405160208183030381529060405280519060200120610b07565b600080546040516321f8a72160e01b8152600481018490526101009091046001600160a01b0316906321f8a72190602401602060405180830381865afa15801561095c573d6000803e3d6000fd5b505050506040513d601f19601f820116820180604052508101906106919190610f28565b60008054604051633d70e7e560e11b8152600481018490526101009091046001600160a01b031690637ae1cfca90602401602060405180830381865afa1580156109ce573d6000803e3d6000fd5b505050506040513d601f19601f820116820180604052508101906106919190610f45565b60007f8b73c3c69bb8fe3d512ecc4cf759cc79239f7b179b0ffacaa9a75d522b39400f6001604051610a249190610f67565b6040805191829003822060208301939093528101919091527fc89efdaa54c0f20c7adf612882df0950f5a951637e0307cdcb4c672f298b8bc660608201524660808201523060a082015260c00160405160208183030381529060405280519060200120905090565b6001600160a01b03821660009081526004602052604081208054839290610ab4908490610ecb565b90915550506003805482900390556040518181526000906001600160a01b038416907fddf252ad1be2c89b69c2b068fc378daa952ba7f163c4a11628f55a4df523b3ef9060200160405180910390a35050565b6000805460405163bd02d0f560e01b8152600481018490526101009091046001600160a01b03169063bd02d0f590602401602060405180830381865afa158015610b55573d6000803e3d6000fd5b505050506040513d601f19601f820116820180604052508101906106919190611002565b634e487b7160e01b600052604160045260246000fd5b600082601f830112610ba057600080fd5b813567ffffffffffffffff80821115610bbb57610bbb610b79565b604051601f8301601f19908116603f01168101908282118183101715610be357610be3610b79565b81604052838152866020858801011115610bfc57600080fd5b836020870160208301376000602085830101528094505050505092915050565b60008060408385031215610c2f57600080fd5b82359150602083013567ffffffffffffffff811115610c4d57600080fd5b610c5985828601610b8f565b9150509250929050565b60005b83811015610c7e578181015183820152602001610c66565b83811115610c8d576000848401525b50505050565b6020815260008251806020840152610cb2816040850160208701610c63565b601f01601f19169190910160400192915050565b6001600160a01b03811681146105a057600080fd5b60008060408385031215610cee57600080fd5b8235610cf981610cc6565b946020939093013593505050565b600080600060608486031215610d1c57600080fd5b8335610d2781610cc6565b92506020840135610d3781610cc6565b929592945050506040919091013590565b600060208284031215610d5a57600080fd5b5035919050565b600060208284031215610d7357600080fd5b813561031581610cc6565b600060208284031215610d9057600080fd5b813567ffffffffffffffff811115610da757600080fd5b610db384828501610b8f565b949350505050565b600080600080600080600060e0888a031215610dd657600080fd5b8735610de181610cc6565b96506020880135610df181610cc6565b95506040880135945060608801359350608088013560ff81168114610e1557600080fd5b9699959850939692959460a0840135945060c09093013592915050565b60008060408385031215610e4557600080fd5b8235610e5081610cc6565b91506020830135610e6081610cc6565b809150509250929050565b82815260008251610e83816020850160208701610c63565b919091016020019392505050565b600181811c90821680610ea557607f821691505b602082108103610ec557634e487b7160e01b600052602260045260246000fd5b50919050565b600082821015610eeb57634e487b7160e01b600052601160045260246000fd5b500390565b6f636f6e74726163742e6164647265737360801b815260008251610f1b816010850160208701610c63565b9190910160100192915050565b600060208284031215610f3a57600080fd5b815161031581610cc6565b600060208284031215610f5757600080fd5b8151801515811461031557600080fd5b600080835481600182811c915080831680610f8357607f831692505b60208084108203610fa257634e487b7160e01b86526022600452602486fd5b818015610fb65760018114610fc757610ff4565b60ff19861689528489019650610ff4565b60008a81526020902060005b86811015610fec5781548b820152908501908301610fd3565b505084890196505b509498975050505050505050565b60006020828403121561101457600080fd5b505191905056fea264697066735822122088f0a8a816b1438f5ff81faeae406de53bd4c66fdd8f0272ecbd0fc570afc21964736f6c634300080d0033",
  "linkReferences": {},
  "deployedLinkReferences": {}
}