{
  "_format": "hh-sol-artifact-1",
  "contractName": "TokenGGP",
  "sourceName": "contracts/contract/tokens/TokenGGP.sol",
  "abi": [
    {
      "inputs": [
        {
          "internalType": "contract Storage",
          "name": "storageAddress",
          "type": "address"
        }
      ],
      "stateMutability": "nonpayable",
      "type": "constructor"
    },
    {
      "anonymous": false,
      "inputs": [
        {
          "indexed": true,
          "internalType": "address",
          "name": "owner",
          "type": "address"
        },
        {
          "indexed": true,
          "internalType": "address",
          "name": "spender",
          "type": "address"
        },
        {
          "indexed": false,
          "internalType": "uint256",
          "name": "amount",
          "type": "uint256"
        }
      ],
      "name": "Approval",
      "type": "event"
    },
    {
      "anonymous": false,
      "inputs": [
        {
          "indexed": true,
          "internalType": "address",
          "name": "from",
          "type": "address"
        },
        {
          "indexed": false,
          "internalType": "uint256",
          "name": "amount",
          "type": "uint256"
        },
        {
          "indexed": false,
          "internalType": "uint256",
          "name": "time",
          "type": "uint256"
        }
      ],
      "name": "GGPFixedSupplyBurn",
      "type": "event"
    },
    {
      "anonymous": false,
      "inputs": [
        {
          "indexed": false,
          "internalType": "address",
          "name": "sender",
          "type": "address"
        },
        {
          "indexed": false,
          "internalType": "uint256",
          "name": "value",
          "type": "uint256"
        },
        {
          "indexed": false,
          "internalType": "uint256",
          "name": "inflationCalcTime",
          "type": "uint256"
        }
      ],
      "name": "GGPInflationLog",
      "type": "event"
    },
    {
      "anonymous": false,
      "inputs": [
        {
          "indexed": false,
          "internalType": "address",
          "name": "_minter",
          "type": "address"
        },
        {
          "indexed": false,
          "internalType": "address",
          "name": "_address",
          "type": "address"
        },
        {
          "indexed": false,
          "internalType": "uint256",
          "name": "_value",
          "type": "uint256"
        }
      ],
      "name": "MintGGPToken",
      "type": "event"
    },
    {
      "anonymous": false,
      "inputs": [
        {
          "indexed": true,
          "internalType": "address",
          "name": "from",
          "type": "address"
        },
        {
          "indexed": true,
          "internalType": "address",
          "name": "to",
          "type": "address"
        },
        {
          "indexed": false,
          "internalType": "uint256",
          "name": "amount",
          "type": "uint256"
        }
      ],
      "name": "Transfer",
      "type": "event"
    },
    {
      "inputs": [],
      "name": "DOMAIN_SEPARATOR",
      "outputs": [
        {
          "internalType": "bytes32",
          "name": "",
          "type": "bytes32"
        }
      ],
      "stateMutability": "view",
      "type": "function"
    },
    {
      "inputs": [
        {
          "internalType": "address",
          "name": "",
          "type": "address"
        },
        {
          "internalType": "address",
          "name": "",
          "type": "address"
        }
      ],
      "name": "allowance",
      "outputs": [
        {
          "internalType": "uint256",
          "name": "",
          "type": "uint256"
        }
      ],
      "stateMutability": "view",
      "type": "function"
    },
    {
      "inputs": [
        {
          "internalType": "address",
          "name": "spender",
          "type": "address"
        },
        {
          "internalType": "uint256",
          "name": "amount",
          "type": "uint256"
        }
      ],
      "name": "approve",
      "outputs": [
        {
          "internalType": "bool",
          "name": "",
          "type": "bool"
        }
      ],
      "stateMutability": "nonpayable",
      "type": "function"
    },
    {
      "inputs": [
        {
          "internalType": "address",
          "name": "",
          "type": "address"
        }
      ],
      "name": "balanceOf",
      "outputs": [
        {
          "internalType": "uint256",
          "name": "",
          "type": "uint256"
        }
      ],
      "stateMutability": "view",
      "type": "function"
    },
    {
      "inputs": [
        {
          "internalType": "uint256",
          "name": "amount",
          "type": "uint256"
        }
      ],
      "name": "burn",
      "outputs": [],
      "stateMutability": "nonpayable",
      "type": "function"
    },
    {
      "inputs": [],
      "name": "decimals",
      "outputs": [
        {
          "internalType": "uint8",
          "name": "",
          "type": "uint8"
        }
      ],
      "stateMutability": "view",
      "type": "function"
    },
    {
      "inputs": [],
      "name": "getInflationCalcTime",
      "outputs": [
        {
          "internalType": "uint256",
          "name": "",
          "type": "uint256"
        }
      ],
      "stateMutability": "view",
      "type": "function"
    },
    {
      "inputs": [],
      "name": "getInflationIntervalRate",
      "outputs": [
        {
          "internalType": "uint256",
          "name": "",
          "type": "uint256"
        }
      ],
      "stateMutability": "view",
      "type": "function"
    },
    {
      "inputs": [],
      "name": "getInflationIntervalStartTime",
      "outputs": [
        {
          "internalType": "uint256",
          "name": "",
          "type": "uint256"
        }
      ],
      "stateMutability": "view",
      "type": "function"
    },
    {
      "inputs": [],
      "name": "getInflationIntervalTime",
      "outputs": [
        {
          "internalType": "uint256",
          "name": "",
          "type": "uint256"
        }
      ],
      "stateMutability": "pure",
      "type": "function"
    },
    {
      "inputs": [],
      "name": "getInflationIntervalsPassed",
      "outputs": [
        {
          "internalType": "uint256",
          "name": "",
          "type": "uint256"
        }
      ],
      "stateMutability": "view",
      "type": "function"
    },
    {
      "inputs": [],
      "name": "getInflationRewardsContractAddress",
      "outputs": [
        {
          "internalType": "address",
          "name": "",
          "type": "address"
        }
      ],
      "stateMutability": "view",
      "type": "function"
    },
    {
      "inputs": [
        {
          "internalType": "string",
          "name": "_contractName",
          "type": "string"
        }
      ],
      "name": "getPublicContractAddress",
      "outputs": [
        {
          "internalType": "address",
          "name": "",
          "type": "address"
        }
      ],
      "stateMutability": "view",
      "type": "function"
    },
    {
      "inputs": [
        {
          "internalType": "bytes32",
          "name": "settingNameSpace",
          "type": "bytes32"
        },
        {
          "internalType": "string",
          "name": "_settingPath",
          "type": "string"
        }
      ],
      "name": "getSettingAddress",
      "outputs": [
        {
          "internalType": "address",
          "name": "",
          "type": "address"
        }
      ],
      "stateMutability": "view",
      "type": "function"
    },
    {
      "inputs": [
        {
          "internalType": "bytes32",
          "name": "settingNameSpace",
          "type": "bytes32"
        },
        {
          "internalType": "string",
          "name": "_settingPath",
          "type": "string"
        }
      ],
      "name": "getSettingBool",
      "outputs": [
        {
          "internalType": "bool",
          "name": "",
          "type": "bool"
        }
      ],
      "stateMutability": "view",
      "type": "function"
    },
    {
      "inputs": [
        {
          "internalType": "bytes32",
          "name": "settingNameSpace",
          "type": "bytes32"
        },
        {
          "internalType": "string",
          "name": "_settingPath",
          "type": "string"
        }
      ],
      "name": "getSettingUint",
      "outputs": [
        {
          "internalType": "uint256",
          "name": "",
          "type": "uint256"
        }
      ],
      "stateMutability": "view",
      "type": "function"
    },
    {
      "inputs": [],
      "name": "inflationCalculate",
      "outputs": [
        {
          "internalType": "uint256",
          "name": "",
          "type": "uint256"
        }
      ],
      "stateMutability": "view",
      "type": "function"
    },
    {
      "inputs": [],
      "name": "inflationMintTokens",
      "outputs": [
        {
          "internalType": "uint256",
          "name": "",
          "type": "uint256"
        }
      ],
      "stateMutability": "nonpayable",
      "type": "function"
    },
    {
      "inputs": [],
      "name": "name",
      "outputs": [
        {
          "internalType": "string",
          "name": "",
          "type": "string"
        }
      ],
      "stateMutability": "view",
      "type": "function"
    },
    {
      "inputs": [
        {
          "internalType": "address",
          "name": "",
          "type": "address"
        }
      ],
      "name": "nonces",
      "outputs": [
        {
          "internalType": "uint256",
          "name": "",
          "type": "uint256"
        }
      ],
      "stateMutability": "view",
      "type": "function"
    },
    {
      "inputs": [
        {
          "internalType": "address",
          "name": "owner",
          "type": "address"
        },
        {
          "internalType": "address",
          "name": "spender",
          "type": "address"
        },
        {
          "internalType": "uint256",
          "name": "value",
          "type": "uint256"
        },
        {
          "internalType": "uint256",
          "name": "deadline",
          "type": "uint256"
        },
        {
          "internalType": "uint8",
          "name": "v",
          "type": "uint8"
        },
        {
          "internalType": "bytes32",
          "name": "r",
          "type": "bytes32"
        },
        {
          "internalType": "bytes32",
          "name": "s",
          "type": "bytes32"
        }
      ],
      "name": "permit",
      "outputs": [],
      "stateMutability": "nonpayable",
      "type": "function"
    },
    {
      "inputs": [],
      "name": "symbol",
      "outputs": [
        {
          "internalType": "string",
          "name": "",
          "type": "string"
        }
      ],
      "stateMutability": "view",
      "type": "function"
    },
    {
      "inputs": [],
      "name": "totalSupply",
      "outputs": [
        {
          "internalType": "uint256",
          "name": "",
          "type": "uint256"
        }
      ],
      "stateMutability": "view",
      "type": "function"
    },
    {
      "inputs": [
        {
          "internalType": "address",
          "name": "to",
          "type": "address"
        },
        {
          "internalType": "uint256",
          "name": "amount",
          "type": "uint256"
        }
      ],
      "name": "transfer",
      "outputs": [
        {
          "internalType": "bool",
          "name": "",
          "type": "bool"
        }
      ],
      "stateMutability": "nonpayable",
      "type": "function"
    },
    {
      "inputs": [
        {
          "internalType": "address",
          "name": "from",
          "type": "address"
        },
        {
          "internalType": "address",
          "name": "to",
          "type": "address"
        },
        {
          "internalType": "uint256",
          "name": "amount",
          "type": "uint256"
        }
      ],
      "name": "transferFrom",
      "outputs": [
        {
          "internalType": "bool",
          "name": "",
          "type": "bool"
        }
      ],
      "stateMutability": "nonpayable",
      "type": "function"
    },
    {
      "inputs": [],
      "name": "version",
      "outputs": [
        {
          "internalType": "uint8",
          "name": "",
          "type": "uint8"
        }
      ],
      "stateMutability": "view",
      "type": "function"
    }
  ],
  "bytecode": "0x60e060405260006007553480156200001657600080fd5b50604051620019e4380380620019e4833981016040819052620000399162000321565b604080518082018252601181527011dbd1dbd41bdbdb08141c9bdd1bd8dbdb607a1b60208083019182528351808501909452600384526204747560ec1b9084015260008054610100600160a81b0319166101006001600160a01b038716021790558151919291601291620000b191600191906200027b565b508151620000c79060029060208501906200027b565b5060ff81166080524660a052620000dd62000172565b60c05250506000805460ff19166001179055506040516200013a906020017f64616f2e70726f746f636f6c2e73657474696e672e000000000000000000000081526c3230b797383937ba37b1b7b61760991b601582015260220190565b60408051601f1981840301815291905280516020909101206008556200016b3369d3c21bcecceda10000006200020e565b5062000459565b60007f8b73c3c69bb8fe3d512ecc4cf759cc79239f7b179b0ffacaa9a75d522b39400f6001604051620001a691906200038f565b6040805191829003822060208301939093528101919091527fc89efdaa54c0f20c7adf612882df0950f5a951637e0307cdcb4c672f298b8bc660608201524660808201523060a082015260c00160405160208183030381529060405280519060200120905090565b806003600082825462000222919062000432565b90915550506001600160a01b0382166000818152600460209081526040808320805486019055518481527fddf252ad1be2c89b69c2b068fc378daa952ba7f163c4a11628f55a4df523b3ef910160405180910390a35050565b828054620002899062000353565b90600052602060002090601f016020900481019282620002ad5760008555620002f8565b82601f10620002c857805160ff1916838001178555620002f8565b82800160010185558215620002f8579182015b82811115620002f8578251825591602001919060010190620002db565b50620003069291506200030a565b5090565b5b808211156200030657600081556001016200030b565b6000602082840312156200033457600080fd5b81516001600160a01b03811681146200034c57600080fd5b9392505050565b600181811c908216806200036857607f821691505b6020821081036200038957634e487b7160e01b600052602260045260246000fd5b50919050565b600080835481600182811c915080831680620003ac57607f831692505b60208084108203620003cc57634e487b7160e01b86526022600452602486fd5b818015620003e35760018114620003f55762000424565b60ff1986168952848901965062000424565b60008a81526020902060005b868110156200041c5781548b82015290850190830162000401565b505084890196505b509498975050505050505050565b600082198211156200045457634e487b7160e01b600052601160045260246000fd5b500190565b60805160a05160c05161155b620004896000396000610814015260006107e40152600061024d015261155b6000f3fe608060405234801561001057600080fd5b506004361061018e5760003560e01c806370a08231116100de578063c1a2600611610097578063d505accf11610071578063d505accf14610342578063dd62ed3e14610355578063ee96d77414610380578063f4d70e781461038857600080fd5b8063c1a260061461031f578063c32c367a14610327578063cff0b6481461032f57600080fd5b806370a08231146102b45780637ecebe00146102d45780637f79e64a146102f457806395d89b41146102fc578063a9059cbb14610304578063b933c49e1461031757600080fd5b8063232de7161161014b5780633644e515116101255780633644e5151461028157806342966c681461028957806354fd4d501461029e57806363657510146102ab57600080fd5b8063232de7161461022257806323b872dd14610235578063313ce5671461024857600080fd5b80630534f6db1461019357806306eaa68b146101ae57806306fdde03146101d957806308824003146101ee578063095ea7b3146101f657806318160ddd14610219575b600080fd5b61019b61039b565b6040519081526020015b60405180910390f35b6101c16101bc36600461108c565b6103e3565b6040516001600160a01b0390911681526020016101a5565b6101e161041d565b6040516101a59190611103565b61019b6104ab565b61020961020436600461114b565b610661565b60405190151581526020016101a5565b61019b60035481565b61020961023036600461108c565b6106cd565b610209610243366004611177565b610700565b61026f7f000000000000000000000000000000000000000000000000000000000000000081565b60405160ff90911681526020016101a5565b61019b6107e0565b61029c6102973660046111b8565b610836565b005b60005461026f9060ff1681565b6201518061019b565b61019b6102c23660046111d1565b60046020526000908152604090205481565b61019b6102e23660046111d1565b60066020526000908152604090205481565b61019b610843565b6101e161084d565b61020961031236600461114b565b61085a565b61019b6108c0565b61019b6108ca565b6101c16108dc565b6101c161033d3660046111ee565b610902565b61029c61035036600461122b565b61096c565b61019b6103633660046112a2565b600560209081526000928352604080842090915290825290205481565b61019b610bb0565b61019b61039636600461108c565b610bef565b60006103de6008546040518060400160405280601c81526020017f6767702e696e666c6174696f6e2e696e74657276616c2e737461727400000000815250610bef565b905090565b600061041683836040516020016103fb9291906112db565b60405160208183030381529060405280519060200120610c22565b9392505050565b6001805461042a90611301565b80601f016020809104026020016040519081016040528092919081815260200182805461045690611301565b80156104a35780601f10610478576101008083540402835291602001916104a3565b820191906000526020600020905b81548152906001019060200180831161048657829003601f168201915b505050505081565b6000806104b6610c94565b905060006104c382610cc6565b9050806000036104d65760009250505090565b60006104fe6040518060400160405280600581526020016415985d5b1d60da1b815250610902565b90506001600160a01b0381166105535760405162461bcd60e51b815260206004820152601560248201527415985d5b1d081859191c995cdcc81b9bdd081cd95d605a1b60448201526064015b60405180910390fd5b80600061055f84610cee565b90508361056f6201518087611351565b6105799190611369565b60075580156106155761058c3082610d99565b604051631e88852b60e31b81526060600482015260116064820152701c9bd8dad95d14995dd85c991cd41bdbdb607a1b6084820152306024820152604481018290526001600160a01b0383169063f44429589060a401600060405180830381600087803b1580156105fc57600080fd5b505af1158015610610573d6000803e3d6000fd5b505050505b600754604080513381526020810184905280820192909252517f5fdac2d68dba8699193bd645ebe5fa18d2ae4f94c71b9cc5cc66d49b69731eec9181900360600190a195945050505050565b3360008181526005602090815260408083206001600160a01b038716808552925280832085905551919290917f8c5be1e5ebec7d5bd14f71427d1e84f3dd0314c0f7b2291e5b200ac8c7c3b925906106bc9086815260200190565b60405180910390a350600192915050565b600061041683836040516020016106e59291906112db565b60405160208183030381529060405280519060200120610df3565b6001600160a01b0383166000908152600560209081526040808320338452909152812054600019811461075c576107378382611388565b6001600160a01b03861660009081526005602090815260408083203384529091529020555b6001600160a01b03851660009081526004602052604081208054859290610784908490611388565b90915550506001600160a01b0380851660008181526004602052604090819020805487019055519091871690600080516020611506833981519152906107cd9087815260200190565b60405180910390a3506001949350505050565b60007f00000000000000000000000000000000000000000000000000000000000000004614610811576103de610e65565b507f000000000000000000000000000000000000000000000000000000000000000090565b6108403382610eff565b50565b60006103de610c94565b6002805461042a90611301565b3360009081526004602052604081208054839190839061087b908490611388565b90915550506001600160a01b03831660008181526004602052604090819020805485019055513390600080516020611506833981519152906106bc9086815260200190565b60006103de610f61565b60006103de6108d7610f61565b610cee565b60006103de604051806040016040528060078152602001667265776172647360c81b8152505b600080610919836040516020016103fb919061139f565b90506001600160a01b0381166109665760405162461bcd60e51b815260206004820152601260248201527110dbdb9d1c9858dd081b9bdd08199bdd5b9960721b604482015260640161054a565b92915050565b428410156109bc5760405162461bcd60e51b815260206004820152601760248201527f5045524d49545f444541444c494e455f45585049524544000000000000000000604482015260640161054a565b600060016109c86107e0565b6001600160a01b038a811660008181526006602090815260409182902080546001810190915582517f6e71edae12b1b97f4d1f60370fef10105fa2faae0126114a169c64845d6126c98184015280840194909452938d166060840152608083018c905260a083019390935260c08083018b90528151808403909101815260e08301909152805192019190912061190160f01b6101008301526101028201929092526101228101919091526101420160408051601f198184030181528282528051602091820120600084529083018083525260ff871690820152606081018590526080810184905260a0016020604051602081039080840390855afa158015610ad4573d6000803e3d6000fd5b5050604051601f1901519150506001600160a01b03811615801590610b0a5750876001600160a01b0316816001600160a01b0316145b610b475760405162461bcd60e51b815260206004820152600e60248201526d24a72b20a624a22fa9a4a3a722a960911b604482015260640161054a565b6001600160a01b0390811660009081526005602090815260408083208a8516808552908352928190208990555188815291928a16917f8c5be1e5ebec7d5bd14f71427d1e84f3dd0314c0f7b2291e5b200ac8c7c3b925910160405180910390a350505050505050565b60006103de6008546040518060400160405280601b81526020017f6767702e696e666c6174696f6e2e696e74657276616c2e7261746500000000008152505b60006104168383604051602001610c079291906112db565b60405160208183030381529060405280519060200120610f77565b600080546040516321f8a72160e01b8152600481018490526101009091046001600160a01b0316906321f8a72190602401602060405180830381865afa158015610c70573d6000803e3d6000fd5b505050506040513d601f19601f8201168201806040525081019061096691906113d7565b600080610c9f61039b565b90506007546000148015610cb257504281105b610cbe57600754610cc0565b805b91505090565b60008115610ce65762015180610cdc8342611388565b61096691906113f4565b506000919050565b6000808215610966576000610d3a6008546040518060400160405280601b81526020017f6767702e696e666c6174696f6e2e696e74657276616c2e726174650000000000815250610bef565b90508015610d92576003548060005b86811015610d8257670de0b6b3a7640000610d648584611369565b610d6e91906113f4565b915080610d7a81611416565b915050610d49565b50610d8d8282611388565b935050505b5092915050565b8060036000828254610dab9190611351565b90915550506001600160a01b03821660008181526004602090815260408083208054860190555184815260008051602061150683398151915291015b60405180910390a35050565b60008054604051633d70e7e560e11b8152600481018490526101009091046001600160a01b031690637ae1cfca90602401602060405180830381865afa158015610e41573d6000803e3d6000fd5b505050506040513d601f19601f82011682018060405250810190610966919061142f565b60007f8b73c3c69bb8fe3d512ecc4cf759cc79239f7b179b0ffacaa9a75d522b39400f6001604051610e979190611451565b6040805191829003822060208301939093528101919091527fc89efdaa54c0f20c7adf612882df0950f5a951637e0307cdcb4c672f298b8bc660608201524660808201523060a082015260c00160405160208183030381529060405280519060200120905090565b6001600160a01b03821660009081526004602052604081208054839290610f27908490611388565b90915550506003805482900390556040518181526000906001600160a01b0384169060008051602061150683398151915290602001610de7565b600080610f6c610c94565b9050610cc081610cc6565b6000805460405163bd02d0f560e01b8152600481018490526101009091046001600160a01b03169063bd02d0f590602401602060405180830381865afa158015610fc5573d6000803e3d6000fd5b505050506040513d601f19601f8201168201806040525081019061096691906114ec565b634e487b7160e01b600052604160045260246000fd5b600082601f83011261101057600080fd5b813567ffffffffffffffff8082111561102b5761102b610fe9565b604051601f8301601f19908116603f0116810190828211818310171561105357611053610fe9565b8160405283815286602085880101111561106c57600080fd5b836020870160208301376000602085830101528094505050505092915050565b6000806040838503121561109f57600080fd5b82359150602083013567ffffffffffffffff8111156110bd57600080fd5b6110c985828601610fff565b9150509250929050565b60005b838110156110ee5781810151838201526020016110d6565b838111156110fd576000848401525b50505050565b60208152600082518060208401526111228160408501602087016110d3565b601f01601f19169190910160400192915050565b6001600160a01b038116811461084057600080fd5b6000806040838503121561115e57600080fd5b823561116981611136565b946020939093013593505050565b60008060006060848603121561118c57600080fd5b833561119781611136565b925060208401356111a781611136565b929592945050506040919091013590565b6000602082840312156111ca57600080fd5b5035919050565b6000602082840312156111e357600080fd5b813561041681611136565b60006020828403121561120057600080fd5b813567ffffffffffffffff81111561121757600080fd5b61122384828501610fff565b949350505050565b600080600080600080600060e0888a03121561124657600080fd5b873561125181611136565b9650602088013561126181611136565b95506040880135945060608801359350608088013560ff8116811461128557600080fd5b9699959850939692959460a0840135945060c09093013592915050565b600080604083850312156112b557600080fd5b82356112c081611136565b915060208301356112d081611136565b809150509250929050565b828152600082516112f38160208501602087016110d3565b919091016020019392505050565b600181811c9082168061131557607f821691505b60208210810361133557634e487b7160e01b600052602260045260246000fd5b50919050565b634e487b7160e01b600052601160045260246000fd5b600082198211156113645761136461133b565b500190565b60008160001904831182151516156113835761138361133b565b500290565b60008282101561139a5761139a61133b565b500390565b6f636f6e74726163742e6164647265737360801b8152600082516113ca8160108501602087016110d3565b9190910160100192915050565b6000602082840312156113e957600080fd5b815161041681611136565b60008261141157634e487b7160e01b600052601260045260246000fd5b500490565b6000600182016114285761142861133b565b5060010190565b60006020828403121561144157600080fd5b8151801515811461041657600080fd5b600080835481600182811c91508083168061146d57607f831692505b6020808410820361148c57634e487b7160e01b86526022600452602486fd5b8180156114a057600181146114b1576114de565b60ff198616895284890196506114de565b60008a81526020902060005b868110156114d65781548b8201529085019083016114bd565b505084890196505b509498975050505050505050565b6000602082840312156114fe57600080fd5b505191905056feddf252ad1be2c89b69c2b068fc378daa952ba7f163c4a11628f55a4df523b3efa264697066735822122069f9e97579699cd0907a27db93b366b4103c596e86f354e96b4cc389abea0b0964736f6c634300080d0033",
  "linkReferences": {},
  "deployedLinkReferences": {}
}