{
  "_format": "hh-sol-artifact-1",
  "contractName": "ProtocolDAOSettingsInflation",
  "sourceName": "contracts/contract/dao/protocol/settings/ProtocolDAOSettingsInflation.sol",
  "abi": [
    {
      "inputs": [
        {
          "internalType": "contract Storage",
          "name": "storageAddress",
          "type": "address"
        }
      ],
      "stateMutability": "nonpayable",
      "type": "constructor"
    },
    {
      "inputs": [],
      "name": "getInflationIntervalRate",
      "outputs": [
        {
          "internalType": "uint256",
          "name": "",
          "type": "uint256"
        }
      ],
      "stateMutability": "view",
      "type": "function"
    },
    {
      "inputs": [],
      "name": "getInflationIntervalStartTime",
      "outputs": [
        {
          "internalType": "uint256",
          "name": "",
          "type": "uint256"
        }
      ],
      "stateMutability": "view",
      "type": "function"
    },
    {
      "inputs": [
        {
          "internalType": "string",
          "name": "_contractName",
          "type": "string"
        }
      ],
      "name": "getPublicContractAddress",
      "outputs": [
        {
          "internalType": "address",
          "name": "",
          "type": "address"
        }
      ],
      "stateMutability": "view",
      "type": "function"
    },
    {
      "inputs": [
        {
          "internalType": "bytes32",
          "name": "settingNameSpace",
          "type": "bytes32"
        },
        {
          "internalType": "string",
          "name": "_settingPath",
          "type": "string"
        }
      ],
      "name": "getSettingAddress",
      "outputs": [
        {
          "internalType": "address",
          "name": "",
          "type": "address"
        }
      ],
      "stateMutability": "view",
      "type": "function"
    },
    {
      "inputs": [
        {
          "internalType": "string",
          "name": "_settingPath",
          "type": "string"
        }
      ],
      "name": "getSettingAddress",
      "outputs": [
        {
          "internalType": "address",
          "name": "",
          "type": "address"
        }
      ],
      "stateMutability": "view",
      "type": "function"
    },
    {
      "inputs": [
        {
          "internalType": "string",
          "name": "_settingPath",
          "type": "string"
        }
      ],
      "name": "getSettingBool",
      "outputs": [
        {
          "internalType": "bool",
          "name": "",
          "type": "bool"
        }
      ],
      "stateMutability": "view",
      "type": "function"
    },
    {
      "inputs": [
        {
          "internalType": "bytes32",
          "name": "settingNameSpace",
          "type": "bytes32"
        },
        {
          "internalType": "string",
          "name": "_settingPath",
          "type": "string"
        }
      ],
      "name": "getSettingBool",
      "outputs": [
        {
          "internalType": "bool",
          "name": "",
          "type": "bool"
        }
      ],
      "stateMutability": "view",
      "type": "function"
    },
    {
      "inputs": [
        {
          "internalType": "string",
          "name": "_settingPath",
          "type": "string"
        }
      ],
      "name": "getSettingUint",
      "outputs": [
        {
          "internalType": "uint256",
          "name": "",
          "type": "uint256"
        }
      ],
      "stateMutability": "view",
      "type": "function"
    },
    {
      "inputs": [
        {
          "internalType": "bytes32",
          "name": "settingNameSpace",
          "type": "bytes32"
        },
        {
          "internalType": "string",
          "name": "_settingPath",
          "type": "string"
        }
      ],
      "name": "getSettingUint",
      "outputs": [
        {
          "internalType": "uint256",
          "name": "",
          "type": "uint256"
        }
      ],
      "stateMutability": "view",
      "type": "function"
    },
    {
      "inputs": [
        {
          "internalType": "string",
          "name": "_settingPath",
          "type": "string"
        },
        {
          "internalType": "address",
          "name": "_value",
          "type": "address"
        }
      ],
      "name": "setSettingAddress",
      "outputs": [],
      "stateMutability": "nonpayable",
      "type": "function"
    },
    {
      "inputs": [
        {
          "internalType": "string",
          "name": "_settingPath",
          "type": "string"
        },
        {
          "internalType": "bool",
          "name": "_value",
          "type": "bool"
        }
      ],
      "name": "setSettingBool",
      "outputs": [],
      "stateMutability": "nonpayable",
      "type": "function"
    },
    {
      "inputs": [
        {
          "internalType": "string",
          "name": "_settingPath",
          "type": "string"
        },
        {
          "internalType": "uint256",
          "name": "_value",
          "type": "uint256"
        }
      ],
      "name": "setSettingUint",
      "outputs": [],
      "stateMutability": "nonpayable",
      "type": "function"
    },
    {
      "inputs": [],
      "name": "version",
      "outputs": [
        {
          "internalType": "uint8",
          "name": "",
          "type": "uint8"
        }
      ],
      "stateMutability": "view",
      "type": "function"
    }
  ],
  "bytecode": "0x60806040523480156200001157600080fd5b506040516200122a3803806200122a833981016040819052620000349162000515565b6000805460ff196001600160a01b03841661010002166001600160a81b031990911617600190811790915554604051620000ac916200008a916020019081526719195c1b1bde595960c21b602082015260280190565b604051602081830303815290604052805190602001206200019d60201b60201c565b620001965760408051808201909152601b81527f6767702e696e666c6174696f6e2e696e74657276616c2e7261746500000000006020820152620000f990670de130489916479c62000218565b60408051808201909152601c81527f6767702e696e666c6174696f6e2e696e74657276616c2e737461727400000000602082015262000147906200014142620151806200053c565b62000218565b62000196600154604051602001620001729181526719195c1b1bde595960c21b602082015260280190565b6040516020818303038152906040528051906020012060016200034e60201b60201c565b5062000608565b60008054604051633d70e7e560e11b8152600481018490526101009091046001600160a01b031690637ae1cfca90602401602060405180830381865afa158015620001ec573d6000803e3d6000fd5b505050506040513d601f19601f8201168201806040525081019062000212919062000563565b92915050565b620002436001546040516020016200008a9181526719195c1b1bde595960c21b602082015260280190565b156200030c5760408051808201909152601a81527f726f636b657444414f50726f746f636f6c50726f706f73616c73000000000000602082015233906200028a90620003bf565b6001600160a01b0316146200030c5760405162461bcd60e51b815260206004820152603960248201527f4f6e6c792044414f2050726f746f636f6c2050726f706f73616c7320636f6e7460448201527f726163742063616e2075706461746520612073657474696e670000000000000060648201526084015b60405180910390fd5b6200034a6001548360405160200162000327929190620005c5565b60405160208183030381529060405280519060200120826200044a60201b60201c565b5050565b60005460405163abfdcced60e01b81526004810184905282151560248201526101009091046001600160a01b03169063abfdcced906044015b600060405180830381600087803b158015620003a257600080fd5b505af1158015620003b7573d6000803e3d6000fd5b505050505050565b600080620003fb83604051602001620003d99190620005e1565b604051602081830303815290604052805190602001206200048760201b60201c565b90506001600160a01b038116620002125760405162461bcd60e51b815260206004820152601260248201527110dbdb9d1c9858dd081b9bdd08199bdd5b9960721b604482015260640162000303565b600054604051637152429d60e11b815260048101849052602481018390526101009091046001600160a01b03169063e2a4853a9060440162000387565b600080546040516321f8a72160e01b8152600481018490526101009091046001600160a01b0316906321f8a72190602401602060405180830381865afa158015620004d6573d6000803e3d6000fd5b505050506040513d601f19601f8201168201806040525081019062000212919062000515565b6001600160a01b03811681146200051257600080fd5b50565b6000602082840312156200052857600080fd5b81516200053581620004fc565b9392505050565b600082198211156200055e57634e487b7160e01b600052601160045260246000fd5b500190565b6000602082840312156200057657600080fd5b815180151581146200053557600080fd5b6000815160005b81811015620005aa57602081850181015186830152016200058e565b81811115620005ba576000828601525b509290920192915050565b8281526000620005d9602083018462000587565b949350505050565b6f636f6e74726163742e6164647265737360801b8152600062000535601083018462000587565b610c1280620006186000396000f3fe608060405234801561001057600080fd5b50600436106100cf5760003560e01c806354fd4d501161008c578063cff0b64811610066578063cff0b648146101bd578063d6cd921e146101d0578063ee96d774146101e3578063f4d70e78146101eb57600080fd5b806354fd4d50146101785780635e9d404414610197578063c56710ff146101aa57600080fd5b80630534f6db146100d457806306eaa68b146100ef5780631386a2441461011a5780631bfcc24e1461012d578063232de716146101505780632a57d01814610163575b600080fd5b6100dc6101fe565b6040519081526020015b60405180910390f35b6101026100fd366004610932565b610243565b6040516001600160a01b0390911681526020016100e6565b610102610128366004610979565b61027d565b61014061013b366004610979565b61029d565b60405190151581526020016100e6565b61014061015e366004610932565b6102d2565b6101766101713660046109c7565b6102ea565b005b6000546101859060ff1681565b60405160ff90911681526020016100e6565b6101766101a5366004610a19565b6103c4565b6100dc6101b8366004610979565b610491565b6101026101cb366004610979565b6104c6565b6101766101de366004610a73565b61052a565b6100dc6105f7565b6100dc6101f9366004610932565b610637565b600061023e6040518060400160405280601c81526020017f6767702e696e666c6174696f6e2e696e74657276616c2e737461727400000000815250610491565b905090565b6000610276838360405160200161025b929190610af5565b6040516020818303038152906040528051906020012061064f565b9392505050565b60006102976001548360405160200161025b929190610af5565b92915050565b6000610297600154836040516020016102b7929190610af5565b604051602081830303815290604052805190602001206106c1565b600061027683836040516020016102b7929190610af5565b6103136001546040516020016102b79181526719195c1b1bde595960c21b602082015260280190565b1561038c57336001600160a01b031661035d6040518060400160405280601a815260200179726f636b657444414f50726f746f636f6c50726f706f73616c7360301b8152506104c6565b6001600160a01b03161461038c5760405162461bcd60e51b815260040161038390610b07565b60405180910390fd5b6103c0600154836040516020016103a4929190610af5565b6040516020818303038152906040528051906020012082610733565b5050565b6103ed6001546040516020016102b79181526719195c1b1bde595960c21b602082015260280190565b1561045d57336001600160a01b03166104376040518060400160405280601a815260200179726f636b657444414f50726f746f636f6c50726f706f73616c7360301b8152506104c6565b6001600160a01b03161461045d5760405162461bcd60e51b815260040161038390610b07565b6103c060015483604051602001610475929190610af5565b60405160208183030381529060405280519060200120826107a2565b6000610297600154836040516020016104ab929190610af5565b604051602081830303815290604052805190602001206107de565b6000806104dd8360405160200161025b9190610b64565b90506001600160a01b0381166102975760405162461bcd60e51b815260206004820152601260248201527110dbdb9d1c9858dd081b9bdd08199bdd5b9960721b6044820152606401610383565b6105536001546040516020016102b79181526719195c1b1bde595960c21b602082015260280190565b156105c357336001600160a01b031661059d6040518060400160405280601a815260200179726f636b657444414f50726f746f636f6c50726f706f73616c7360301b8152506104c6565b6001600160a01b0316146105c35760405162461bcd60e51b815260040161038390610b07565b6103c0600154836040516020016105db929190610af5565b6040516020818303038152906040528051906020012082610850565b600061023e6040518060400160405280601b81526020017f6767702e696e666c6174696f6e2e696e74657276616c2e726174650000000000815250610491565b600061027683836040516020016104ab929190610af5565b600080546040516321f8a72160e01b8152600481018490526101009091046001600160a01b0316906321f8a72190602401602060405180830381865afa15801561069d573d6000803e3d6000fd5b505050506040513d601f19601f820116820180604052508101906102979190610b89565b60008054604051633d70e7e560e11b8152600481018490526101009091046001600160a01b031690637ae1cfca90602401602060405180830381865afa15801561070f573d6000803e3d6000fd5b505050506040513d601f19601f820116820180604052508101906102979190610ba6565b60005460405163abfdcced60e01b81526004810184905282151560248201526101009091046001600160a01b03169063abfdcced906044015b600060405180830381600087803b15801561078657600080fd5b505af115801561079a573d6000803e3d6000fd5b505050505050565b600054604051637152429d60e11b815260048101849052602481018390526101009091046001600160a01b03169063e2a4853a9060440161076c565b6000805460405163bd02d0f560e01b8152600481018490526101009091046001600160a01b03169063bd02d0f590602401602060405180830381865afa15801561082c573d6000803e3d6000fd5b505050506040513d601f19601f820116820180604052508101906102979190610bc3565b60005460405163ca446dd960e01b8152600481018490526001600160a01b0383811660248301526101009092049091169063ca446dd99060440161076c565b634e487b7160e01b600052604160045260246000fd5b600082601f8301126108b657600080fd5b813567ffffffffffffffff808211156108d1576108d161088f565b604051601f8301601f19908116603f011681019082821181831017156108f9576108f961088f565b8160405283815286602085880101111561091257600080fd5b836020870160208301376000602085830101528094505050505092915050565b6000806040838503121561094557600080fd5b82359150602083013567ffffffffffffffff81111561096357600080fd5b61096f858286016108a5565b9150509250929050565b60006020828403121561098b57600080fd5b813567ffffffffffffffff8111156109a257600080fd5b6109ae848285016108a5565b949350505050565b80151581146109c457600080fd5b50565b600080604083850312156109da57600080fd5b823567ffffffffffffffff8111156109f157600080fd5b6109fd858286016108a5565b9250506020830135610a0e816109b6565b809150509250929050565b60008060408385031215610a2c57600080fd5b823567ffffffffffffffff811115610a4357600080fd5b610a4f858286016108a5565b95602094909401359450505050565b6001600160a01b03811681146109c457600080fd5b60008060408385031215610a8657600080fd5b823567ffffffffffffffff811115610a9d57600080fd5b610aa9858286016108a5565b9250506020830135610a0e81610a5e565b6000815160005b81811015610adb5760208185018101518683015201610ac1565b81811115610aea576000828601525b509290920192915050565b82815260006109ae6020830184610aba565b60208082526039908201527f4f6e6c792044414f2050726f746f636f6c2050726f706f73616c7320636f6e7460408201527f726163742063616e2075706461746520612073657474696e6700000000000000606082015260800190565b6f636f6e74726163742e6164647265737360801b815260006102766010830184610aba565b600060208284031215610b9b57600080fd5b815161027681610a5e565b600060208284031215610bb857600080fd5b8151610276816109b6565b600060208284031215610bd557600080fd5b505191905056fea2646970667358221220e3a9043bb38dd28ba616e01f30a212d9e3768b756c2cc56d8b521d8be888302a64736f6c634300080d0033",
  "linkReferences": {},
  "deployedLinkReferences": {}
}