{
  "_format": "hh-sol-artifact-1",
  "contractName": "RewardsPool",
  "sourceName": "contracts/contract/rewards/RewardsPool.sol",
  "abi": [
    {
      "inputs": [
        {
          "internalType": "contract Storage",
          "name": "storageAddress",
          "type": "address"
        }
      ],
      "stateMutability": "nonpayable",
      "type": "constructor"
    },
    {
      "anonymous": false,
      "inputs": [
        {
          "indexed": false,
          "internalType": "address",
          "name": "sender",
          "type": "address"
        },
        {
          "indexed": false,
          "internalType": "uint256",
          "name": "value",
          "type": "uint256"
        },
        {
          "indexed": false,
          "internalType": "uint256",
          "name": "inflationCalcTime",
          "type": "uint256"
        }
      ],
      "name": "GGPInflationLog",
      "type": "event"
    },
    {
      "inputs": [
        {
          "internalType": "address",
          "name": "_claimerAddress",
          "type": "address"
        },
        {
          "internalType": "address",
          "name": "_toAddress",
          "type": "address"
        },
        {
          "internalType": "uint256",
          "name": "_claimerAmountPerc",
          "type": "uint256"
        }
      ],
      "name": "claim",
      "outputs": [],
      "stateMutability": "nonpayable",
      "type": "function"
    },
    {
      "inputs": [
        {
          "internalType": "string",
          "name": "_claimingContract",
          "type": "string"
        },
        {
          "internalType": "address",
          "name": "_claimerAddress",
          "type": "address"
        },
        {
          "internalType": "uint256",
          "name": "_claimerAmountPerc",
          "type": "uint256"
        }
      ],
      "name": "getClaimAmount",
      "outputs": [
        {
          "internalType": "uint256",
          "name": "",
          "type": "uint256"
        }
      ],
      "stateMutability": "view",
      "type": "function"
    },
    {
      "inputs": [],
      "name": "getClaimIntervalRewardsTotal",
      "outputs": [
        {
          "internalType": "uint256",
          "name": "",
          "type": "uint256"
        }
      ],
      "stateMutability": "view",
      "type": "function"
    },
    {
      "inputs": [],
      "name": "getClaimIntervalTime",
      "outputs": [
        {
          "internalType": "uint256",
          "name": "",
          "type": "uint256"
        }
      ],
      "stateMutability": "view",
      "type": "function"
    },
    {
      "inputs": [],
      "name": "getClaimIntervalTimeStart",
      "outputs": [
        {
          "internalType": "uint256",
          "name": "",
          "type": "uint256"
        }
      ],
      "stateMutability": "view",
      "type": "function"
    },
    {
      "inputs": [],
      "name": "getClaimIntervalTimeStartComputed",
      "outputs": [
        {
          "internalType": "uint256",
          "name": "",
          "type": "uint256"
        }
      ],
      "stateMutability": "view",
      "type": "function"
    },
    {
      "inputs": [],
      "name": "getClaimIntervalsPassed",
      "outputs": [
        {
          "internalType": "uint256",
          "name": "",
          "type": "uint256"
        }
      ],
      "stateMutability": "view",
      "type": "function"
    },
    {
      "inputs": [],
      "name": "getClaimTimeLastMade",
      "outputs": [
        {
          "internalType": "uint256",
          "name": "",
          "type": "uint256"
        }
      ],
      "stateMutability": "view",
      "type": "function"
    },
    {
      "inputs": [
        {
          "internalType": "string",
          "name": "_claimingContract",
          "type": "string"
        }
      ],
      "name": "getClaimingContractAllowance",
      "outputs": [
        {
          "internalType": "uint256",
          "name": "",
          "type": "uint256"
        }
      ],
      "stateMutability": "view",
      "type": "function"
    },
    {
      "inputs": [
        {
          "internalType": "string",
          "name": "_contractName",
          "type": "string"
        }
      ],
      "name": "getClaimingContractEnabled",
      "outputs": [
        {
          "internalType": "bool",
          "name": "",
          "type": "bool"
        }
      ],
      "stateMutability": "pure",
      "type": "function"
    },
    {
      "inputs": [
        {
          "internalType": "string",
          "name": "_contractName",
          "type": "string"
        }
      ],
      "name": "getClaimingContractExists",
      "outputs": [
        {
          "internalType": "bool",
          "name": "",
          "type": "bool"
        }
      ],
      "stateMutability": "pure",
      "type": "function"
    },
    {
      "inputs": [
        {
          "internalType": "string",
          "name": "_claimingContract",
          "type": "string"
        }
      ],
      "name": "getClaimingContractPerc",
      "outputs": [
        {
          "internalType": "uint256",
          "name": "",
          "type": "uint256"
        }
      ],
      "stateMutability": "view",
      "type": "function"
    },
    {
      "inputs": [
        {
          "internalType": "string",
          "name": "_claimingContract",
          "type": "string"
        }
      ],
      "name": "getClaimingContractTotalClaimed",
      "outputs": [
        {
          "internalType": "uint256",
          "name": "",
          "type": "uint256"
        }
      ],
      "stateMutability": "view",
      "type": "function"
    },
    {
      "inputs": [
        {
          "internalType": "string",
          "name": "_claimingContract",
          "type": "string"
        },
        {
          "internalType": "address",
          "name": "_claimerAddress",
          "type": "address"
        }
      ],
      "name": "getClaimingContractUserCanClaim",
      "outputs": [
        {
          "internalType": "bool",
          "name": "",
          "type": "bool"
        }
      ],
      "stateMutability": "view",
      "type": "function"
    },
    {
      "inputs": [
        {
          "internalType": "uint256",
          "name": "_claimIntervalStartTime",
          "type": "uint256"
        },
        {
          "internalType": "string",
          "name": "_claimingContract",
          "type": "string"
        },
        {
          "internalType": "address",
          "name": "_claimerAddress",
          "type": "address"
        }
      ],
      "name": "getClaimingContractUserHasClaimed",
      "outputs": [
        {
          "internalType": "bool",
          "name": "",
          "type": "bool"
        }
      ],
      "stateMutability": "view",
      "type": "function"
    },
    {
      "inputs": [
        {
          "internalType": "string",
          "name": "_claimingContract",
          "type": "string"
        },
        {
          "internalType": "address",
          "name": "_claimerAddress",
          "type": "address"
        }
      ],
      "name": "getClaimingContractUserRegisteredTime",
      "outputs": [
        {
          "internalType": "uint256",
          "name": "",
          "type": "uint256"
        }
      ],
      "stateMutability": "view",
      "type": "function"
    },
    {
      "inputs": [
        {
          "internalType": "string",
          "name": "_claimingContract",
          "type": "string"
        }
      ],
      "name": "getClaimingContractUserTotalNext",
      "outputs": [
        {
          "internalType": "uint256",
          "name": "",
          "type": "uint256"
        }
      ],
      "stateMutability": "view",
      "type": "function"
    },
    {
      "inputs": [],
      "name": "getGGPBalance",
      "outputs": [
        {
          "internalType": "uint256",
          "name": "",
          "type": "uint256"
        }
      ],
      "stateMutability": "view",
      "type": "function"
    },
    {
      "inputs": [],
      "name": "getInflationCalcTime",
      "outputs": [
        {
          "internalType": "uint256",
          "name": "",
          "type": "uint256"
        }
      ],
      "stateMutability": "view",
      "type": "function"
    },
    {
      "inputs": [],
      "name": "getInflationIntervalRate",
      "outputs": [
        {
          "internalType": "uint256",
          "name": "",
          "type": "uint256"
        }
      ],
      "stateMutability": "view",
      "type": "function"
    },
    {
      "inputs": [],
      "name": "getInflationIntervalStartTime",
      "outputs": [
        {
          "internalType": "uint256",
          "name": "",
          "type": "uint256"
        }
      ],
      "stateMutability": "view",
      "type": "function"
    },
    {
      "inputs": [],
      "name": "getInflationIntervalTime",
      "outputs": [
        {
          "internalType": "uint256",
          "name": "",
          "type": "uint256"
        }
      ],
      "stateMutability": "pure",
      "type": "function"
    },
    {
      "inputs": [],
      "name": "getInflationIntervalsPassed",
      "outputs": [
        {
          "internalType": "uint256",
          "name": "",
          "type": "uint256"
        }
      ],
      "stateMutability": "view",
      "type": "function"
    },
    {
      "inputs": [],
      "name": "getInflationRewardsContractAddress",
      "outputs": [
        {
          "internalType": "address",
          "name": "",
          "type": "address"
        }
      ],
      "stateMutability": "view",
      "type": "function"
    },
    {
      "inputs": [
        {
          "internalType": "string",
          "name": "_contractName",
          "type": "string"
        }
      ],
      "name": "getPublicContractAddress",
      "outputs": [
        {
          "internalType": "address",
          "name": "",
          "type": "address"
        }
      ],
      "stateMutability": "view",
      "type": "function"
    },
    {
      "inputs": [
        {
          "internalType": "bytes32",
          "name": "settingNameSpace",
          "type": "bytes32"
        },
        {
          "internalType": "string",
          "name": "_settingPath",
          "type": "string"
        }
      ],
      "name": "getSettingAddress",
      "outputs": [
        {
          "internalType": "address",
          "name": "",
          "type": "address"
        }
      ],
      "stateMutability": "view",
      "type": "function"
    },
    {
      "inputs": [
        {
          "internalType": "bytes32",
          "name": "settingNameSpace",
          "type": "bytes32"
        },
        {
          "internalType": "string",
          "name": "_settingPath",
          "type": "string"
        }
      ],
      "name": "getSettingBool",
      "outputs": [
        {
          "internalType": "bool",
          "name": "",
          "type": "bool"
        }
      ],
      "stateMutability": "view",
      "type": "function"
    },
    {
      "inputs": [
        {
          "internalType": "bytes32",
          "name": "settingNameSpace",
          "type": "bytes32"
        },
        {
          "internalType": "string",
          "name": "_settingPath",
          "type": "string"
        }
      ],
      "name": "getSettingUint",
      "outputs": [
        {
          "internalType": "uint256",
          "name": "",
          "type": "uint256"
        }
      ],
      "stateMutability": "view",
      "type": "function"
    },
    {
      "inputs": [],
      "name": "inflationCalculate",
      "outputs": [
        {
          "internalType": "uint256",
          "name": "",
          "type": "uint256"
        }
      ],
      "stateMutability": "view",
      "type": "function"
    },
    {
      "inputs": [
        {
          "internalType": "address",
          "name": "_claimerAddress",
          "type": "address"
        },
        {
          "internalType": "bool",
          "name": "_enabled",
          "type": "bool"
        }
      ],
      "name": "registerClaimer",
      "outputs": [],
      "stateMutability": "nonpayable",
      "type": "function"
    },
    {
      "inputs": [],
      "name": "version",
      "outputs": [
        {
          "internalType": "uint8",
          "name": "",
          "type": "uint8"
        }
      ],
      "stateMutability": "view",
      "type": "function"
    }
  ],
  "bytecode": "0x60806040526a0ee3a5f48a68b55200000060015560006002553480156200002557600080fd5b50604051620022083803806200220883398101604081905262000048916200030e565b6000805460ff196001600160a01b03841661010002166001600160a81b03199091161760011790556200009f7f6767702e726577617264732e636c61696d2e706572696f642e74696d650000006224ea006200029f565b620000d37f6767702e696e666c6174696f6e2e696e74657276616c2e726174650000000000670de130489916479c6200029f565b6200010d7f6767702e696e666c6174696f6e2e696e74657276616c2e73746172740000000062000107426201518062000340565b6200029f565b620001956040516020016200016a906f50726f746f636f6c44414f436c61696d60801b8082526d726577617264732e636c61696d7360901b60108301526b19dc9bdd5c0b985b5bdd5b9d60a21b601e830152602a820152603a0190565b6040516020818303038152906040528051906020012067016345785d8a00006200029f60201b60201c565b62000215604051602001620001ea90674e4f50436c61696d60c01b8082526d726577617264732e636c61696d7360901b60088301526b19dc9bdd5c0b985b5bdd5b9d60a21b60168301526022820152602a0190565b604051602081830303815290604052805190602001206709b6e64a8ec600006200029f60201b60201c565b620002986040516020016200026d906a5269616c746f436c61696d60a81b8082526d726577617264732e636c61696d7360901b600b8301526b19dc9bdd5c0b985b5bdd5b9d60a21b6019830152602582015260300190565b604051602081830303815290604052805190602001206702c68af0bb1400006200029f60201b60201c565b5062000367565b600054604051637152429d60e11b815260048101849052602481018390526101009091046001600160a01b03169063e2a4853a90604401600060405180830381600087803b158015620002f157600080fd5b505af115801562000306573d6000803e3d6000fd5b505050505050565b6000602082840312156200032157600080fd5b81516001600160a01b03811681146200033957600080fd5b9392505050565b600082198211156200036257634e487b7160e01b600052601160045260246000fd5b500190565b611e9180620003776000396000f3fe608060405234801561001057600080fd5b50600436106101e55760003560e01c806374441d8d1161010f578063c1a26006116100a2578063e534161511610071578063e534161514610394578063ee96d774146103a7578063f4d70e78146103af578063f6a3f6ef146103c257600080fd5b8063c1a2600614610369578063c32c367a14610371578063c903175614610379578063cff0b6481461038157600080fd5b8063ad9c1e6b116100de578063ad9c1e6b1461033e578063b303eee814610351578063b933c49e14610359578063ba34cb4b1461036157600080fd5b806374441d8d146103075780637f79e64a1461031b57806381bf1b1614610323578063996cba681461032b57600080fd5b806324bbd4571161018757806354fd4d501161015657806354fd4d50146102cc57806363657510146102eb57806367e84784146102f45780636ed285541461030757600080fd5b806324bbd45714610289578063394247f41461029c5780634b0e3d25146102af57806350a2f7e5146102c457600080fd5b80630a9630c2116101c35780630a9630c2146102385780630d57572a1461024b57806317697b6114610253578063232de7161461027657600080fd5b8063043877d0146101ea5780630534f6db1461020557806306eaa68b1461020d575b600080fd5b6101f26103d5565b6040519081526020015b60405180910390f35b6101f26103f4565b61022061021b3660046116dc565b61041f565b6040516001600160a01b0390911681526020016101fc565b6101f2610246366004611723565b610459565b6101f26104b1565b610266610261366004611770565b6104dc565b60405190151581526020016101fc565b6102666102843660046116dc565b610511565b6101f26102973660046117cb565b610529565b6102666102aa3660046117cb565b61055c565b6102c26102bd36600461182b565b610570565b005b6101f26106fa565b6000546102d99060ff1681565b60405160ff90911681526020016101fc565b620151806101f2565b6101f2610302366004611859565b610725565b610266610315366004611723565b50600190565b6101f261076e565b6101f26107a0565b6102c26103393660046118b3565b61088f565b6101f261034c366004611723565b610ebf565b6101f2610edb565b6101f2610f05565b6101f2610f1b565b6101f2610f46565b610220610f5c565b6101f2610f8a565b61022061038f366004611723565b610fb5565b6101f26103a2366004611723565b611019565b6101f261102c565b6101f26103bd3660046116dc565b611057565b6101f26103d0366004611723565b61106f565b60006103ef6103e2610f1b565b6103ea6106fa565b611087565b905090565b60006103ef7f6767702e696e666c6174696f6e2e696e74657276616c2e73746172740000000061109d565b60006104528383604051602001610437929190611913565b6040516020818303038152906040528051906020012061110f565b9392505050565b6000806104658361106f565b905060006104716104b1565b9050600080831180156104845750600082115b156104a957670de0b6b3a764000061049c838561194f565b6104a6919061196e565b90505b949350505050565b60006103ef7f8b86749aed23efc054fd3cb8918b8a479330a7a4007675a0b393f1baf1751e0a61109d565b60006104a98484846040516020016104f693929190611990565b60405160208183030381529060405280519060200120611181565b600061045283836040516020016104f6929190611913565b60006104528383604051602001610541929190611a09565b6040516020818303038152906040528051906020012061109d565b6000610452838361056b6106fa565b6111f3565b600061057b33611238565b905060008061058983610ebf565b905083156106315761059b8386610529565b156105ed5760405162461bcd60e51b815260206004820152601d60248201527f436c61696d657220697320616c7265616479207265676973746572656400000060448201526064015b60405180910390fd5b42915061062c836040516020016106049190611a7b565b604051602081830303815290604052805190602001208260016106279190611ad8565b6112dc565b6106c1565b61063b8386610529565b60000361068a5760405162461bcd60e51b815260206004820152601960248201527f436c61696d6572206973206e6f7420726567697374657265640000000000000060448201526064016105e4565b6106c18360405160200161069e9190611a7b565b604051602081830303815290604052805190602001206001836106279190611af0565b6106f383866040516020016106d7929190611a09565b60405160208183030381529060405280519060200120836112dc565b5050505050565b60006103ef7f6767702e726577617264732e636c61696d2e706572696f642e74696d6500000061109d565b6000610731848461055c565b61073d57506000610452565b6000610747610edb565b90506000610755868361134a565b90506107648686868585611362565b9695505050505050565b6000806107796103f4565b9050600254600014801561078c57504281105b6107985760025461079a565b805b91505090565b6000806107c96040518060400160405280600581526020016415985d5b1d60da1b815250610fb5565b9050806001600160a01b031663eccefff6610803604051806040016040528060088152602001670546f6b656e4747560c41b815250610fb5565b604080516001600160e01b031960e085901b1681526004810191909152600b60448201526a14995dd85c991cd41bdbdb60aa1b60648201526001600160a01b039091166024820152608401602060405180830381865afa15801561086b573d6000803e3d6000fd5b505050506040513d601f19601f8201168201806040525081019061079a9190611b07565b600061089a33611238565b905060006108a66106fa565b90506108b38286836111f3565b6109405760405162461bcd60e51b815260206004820152605260248201527f5265676973746572656420636c61696d6572206973206e6f742072656769737460448201527f6572656420746f20636c61696d206f7220686173206e6f7420776169746564206064820152711bdb994818db185a5b481a5b9d195c9d985b60721b608482015260a4016105e4565b600061096b604051806040016040528060088152602001670546f6b656e4747560c41b815250610fb5565b905060006109956040518060400160405280600581526020016415985d5b1d60da1b815250610fb5565b905060006109a1610f1b565b905060006109af8286611413565b905060006109bd8387611087565b90508015610b7d576109cd611449565b6109f77f4fe51b56935f087fa6dd937224299a085a629f85787014a3716e94b165668ee2836112dc565b6000610a2a6040518060400160405280601081526020016f50726f746f636f6c44414f436c61696d60801b815250610459565b90508015610b7b5760405163774881af60e11b815260606004820152601060648201526f50726f746f636f6c44414f436c61696d60801b60848201526001600160a01b0387811660248301526044820183905286169063ee91035e9060a401600060405180830381600087803b158015610aa357600080fd5b505af1158015610ab7573d6000803e3d6000fd5b50505050610b14604051602001610acd90611b63565b604051602081830303815290604052805190602001206106276040518060400160405280601081526020016f50726f746f636f6c44414f436c61696d60801b81525061106f565b610b7b83604051602001610b289190611bc9565b6040516020818303038152906040528051906020012082610b716040518060400160405280601081526020016f50726f746f636f6c44414f436c61696d60801b8152508761134a565b6106279190611ad8565b505b610b87878361134a565b600003610ca9576000610b9988610459565b905060008111610c115760405162461bcd60e51b815260206004820152603760248201527f436c61696d696e6720636f6e7472616374206d757374206861766520616e206160448201527f6c6c6f77616e6365206f66206d6f7265207468616e203000000000000000000060648201526084016105e4565b610c4488604051602001610c259190611bf8565b604051602081830303815290604052805190602001206106278a61106f565b610c7488604051602001610c589190611c1b565b60405160208183030381529060405280519060200120826112dc565b610ca788604051602001610c889190611c77565b604051602081830303815290604052805190602001206106278a610ebf565b505b6000610cb5888461134a565b90506000610cc6898d8c8786611362565b905060008111610db05760405162461bcd60e51b815260206004820152609960248201527f436c61696d6572206973206e6f7420656e7469746c656420746f20746f6b656e60448201527f732c2074686579206861766520616c726561647920636c61696d656420696e2060648201527f7468697320696e74657276616c206f7220746865792061726520636c61696d6960848201527f6e67206d6f72652072657761726473207468616e20617661696c61626c65207460a48201527f6f207468697320636c61696d696e6720636f6e74726163742e0000000000000060c482015260e4016105e4565b6040516301e3366760e01b81526001600160a01b038c811660048301528881166024830152604482018390528716906301e3366790606401600060405180830381600087803b158015610e0257600080fd5b505af1158015610e16573d6000803e3d6000fd5b50505050610e4f848a8e604051602001610e3293929190611990565b6040516020818303038152906040528051906020012060016114c9565b610e87848a604051602001610e65929190611cd7565b6040516020818303038152906040528051906020012082846106279190611ad8565b610eb17f2a198dc52fcc92227defd128b53691549fede64d1dc09eb8af4afa918011a146426112dc565b505050505050505050505050565b6000610ed5826040516020016105419190611a7b565b92915050565b600080610ee6610f1b565b90506000610ef26106fa565b9050610efe8282611413565b9250505090565b600080610f1061076e565b905061079a81611506565b60006103ef7f4fe51b56935f087fa6dd937224299a085a629f85787014a3716e94b165668ee261109d565b600080610f51610f05565b905061079a8161152e565b60006103ef6040518060400160405280600b81526020016a14995dd85c991cd41bdbdb60aa1b815250610fb5565b60006103ef7f2a198dc52fcc92227defd128b53691549fede64d1dc09eb8af4afa918011a14661109d565b600080610fcc836040516020016104379190611d04565b90506001600160a01b038116610ed55760405162461bcd60e51b815260206004820152601260248201527110dbdb9d1c9858dd081b9bdd08199bdd5b9960721b60448201526064016105e4565b6000610ed582611027610edb565b61134a565b60006103ef7f6767702e696e666c6174696f6e2e696e74657276616c2e72617465000000000061109d565b60006104528383604051602001610541929190611913565b6000610ed58283604051602001610541929190611d3c565b6000611093828461196e565b6104529042611af0565b6000805460405163bd02d0f560e01b8152600481018490526101009091046001600160a01b03169063bd02d0f590602401602060405180830381865afa1580156110eb573d6000803e3d6000fd5b505050506040513d601f19601f82011682018060405250810190610ed59190611b07565b600080546040516321f8a72160e01b8152600481018490526101009091046001600160a01b0316906321f8a72190602401602060405180830381865afa15801561115d573d6000803e3d6000fd5b505050506040513d601f19601f82011682018060405250810190610ed59190611d9a565b60008054604051633d70e7e560e11b8152600481018490526101009091046001600160a01b031690637ae1cfca90602401602060405180830381865afa1580156111cf573d6000803e3d6000fd5b505050506040513d601f19601f82011682018060405250810190610ed59190611db7565b6000806112008585610529565b905060008111801561121b5750426112188483611ad8565b11155b801561122f5750600061122d8661106f565b115b95945050505050565b606060006112948360405160200161127991906c636f6e74726163742e6e616d6560981b815260609190911b6001600160601b031916600d82015260210190565b604051602081830303815290604052805190602001206115a0565b90506000815111610ed55760405162461bcd60e51b815260206004820152601260248201527110dbdb9d1c9858dd081b9bdd08199bdd5b9960721b60448201526064016105e4565b600054604051637152429d60e11b815260048101849052602481018390526101009091046001600160a01b03169063e2a4853a906044015b600060405180830381600087803b15801561132e57600080fd5b505af1158015611342573d6000803e3d6000fd5b505050505050565b60006104528284604051602001610541929190611cd7565b60008061136e87610459565b9050600080821180156113815750600086115b80156113955750670de0b6b3a76400008611155b80156113a957506001600160a01b03871615155b80156113b3575060015b80156113c757506113c58589896104dc565b155b1561140857670de0b6b3a76400006113df838861194f565b6113e9919061196e565b9050816113f68583611ad8565b1115611403576000611405565b805b90505b979650505050505050565b6000806114208484611087565b9050801561144157611432818461194f565b61143c9085611ad8565b6104a9565b509192915050565b600061145361076e565b9050600061146082611506565b9050600061146d8261152e565b90508060015461147d9190611ad8565b60015561148d826201518061194f565b6114979084611ad8565b6002556114c47f8b86749aed23efc054fd3cb8918b8a479330a7a4007675a0b393f1baf1751e0a826112dc565b505050565b60005460405163abfdcced60e01b81526004810184905282151560248201526101009091046001600160a01b03169063abfdcced90604401611314565b60008115611526576201518061151c8342611af0565b610ed5919061196e565b506000919050565b6000808215610ed557600061154161102c565b90508015611599576001548060005b8681101561158957670de0b6b3a764000061156b858461194f565b611575919061196e565b91508061158181611dd4565b915050611550565b506115948282611af0565b935050505b5092915050565b600054604051634c373c8d60e11b81526004810183905260609161010090046001600160a01b03169063986e791a90602401600060405180830381865afa1580156115ef573d6000803e3d6000fd5b505050506040513d6000823e601f3d908101601f19168201604052610ed59190810190611ded565b634e487b7160e01b600052604160045260246000fd5b604051601f8201601f1916810167ffffffffffffffff8111828210171561165657611656611617565b604052919050565b600067ffffffffffffffff82111561167857611678611617565b50601f01601f191660200190565b600082601f83011261169757600080fd5b81356116aa6116a58261165e565b61162d565b8181528460208386010111156116bf57600080fd5b816020850160208301376000918101602001919091529392505050565b600080604083850312156116ef57600080fd5b82359150602083013567ffffffffffffffff81111561170d57600080fd5b61171985828601611686565b9150509250929050565b60006020828403121561173557600080fd5b813567ffffffffffffffff81111561174c57600080fd5b6104a984828501611686565b6001600160a01b038116811461176d57600080fd5b50565b60008060006060848603121561178557600080fd5b83359250602084013567ffffffffffffffff8111156117a357600080fd5b6117af86828701611686565b92505060408401356117c081611758565b809150509250925092565b600080604083850312156117de57600080fd5b823567ffffffffffffffff8111156117f557600080fd5b61180185828601611686565b925050602083013561181281611758565b809150509250929050565b801515811461176d57600080fd5b6000806040838503121561183e57600080fd5b823561184981611758565b915060208301356118128161181d565b60008060006060848603121561186e57600080fd5b833567ffffffffffffffff81111561188557600080fd5b61189186828701611686565b93505060208401356118a281611758565b929592945050506040919091013590565b6000806000606084860312156118c857600080fd5b83356118d381611758565b925060208401356118a281611758565b60005b838110156118fe5781810151838201526020016118e6565b8381111561190d576000848401525b50505050565b8281526000825161192b8160208501602087016118e3565b919091016020019392505050565b634e487b7160e01b600052601160045260246000fd5b600081600019048311821515161561196957611969611939565b500290565b60008261198b57634e487b7160e01b600052601260045260246000fd5b500490565b7f726577617264732e706f6f6c2e636c61696d2e696e74657276616c2e636c616981526a6d65722e6164647265737360a81b602082015283602b820152600083516119e281604b8501602088016118e3565b60609390931b6001600160601b031916604b9290930191820192909252605f019392505050565b7f726577617264732e706f6f6c2e636c61696d2e636f6e74726163742e7265676981526a7374657265642e74696d6560a81b602082015260008351611a5581602b8501602088016118e3565b60609390931b6001600160601b031916602b9290930191820192909252603f0192915050565b7f726577617264732e706f6f6c2e636c61696d2e696e74657276616c2e636c616981526e1b595c9ccb9d1bdd185b0b9b995e1d608a1b602082015260008251611acb81602f8501602087016118e3565b91909101602f0192915050565b60008219821115611aeb57611aeb611939565b500190565b600082821015611b0257611b02611939565b500390565b600060208284031215611b1957600080fd5b5051919050565b7f726577617264732e706f6f6c2e636c61696d2e696e74657276616c2e636f6e748152701c9858dd0b9c195c98cb98dd5c9c995b9d607a1b602082015260310190565b6000611b6e82611b20565b6f50726f746f636f6c44414f436c61696d60801b815260100192915050565b7f726577617264732e706f6f6c2e636c61696d2e696e74657276616c2e636f6e748152691c9858dd0b9d1bdd185b60b21b6020820152602a0190565b6000611bd482611b8d565b92835250506f50726f746f636f6c44414f436c61696d60801b602082015260300190565b6000611c0382611b20565b8351611c138183602088016118e3565b019392505050565b7f726577617264732e706f6f6c2e636c61696d2e696e74657276616c2e636f6e7481526d726163742e616c6c6f77616e636560901b602082015260008251611c6a81602e8501602087016118e3565b91909101602e0192915050565b7f726577617264732e706f6f6c2e636c61696d2e696e74657276616c2e636c61698152711b595c9ccb9d1bdd185b0b98dd5c9c995b9d60721b602082015260008251611cca8160328501602087016118e3565b9190910160320192915050565b6000611ce282611b8d565b8481528351611cf88160208401602088016118e3565b01602001949350505050565b6f636f6e74726163742e6164647265737360801b815260008251611d2f8160108501602087016118e3565b9190910160100192915050565b60008351611d4e8184602088016118e3565b6d726577617264732e636c61696d7360901b9083019081526b19dc9bdd5c0b985b5bdd5b9d60a21b600e8201528351611d8e81601a8401602088016118e3565b01601a01949350505050565b600060208284031215611dac57600080fd5b815161045281611758565b600060208284031215611dc957600080fd5b81516104528161181d565b600060018201611de657611de6611939565b5060010190565b600060208284031215611dff57600080fd5b815167ffffffffffffffff811115611e1657600080fd5b8201601f81018413611e2757600080fd5b8051611e356116a58261165e565b818152856020838501011115611e4a57600080fd5b61122f8260208301602086016118e356fea26469706673582212209a12fe83de23a605f10a5f4ab4dd4f9941dadccff2616232875cb7c3e8b42df264736f6c634300080d0033",
  "linkReferences": {},
  "deployedLinkReferences": {}
}