{
  "_format": "hh-sol-artifact-1",
  "contractName": "Storage",
  "sourceName": "contracts/contract/Storage.sol",
  "abi": [
    {
      "inputs": [],
      "stateMutability": "nonpayable",
      "type": "constructor"
    },
    {
      "anonymous": false,
      "inputs": [
        {
          "indexed": false,
          "internalType": "address",
          "name": "oldGuardian",
          "type": "address"
        },
        {
          "indexed": false,
          "internalType": "address",
          "name": "newGuardian",
          "type": "address"
        }
      ],
      "name": "GuardianChanged",
      "type": "event"
    },
    {
      "inputs": [
        {
          "internalType": "bytes32",
          "name": "_key",
          "type": "bytes32"
        },
        {
          "internalType": "uint256",
          "name": "_amount",
          "type": "uint256"
        }
      ],
      "name": "addUint",
      "outputs": [],
      "stateMutability": "nonpayable",
      "type": "function"
    },
    {
      "inputs": [],
      "name": "confirmGuardian",
      "outputs": [],
      "stateMutability": "nonpayable",
      "type": "function"
    },
    {
      "inputs": [
        {
          "internalType": "bytes32",
          "name": "_key",
          "type": "bytes32"
        }
      ],
      "name": "deleteAddress",
      "outputs": [],
      "stateMutability": "nonpayable",
      "type": "function"
    },
    {
      "inputs": [
        {
          "internalType": "bytes32",
          "name": "_key",
          "type": "bytes32"
        }
      ],
      "name": "deleteBool",
      "outputs": [],
      "stateMutability": "nonpayable",
      "type": "function"
    },
    {
      "inputs": [
        {
          "internalType": "bytes32",
          "name": "_key",
          "type": "bytes32"
        }
      ],
      "name": "deleteBytes",
      "outputs": [],
      "stateMutability": "nonpayable",
      "type": "function"
    },
    {
      "inputs": [
        {
          "internalType": "bytes32",
          "name": "_key",
          "type": "bytes32"
        }
      ],
      "name": "deleteBytes32",
      "outputs": [],
      "stateMutability": "nonpayable",
      "type": "function"
    },
    {
      "inputs": [
        {
          "internalType": "bytes32",
          "name": "_key",
          "type": "bytes32"
        }
      ],
      "name": "deleteInt",
      "outputs": [],
      "stateMutability": "nonpayable",
      "type": "function"
    },
    {
      "inputs": [
        {
          "internalType": "bytes32",
          "name": "_key",
          "type": "bytes32"
        }
      ],
      "name": "deleteString",
      "outputs": [],
      "stateMutability": "nonpayable",
      "type": "function"
    },
    {
      "inputs": [
        {
          "internalType": "bytes32",
          "name": "_key",
          "type": "bytes32"
        }
      ],
      "name": "deleteUint",
      "outputs": [],
      "stateMutability": "nonpayable",
      "type": "function"
    },
    {
      "inputs": [
        {
          "internalType": "bytes32",
          "name": "_key",
          "type": "bytes32"
        }
      ],
      "name": "getAddress",
      "outputs": [
        {
          "internalType": "address",
          "name": "r",
          "type": "address"
        }
      ],
      "stateMutability": "view",
      "type": "function"
    },
    {
      "inputs": [
        {
          "internalType": "bytes32",
          "name": "_key",
          "type": "bytes32"
        }
      ],
      "name": "getBool",
      "outputs": [
        {
          "internalType": "bool",
          "name": "r",
          "type": "bool"
        }
      ],
      "stateMutability": "view",
      "type": "function"
    },
    {
      "inputs": [
        {
          "internalType": "bytes32",
          "name": "_key",
          "type": "bytes32"
        }
      ],
      "name": "getBytes",
      "outputs": [
        {
          "internalType": "bytes",
          "name": "",
          "type": "bytes"
        }
      ],
      "stateMutability": "view",
      "type": "function"
    },
    {
      "inputs": [
        {
          "internalType": "bytes32",
          "name": "_key",
          "type": "bytes32"
        }
      ],
      "name": "getBytes32",
      "outputs": [
        {
          "internalType": "bytes32",
          "name": "r",
          "type": "bytes32"
        }
      ],
      "stateMutability": "view",
      "type": "function"
    },
    {
      "inputs": [],
      "name": "getDeployedStatus",
      "outputs": [
        {
          "internalType": "bool",
          "name": "",
          "type": "bool"
        }
      ],
      "stateMutability": "view",
      "type": "function"
    },
    {
      "inputs": [],
      "name": "getGuardian",
      "outputs": [
        {
          "internalType": "address",
          "name": "",
          "type": "address"
        }
      ],
      "stateMutability": "view",
      "type": "function"
    },
    {
      "inputs": [
        {
          "internalType": "bytes32",
          "name": "_key",
          "type": "bytes32"
        }
      ],
      "name": "getInt",
      "outputs": [
        {
          "internalType": "int256",
          "name": "r",
          "type": "int256"
        }
      ],
      "stateMutability": "view",
      "type": "function"
    },
    {
      "inputs": [
        {
          "internalType": "bytes32",
          "name": "_key",
          "type": "bytes32"
        }
      ],
      "name": "getString",
      "outputs": [
        {
          "internalType": "string",
          "name": "",
          "type": "string"
        }
      ],
      "stateMutability": "view",
      "type": "function"
    },
    {
      "inputs": [
        {
          "internalType": "bytes32",
          "name": "_key",
          "type": "bytes32"
        }
      ],
      "name": "getUint",
      "outputs": [
        {
          "internalType": "uint256",
          "name": "r",
          "type": "uint256"
        }
      ],
      "stateMutability": "view",
      "type": "function"
    },
    {
      "inputs": [
        {
          "internalType": "bytes32",
          "name": "_key",
          "type": "bytes32"
        },
        {
          "internalType": "address",
          "name": "_value",
          "type": "address"
        }
      ],
      "name": "setAddress",
      "outputs": [],
      "stateMutability": "nonpayable",
      "type": "function"
    },
    {
      "inputs": [
        {
          "internalType": "bytes32",
          "name": "_key",
          "type": "bytes32"
        },
        {
          "internalType": "bool",
          "name": "_value",
          "type": "bool"
        }
      ],
      "name": "setBool",
      "outputs": [],
      "stateMutability": "nonpayable",
      "type": "function"
    },
    {
      "inputs": [
        {
          "internalType": "bytes32",
          "name": "_key",
          "type": "bytes32"
        },
        {
          "internalType": "bytes",
          "name": "_value",
          "type": "bytes"
        }
      ],
      "name": "setBytes",
      "outputs": [],
      "stateMutability": "nonpayable",
      "type": "function"
    },
    {
      "inputs": [
        {
          "internalType": "bytes32",
          "name": "_key",
          "type": "bytes32"
        },
        {
          "internalType": "bytes32",
          "name": "_value",
          "type": "bytes32"
        }
      ],
      "name": "setBytes32",
      "outputs": [],
      "stateMutability": "nonpayable",
      "type": "function"
    },
    {
      "inputs": [],
      "name": "setDeployedStatus",
      "outputs": [],
      "stateMutability": "nonpayable",
      "type": "function"
    },
    {
      "inputs": [
        {
          "internalType": "address",
          "name": "_newAddress",
          "type": "address"
        }
      ],
      "name": "setGuardian",
      "outputs": [],
      "stateMutability": "nonpayable",
      "type": "function"
    },
    {
      "inputs": [
        {
          "internalType": "bytes32",
          "name": "_key",
          "type": "bytes32"
        },
        {
          "internalType": "int256",
          "name": "_value",
          "type": "int256"
        }
      ],
      "name": "setInt",
      "outputs": [],
      "stateMutability": "nonpayable",
      "type": "function"
    },
    {
      "inputs": [
        {
          "internalType": "bytes32",
          "name": "_key",
          "type": "bytes32"
        },
        {
          "internalType": "string",
          "name": "_value",
          "type": "string"
        }
      ],
      "name": "setString",
      "outputs": [],
      "stateMutability": "nonpayable",
      "type": "function"
    },
    {
      "inputs": [
        {
          "internalType": "bytes32",
          "name": "_key",
          "type": "bytes32"
        },
        {
          "internalType": "uint256",
          "name": "_value",
          "type": "uint256"
        }
      ],
      "name": "setUint",
      "outputs": [],
      "stateMutability": "nonpayable",
      "type": "function"
    },
    {
      "inputs": [
        {
          "internalType": "bytes32",
          "name": "_key",
          "type": "bytes32"
        },
        {
          "internalType": "uint256",
          "name": "_amount",
          "type": "uint256"
        }
      ],
      "name": "subUint",
      "outputs": [],
      "stateMutability": "nonpayable",
      "type": "function"
    }
  ],
  "bytecode": "0x6080604052600a805460ff60a01b1916905534801561001d57600080fd5b50600980546001600160a01b03191633179055611aea8061003f6000396000f3fe608060405234801561001057600080fd5b50600436106101c45760003560e01c8063986e791a116100f9578063ca446dd911610097578063e2b202bf11610071578063e2b202bf14610416578063ebb9d8c914610429578063f6bb3cc41461043c578063febffd991461044f57600080fd5b8063ca446dd9146103d0578063dc97d962146103e3578063e2a4853a1461040357600080fd5b8063abfdcced116100d3578063abfdcced14610377578063adb353dc1461038a578063bd02d0f51461039d578063c031a180146103bd57600080fd5b8063986e791a14610318578063a6ed563e14610338578063a75b87d21461036657600080fd5b80633e49bed0116101665780636e899550116101405780636e899550146102bc5780637ae1cfca146102cf5780638a0dac4a146102f25780638c1600951461030557600080fd5b80633e49bed0146102835780634e91db0814610296578063616b59f6146102a957600080fd5b80631e0ea61e116101a25780631e0ea61e1461021457806321f8a7211461021c5780632c62ff2d1461025d5780632e28d0841461027057600080fd5b80630b9adc57146101c95780630e14a376146101de5780631bed5241146101f1575b600080fd5b6101dc6101d736600461178c565b610457565b005b6101dc6101ec36600461178c565b610555565b600a54600160a01b900460ff165b60405190151581526020015b60405180910390f35b6101dc610657565b61024561022a36600461178c565b6000908152600460205260409020546001600160a01b031690565b6040516001600160a01b03909116815260200161020b565b6101dc61026b36600461178c565b610736565b6101dc61027e3660046117ee565b610832565b6101dc61029136600461183a565b610935565b6101dc6102a436600461183a565b610a2b565b6101dc6102b736600461178c565b610b21565b6101dc6102ca3660046117ee565b610c1f565b6101ff6102dd36600461178c565b60009081526005602052604090205460ff1690565b6101dc610300366004611878565b610d1c565b6101dc61031336600461178c565b610d92565b61032b61032636600461178c565b610e87565b60405161020b91906118e7565b61035861034636600461178c565b60009081526006602052604090205490565b60405190815260200161020b565b6009546001600160a01b0316610245565b6101dc6103853660046118fa565b610f29565b6101dc61039836600461183a565b61102d565b6103586103ab36600461178c565b60009081526002602052604090205490565b61032b6103cb36600461178c565b611141565b6101dc6103de36600461192f565b61115e565b6103586103f136600461178c565b60009081526003602052604090205490565b6101dc61041136600461183a565b611270565b6101dc61042436600461178c565b611366565b6101dc61043736600461183a565b61145b565b6101dc61044a36600461178c565b611559565b6101dc611654565b600a54600160a01b900460ff1615156001036104d5576005600033604051602001610482919061195b565b60408051601f198184030181529181528151602092830120835290820192909252016000205460ff166104d05760405162461bcd60e51b81526004016104c790611990565b60405180910390fd5b610544565b60056000336040516020016104ea919061195b565b60408051601f198184030181529181528151602092830120835290820192909252016000205460ff168061052857506009546001600160a01b031632145b6105445760405162461bcd60e51b81526004016104c7906119c7565b600090815260066020526040812055565b600a54600160a01b900460ff1615156001036105ca576005600033604051602001610580919061195b565b60408051601f198184030181529181528151602092830120835290820192909252016000205460ff166105c55760405162461bcd60e51b81526004016104c790611990565b610639565b60056000336040516020016105df919061195b565b60408051601f198184030181529181528151602092830120835290820192909252016000205460ff168061061d57506009546001600160a01b031632145b6106395760405162461bcd60e51b81526004016104c7906119c7565b600090815260046020526040902080546001600160a01b0319169055565b600a546001600160a01b031633146106ca5760405162461bcd60e51b815260206004820152603060248201527f436f6e6669726d6174696f6e206d75737420636f6d652066726f6d206e65772060448201526f677561726469616e206164647265737360801b60648201526084016104c7565b60098054600a80546001600160a01b038082166001600160a01b0319808616821790965594909116909155604080519190921680825260208201939093527fa14fc14d8620a708a896fd11392a235647d99385500a295f0d7da2a258b2e967910160405180910390a150565b600a54600160a01b900460ff1615156001036107ab576005600033604051602001610761919061195b565b60408051601f198184030181529181528151602092830120835290820192909252016000205460ff166107a65760405162461bcd60e51b81526004016104c790611990565b61081a565b60056000336040516020016107c0919061195b565b60408051601f198184030181529181528151602092830120835290820192909252016000205460ff16806107fe57506009546001600160a01b031632145b61081a5760405162461bcd60e51b81526004016104c7906119c7565b6000908152600560205260409020805460ff19169055565b600a54600160a01b900460ff1615156001036108a757600560003360405160200161085d919061195b565b60408051601f198184030181529181528151602092830120835290820192909252016000205460ff166108a25760405162461bcd60e51b81526004016104c790611990565b610916565b60056000336040516020016108bc919061195b565b60408051601f198184030181529181528151602092830120835290820192909252016000205460ff16806108fa57506009546001600160a01b031632145b6109165760405162461bcd60e51b81526004016104c7906119c7565b600083815260016020526040902061092f9083836116bd565b50505050565b600a54600160a01b900460ff1615156001036109aa576005600033604051602001610960919061195b565b60408051601f198184030181529181528151602092830120835290820192909252016000205460ff166109a55760405162461bcd60e51b81526004016104c790611990565b610a19565b60056000336040516020016109bf919061195b565b60408051601f198184030181529181528151602092830120835290820192909252016000205460ff16806109fd57506009546001600160a01b031632145b610a195760405162461bcd60e51b81526004016104c7906119c7565b60009182526003602052604090912055565b600a54600160a01b900460ff161515600103610aa0576005600033604051602001610a56919061195b565b60408051601f198184030181529181528151602092830120835290820192909252016000205460ff16610a9b5760405162461bcd60e51b81526004016104c790611990565b610b0f565b6005600033604051602001610ab5919061195b565b60408051601f198184030181529181528151602092830120835290820192909252016000205460ff1680610af357506009546001600160a01b031632145b610b0f5760405162461bcd60e51b81526004016104c7906119c7565b60009182526006602052604090912055565b600a54600160a01b900460ff161515600103610b96576005600033604051602001610b4c919061195b565b60408051601f198184030181529181528151602092830120835290820192909252016000205460ff16610b915760405162461bcd60e51b81526004016104c790611990565b610c05565b6005600033604051602001610bab919061195b565b60408051601f198184030181529181528151602092830120835290820192909252016000205460ff1680610be957506009546001600160a01b031632145b610c055760405162461bcd60e51b81526004016104c7906119c7565b6000818152600160205260408120610c1c91611741565b50565b600a54600160a01b900460ff161515600103610c94576005600033604051602001610c4a919061195b565b60408051601f198184030181529181528151602092830120835290820192909252016000205460ff16610c8f5760405162461bcd60e51b81526004016104c790611990565b610d03565b6005600033604051602001610ca9919061195b565b60408051601f198184030181529181528151602092830120835290820192909252016000205460ff1680610ce757506009546001600160a01b031632145b610d035760405162461bcd60e51b81526004016104c7906119c7565b600083815260208190526040902061092f9083836116bd565b6009546001600160a01b03163314610d705760405162461bcd60e51b8152602060048201526017602482015276125cc81b9bdd0819dd585c991a585b881858d8dbdd5b9d604a1b60448201526064016104c7565b600a80546001600160a01b0319166001600160a01b0392909216919091179055565b600a54600160a01b900460ff161515600103610e07576005600033604051602001610dbd919061195b565b60408051601f198184030181529181528151602092830120835290820192909252016000205460ff16610e025760405162461bcd60e51b81526004016104c790611990565b610e76565b6005600033604051602001610e1c919061195b565b60408051601f198184030181529181528151602092830120835290820192909252016000205460ff1680610e5a57506009546001600160a01b031632145b610e765760405162461bcd60e51b81526004016104c7906119c7565b600090815260036020526040812055565b6000818152602081905260409020805460609190610ea490611a35565b80601f0160208091040260200160405190810160405280929190818152602001828054610ed090611a35565b8015610f1d5780601f10610ef257610100808354040283529160200191610f1d565b820191906000526020600020905b815481529060010190602001808311610f0057829003601f168201915b50505050509050919050565b600a54600160a01b900460ff161515600103610f9e576005600033604051602001610f54919061195b565b60408051601f198184030181529181528151602092830120835290820192909252016000205460ff16610f995760405162461bcd60e51b81526004016104c790611990565b61100d565b6005600033604051602001610fb3919061195b565b60408051601f198184030181529181528151602092830120835290820192909252016000205460ff1680610ff157506009546001600160a01b031632145b61100d5760405162461bcd60e51b81526004016104c7906119c7565b600091825260056020526040909120805460ff1916911515919091179055565b600a54600160a01b900460ff1615156001036110a2576005600033604051602001611058919061195b565b60408051601f198184030181529181528151602092830120835290820192909252016000205460ff1661109d5760405162461bcd60e51b81526004016104c790611990565b611111565b60056000336040516020016110b7919061195b565b60408051601f198184030181529181528151602092830120835290820192909252016000205460ff16806110f557506009546001600160a01b031632145b6111115760405162461bcd60e51b81526004016104c7906119c7565b60008281526002602052604090205461112b908290611a85565b6000928352600260205260409092209190915550565b6000818152600160205260409020805460609190610ea490611a35565b600a54600160a01b900460ff1615156001036111d3576005600033604051602001611189919061195b565b60408051601f198184030181529181528151602092830120835290820192909252016000205460ff166111ce5760405162461bcd60e51b81526004016104c790611990565b611242565b60056000336040516020016111e8919061195b565b60408051601f198184030181529181528151602092830120835290820192909252016000205460ff168061122657506009546001600160a01b031632145b6112425760405162461bcd60e51b81526004016104c7906119c7565b60009182526004602052604090912080546001600160a01b0319166001600160a01b03909216919091179055565b600a54600160a01b900460ff1615156001036112e557600560003360405160200161129b919061195b565b60408051601f198184030181529181528151602092830120835290820192909252016000205460ff166112e05760405162461bcd60e51b81526004016104c790611990565b611354565b60056000336040516020016112fa919061195b565b60408051601f198184030181529181528151602092830120835290820192909252016000205460ff168061133857506009546001600160a01b031632145b6113545760405162461bcd60e51b81526004016104c7906119c7565b60009182526002602052604090912055565b600a54600160a01b900460ff1615156001036113db576005600033604051602001611391919061195b565b60408051601f198184030181529181528151602092830120835290820192909252016000205460ff166113d65760405162461bcd60e51b81526004016104c790611990565b61144a565b60056000336040516020016113f0919061195b565b60408051601f198184030181529181528151602092830120835290820192909252016000205460ff168061142e57506009546001600160a01b031632145b61144a5760405162461bcd60e51b81526004016104c7906119c7565b600090815260026020526040812055565b600a54600160a01b900460ff1615156001036114d0576005600033604051602001611486919061195b565b60408051601f198184030181529181528151602092830120835290820192909252016000205460ff166114cb5760405162461bcd60e51b81526004016104c790611990565b61153f565b60056000336040516020016114e5919061195b565b60408051601f198184030181529181528151602092830120835290820192909252016000205460ff168061152357506009546001600160a01b031632145b61153f5760405162461bcd60e51b81526004016104c7906119c7565b60008281526002602052604090205461112b908290611a9d565b600a54600160a01b900460ff1615156001036115ce576005600033604051602001611584919061195b565b60408051601f198184030181529181528151602092830120835290820192909252016000205460ff166115c95760405162461bcd60e51b81526004016104c790611990565b61163d565b60056000336040516020016115e3919061195b565b60408051601f198184030181529181528151602092830120835290820192909252016000205460ff168061162157506009546001600160a01b031632145b61163d5760405162461bcd60e51b81526004016104c7906119c7565b6000818152602081905260408120610c1c91611741565b6009546001600160a01b031633146116a85760405162461bcd60e51b8152602060048201526017602482015276125cc81b9bdd0819dd585c991a585b881858d8dbdd5b9d604a1b60448201526064016104c7565b600a805460ff60a01b1916600160a01b179055565b8280546116c990611a35565b90600052602060002090601f0160209004810192826116eb5760008555611731565b82601f106117045782800160ff19823516178555611731565b82800160010185558215611731579182015b82811115611731578235825591602001919060010190611716565b5061173d929150611777565b5090565b50805461174d90611a35565b6000825580601f1061175d575050565b601f016020900490600052602060002090810190610c1c91905b5b8082111561173d5760008155600101611778565b60006020828403121561179e57600080fd5b5035919050565b60008083601f8401126117b757600080fd5b50813567ffffffffffffffff8111156117cf57600080fd5b6020830191508360208285010111156117e757600080fd5b9250929050565b60008060006040848603121561180357600080fd5b83359250602084013567ffffffffffffffff81111561182157600080fd5b61182d868287016117a5565b9497909650939450505050565b6000806040838503121561184d57600080fd5b50508035926020909101359150565b80356001600160a01b038116811461187357600080fd5b919050565b60006020828403121561188a57600080fd5b6118938261185c565b9392505050565b6000815180845260005b818110156118c0576020818501810151868301820152016118a4565b818111156118d2576000602083870101525b50601f01601f19169290920160200192915050565b602081526000611893602083018461189a565b6000806040838503121561190d57600080fd5b823591506020830135801515811461192457600080fd5b809150509250929050565b6000806040838503121561194257600080fd5b823591506119526020840161185c565b90509250929050565b6e636f6e74726163742e65786973747360881b815260609190911b6bffffffffffffffffffffffff1916600f82015260230190565b6020808252601c908201527f496e76616c6964206f72206f7574646174656420636f6e747261637400000000604082015260600190565b60208082526048908201527f496e76616c6964206f72206f75746461746564206e6574776f726b20636f6e7460408201527f7261637420617474656d7074696e672061636365737320647572696e672064656060820152671c1b1bde5b595b9d60c21b608082015260a00190565b600181811c90821680611a4957607f821691505b602082108103611a6957634e487b7160e01b600052602260045260246000fd5b50919050565b634e487b7160e01b600052601160045260246000fd5b60008219821115611a9857611a98611a6f565b500190565b600082821015611aaf57611aaf611a6f565b50039056fea264697066735822122054c655ca2c5ca6b07239dd56bde216c648226f4a8b42032297aef5a0c9165fc764736f6c634300080d0033",
  "linkReferences": {},
  "deployedLinkReferences": {}
}