{
  "_format": "hh-sol-artifact-1",
  "contractName": "Storage",
  "sourceName": "contracts/contract/Storage.sol",
  "abi": [
    {
      "inputs": [],
      "stateMutability": "nonpayable",
      "type": "constructor"
    },
    {
      "anonymous": false,
      "inputs": [
        {
          "indexed": false,
          "internalType": "address",
          "name": "oldGuardian",
          "type": "address"
        },
        {
          "indexed": false,
          "internalType": "address",
          "name": "newGuardian",
          "type": "address"
        }
      ],
      "name": "GuardianChanged",
      "type": "event"
    },
    {
      "inputs": [
        {
          "internalType": "bytes32",
          "name": "_key",
          "type": "bytes32"
        },
        {
          "internalType": "uint256",
          "name": "_amount",
          "type": "uint256"
        }
      ],
      "name": "addUint",
      "outputs": [],
      "stateMutability": "nonpayable",
      "type": "function"
    },
    {
      "inputs": [],
      "name": "confirmGuardian",
      "outputs": [],
      "stateMutability": "nonpayable",
      "type": "function"
    },
    {
      "inputs": [
        {
          "internalType": "bytes32",
          "name": "_key",
          "type": "bytes32"
        }
      ],
      "name": "deleteAddress",
      "outputs": [],
      "stateMutability": "nonpayable",
      "type": "function"
    },
    {
      "inputs": [
        {
          "internalType": "bytes32",
          "name": "_key",
          "type": "bytes32"
        }
      ],
      "name": "deleteBool",
      "outputs": [],
      "stateMutability": "nonpayable",
      "type": "function"
    },
    {
      "inputs": [
        {
          "internalType": "bytes32",
          "name": "_key",
          "type": "bytes32"
        }
      ],
      "name": "deleteBytes",
      "outputs": [],
      "stateMutability": "nonpayable",
      "type": "function"
    },
    {
      "inputs": [
        {
          "internalType": "bytes32",
          "name": "_key",
          "type": "bytes32"
        }
      ],
      "name": "deleteBytes32",
      "outputs": [],
      "stateMutability": "nonpayable",
      "type": "function"
    },
    {
      "inputs": [
        {
          "internalType": "bytes32",
          "name": "_key",
          "type": "bytes32"
        }
      ],
      "name": "deleteInt",
      "outputs": [],
      "stateMutability": "nonpayable",
      "type": "function"
    },
    {
      "inputs": [
        {
          "internalType": "bytes32",
          "name": "_key",
          "type": "bytes32"
        }
      ],
      "name": "deleteString",
      "outputs": [],
      "stateMutability": "nonpayable",
      "type": "function"
    },
    {
      "inputs": [
        {
          "internalType": "bytes32",
          "name": "_key",
          "type": "bytes32"
        }
      ],
      "name": "deleteUint",
      "outputs": [],
      "stateMutability": "nonpayable",
      "type": "function"
    },
    {
      "inputs": [
        {
          "internalType": "bytes32",
          "name": "_key",
          "type": "bytes32"
        }
      ],
      "name": "getAddress",
      "outputs": [
        {
          "internalType": "address",
          "name": "r",
          "type": "address"
        }
      ],
      "stateMutability": "view",
      "type": "function"
    },
    {
      "inputs": [
        {
          "internalType": "bytes32",
          "name": "_key",
          "type": "bytes32"
        }
      ],
      "name": "getBool",
      "outputs": [
        {
          "internalType": "bool",
          "name": "r",
          "type": "bool"
        }
      ],
      "stateMutability": "view",
      "type": "function"
    },
    {
      "inputs": [
        {
          "internalType": "bytes32",
          "name": "_key",
          "type": "bytes32"
        }
      ],
      "name": "getBytes",
      "outputs": [
        {
          "internalType": "bytes",
          "name": "",
          "type": "bytes"
        }
      ],
      "stateMutability": "view",
      "type": "function"
    },
    {
      "inputs": [
        {
          "internalType": "bytes32",
          "name": "_key",
          "type": "bytes32"
        }
      ],
      "name": "getBytes32",
      "outputs": [
        {
          "internalType": "bytes32",
          "name": "r",
          "type": "bytes32"
        }
      ],
      "stateMutability": "view",
      "type": "function"
    },
    {
      "inputs": [],
      "name": "getDeployedStatus",
      "outputs": [
        {
          "internalType": "bool",
          "name": "",
          "type": "bool"
        }
      ],
      "stateMutability": "view",
      "type": "function"
    },
    {
      "inputs": [],
      "name": "getGuardian",
      "outputs": [
        {
          "internalType": "address",
          "name": "",
          "type": "address"
        }
      ],
      "stateMutability": "view",
      "type": "function"
    },
    {
      "inputs": [
        {
          "internalType": "bytes32",
          "name": "_key",
          "type": "bytes32"
        }
      ],
      "name": "getInt",
      "outputs": [
        {
          "internalType": "int256",
          "name": "r",
          "type": "int256"
        }
      ],
      "stateMutability": "view",
      "type": "function"
    },
    {
      "inputs": [
        {
          "internalType": "bytes32",
          "name": "_key",
          "type": "bytes32"
        }
      ],
      "name": "getString",
      "outputs": [
        {
          "internalType": "string",
          "name": "",
          "type": "string"
        }
      ],
      "stateMutability": "view",
      "type": "function"
    },
    {
      "inputs": [
        {
          "internalType": "bytes32",
          "name": "_key",
          "type": "bytes32"
        }
      ],
      "name": "getUint",
      "outputs": [
        {
          "internalType": "uint256",
          "name": "r",
          "type": "uint256"
        }
      ],
      "stateMutability": "view",
      "type": "function"
    },
    {
      "inputs": [
        {
          "internalType": "bytes32",
          "name": "_key",
          "type": "bytes32"
        },
        {
          "internalType": "address",
          "name": "_value",
          "type": "address"
        }
      ],
      "name": "setAddress",
      "outputs": [],
      "stateMutability": "nonpayable",
      "type": "function"
    },
    {
      "inputs": [
        {
          "internalType": "bytes32",
          "name": "_key",
          "type": "bytes32"
        },
        {
          "internalType": "bool",
          "name": "_value",
          "type": "bool"
        }
      ],
      "name": "setBool",
      "outputs": [],
      "stateMutability": "nonpayable",
      "type": "function"
    },
    {
      "inputs": [
        {
          "internalType": "bytes32",
          "name": "_key",
          "type": "bytes32"
        },
        {
          "internalType": "bytes",
          "name": "_value",
          "type": "bytes"
        }
      ],
      "name": "setBytes",
      "outputs": [],
      "stateMutability": "nonpayable",
      "type": "function"
    },
    {
      "inputs": [
        {
          "internalType": "bytes32",
          "name": "_key",
          "type": "bytes32"
        },
        {
          "internalType": "bytes32",
          "name": "_value",
          "type": "bytes32"
        }
      ],
      "name": "setBytes32",
      "outputs": [],
      "stateMutability": "nonpayable",
      "type": "function"
    },
    {
      "inputs": [],
      "name": "setDeployedStatus",
      "outputs": [],
      "stateMutability": "nonpayable",
      "type": "function"
    },
    {
      "inputs": [
        {
          "internalType": "address",
          "name": "_newAddress",
          "type": "address"
        }
      ],
      "name": "setGuardian",
      "outputs": [],
      "stateMutability": "nonpayable",
      "type": "function"
    },
    {
      "inputs": [
        {
          "internalType": "bytes32",
          "name": "_key",
          "type": "bytes32"
        },
        {
          "internalType": "int256",
          "name": "_value",
          "type": "int256"
        }
      ],
      "name": "setInt",
      "outputs": [],
      "stateMutability": "nonpayable",
      "type": "function"
    },
    {
      "inputs": [
        {
          "internalType": "bytes32",
          "name": "_key",
          "type": "bytes32"
        },
        {
          "internalType": "string",
          "name": "_value",
          "type": "string"
        }
      ],
      "name": "setString",
      "outputs": [],
      "stateMutability": "nonpayable",
      "type": "function"
    },
    {
      "inputs": [
        {
          "internalType": "bytes32",
          "name": "_key",
          "type": "bytes32"
        },
        {
          "internalType": "uint256",
          "name": "_value",
          "type": "uint256"
        }
      ],
      "name": "setUint",
      "outputs": [],
      "stateMutability": "nonpayable",
      "type": "function"
    },
    {
      "inputs": [
        {
          "internalType": "bytes32",
          "name": "_key",
          "type": "bytes32"
        },
        {
          "internalType": "uint256",
          "name": "_amount",
          "type": "uint256"
        }
      ],
      "name": "subUint",
      "outputs": [],
      "stateMutability": "nonpayable",
      "type": "function"
    }
  ],
  "bytecode": "0x60806040526000600860146101000a81548160ff02191690831515021790555034801561002b57600080fd5b5033600760006101000a81548173ffffffffffffffffffffffffffffffffffffffff021916908373ffffffffffffffffffffffffffffffffffffffff1602179055506131ea8061007c6000396000f3fe608060405234801561001057600080fd5b50600436106101c45760003560e01c8063986e791a116100f9578063ca446dd911610097578063e2b202bf11610071578063e2b202bf146104e7578063ebb9d8c914610503578063f6bb3cc41461051f578063febffd991461053b576101c4565b8063ca446dd91461047f578063dc97d9621461049b578063e2a4853a146104cb576101c4565b8063abfdcced116100d3578063abfdcced146103e7578063adb353dc14610403578063bd02d0f51461041f578063c031a1801461044f576101c4565b8063986e791a14610369578063a6ed563e14610399578063a75b87d2146103c9576101c4565b80633e49bed0116101665780636e899550116101405780636e899550146102e55780637ae1cfca146103015780638a0dac4a146103315780638c1600951461034d576101c4565b80633e49bed0146102915780634e91db08146102ad578063616b59f6146102c9576101c4565b80631e0ea61e116101a25780631e0ea61e1461021f57806321f8a721146102295780632c62ff2d146102595780632e28d08414610275576101c4565b80630b9adc57146101c95780630e14a376146101e55780631bed524114610201575b600080fd5b6101e360048036038101906101de9190612770565b610545565b005b6101ff60048036038101906101fa9190612770565b6106e4565b005b6102096108a2565b60405161021691906127b8565b60405180910390f35b6102276108b9565b005b610243600480360381019061023e9190612770565b610a56565b6040516102509190612814565b60405180910390f35b610273600480360381019061026e9190612770565b610a93565b005b61028f600480360381019061028a9190612894565b610c3e565b005b6102ab60048036038101906102a6919061292a565b610deb565b005b6102c760048036038101906102c2919061296a565b610f8c565b005b6102e360048036038101906102de9190612770565b61112d565b005b6102ff60048036038101906102fa9190612a00565b6112d4565b005b61031b60048036038101906103169190612770565b611480565b60405161032891906127b8565b60405180910390f35b61034b60048036038101906103469190612a8c565b6114aa565b005b61036760048036038101906103629190612770565b61157e565b005b610383600480360381019061037e9190612770565b61171d565b6040516103909190612b52565b60405180910390f35b6103b360048036038101906103ae9190612770565b6117c1565b6040516103c09190612b83565b60405180910390f35b6103d16117de565b6040516103de9190612814565b60405180910390f35b61040160048036038101906103fc9190612bca565b611808565b005b61041d60048036038101906104189190612c40565b6119bc565b005b61043960048036038101906104349190612770565b611b7b565b6040516104469190612c8f565b60405180910390f35b61046960048036038101906104649190612770565b611b98565b6040516104769190612cff565b60405180910390f35b61049960048036038101906104949190612d21565b611c3d565b005b6104b560048036038101906104b09190612770565b611e18565b6040516104c29190612d70565b60405180910390f35b6104e560048036038101906104e09190612c40565b611e35565b005b61050160048036038101906104fc9190612770565b611fd6565b005b61051d60048036038101906105189190612c40565b612175565b005b61053960048036038101906105349190612770565b612334565b005b6105436124da565b005b60011515600860149054906101000a900460ff161515036105eb5760056000336040516020016105759190612e2a565b60405160208183030381529060405280519060200120815260200190815260200160002060009054906101000a900460ff166105e6576040517f08c379a00000000000000000000000000000000000000000000000000000000081526004016105dd90612e9c565b60405180910390fd5b6106ca565b60056000336040516020016106009190612e2a565b60405160208183030381529060405280519060200120815260200190815260200160002060009054906101000a900460ff168061068a5750600760009054906101000a900473ffffffffffffffffffffffffffffffffffffffff1673ffffffffffffffffffffffffffffffffffffffff163273ffffffffffffffffffffffffffffffffffffffff16145b6106c9576040517f08c379a00000000000000000000000000000000000000000000000000000000081526004016106c090612f54565b60405180910390fd5b5b600660008281526020019081526020016000206000905550565b60011515600860149054906101000a900460ff1615150361078a5760056000336040516020016107149190612e2a565b60405160208183030381529060405280519060200120815260200190815260200160002060009054906101000a900460ff16610785576040517f08c379a000000000000000000000000000000000000000000000000000000000815260040161077c90612e9c565b60405180910390fd5b610869565b600560003360405160200161079f9190612e2a565b60405160208183030381529060405280519060200120815260200190815260200160002060009054906101000a900460ff16806108295750600760009054906101000a900473ffffffffffffffffffffffffffffffffffffffff1673ffffffffffffffffffffffffffffffffffffffff163273ffffffffffffffffffffffffffffffffffffffff16145b610868576040517f08c379a000000000000000000000000000000000000000000000000000000000815260040161085f90612f54565b60405180910390fd5b5b6004600082815260200190815260200160002060006101000a81549073ffffffffffffffffffffffffffffffffffffffff021916905550565b6000600860149054906101000a900460ff16905090565b600860009054906101000a900473ffffffffffffffffffffffffffffffffffffffff1673ffffffffffffffffffffffffffffffffffffffff163373ffffffffffffffffffffffffffffffffffffffff1614610949576040517f08c379a000000000000000000000000000000000000000000000000000000000815260040161094090612fe6565b60405180910390fd5b6000600760009054906101000a900473ffffffffffffffffffffffffffffffffffffffff169050600860009054906101000a900473ffffffffffffffffffffffffffffffffffffffff16600760006101000a81548173ffffffffffffffffffffffffffffffffffffffff021916908373ffffffffffffffffffffffffffffffffffffffff160217905550600860006101000a81549073ffffffffffffffffffffffffffffffffffffffff02191690557fa14fc14d8620a708a896fd11392a235647d99385500a295f0d7da2a258b2e96781600760009054906101000a900473ffffffffffffffffffffffffffffffffffffffff16604051610a4b929190613006565b60405180910390a150565b60006004600083815260200190815260200160002060009054906101000a900473ffffffffffffffffffffffffffffffffffffffff169050919050565b60011515600860149054906101000a900460ff16151503610b39576005600033604051602001610ac39190612e2a565b60405160208183030381529060405280519060200120815260200190815260200160002060009054906101000a900460ff16610b34576040517f08c379a0000000000000000000000000000000000000000000000000000000008152600401610b2b90612e9c565b60405180910390fd5b610c18565b6005600033604051602001610b4e9190612e2a565b60405160208183030381529060405280519060200120815260200190815260200160002060009054906101000a900460ff1680610bd85750600760009054906101000a900473ffffffffffffffffffffffffffffffffffffffff1673ffffffffffffffffffffffffffffffffffffffff163273ffffffffffffffffffffffffffffffffffffffff16145b610c17576040517f08c379a0000000000000000000000000000000000000000000000000000000008152600401610c0e90612f54565b60405180910390fd5b5b6005600082815260200190815260200160002060006101000a81549060ff021916905550565b60011515600860149054906101000a900460ff16151503610ce4576005600033604051602001610c6e9190612e2a565b60405160208183030381529060405280519060200120815260200190815260200160002060009054906101000a900460ff16610cdf576040517f08c379a0000000000000000000000000000000000000000000000000000000008152600401610cd690612e9c565b60405180910390fd5b610dc3565b6005600033604051602001610cf99190612e2a565b60405160208183030381529060405280519060200120815260200190815260200160002060009054906101000a900460ff1680610d835750600760009054906101000a900473ffffffffffffffffffffffffffffffffffffffff1673ffffffffffffffffffffffffffffffffffffffff163273ffffffffffffffffffffffffffffffffffffffff16145b610dc2576040517f08c379a0000000000000000000000000000000000000000000000000000000008152600401610db990612f54565b60405180910390fd5b5b8181600160008681526020019081526020016000209190610de5929190612587565b50505050565b60011515600860149054906101000a900460ff16151503610e91576005600033604051602001610e1b9190612e2a565b60405160208183030381529060405280519060200120815260200190815260200160002060009054906101000a900460ff16610e8c576040517f08c379a0000000000000000000000000000000000000000000000000000000008152600401610e8390612e9c565b60405180910390fd5b610f70565b6005600033604051602001610ea69190612e2a565b60405160208183030381529060405280519060200120815260200190815260200160002060009054906101000a900460ff1680610f305750600760009054906101000a900473ffffffffffffffffffffffffffffffffffffffff1673ffffffffffffffffffffffffffffffffffffffff163273ffffffffffffffffffffffffffffffffffffffff16145b610f6f576040517f08c379a0000000000000000000000000000000000000000000000000000000008152600401610f6690612f54565b60405180910390fd5b5b8060036000848152602001908152602001600020819055505050565b60011515600860149054906101000a900460ff16151503611032576005600033604051602001610fbc9190612e2a565b60405160208183030381529060405280519060200120815260200190815260200160002060009054906101000a900460ff1661102d576040517f08c379a000000000000000000000000000000000000000000000000000000000815260040161102490612e9c565b60405180910390fd5b611111565b60056000336040516020016110479190612e2a565b60405160208183030381529060405280519060200120815260200190815260200160002060009054906101000a900460ff16806110d15750600760009054906101000a900473ffffffffffffffffffffffffffffffffffffffff1673ffffffffffffffffffffffffffffffffffffffff163273ffffffffffffffffffffffffffffffffffffffff16145b611110576040517f08c379a000000000000000000000000000000000000000000000000000000000815260040161110790612f54565b60405180910390fd5b5b8060066000848152602001908152602001600020819055505050565b60011515600860149054906101000a900460ff161515036111d357600560003360405160200161115d9190612e2a565b60405160208183030381529060405280519060200120815260200190815260200160002060009054906101000a900460ff166111ce576040517f08c379a00000000000000000000000000000000000000000000000000000000081526004016111c590612e9c565b60405180910390fd5b6112b2565b60056000336040516020016111e89190612e2a565b60405160208183030381529060405280519060200120815260200190815260200160002060009054906101000a900460ff16806112725750600760009054906101000a900473ffffffffffffffffffffffffffffffffffffffff1673ffffffffffffffffffffffffffffffffffffffff163273ffffffffffffffffffffffffffffffffffffffff16145b6112b1576040517f08c379a00000000000000000000000000000000000000000000000000000000081526004016112a890612f54565b60405180910390fd5b5b6001600082815260200190815260200160002060006112d1919061260d565b50565b60011515600860149054906101000a900460ff1615150361137a5760056000336040516020016113049190612e2a565b60405160208183030381529060405280519060200120815260200190815260200160002060009054906101000a900460ff16611375576040517f08c379a000000000000000000000000000000000000000000000000000000000815260040161136c90612e9c565b60405180910390fd5b611459565b600560003360405160200161138f9190612e2a565b60405160208183030381529060405280519060200120815260200190815260200160002060009054906101000a900460ff16806114195750600760009054906101000a900473ffffffffffffffffffffffffffffffffffffffff1673ffffffffffffffffffffffffffffffffffffffff163273ffffffffffffffffffffffffffffffffffffffff16145b611458576040517f08c379a000000000000000000000000000000000000000000000000000000000815260040161144f90612f54565b60405180910390fd5b5b8181600080868152602001908152602001600020919061147a92919061264d565b50505050565b60006005600083815260200190815260200160002060009054906101000a900460ff169050919050565b600760009054906101000a900473ffffffffffffffffffffffffffffffffffffffff1673ffffffffffffffffffffffffffffffffffffffff163373ffffffffffffffffffffffffffffffffffffffff161461153a576040517f08c379a00000000000000000000000000000000000000000000000000000000081526004016115319061307b565b60405180910390fd5b80600860006101000a81548173ffffffffffffffffffffffffffffffffffffffff021916908373ffffffffffffffffffffffffffffffffffffffff16021790555050565b60011515600860149054906101000a900460ff161515036116245760056000336040516020016115ae9190612e2a565b60405160208183030381529060405280519060200120815260200190815260200160002060009054906101000a900460ff1661161f576040517f08c379a000000000000000000000000000000000000000000000000000000000815260040161161690612e9c565b60405180910390fd5b611703565b60056000336040516020016116399190612e2a565b60405160208183030381529060405280519060200120815260200190815260200160002060009054906101000a900460ff16806116c35750600760009054906101000a900473ffffffffffffffffffffffffffffffffffffffff1673ffffffffffffffffffffffffffffffffffffffff163273ffffffffffffffffffffffffffffffffffffffff16145b611702576040517f08c379a00000000000000000000000000000000000000000000000000000000081526004016116f990612f54565b60405180910390fd5b5b600360008281526020019081526020016000206000905550565b6060600080838152602001908152602001600020805461173c906130ca565b80601f0160208091040260200160405190810160405280929190818152602001828054611768906130ca565b80156117b55780601f1061178a576101008083540402835291602001916117b5565b820191906000526020600020905b81548152906001019060200180831161179857829003601f168201915b50505050509050919050565b600060066000838152602001908152602001600020549050919050565b6000600760009054906101000a900473ffffffffffffffffffffffffffffffffffffffff16905090565b60011515600860149054906101000a900460ff161515036118ae5760056000336040516020016118389190612e2a565b60405160208183030381529060405280519060200120815260200190815260200160002060009054906101000a900460ff166118a9576040517f08c379a00000000000000000000000000000000000000000000000000000000081526004016118a090612e9c565b60405180910390fd5b61198d565b60056000336040516020016118c39190612e2a565b60405160208183030381529060405280519060200120815260200190815260200160002060009054906101000a900460ff168061194d5750600760009054906101000a900473ffffffffffffffffffffffffffffffffffffffff1673ffffffffffffffffffffffffffffffffffffffff163273ffffffffffffffffffffffffffffffffffffffff16145b61198c576040517f08c379a000000000000000000000000000000000000000000000000000000000815260040161198390612f54565b60405180910390fd5b5b806005600084815260200190815260200160002060006101000a81548160ff0219169083151502179055505050565b60011515600860149054906101000a900460ff16151503611a625760056000336040516020016119ec9190612e2a565b60405160208183030381529060405280519060200120815260200190815260200160002060009054906101000a900460ff16611a5d576040517f08c379a0000000000000000000000000000000000000000000000000000000008152600401611a5490612e9c565b60405180910390fd5b611b41565b6005600033604051602001611a779190612e2a565b60405160208183030381529060405280519060200120815260200190815260200160002060009054906101000a900460ff1680611b015750600760009054906101000a900473ffffffffffffffffffffffffffffffffffffffff1673ffffffffffffffffffffffffffffffffffffffff163273ffffffffffffffffffffffffffffffffffffffff16145b611b40576040517f08c379a0000000000000000000000000000000000000000000000000000000008152600401611b3790612f54565b60405180910390fd5b5b806002600084815260200190815260200160002054611b60919061312a565b60026000848152602001908152602001600020819055505050565b600060026000838152602001908152602001600020549050919050565b6060600160008381526020019081526020016000208054611bb8906130ca565b80601f0160208091040260200160405190810160405280929190818152602001828054611be4906130ca565b8015611c315780601f10611c0657610100808354040283529160200191611c31565b820191906000526020600020905b815481529060010190602001808311611c1457829003601f168201915b50505050509050919050565b60011515600860149054906101000a900460ff16151503611ce3576005600033604051602001611c6d9190612e2a565b60405160208183030381529060405280519060200120815260200190815260200160002060009054906101000a900460ff16611cde576040517f08c379a0000000000000000000000000000000000000000000000000000000008152600401611cd590612e9c565b60405180910390fd5b611dc2565b6005600033604051602001611cf89190612e2a565b60405160208183030381529060405280519060200120815260200190815260200160002060009054906101000a900460ff1680611d825750600760009054906101000a900473ffffffffffffffffffffffffffffffffffffffff1673ffffffffffffffffffffffffffffffffffffffff163273ffffffffffffffffffffffffffffffffffffffff16145b611dc1576040517f08c379a0000000000000000000000000000000000000000000000000000000008152600401611db890612f54565b60405180910390fd5b5b806004600084815260200190815260200160002060006101000a81548173ffffffffffffffffffffffffffffffffffffffff021916908373ffffffffffffffffffffffffffffffffffffffff1602179055505050565b600060036000838152602001908152602001600020549050919050565b60011515600860149054906101000a900460ff16151503611edb576005600033604051602001611e659190612e2a565b60405160208183030381529060405280519060200120815260200190815260200160002060009054906101000a900460ff16611ed6576040517f08c379a0000000000000000000000000000000000000000000000000000000008152600401611ecd90612e9c565b60405180910390fd5b611fba565b6005600033604051602001611ef09190612e2a565b60405160208183030381529060405280519060200120815260200190815260200160002060009054906101000a900460ff1680611f7a5750600760009054906101000a900473ffffffffffffffffffffffffffffffffffffffff1673ffffffffffffffffffffffffffffffffffffffff163273ffffffffffffffffffffffffffffffffffffffff16145b611fb9576040517f08c379a0000000000000000000000000000000000000000000000000000000008152600401611fb090612f54565b60405180910390fd5b5b8060026000848152602001908152602001600020819055505050565b60011515600860149054906101000a900460ff1615150361207c5760056000336040516020016120069190612e2a565b60405160208183030381529060405280519060200120815260200190815260200160002060009054906101000a900460ff16612077576040517f08c379a000000000000000000000000000000000000000000000000000000000815260040161206e90612e9c565b60405180910390fd5b61215b565b60056000336040516020016120919190612e2a565b60405160208183030381529060405280519060200120815260200190815260200160002060009054906101000a900460ff168061211b5750600760009054906101000a900473ffffffffffffffffffffffffffffffffffffffff1673ffffffffffffffffffffffffffffffffffffffff163273ffffffffffffffffffffffffffffffffffffffff16145b61215a576040517f08c379a000000000000000000000000000000000000000000000000000000000815260040161215190612f54565b60405180910390fd5b5b600260008281526020019081526020016000206000905550565b60011515600860149054906101000a900460ff1615150361221b5760056000336040516020016121a59190612e2a565b60405160208183030381529060405280519060200120815260200190815260200160002060009054906101000a900460ff16612216576040517f08c379a000000000000000000000000000000000000000000000000000000000815260040161220d90612e9c565b60405180910390fd5b6122fa565b60056000336040516020016122309190612e2a565b60405160208183030381529060405280519060200120815260200190815260200160002060009054906101000a900460ff16806122ba5750600760009054906101000a900473ffffffffffffffffffffffffffffffffffffffff1673ffffffffffffffffffffffffffffffffffffffff163273ffffffffffffffffffffffffffffffffffffffff16145b6122f9576040517f08c379a00000000000000000000000000000000000000000000000000000000081526004016122f090612f54565b60405180910390fd5b5b8060026000848152602001908152602001600020546123199190613180565b60026000848152602001908152602001600020819055505050565b60011515600860149054906101000a900460ff161515036123da5760056000336040516020016123649190612e2a565b60405160208183030381529060405280519060200120815260200190815260200160002060009054906101000a900460ff166123d5576040517f08c379a00000000000000000000000000000000000000000000000000000000081526004016123cc90612e9c565b60405180910390fd5b6124b9565b60056000336040516020016123ef9190612e2a565b60405160208183030381529060405280519060200120815260200190815260200160002060009054906101000a900460ff16806124795750600760009054906101000a900473ffffffffffffffffffffffffffffffffffffffff1673ffffffffffffffffffffffffffffffffffffffff163273ffffffffffffffffffffffffffffffffffffffff16145b6124b8576040517f08c379a00000000000000000000000000000000000000000000000000000000081526004016124af90612f54565b60405180910390fd5b5b60008082815260200190815260200160002060006124d791906126d3565b50565b600760009054906101000a900473ffffffffffffffffffffffffffffffffffffffff1673ffffffffffffffffffffffffffffffffffffffff163373ffffffffffffffffffffffffffffffffffffffff161461256a576040517f08c379a00000000000000000000000000000000000000000000000000000000081526004016125619061307b565b60405180910390fd5b6001600860146101000a81548160ff021916908315150217905550565b828054612593906130ca565b90600052602060002090601f0160209004810192826125b557600085556125fc565b82601f106125ce57803560ff19168380011785556125fc565b828001600101855582156125fc579182015b828111156125fb5782358255916020019190600101906125e0565b5b5090506126099190612713565b5090565b508054612619906130ca565b6000825580601f1061262b575061264a565b601f0160209004906000526020600020908101906126499190612713565b5b50565b828054612659906130ca565b90600052602060002090601f01602090048101928261267b57600085556126c2565b82601f1061269457803560ff19168380011785556126c2565b828001600101855582156126c2579182015b828111156126c15782358255916020019190600101906126a6565b5b5090506126cf9190612713565b5090565b5080546126df906130ca565b6000825580601f106126f15750612710565b601f01602090049060005260206000209081019061270f9190612713565b5b50565b5b8082111561272c576000816000905550600101612714565b5090565b600080fd5b600080fd5b6000819050919050565b61274d8161273a565b811461275857600080fd5b50565b60008135905061276a81612744565b92915050565b60006020828403121561278657612785612730565b5b60006127948482850161275b565b91505092915050565b60008115159050919050565b6127b28161279d565b82525050565b60006020820190506127cd60008301846127a9565b92915050565b600073ffffffffffffffffffffffffffffffffffffffff82169050919050565b60006127fe826127d3565b9050919050565b61280e816127f3565b82525050565b60006020820190506128296000830184612805565b92915050565b600080fd5b600080fd5b600080fd5b60008083601f8401126128545761285361282f565b5b8235905067ffffffffffffffff81111561287157612870612834565b5b60208301915083600182028301111561288d5761288c612839565b5b9250929050565b6000806000604084860312156128ad576128ac612730565b5b60006128bb8682870161275b565b935050602084013567ffffffffffffffff8111156128dc576128db612735565b5b6128e88682870161283e565b92509250509250925092565b6000819050919050565b612907816128f4565b811461291257600080fd5b50565b600081359050612924816128fe565b92915050565b6000806040838503121561294157612940612730565b5b600061294f8582860161275b565b925050602061296085828601612915565b9150509250929050565b6000806040838503121561298157612980612730565b5b600061298f8582860161275b565b92505060206129a08582860161275b565b9150509250929050565b60008083601f8401126129c0576129bf61282f565b5b8235905067ffffffffffffffff8111156129dd576129dc612834565b5b6020830191508360018202830111156129f9576129f8612839565b5b9250929050565b600080600060408486031215612a1957612a18612730565b5b6000612a278682870161275b565b935050602084013567ffffffffffffffff811115612a4857612a47612735565b5b612a54868287016129aa565b92509250509250925092565b612a69816127f3565b8114612a7457600080fd5b50565b600081359050612a8681612a60565b92915050565b600060208284031215612aa257612aa1612730565b5b6000612ab084828501612a77565b91505092915050565b600081519050919050565b600082825260208201905092915050565b60005b83811015612af3578082015181840152602081019050612ad8565b83811115612b02576000848401525b50505050565b6000601f19601f8301169050919050565b6000612b2482612ab9565b612b2e8185612ac4565b9350612b3e818560208601612ad5565b612b4781612b08565b840191505092915050565b60006020820190508181036000830152612b6c8184612b19565b905092915050565b612b7d8161273a565b82525050565b6000602082019050612b986000830184612b74565b92915050565b612ba78161279d565b8114612bb257600080fd5b50565b600081359050612bc481612b9e565b92915050565b60008060408385031215612be157612be0612730565b5b6000612bef8582860161275b565b9250506020612c0085828601612bb5565b9150509250929050565b6000819050919050565b612c1d81612c0a565b8114612c2857600080fd5b50565b600081359050612c3a81612c14565b92915050565b60008060408385031215612c5757612c56612730565b5b6000612c658582860161275b565b9250506020612c7685828601612c2b565b9150509250929050565b612c8981612c0a565b82525050565b6000602082019050612ca46000830184612c80565b92915050565b600081519050919050565b600082825260208201905092915050565b6000612cd182612caa565b612cdb8185612cb5565b9350612ceb818560208601612ad5565b612cf481612b08565b840191505092915050565b60006020820190508181036000830152612d198184612cc6565b905092915050565b60008060408385031215612d3857612d37612730565b5b6000612d468582860161275b565b9250506020612d5785828601612a77565b9150509250929050565b612d6a816128f4565b82525050565b6000602082019050612d856000830184612d61565b92915050565b600081905092915050565b7f636f6e74726163742e6578697374730000000000000000000000000000000000600082015250565b6000612dcc600f83612d8b565b9150612dd782612d96565b600f82019050919050565b60008160601b9050919050565b6000612dfa82612de2565b9050919050565b6000612e0c82612def565b9050919050565b612e24612e1f826127f3565b612e01565b82525050565b6000612e3582612dbf565b9150612e418284612e13565b60148201915081905092915050565b7f496e76616c6964206f72206f7574646174656420636f6e747261637400000000600082015250565b6000612e86601c83612ac4565b9150612e9182612e50565b602082019050919050565b60006020820190508181036000830152612eb581612e79565b9050919050565b7f496e76616c6964206f72206f75746461746564206e6574776f726b20636f6e7460008201527f7261637420617474656d7074696e672061636365737320647572696e6720646560208201527f706c6f796d656e74000000000000000000000000000000000000000000000000604082015250565b6000612f3e604883612ac4565b9150612f4982612ebc565b606082019050919050565b60006020820190508181036000830152612f6d81612f31565b9050919050565b7f436f6e6669726d6174696f6e206d75737420636f6d652066726f6d206e65772060008201527f677561726469616e206164647265737300000000000000000000000000000000602082015250565b6000612fd0603083612ac4565b9150612fdb82612f74565b604082019050919050565b60006020820190508181036000830152612fff81612fc3565b9050919050565b600060408201905061301b6000830185612805565b6130286020830184612805565b9392505050565b7f4973206e6f7420677561726469616e206163636f756e74000000000000000000600082015250565b6000613065601783612ac4565b91506130708261302f565b602082019050919050565b6000602082019050818103600083015261309481613058565b9050919050565b7f4e487b7100000000000000000000000000000000000000000000000000000000600052602260045260246000fd5b600060028204905060018216806130e257607f821691505b6020821081036130f5576130f461309b565b5b50919050565b7f4e487b7100000000000000000000000000000000000000000000000000000000600052601160045260246000fd5b600061313582612c0a565b915061314083612c0a565b9250827fffffffffffffffffffffffffffffffffffffffffffffffffffffffffffffffff03821115613175576131746130fb565b5b828201905092915050565b600061318b82612c0a565b915061319683612c0a565b9250828210156131a9576131a86130fb565b5b82820390509291505056fea264697066735822122032a0c945ac4f9e8538f6ed7bbbc5b03bb5fa2bb16ff6ae97c8fbe0b81ca994d864736f6c634300080d0033",
  "linkReferences": {},
  "deployedLinkReferences": {}
}