{
  "_format": "hh-sol-artifact-1",
  "contractName": "MultisigManager",
  "sourceName": "contracts/contract/MultisigManager.sol",
  "abi": [
    {
      "inputs": [
        {
          "internalType": "contract Storage",
          "name": "storageAddress",
          "type": "address"
        }
      ],
      "stateMutability": "nonpayable",
      "type": "constructor"
    },
    {
      "inputs": [],
      "name": "MultisigAlreadyRegistered",
      "type": "error"
    },
    {
      "inputs": [],
      "name": "MultisigDisabled",
      "type": "error"
    },
    {
      "inputs": [],
      "name": "MultisigNotFound",
      "type": "error"
    },
    {
      "inputs": [],
      "name": "NoEnabledMultisigFound",
      "type": "error"
    },
    {
      "inputs": [],
      "name": "SignatureInvalid",
      "type": "error"
    },
    {
      "anonymous": false,
      "inputs": [
        {
          "indexed": true,
          "internalType": "address",
          "name": "addr",
          "type": "address"
        }
      ],
      "name": "DisabledMultisig",
      "type": "event"
    },
    {
      "anonymous": false,
      "inputs": [
        {
          "indexed": true,
          "internalType": "address",
          "name": "addr",
          "type": "address"
        }
      ],
      "name": "EnabledMultisig",
      "type": "event"
    },
    {
      "anonymous": false,
      "inputs": [
        {
          "indexed": true,
          "internalType": "address",
          "name": "addr",
          "type": "address"
        }
      ],
      "name": "RegisteredMultisig",
      "type": "event"
    },
    {
      "inputs": [
        {
          "internalType": "address",
          "name": "addr",
          "type": "address"
        }
      ],
      "name": "disableMultisig",
      "outputs": [],
      "stateMutability": "nonpayable",
      "type": "function"
    },
    {
      "inputs": [
        {
          "internalType": "address",
          "name": "addr",
          "type": "address"
        }
      ],
      "name": "enableMultisig",
      "outputs": [],
      "stateMutability": "nonpayable",
      "type": "function"
    },
    {
      "inputs": [
        {
          "internalType": "address",
          "name": "addr",
          "type": "address"
        }
      ],
      "name": "getIndexOf",
      "outputs": [
        {
          "internalType": "int256",
          "name": "",
          "type": "int256"
        }
      ],
      "stateMutability": "view",
      "type": "function"
    },
    {
      "inputs": [
        {
          "internalType": "uint256",
          "name": "index",
          "type": "uint256"
        }
      ],
      "name": "getMultisig",
      "outputs": [
        {
          "internalType": "address",
          "name": "addr",
          "type": "address"
        },
        {
          "internalType": "bool",
          "name": "enabled",
          "type": "bool"
        }
      ],
      "stateMutability": "view",
      "type": "function"
    },
    {
      "inputs": [],
      "name": "getNextActiveMultisig",
      "outputs": [
        {
          "internalType": "address",
          "name": "",
          "type": "address"
        }
      ],
      "stateMutability": "view",
      "type": "function"
    },
    {
      "inputs": [
        {
          "internalType": "string",
          "name": "_contractName",
          "type": "string"
        }
      ],
      "name": "getPublicContractAddress",
      "outputs": [
        {
          "internalType": "address",
          "name": "",
          "type": "address"
        }
      ],
      "stateMutability": "view",
      "type": "function"
    },
    {
      "inputs": [
        {
          "internalType": "bytes32",
          "name": "settingNameSpace",
          "type": "bytes32"
        },
        {
          "internalType": "string",
          "name": "_settingPath",
          "type": "string"
        }
      ],
      "name": "getSettingAddress",
      "outputs": [
        {
          "internalType": "address",
          "name": "",
          "type": "address"
        }
      ],
      "stateMutability": "view",
      "type": "function"
    },
    {
      "inputs": [
        {
          "internalType": "bytes32",
          "name": "settingNameSpace",
          "type": "bytes32"
        },
        {
          "internalType": "string",
          "name": "_settingPath",
          "type": "string"
        }
      ],
      "name": "getSettingBool",
      "outputs": [
        {
          "internalType": "bool",
          "name": "",
          "type": "bool"
        }
      ],
      "stateMutability": "view",
      "type": "function"
    },
    {
      "inputs": [
        {
          "internalType": "bytes32",
          "name": "settingNameSpace",
          "type": "bytes32"
        },
        {
          "internalType": "string",
          "name": "_settingPath",
          "type": "string"
        }
      ],
      "name": "getSettingUint",
      "outputs": [
        {
          "internalType": "uint256",
          "name": "",
          "type": "uint256"
        }
      ],
      "stateMutability": "view",
      "type": "function"
    },
    {
      "inputs": [
        {
          "internalType": "address",
          "name": "addr",
          "type": "address"
        }
      ],
      "name": "registerMultisig",
      "outputs": [],
      "stateMutability": "nonpayable",
      "type": "function"
    },
    {
      "inputs": [],
      "name": "version",
      "outputs": [
        {
          "internalType": "uint8",
          "name": "",
          "type": "uint8"
        }
      ],
      "stateMutability": "view",
      "type": "function"
    }
  ],
  "bytecode": "0x608060405234801561001057600080fd5b50604051610ccc380380610ccc83398101604081905261002f91610063565b6000805460ff196001600160a01b0390931661010002929092166001600160a81b0319909216919091176001179055610093565b60006020828403121561007557600080fd5b81516001600160a01b038116811461008c57600080fd5b9392505050565b610c2a806100a26000396000f3fe608060405234801561001057600080fd5b50600436106100a95760003560e01c8063867533e611610071578063867533e6146101565780639d63c4501461015e578063a0ce614614610171578063cff0b64814610184578063dd1d4c8314610197578063f4d70e78146101c957600080fd5b8063017df522146100ae57806306eaa68b146100d45780630964e316146100ff578063232de7161461011457806354fd4d5014610137575b600080fd5b6100c16100bc3660046108af565b6101dc565b6040519081526020015b60405180910390f35b6100e76100e236600461096f565b61021f565b6040516001600160a01b0390911681526020016100cb565b61011261010d3660046108af565b610259565b005b61012761012236600461096f565b6102ee565b60405190151581526020016100cb565b6000546101449060ff1681565b60405160ff90911681526020016100cb565b6100e7610321565b61011261016c3660046108af565b6103a6565b61011261017f3660046108af565b61043b565b6100e76101923660046109b6565b610567565b6101aa6101a53660046109f3565b6105cf565b604080516001600160a01b0390931683529015156020830152016100cb565b6100c16101d736600461096f565b610603565b6000600161020f836040516020016101f49190610a0c565b6040516020818303038152906040528051906020012061061b565b6102199190610a56565b92915050565b60006102528383604051602001610237929190610ad0565b6040516020818303038152906040528051906020012061068d565b9392505050565b6000610264826101dc565b90508019610285576040516314b104f960e31b815260040160405180910390fd5b6102b6816040516020016102999190610ae2565b6040516020818303038152906040528051906020012060016106ff565b6040516001600160a01b038316907f0a39c726939785405c5ef0fd0c757a0ccf305aafc25944c622565fb5dca0148d90600090a25050565b60006102528383604051602001610306929190610ad0565b6040516020818303038152906040528051906020012061076e565b60008061034d7f778484468bc504108f077f6bf471293e4138c2d117c6f33607855518cf4bda7961061b565b905060008060005b8381101561038c57610366816105cf565b9093509150811561037a5750909392505050565b8061038481610b14565b915050610355565b50604051632a7d69c960e01b815260040160405180910390fd5b60006103b1826101dc565b905080196103d2576040516314b104f960e31b815260040160405180910390fd5b610403816040516020016103e69190610ae2565b6040516020818303038152906040528051906020012060006106ff565b6040516001600160a01b038316907f9d76c44f89b275284e3ebce0152b36dbe7f0e37c1a7e317f4f6bbfa7b078915090600090a25050565b6000610446826101dc565b9050806000191461046a57604051636cb5c2f760e11b815260040160405180910390fd5b60006104957f778484468bc504108f077f6bf471293e4138c2d117c6f33607855518cf4bda7961061b565b90506104c7816040516020016104ab9190610b2d565b60405160208183030381529060405280519060200120846107e0565b610503836040516020016104db9190610a0c565b604051602081830303815290604052805190602001208260016104fe9190610b5f565b61081f565b61052e7f778484468bc504108f077f6bf471293e4138c2d117c6f33607855518cf4bda79600161085b565b6040516001600160a01b038416907f57c9a75c0091f8fa0f9960e8751897f56aa5905f47fc04f85111eee9e4cd94b090600090a2505050565b60008061057e836040516020016102379190610b77565b90506001600160a01b0381166102195760405162461bcd60e51b815260206004820152601260248201527110dbdb9d1c9858dd081b9bdd08199bdd5b9960721b604482015260640160405180910390fd5b6000806105e6836040516020016102379190610b2d565b91506105fc836040516020016103069190610ae2565b9050915091565b600061025283836040516020016101f4929190610ad0565b6000805460405163bd02d0f560e01b8152600481018490526101009091046001600160a01b03169063bd02d0f590602401602060405180830381865afa158015610669573d6000803e3d6000fd5b505050506040513d601f19601f820116820180604052508101906102199190610b9c565b600080546040516321f8a72160e01b8152600481018490526101009091046001600160a01b0316906321f8a72190602401602060405180830381865afa1580156106db573d6000803e3d6000fd5b505050506040513d601f19601f820116820180604052508101906102199190610bb5565b60005460405163abfdcced60e01b81526004810184905282151560248201526101009091046001600160a01b03169063abfdcced906044015b600060405180830381600087803b15801561075257600080fd5b505af1158015610766573d6000803e3d6000fd5b505050505050565b60008054604051633d70e7e560e11b8152600481018490526101009091046001600160a01b031690637ae1cfca90602401602060405180830381865afa1580156107bc573d6000803e3d6000fd5b505050506040513d601f19601f820116820180604052508101906102199190610bd2565b60005460405163ca446dd960e01b8152600481018490526001600160a01b0383811660248301526101009092049091169063ca446dd990604401610738565b600054604051637152429d60e11b815260048101849052602481018390526101009091046001600160a01b03169063e2a4853a90604401610738565b600054604051632b6cd4f760e21b815260048101849052602481018390526101009091046001600160a01b03169063adb353dc90604401610738565b6001600160a01b03811681146108ac57600080fd5b50565b6000602082840312156108c157600080fd5b813561025281610897565b634e487b7160e01b600052604160045260246000fd5b600082601f8301126108f357600080fd5b813567ffffffffffffffff8082111561090e5761090e6108cc565b604051601f8301601f19908116603f01168101908282118183101715610936576109366108cc565b8160405283815286602085880101111561094f57600080fd5b836020870160208301376000602085830101528094505050505092915050565b6000806040838503121561098257600080fd5b82359150602083013567ffffffffffffffff8111156109a057600080fd5b6109ac858286016108e2565b9150509250929050565b6000602082840312156109c857600080fd5b813567ffffffffffffffff8111156109df57600080fd5b6109eb848285016108e2565b949350505050565b600060208284031215610a0557600080fd5b5035919050565b6d0daead8e8d2e6d2ce5cd2dcc8caf60931b815260609190911b6bffffffffffffffffffffffff1916600e82015260220190565b634e487b7160e01b600052601160045260246000fd5b60008083128015600160ff1b850184121615610a7457610a74610a40565b6001600160ff1b0384018313811615610a8f57610a8f610a40565b50500390565b6000815160005b81811015610ab65760208185018101518683015201610a9c565b81811115610ac5576000828601525b509290920192915050565b82815260006109eb6020830184610a95565b6c6d756c74697369672e6974656d60981b8152600d810191909152670b995b98589b195960c21b602d82015260350190565b600060018201610b2657610b26610a40565b5060010190565b6c6d756c74697369672e6974656d60981b8152600d810191909152672e6164647265737360c01b602d82015260350190565b60008219821115610b7257610b72610a40565b500190565b6f636f6e74726163742e6164647265737360801b815260006102526010830184610a95565b600060208284031215610bae57600080fd5b5051919050565b600060208284031215610bc757600080fd5b815161025281610897565b600060208284031215610be457600080fd5b8151801515811461025257600080fdfea26469706673582212208112566e8b7b118ae0204cc9078e7c3c6c7f29ea8b918b08e8bc210b2319748b64736f6c634300080d0033",
  "linkReferences": {},
  "deployedLinkReferences": {}
}