{
  "_format": "hh-sol-artifact-1",
  "contractName": "MultisigManager",
  "sourceName": "contracts/contract/MultisigManager.sol",
  "abi": [
    {
      "inputs": [
        {
          "internalType": "contract IStorage",
          "name": "storageAddress",
          "type": "address"
        }
      ],
      "stateMutability": "nonpayable",
      "type": "constructor"
    },
    {
      "inputs": [],
      "name": "MultisigAlreadyRegistered",
      "type": "error"
    },
    {
      "inputs": [],
      "name": "MultisigDisabled",
      "type": "error"
    },
    {
      "inputs": [],
      "name": "MultisigNotFound",
      "type": "error"
    },
    {
      "inputs": [],
      "name": "SignatureInvalid",
      "type": "error"
    },
    {
      "anonymous": false,
      "inputs": [
        {
          "indexed": true,
          "internalType": "address",
          "name": "addr",
          "type": "address"
        }
      ],
      "name": "DisabledMultisig",
      "type": "event"
    },
    {
      "anonymous": false,
      "inputs": [
        {
          "indexed": true,
          "internalType": "address",
          "name": "addr",
          "type": "address"
        }
      ],
      "name": "EnabledMultisig",
      "type": "event"
    },
    {
      "anonymous": false,
      "inputs": [
        {
          "indexed": true,
          "internalType": "address",
          "name": "addr",
          "type": "address"
        }
      ],
      "name": "RegisteredMultisig",
      "type": "event"
    },
    {
      "inputs": [
        {
          "internalType": "address",
          "name": "addr",
          "type": "address"
        }
      ],
      "name": "disableMultisig",
      "outputs": [],
      "stateMutability": "nonpayable",
      "type": "function"
    },
    {
      "inputs": [
        {
          "internalType": "address",
          "name": "addr",
          "type": "address"
        }
      ],
      "name": "enableMultisig",
      "outputs": [],
      "stateMutability": "nonpayable",
      "type": "function"
    },
    {
      "inputs": [
        {
          "internalType": "address",
          "name": "addr",
          "type": "address"
        }
      ],
      "name": "getIndexOf",
      "outputs": [
        {
          "internalType": "int256",
          "name": "",
          "type": "int256"
        }
      ],
      "stateMutability": "view",
      "type": "function"
    },
    {
      "inputs": [
        {
          "internalType": "uint256",
          "name": "index",
          "type": "uint256"
        }
      ],
      "name": "getMultisig",
      "outputs": [
        {
          "internalType": "address",
          "name": "addr",
          "type": "address"
        },
        {
          "internalType": "bool",
          "name": "enabled",
          "type": "bool"
        }
      ],
      "stateMutability": "view",
      "type": "function"
    },
    {
      "inputs": [],
      "name": "getNextActiveMultisig",
      "outputs": [
        {
          "internalType": "address",
          "name": "",
          "type": "address"
        }
      ],
      "stateMutability": "view",
      "type": "function"
    },
    {
      "inputs": [
        {
          "internalType": "string",
          "name": "_contractName",
          "type": "string"
        }
      ],
      "name": "getPublicContractAddress",
      "outputs": [
        {
          "internalType": "address",
          "name": "",
          "type": "address"
        }
      ],
      "stateMutability": "view",
      "type": "function"
    },
    {
      "inputs": [
        {
          "internalType": "bytes32",
          "name": "settingNameSpace",
          "type": "bytes32"
        },
        {
          "internalType": "string",
          "name": "_settingPath",
          "type": "string"
        }
      ],
      "name": "getSettingAddress",
      "outputs": [
        {
          "internalType": "address",
          "name": "",
          "type": "address"
        }
      ],
      "stateMutability": "view",
      "type": "function"
    },
    {
      "inputs": [
        {
          "internalType": "bytes32",
          "name": "settingNameSpace",
          "type": "bytes32"
        },
        {
          "internalType": "string",
          "name": "_settingPath",
          "type": "string"
        }
      ],
      "name": "getSettingBool",
      "outputs": [
        {
          "internalType": "bool",
          "name": "",
          "type": "bool"
        }
      ],
      "stateMutability": "view",
      "type": "function"
    },
    {
      "inputs": [
        {
          "internalType": "bytes32",
          "name": "settingNameSpace",
          "type": "bytes32"
        },
        {
          "internalType": "string",
          "name": "_settingPath",
          "type": "string"
        }
      ],
      "name": "getSettingUint",
      "outputs": [
        {
          "internalType": "uint256",
          "name": "",
          "type": "uint256"
        }
      ],
      "stateMutability": "view",
      "type": "function"
    },
    {
      "inputs": [
        {
          "internalType": "address",
          "name": "addr",
          "type": "address"
        }
      ],
      "name": "registerMultisig",
      "outputs": [],
      "stateMutability": "nonpayable",
      "type": "function"
    },
    {
      "inputs": [],
      "name": "version",
      "outputs": [
        {
          "internalType": "uint8",
          "name": "",
          "type": "uint8"
        }
      ],
      "stateMutability": "view",
      "type": "function"
    }
  ],
  "bytecode": "0x60806040523480156200001157600080fd5b506040516200188d3803806200188d83398181016040528101906200003791906200011a565b8080600060016101000a81548173ffffffffffffffffffffffffffffffffffffffff021916908373ffffffffffffffffffffffffffffffffffffffff1602179055505060016000806101000a81548160ff021916908360ff160217905550506200014c565b600080fd5b600073ffffffffffffffffffffffffffffffffffffffff82169050919050565b6000620000ce82620000a1565b9050919050565b6000620000e282620000c1565b9050919050565b620000f481620000d5565b81146200010057600080fd5b50565b6000815190506200011481620000e9565b92915050565b6000602082840312156200013357620001326200009c565b5b6000620001438482850162000103565b91505092915050565b611731806200015c6000396000f3fe608060405234801561001057600080fd5b50600436106100a95760003560e01c8063867533e611610071578063867533e6146101785780639d63c45014610196578063a0ce6146146101b2578063cff0b648146101ce578063dd1d4c83146101fe578063f4d70e781461022f576100a9565b8063017df522146100ae57806306eaa68b146100de5780630964e3161461010e578063232de7161461012a57806354fd4d501461015a575b600080fd5b6100c860048036038101906100c39190610c70565b61025f565b6040516100d59190610cb6565b60405180910390f35b6100f860048036038101906100f39190610e4d565b6102a3565b6040516101059190610eb8565b60405180910390f35b61012860048036038101906101239190610c70565b6102de565b005b610144600480360381019061013f9190610e4d565b6103bc565b6040516101519190610eee565b60405180910390f35b6101626103f7565b60405161016f9190610f25565b60405180910390f35b610180610408565b60405161018d9190610eb8565b60405180910390f35b6101b060048036038101906101ab9190610c70565b610425565b005b6101cc60048036038101906101c79190610c70565b610503565b005b6101e860048036038101906101e39190610f40565b610675565b6040516101f59190610eb8565b60405180910390f35b61021860048036038101906102139190610fbf565b610721565b604051610226929190610fec565b60405180910390f35b61024960048036038101906102449190610e4d565b61078b565b6040516102569190611024565b60405180910390f35b600060016102928360405160200161027791906110de565b604051602081830303815290604052805190602001206107c6565b61029c9190611133565b9050919050565b60006102d683836040516020016102bb929190611257565b6040516020818303038152906040528051906020012061086a565b905092915050565b60006102e98261025f565b90507fffffffffffffffffffffffffffffffffffffffffffffffffffffffffffffffff8103610344576040517fa58827c800000000000000000000000000000000000000000000000000000000815260040160405180910390fd5b610375816040516020016103589190611338565b60405160208183030381529060405280519060200120600161090e565b8173ffffffffffffffffffffffffffffffffffffffff167f0a39c726939785405c5ef0fd0c757a0ccf305aafc25944c622565fb5dca0148d60405160405180910390a25050565b60006103ef83836040516020016103d4929190611257565b604051602081830303815290604052805190602001206109a1565b905092915050565b60008054906101000a900460ff1681565b60008060009050600061041a82610721565b509050809250505090565b60006104308261025f565b90507fffffffffffffffffffffffffffffffffffffffffffffffffffffffffffffffff810361048b576040517fa58827c800000000000000000000000000000000000000000000000000000000815260040160405180910390fd5b6104bc8160405160200161049f9190611338565b60405160208183030381529060405280519060200120600061090e565b8173ffffffffffffffffffffffffffffffffffffffff167f9d76c44f89b275284e3ebce0152b36dbe7f0e37c1a7e317f4f6bbfa7b078915060405160405180910390a25050565b600061050e8261025f565b90507fffffffffffffffffffffffffffffffffffffffffffffffffffffffffffffffff8114610569576040517fd96b85ee00000000000000000000000000000000000000000000000000000000815260040160405180910390fd5b60006105947f778484468bc504108f077f6bf471293e4138c2d117c6f33607855518cf4bda796107c6565b90506105c6816040516020016105aa91906113d6565b6040516020818303038152906040528051906020012084610a45565b610602836040516020016105da91906110de565b604051602081830303815290604052805190602001206001836105fd9190611407565b610ad8565b61062d7f778484468bc504108f077f6bf471293e4138c2d117c6f33607855518cf4bda796001610b6b565b8273ffffffffffffffffffffffffffffffffffffffff167f57c9a75c0091f8fa0f9960e8751897f56aa5905f47fc04f85111eee9e4cd94b060405160405180910390a2505050565b6000806106a78360405160200161068c91906114a9565b6040516020818303038152906040528051906020012061086a565b9050600073ffffffffffffffffffffffffffffffffffffffff168173ffffffffffffffffffffffffffffffffffffffff1603610718576040517f08c379a000000000000000000000000000000000000000000000000000000000815260040161070f90611528565b60405180910390fd5b80915050919050565b6000806107538360405160200161073891906113d6565b6040516020818303038152906040528051906020012061086a565b9150610784836040516020016107699190611548565b604051602081830303815290604052805190602001206109a1565b9050915091565b60006107be83836040516020016107a3929190611257565b604051602081830303815290604052805190602001206107c6565b905092915050565b60008060019054906101000a900473ffffffffffffffffffffffffffffffffffffffff1673ffffffffffffffffffffffffffffffffffffffff1663bd02d0f5836040518263ffffffff1660e01b81526004016108229190611588565b602060405180830381865afa15801561083f573d6000803e3d6000fd5b505050506040513d601f19601f8201168201806040525081019061086391906115b8565b9050919050565b60008060019054906101000a900473ffffffffffffffffffffffffffffffffffffffff1673ffffffffffffffffffffffffffffffffffffffff166321f8a721836040518263ffffffff1660e01b81526004016108c69190611588565b602060405180830381865afa1580156108e3573d6000803e3d6000fd5b505050506040513d601f19601f8201168201806040525081019061090791906115fa565b9050919050565b600060019054906101000a900473ffffffffffffffffffffffffffffffffffffffff1673ffffffffffffffffffffffffffffffffffffffff1663abfdcced83836040518363ffffffff1660e01b815260040161096b929190611627565b600060405180830381600087803b15801561098557600080fd5b505af1158015610999573d6000803e3d6000fd5b505050505050565b60008060019054906101000a900473ffffffffffffffffffffffffffffffffffffffff1673ffffffffffffffffffffffffffffffffffffffff16637ae1cfca836040518263ffffffff1660e01b81526004016109fd9190611588565b602060405180830381865afa158015610a1a573d6000803e3d6000fd5b505050506040513d601f19601f82011682018060405250810190610a3e919061167c565b9050919050565b600060019054906101000a900473ffffffffffffffffffffffffffffffffffffffff1673ffffffffffffffffffffffffffffffffffffffff1663ca446dd983836040518363ffffffff1660e01b8152600401610aa29291906116a9565b600060405180830381600087803b158015610abc57600080fd5b505af1158015610ad0573d6000803e3d6000fd5b505050505050565b600060019054906101000a900473ffffffffffffffffffffffffffffffffffffffff1673ffffffffffffffffffffffffffffffffffffffff1663e2a4853a83836040518363ffffffff1660e01b8152600401610b359291906116d2565b600060405180830381600087803b158015610b4f57600080fd5b505af1158015610b63573d6000803e3d6000fd5b505050505050565b600060019054906101000a900473ffffffffffffffffffffffffffffffffffffffff1673ffffffffffffffffffffffffffffffffffffffff1663adb353dc83836040518363ffffffff1660e01b8152600401610bc89291906116d2565b600060405180830381600087803b158015610be257600080fd5b505af1158015610bf6573d6000803e3d6000fd5b505050505050565b6000604051905090565b600080fd5b600080fd5b600073ffffffffffffffffffffffffffffffffffffffff82169050919050565b6000610c3d82610c12565b9050919050565b610c4d81610c32565b8114610c5857600080fd5b50565b600081359050610c6a81610c44565b92915050565b600060208284031215610c8657610c85610c08565b5b6000610c9484828501610c5b565b91505092915050565b6000819050919050565b610cb081610c9d565b82525050565b6000602082019050610ccb6000830184610ca7565b92915050565b6000819050919050565b610ce481610cd1565b8114610cef57600080fd5b50565b600081359050610d0181610cdb565b92915050565b600080fd5b600080fd5b6000601f19601f8301169050919050565b7f4e487b7100000000000000000000000000000000000000000000000000000000600052604160045260246000fd5b610d5a82610d11565b810181811067ffffffffffffffff82111715610d7957610d78610d22565b5b80604052505050565b6000610d8c610bfe565b9050610d988282610d51565b919050565b600067ffffffffffffffff821115610db857610db7610d22565b5b610dc182610d11565b9050602081019050919050565b82818337600083830152505050565b6000610df0610deb84610d9d565b610d82565b905082815260208101848484011115610e0c57610e0b610d0c565b5b610e17848285610dce565b509392505050565b600082601f830112610e3457610e33610d07565b5b8135610e44848260208601610ddd565b91505092915050565b60008060408385031215610e6457610e63610c08565b5b6000610e7285828601610cf2565b925050602083013567ffffffffffffffff811115610e9357610e92610c0d565b5b610e9f85828601610e1f565b9150509250929050565b610eb281610c32565b82525050565b6000602082019050610ecd6000830184610ea9565b92915050565b60008115159050919050565b610ee881610ed3565b82525050565b6000602082019050610f036000830184610edf565b92915050565b600060ff82169050919050565b610f1f81610f09565b82525050565b6000602082019050610f3a6000830184610f16565b92915050565b600060208284031215610f5657610f55610c08565b5b600082013567ffffffffffffffff811115610f7457610f73610c0d565b5b610f8084828501610e1f565b91505092915050565b6000819050919050565b610f9c81610f89565b8114610fa757600080fd5b50565b600081359050610fb981610f93565b92915050565b600060208284031215610fd557610fd4610c08565b5b6000610fe384828501610faa565b91505092915050565b60006040820190506110016000830185610ea9565b61100e6020830184610edf565b9392505050565b61101e81610f89565b82525050565b60006020820190506110396000830184611015565b92915050565b600081905092915050565b7f6d756c74697369672e696e646578000000000000000000000000000000000000600082015250565b6000611080600e8361103f565b915061108b8261104a565b600e82019050919050565b60008160601b9050919050565b60006110ae82611096565b9050919050565b60006110c0826110a3565b9050919050565b6110d86110d382610c32565b6110b5565b82525050565b60006110e982611073565b91506110f582846110c7565b60148201915081905092915050565b7f4e487b7100000000000000000000000000000000000000000000000000000000600052601160045260246000fd5b600061113e82610c9d565b915061114983610c9d565b9250827f80000000000000000000000000000000000000000000000000000000000000000182126000841215161561118457611183611104565b5b827f7fffffffffffffffffffffffffffffffffffffffffffffffffffffffffffffff0182136000841216156111bc576111bb611104565b5b828203905092915050565b6000819050919050565b6111e26111dd82610cd1565b6111c7565b82525050565b600081519050919050565b60005b838110156112115780820151818401526020810190506111f6565b83811115611220576000848401525b50505050565b6000611231826111e8565b61123b818561103f565b935061124b8185602086016111f3565b80840191505092915050565b600061126382856111d1565b6020820191506112738284611226565b91508190509392505050565b7f6d756c74697369672e6974656d00000000000000000000000000000000000000600082015250565b60006112b5600d8361103f565b91506112c08261127f565b600d82019050919050565b6000819050919050565b6112e66112e182610c9d565b6112cb565b82525050565b7f2e656e61626c6564000000000000000000000000000000000000000000000000600082015250565b600061132260088361103f565b915061132d826112ec565b600882019050919050565b6000611343826112a8565b915061134f82846112d5565b60208201915061135e82611315565b915081905092915050565b6000819050919050565b61138461137f82610f89565b611369565b82525050565b7f2e61646472657373000000000000000000000000000000000000000000000000600082015250565b60006113c060088361103f565b91506113cb8261138a565b600882019050919050565b60006113e1826112a8565b91506113ed8284611373565b6020820191506113fc826113b3565b915081905092915050565b600061141282610f89565b915061141d83610f89565b9250827fffffffffffffffffffffffffffffffffffffffffffffffffffffffffffffffff0382111561145257611451611104565b5b828201905092915050565b7f636f6e74726163742e6164647265737300000000000000000000000000000000600082015250565b600061149360108361103f565b915061149e8261145d565b601082019050919050565b60006114b482611486565b91506114c08284611226565b915081905092915050565b600082825260208201905092915050565b7f436f6e7472616374206e6f7420666f756e640000000000000000000000000000600082015250565b60006115126012836114cb565b915061151d826114dc565b602082019050919050565b6000602082019050818103600083015261154181611505565b9050919050565b6000611553826112a8565b915061155f8284611373565b60208201915061156e82611315565b915081905092915050565b61158281610cd1565b82525050565b600060208201905061159d6000830184611579565b92915050565b6000815190506115b281610f93565b92915050565b6000602082840312156115ce576115cd610c08565b5b60006115dc848285016115a3565b91505092915050565b6000815190506115f481610c44565b92915050565b6000602082840312156116105761160f610c08565b5b600061161e848285016115e5565b91505092915050565b600060408201905061163c6000830185611579565b6116496020830184610edf565b9392505050565b61165981610ed3565b811461166457600080fd5b50565b60008151905061167681611650565b92915050565b60006020828403121561169257611691610c08565b5b60006116a084828501611667565b91505092915050565b60006040820190506116be6000830185611579565b6116cb6020830184610ea9565b9392505050565b60006040820190506116e76000830185611579565b6116f46020830184611015565b939250505056fea264697066735822122062fae6fe7364d8493a7f4859548d03f38fcce57f57794a20170bcc8ec184d6e464736f6c634300080d0033",
  "linkReferences": {},
  "deployedLinkReferences": {}
}