{
  "_format": "hh-sol-artifact-1",
  "contractName": "ProtocolDAO",
  "sourceName": "contracts/contract/dao/ProtocolDAO.sol",
  "abi": [
    {
      "inputs": [
        {
          "internalType": "contract Storage",
          "name": "storageAddress",
          "type": "address"
        }
      ],
      "stateMutability": "nonpayable",
      "type": "constructor"
    },
    {
      "inputs": [],
      "name": "getDelegationDurationLimit",
      "outputs": [
        {
          "internalType": "uint256",
          "name": "",
          "type": "uint256"
        }
      ],
      "stateMutability": "view",
      "type": "function"
    },
    {
      "inputs": [],
      "name": "getExpectedRewardRate",
      "outputs": [
        {
          "internalType": "uint256",
          "name": "",
          "type": "uint256"
        }
      ],
      "stateMutability": "view",
      "type": "function"
    },
    {
      "inputs": [],
      "name": "getInflationIntervalRate",
      "outputs": [
        {
          "internalType": "uint256",
          "name": "",
          "type": "uint256"
        }
      ],
      "stateMutability": "view",
      "type": "function"
    },
    {
      "inputs": [],
      "name": "getInflationIntervalStartTime",
      "outputs": [
        {
          "internalType": "uint256",
          "name": "",
          "type": "uint256"
        }
      ],
      "stateMutability": "view",
      "type": "function"
    },
    {
      "inputs": [
        {
          "internalType": "string",
          "name": "_contractName",
          "type": "string"
        }
      ],
      "name": "getPublicContractAddress",
      "outputs": [
        {
          "internalType": "address",
          "name": "",
          "type": "address"
        }
      ],
      "stateMutability": "view",
      "type": "function"
    },
    {
      "inputs": [
        {
          "internalType": "bytes32",
          "name": "settingNameSpace",
          "type": "bytes32"
        },
        {
          "internalType": "string",
          "name": "_settingPath",
          "type": "string"
        }
      ],
      "name": "getSettingAddress",
      "outputs": [
        {
          "internalType": "address",
          "name": "",
          "type": "address"
        }
      ],
      "stateMutability": "view",
      "type": "function"
    },
    {
      "inputs": [
        {
          "internalType": "bytes32",
          "name": "settingNameSpace",
          "type": "bytes32"
        },
        {
          "internalType": "string",
          "name": "_settingPath",
          "type": "string"
        }
      ],
      "name": "getSettingBool",
      "outputs": [
        {
          "internalType": "bool",
          "name": "",
          "type": "bool"
        }
      ],
      "stateMutability": "view",
      "type": "function"
    },
    {
      "inputs": [
        {
          "internalType": "bytes32",
          "name": "settingNameSpace",
          "type": "bytes32"
        },
        {
          "internalType": "string",
          "name": "_settingPath",
          "type": "string"
        }
      ],
      "name": "getSettingUint",
      "outputs": [
        {
          "internalType": "uint256",
          "name": "",
          "type": "uint256"
        }
      ],
      "stateMutability": "view",
      "type": "function"
    },
    {
      "inputs": [],
      "name": "getTargetggAVAXReserveRate",
      "outputs": [
        {
          "internalType": "uint256",
          "name": "",
          "type": "uint256"
        }
      ],
      "stateMutability": "view",
      "type": "function"
    },
    {
      "inputs": [],
      "name": "initialize",
      "outputs": [],
      "stateMutability": "nonpayable",
      "type": "function"
    },
    {
      "inputs": [
        {
          "internalType": "string",
          "name": "_settingPath",
          "type": "string"
        },
        {
          "internalType": "address",
          "name": "_value",
          "type": "address"
        }
      ],
      "name": "setSettingAddress",
      "outputs": [],
      "stateMutability": "nonpayable",
      "type": "function"
    },
    {
      "inputs": [
        {
          "internalType": "string",
          "name": "_settingPath",
          "type": "string"
        },
        {
          "internalType": "bool",
          "name": "_value",
          "type": "bool"
        }
      ],
      "name": "setSettingBool",
      "outputs": [],
      "stateMutability": "nonpayable",
      "type": "function"
    },
    {
      "inputs": [
        {
          "internalType": "string",
          "name": "_settingPath",
          "type": "string"
        },
        {
          "internalType": "uint256",
          "name": "_value",
          "type": "uint256"
        }
      ],
      "name": "setSettingUint",
      "outputs": [],
      "stateMutability": "nonpayable",
      "type": "function"
    },
    {
      "inputs": [
        {
          "internalType": "uint256",
          "name": "reserveRate",
          "type": "uint256"
        }
      ],
      "name": "setTargetggAVAXReserveRate",
      "outputs": [],
      "stateMutability": "nonpayable",
      "type": "function"
    },
    {
      "inputs": [],
      "name": "version",
      "outputs": [
        {
          "internalType": "uint8",
          "name": "",
          "type": "uint8"
        }
      ],
      "stateMutability": "view",
      "type": "function"
    }
  ],
  "bytecode": "0x608060405234801561001057600080fd5b50604051610e66380380610e6683398101604081905261002f916100a4565b6000805460016001600160a81b03199091166101006001600160a01b0385160260ff1916171790556040517f64616f2e70726f746f636f6c2e73657474696e672e0000000000000000000000602082015260350160408051601f198184030181529190528051602090910120600155506100d4565b6000602082840312156100b657600080fd5b81516001600160a01b03811681146100cd57600080fd5b9392505050565b610d83806100e36000396000f3fe608060405234801561001057600080fd5b50600436106100f55760003560e01c80635e9d404411610097578063cff0b64811610066578063cff0b648146101dd578063d6cd921e146101f0578063ee96d77414610203578063f4d70e781461020b57600080fd5b80635e9d4044146101a75780638129fc1c146101ba578063a24f4aa2146101c2578063a887df78146101ca57600080fd5b8063232de716116100d3578063232de716146101485780632a57d0181461016b5780634712a1431461018057806354fd4d501461018857600080fd5b80630534f6db146100fa57806306eaa68b146101155780632323f73814610140575b600080fd5b61010261021e565b6040519081526020015b60405180910390f35b610128610123366004610ac4565b610266565b6040516001600160a01b03909116815260200161010c565b6101026102a0565b61015b610156366004610ac4565b6102dc565b604051901515815260200161010c565b61017e610179366004610b19565b61030f565b005b610102610347565b6000546101959060ff1681565b60405160ff909116815260200161010c565b61017e6101b5366004610b6b565b61038a565b61017e6103be565b61010261065c565b61017e6101d8366004610bb0565b610697565b6101286101eb366004610bc9565b6106d1565b61017e6101fe366004610c1b565b61073b565b61010261076f565b610102610219366004610ac4565b6107ae565b60006102616001546040518060400160405280601c81526020017f6767702e696e666c6174696f6e2e696e74657276616c2e7374617274000000008152506107ae565b905090565b6000610299838360405160200161027e929190610c9d565b604051602081830303815290604052805190602001206107e1565b9392505050565b6000610261600154604051806040016040528060168152602001753232b632b3b0ba34b7b71736b0bc223ab930ba34b7b760511b8152506107ae565b600061029983836040516020016102f4929190610c9d565b60405160208183030381529060405280519060200120610853565b61034360015483604051602001610327929190610c9d565b60405160208183030381529060405280519060200120826108c5565b5050565b60006102616001546040518060400160405280601c81526020017f6176616c616e6368652e657870656374656452657761726452617465000000008152506107ae565b610343600154836040516020016103a2929190610c9d565b6040516020818303038152906040528051906020012082610934565b600060019054906101000a90046001600160a01b03166001600160a01b031663a75b87d26040518163ffffffff1660e01b8152600401602060405180830381865afa158015610411573d6000803e3d6000fd5b505050506040513d601f19601f820116820180604052508101906104359190610caf565b6001600160a01b0316336001600160a01b03161461049a5760405162461bcd60e51b815260206004820152601960248201527f4163636f756e74206973206e6f74206120677561726469616e0000000000000060448201526064015b60405180910390fd5b6104c36001546040516020016102f49181526719195c1b1bde595960c21b602082015260280190565b61065a5761050e6040518060400160405280601c81526020017f6176616c616e6368652e6578706563746564526577617264526174650000000081525067016345785d8a000061038a565b6105556040518060400160405280601b81526020017f6767702e696e666c6174696f6e2e696e74657276616c2e726174650000000000815250670de130489916479c61038a565b60408051808201909152601c81527f6767702e696e666c6174696f6e2e696e74657276616c2e737461727400000000602082015261059a906101b54262015180610ccc565b6105d96040518060400160405280601581526020017419d9d85d985e0b9c995cd95c9d994b9d185c99d95d605a1b81525067016345785d8a000061038a565b610614604051806040016040528060168152602001753232b632b3b0ba34b7b71736b0bc223ab930ba34b7b760511b815250624dc88061038a565b61065a60015460405160200161063d9181526719195c1b1bde595960c21b602082015260280190565b6040516020818303038152906040528051906020012060016108c5565b565b60006102616001546040518060400160405280601581526020017419d9d85d985e0b9c995cd95c9d994b9d185c99d95d605a1b8152506107ae565b6106ce6040518060400160405280601581526020017419d9d85d985e0b9c995cd95c9d994b9d185c99d95d605a1b8152508261038a565b50565b6000806106e88360405160200161027e9190610cf2565b90506001600160a01b0381166107355760405162461bcd60e51b815260206004820152601260248201527110dbdb9d1c9858dd081b9bdd08199bdd5b9960721b6044820152606401610491565b92915050565b61034360015483604051602001610753929190610c9d565b6040516020818303038152906040528051906020012082610970565b60006102616001546040518060400160405280601b81526020017f6767702e696e666c6174696f6e2e696e74657276616c2e7261746500000000008152505b600061029983836040516020016107c6929190610c9d565b604051602081830303815290604052805190602001206109af565b600080546040516321f8a72160e01b8152600481018490526101009091046001600160a01b0316906321f8a72190602401602060405180830381865afa15801561082f573d6000803e3d6000fd5b505050506040513d601f19601f820116820180604052508101906107359190610caf565b60008054604051633d70e7e560e11b8152600481018490526101009091046001600160a01b031690637ae1cfca90602401602060405180830381865afa1580156108a1573d6000803e3d6000fd5b505050506040513d601f19601f820116820180604052508101906107359190610d17565b60005460405163abfdcced60e01b81526004810184905282151560248201526101009091046001600160a01b03169063abfdcced906044015b600060405180830381600087803b15801561091857600080fd5b505af115801561092c573d6000803e3d6000fd5b505050505050565b600054604051637152429d60e11b815260048101849052602481018390526101009091046001600160a01b03169063e2a4853a906044016108fe565b60005460405163ca446dd960e01b8152600481018490526001600160a01b0383811660248301526101009092049091169063ca446dd9906044016108fe565b6000805460405163bd02d0f560e01b8152600481018490526101009091046001600160a01b03169063bd02d0f590602401602060405180830381865afa1580156109fd573d6000803e3d6000fd5b505050506040513d601f19601f820116820180604052508101906107359190610d34565b634e487b7160e01b600052604160045260246000fd5b600082601f830112610a4857600080fd5b813567ffffffffffffffff80821115610a6357610a63610a21565b604051601f8301601f19908116603f01168101908282118183101715610a8b57610a8b610a21565b81604052838152866020858801011115610aa457600080fd5b836020870160208301376000602085830101528094505050505092915050565b60008060408385031215610ad757600080fd5b82359150602083013567ffffffffffffffff811115610af557600080fd5b610b0185828601610a37565b9150509250929050565b80151581146106ce57600080fd5b60008060408385031215610b2c57600080fd5b823567ffffffffffffffff811115610b4357600080fd5b610b4f85828601610a37565b9250506020830135610b6081610b0b565b809150509250929050565b60008060408385031215610b7e57600080fd5b823567ffffffffffffffff811115610b9557600080fd5b610ba185828601610a37565b95602094909401359450505050565b600060208284031215610bc257600080fd5b5035919050565b600060208284031215610bdb57600080fd5b813567ffffffffffffffff811115610bf257600080fd5b610bfe84828501610a37565b949350505050565b6001600160a01b03811681146106ce57600080fd5b60008060408385031215610c2e57600080fd5b823567ffffffffffffffff811115610c4557600080fd5b610c5185828601610a37565b9250506020830135610b6081610c06565b6000815160005b81811015610c835760208185018101518683015201610c69565b81811115610c92576000828601525b509290920192915050565b8281526000610bfe6020830184610c62565b600060208284031215610cc157600080fd5b815161029981610c06565b60008219821115610ced57634e487b7160e01b600052601160045260246000fd5b500190565b6f636f6e74726163742e6164647265737360801b815260006102996010830184610c62565b600060208284031215610d2957600080fd5b815161029981610b0b565b600060208284031215610d4657600080fd5b505191905056fea2646970667358221220f08153cb3df1c0eff544f0c9d6c10b1bdd059cf0e8830ce2f917f2f746dabc9764736f6c634300080d0033",
  "linkReferences": {},
  "deployedLinkReferences": {}
}