{
  "_format": "hh-sol-artifact-1",
  "contractName": "ProtocolDAO",
  "sourceName": "contracts/contract/dao/ProtocolDAO.sol",
  "abi": [
    {
      "inputs": [
        {
          "internalType": "contract Storage",
          "name": "storageAddress",
          "type": "address"
        }
      ],
      "stateMutability": "nonpayable",
      "type": "constructor"
    },
    {
      "inputs": [],
      "name": "getExpectedRewardRate",
      "outputs": [
        {
          "internalType": "uint256",
          "name": "",
          "type": "uint256"
        }
      ],
      "stateMutability": "view",
      "type": "function"
    },
    {
      "inputs": [],
      "name": "getInflationIntervalRate",
      "outputs": [
        {
          "internalType": "uint256",
          "name": "",
          "type": "uint256"
        }
      ],
      "stateMutability": "view",
      "type": "function"
    },
    {
      "inputs": [],
      "name": "getInflationIntervalStartTime",
      "outputs": [
        {
          "internalType": "uint256",
          "name": "",
          "type": "uint256"
        }
      ],
      "stateMutability": "view",
      "type": "function"
    },
    {
      "inputs": [
        {
          "internalType": "string",
          "name": "_contractName",
          "type": "string"
        }
      ],
      "name": "getPublicContractAddress",
      "outputs": [
        {
          "internalType": "address",
          "name": "",
          "type": "address"
        }
      ],
      "stateMutability": "view",
      "type": "function"
    },
    {
      "inputs": [
        {
          "internalType": "bytes32",
          "name": "settingNameSpace",
          "type": "bytes32"
        },
        {
          "internalType": "string",
          "name": "_settingPath",
          "type": "string"
        }
      ],
      "name": "getSettingAddress",
      "outputs": [
        {
          "internalType": "address",
          "name": "",
          "type": "address"
        }
      ],
      "stateMutability": "view",
      "type": "function"
    },
    {
      "inputs": [
        {
          "internalType": "bytes32",
          "name": "settingNameSpace",
          "type": "bytes32"
        },
        {
          "internalType": "string",
          "name": "_settingPath",
          "type": "string"
        }
      ],
      "name": "getSettingBool",
      "outputs": [
        {
          "internalType": "bool",
          "name": "",
          "type": "bool"
        }
      ],
      "stateMutability": "view",
      "type": "function"
    },
    {
      "inputs": [
        {
          "internalType": "bytes32",
          "name": "settingNameSpace",
          "type": "bytes32"
        },
        {
          "internalType": "string",
          "name": "_settingPath",
          "type": "string"
        }
      ],
      "name": "getSettingUint",
      "outputs": [
        {
          "internalType": "uint256",
          "name": "",
          "type": "uint256"
        }
      ],
      "stateMutability": "view",
      "type": "function"
    },
    {
      "inputs": [],
      "name": "getTargetggAVAXReserveRate",
      "outputs": [
        {
          "internalType": "uint256",
          "name": "",
          "type": "uint256"
        }
      ],
      "stateMutability": "view",
      "type": "function"
    },
    {
      "inputs": [],
      "name": "initialize",
      "outputs": [],
      "stateMutability": "nonpayable",
      "type": "function"
    },
    {
      "inputs": [
        {
          "internalType": "string",
          "name": "_settingPath",
          "type": "string"
        },
        {
          "internalType": "address",
          "name": "_value",
          "type": "address"
        }
      ],
      "name": "setSettingAddress",
      "outputs": [],
      "stateMutability": "nonpayable",
      "type": "function"
    },
    {
      "inputs": [
        {
          "internalType": "string",
          "name": "_settingPath",
          "type": "string"
        },
        {
          "internalType": "bool",
          "name": "_value",
          "type": "bool"
        }
      ],
      "name": "setSettingBool",
      "outputs": [],
      "stateMutability": "nonpayable",
      "type": "function"
    },
    {
      "inputs": [
        {
          "internalType": "string",
          "name": "_settingPath",
          "type": "string"
        },
        {
          "internalType": "uint256",
          "name": "_value",
          "type": "uint256"
        }
      ],
      "name": "setSettingUint",
      "outputs": [],
      "stateMutability": "nonpayable",
      "type": "function"
    },
    {
      "inputs": [],
      "name": "version",
      "outputs": [
        {
          "internalType": "uint8",
          "name": "",
          "type": "uint8"
        }
      ],
      "stateMutability": "view",
      "type": "function"
    }
  ],
  "bytecode": "0x608060405234801561001057600080fd5b50604051610d5e380380610d5e83398101604081905261002f916100a4565b6000805460016001600160a81b03199091166101006001600160a01b0385160260ff1916171790556040517f64616f2e70726f746f636f6c2e73657474696e672e0000000000000000000000602082015260350160408051601f198184030181529190528051602090910120600155506100d4565b6000602082840312156100b657600080fd5b81516001600160a01b03811681146100cd57600080fd5b9392505050565b610c7b806100e36000396000f3fe608060405234801561001057600080fd5b50600436106100cf5760003560e01c80635e9d40441161008c578063cff0b64811610066578063cff0b6481461019c578063d6cd921e146101af578063ee96d774146101c2578063f4d70e78146101ca57600080fd5b80635e9d4044146101795780638129fc1c1461018c578063a24f4aa21461019457600080fd5b80630534f6db146100d457806306eaa68b146100ef578063232de7161461011a5780632a57d0181461013d5780634712a1431461015257806354fd4d501461015a575b600080fd5b6100dc6101dd565b6040519081526020015b60405180910390f35b6101026100fd3660046109d2565b610225565b6040516001600160a01b0390911681526020016100e6565b61012d6101283660046109d2565b61025f565b60405190151581526020016100e6565b61015061014b366004610a2a565b610292565b005b6100dc6102ca565b6000546101679060ff1681565b60405160ff90911681526020016100e6565b610150610187366004610a7c565b61030d565b610150610341565b6100dc6105a4565b6101026101aa366004610ac1565b6105df565b6101506101bd366004610b13565b610649565b6100dc61067d565b6100dc6101d83660046109d2565b6106bc565b60006102206001546040518060400160405280601c81526020017f6767702e696e666c6174696f6e2e696e74657276616c2e7374617274000000008152506106bc565b905090565b6000610258838360405160200161023d929190610b95565b604051602081830303815290604052805190602001206106ef565b9392505050565b60006102588383604051602001610277929190610b95565b60405160208183030381529060405280519060200120610761565b6102c6600154836040516020016102aa929190610b95565b60405160208183030381529060405280519060200120826107d3565b5050565b60006102206001546040518060400160405280601c81526020017f6176616c616e6368652e657870656374656452657761726452617465000000008152506106bc565b6102c660015483604051602001610325929190610b95565b6040516020818303038152906040528051906020012082610842565b600060019054906101000a90046001600160a01b03166001600160a01b031663a75b87d26040518163ffffffff1660e01b8152600401602060405180830381865afa158015610394573d6000803e3d6000fd5b505050506040513d601f19601f820116820180604052508101906103b89190610ba7565b6001600160a01b0316336001600160a01b03161461041d5760405162461bcd60e51b815260206004820152601960248201527f4163636f756e74206973206e6f74206120677561726469616e0000000000000060448201526064015b60405180910390fd5b6104466001546040516020016102779181526719195c1b1bde595960c21b602082015260280190565b6105a2576104916040518060400160405280601c81526020017f6176616c616e6368652e6578706563746564526577617264526174650000000081525067016345785d8a000061030d565b6104d86040518060400160405280601b81526020017f6767702e696e666c6174696f6e2e696e74657276616c2e726174650000000000815250670de130489916479c61030d565b60408051808201909152601c81527f6767702e696e666c6174696f6e2e696e74657276616c2e737461727400000000602082015261051d906101874262015180610bc4565b61055c6040518060400160405280601581526020017419d9d85d985e0b9c995cd95c9d994b9d185c99d95d605a1b81525067016345785d8a000061030d565b6105a26001546040516020016105859181526719195c1b1bde595960c21b602082015260280190565b6040516020818303038152906040528051906020012060016107d3565b565b60006102206001546040518060400160405280601581526020017419d9d85d985e0b9c995cd95c9d994b9d185c99d95d605a1b8152506106bc565b6000806105f68360405160200161023d9190610bea565b90506001600160a01b0381166106435760405162461bcd60e51b815260206004820152601260248201527110dbdb9d1c9858dd081b9bdd08199bdd5b9960721b6044820152606401610414565b92915050565b6102c660015483604051602001610661929190610b95565b604051602081830303815290604052805190602001208261087e565b60006102206001546040518060400160405280601b81526020017f6767702e696e666c6174696f6e2e696e74657276616c2e7261746500000000008152505b600061025883836040516020016106d4929190610b95565b604051602081830303815290604052805190602001206108bd565b600080546040516321f8a72160e01b8152600481018490526101009091046001600160a01b0316906321f8a72190602401602060405180830381865afa15801561073d573d6000803e3d6000fd5b505050506040513d601f19601f820116820180604052508101906106439190610ba7565b60008054604051633d70e7e560e11b8152600481018490526101009091046001600160a01b031690637ae1cfca90602401602060405180830381865afa1580156107af573d6000803e3d6000fd5b505050506040513d601f19601f820116820180604052508101906106439190610c0f565b60005460405163abfdcced60e01b81526004810184905282151560248201526101009091046001600160a01b03169063abfdcced906044015b600060405180830381600087803b15801561082657600080fd5b505af115801561083a573d6000803e3d6000fd5b505050505050565b600054604051637152429d60e11b815260048101849052602481018390526101009091046001600160a01b03169063e2a4853a9060440161080c565b60005460405163ca446dd960e01b8152600481018490526001600160a01b0383811660248301526101009092049091169063ca446dd99060440161080c565b6000805460405163bd02d0f560e01b8152600481018490526101009091046001600160a01b03169063bd02d0f590602401602060405180830381865afa15801561090b573d6000803e3d6000fd5b505050506040513d601f19601f820116820180604052508101906106439190610c2c565b634e487b7160e01b600052604160045260246000fd5b600082601f83011261095657600080fd5b813567ffffffffffffffff808211156109715761097161092f565b604051601f8301601f19908116603f011681019082821181831017156109995761099961092f565b816040528381528660208588010111156109b257600080fd5b836020870160208301376000602085830101528094505050505092915050565b600080604083850312156109e557600080fd5b82359150602083013567ffffffffffffffff811115610a0357600080fd5b610a0f85828601610945565b9150509250929050565b8015158114610a2757600080fd5b50565b60008060408385031215610a3d57600080fd5b823567ffffffffffffffff811115610a5457600080fd5b610a6085828601610945565b9250506020830135610a7181610a19565b809150509250929050565b60008060408385031215610a8f57600080fd5b823567ffffffffffffffff811115610aa657600080fd5b610ab285828601610945565b95602094909401359450505050565b600060208284031215610ad357600080fd5b813567ffffffffffffffff811115610aea57600080fd5b610af684828501610945565b949350505050565b6001600160a01b0381168114610a2757600080fd5b60008060408385031215610b2657600080fd5b823567ffffffffffffffff811115610b3d57600080fd5b610b4985828601610945565b9250506020830135610a7181610afe565b6000815160005b81811015610b7b5760208185018101518683015201610b61565b81811115610b8a576000828601525b509290920192915050565b8281526000610af66020830184610b5a565b600060208284031215610bb957600080fd5b815161025881610afe565b60008219821115610be557634e487b7160e01b600052601160045260246000fd5b500190565b6f636f6e74726163742e6164647265737360801b815260006102586010830184610b5a565b600060208284031215610c2157600080fd5b815161025881610a19565b600060208284031215610c3e57600080fd5b505191905056fea2646970667358221220ea3ac218150d012ce9a1628a7c75167d5dfd53ccd8ba05852f3da85a687cea3364736f6c634300080d0033",
  "linkReferences": {},
  "deployedLinkReferences": {}
}