{
  "_format": "hh-sol-artifact-1",
  "contractName": "ProtocolDAO",
  "sourceName": "contracts/contract/dao/ProtocolDAO.sol",
  "abi": [
    {
      "inputs": [
        {
          "internalType": "contract Storage",
          "name": "storageAddress",
          "type": "address"
        }
      ],
      "stateMutability": "nonpayable",
      "type": "constructor"
    },
    {
      "inputs": [],
      "name": "getExpectedRewardRate",
      "outputs": [
        {
          "internalType": "uint256",
          "name": "",
          "type": "uint256"
        }
      ],
      "stateMutability": "view",
      "type": "function"
    },
    {
      "inputs": [],
      "name": "getInflationIntervalRate",
      "outputs": [
        {
          "internalType": "uint256",
          "name": "",
          "type": "uint256"
        }
      ],
      "stateMutability": "view",
      "type": "function"
    },
    {
      "inputs": [],
      "name": "getInflationIntervalStartTime",
      "outputs": [
        {
          "internalType": "uint256",
          "name": "",
          "type": "uint256"
        }
      ],
      "stateMutability": "view",
      "type": "function"
    },
    {
      "inputs": [
        {
          "internalType": "string",
          "name": "_contractName",
          "type": "string"
        }
      ],
      "name": "getPublicContractAddress",
      "outputs": [
        {
          "internalType": "address",
          "name": "",
          "type": "address"
        }
      ],
      "stateMutability": "view",
      "type": "function"
    },
    {
      "inputs": [
        {
          "internalType": "bytes32",
          "name": "settingNameSpace",
          "type": "bytes32"
        },
        {
          "internalType": "string",
          "name": "_settingPath",
          "type": "string"
        }
      ],
      "name": "getSettingAddress",
      "outputs": [
        {
          "internalType": "address",
          "name": "",
          "type": "address"
        }
      ],
      "stateMutability": "view",
      "type": "function"
    },
    {
      "inputs": [
        {
          "internalType": "bytes32",
          "name": "settingNameSpace",
          "type": "bytes32"
        },
        {
          "internalType": "string",
          "name": "_settingPath",
          "type": "string"
        }
      ],
      "name": "getSettingBool",
      "outputs": [
        {
          "internalType": "bool",
          "name": "",
          "type": "bool"
        }
      ],
      "stateMutability": "view",
      "type": "function"
    },
    {
      "inputs": [
        {
          "internalType": "bytes32",
          "name": "settingNameSpace",
          "type": "bytes32"
        },
        {
          "internalType": "string",
          "name": "_settingPath",
          "type": "string"
        }
      ],
      "name": "getSettingUint",
      "outputs": [
        {
          "internalType": "uint256",
          "name": "",
          "type": "uint256"
        }
      ],
      "stateMutability": "view",
      "type": "function"
    },
    {
      "inputs": [],
      "name": "getTargetggAVAXReserveRate",
      "outputs": [
        {
          "internalType": "uint256",
          "name": "",
          "type": "uint256"
        }
      ],
      "stateMutability": "view",
      "type": "function"
    },
    {
      "inputs": [],
      "name": "initialize",
      "outputs": [],
      "stateMutability": "nonpayable",
      "type": "function"
    },
    {
      "inputs": [
        {
          "internalType": "string",
          "name": "_settingPath",
          "type": "string"
        },
        {
          "internalType": "address",
          "name": "_value",
          "type": "address"
        }
      ],
      "name": "setSettingAddress",
      "outputs": [],
      "stateMutability": "nonpayable",
      "type": "function"
    },
    {
      "inputs": [
        {
          "internalType": "string",
          "name": "_settingPath",
          "type": "string"
        },
        {
          "internalType": "bool",
          "name": "_value",
          "type": "bool"
        }
      ],
      "name": "setSettingBool",
      "outputs": [],
      "stateMutability": "nonpayable",
      "type": "function"
    },
    {
      "inputs": [
        {
          "internalType": "string",
          "name": "_settingPath",
          "type": "string"
        },
        {
          "internalType": "uint256",
          "name": "_value",
          "type": "uint256"
        }
      ],
      "name": "setSettingUint",
      "outputs": [],
      "stateMutability": "nonpayable",
      "type": "function"
    },
    {
      "inputs": [],
      "name": "version",
      "outputs": [
        {
          "internalType": "uint8",
          "name": "",
          "type": "uint8"
        }
      ],
      "stateMutability": "view",
      "type": "function"
    }
  ],
  "bytecode": "0x60806040523480156200001157600080fd5b506040516200176538038062001765833981810160405281019062000037919062000147565b8080600060016101000a81548173ffffffffffffffffffffffffffffffffffffffff021916908373ffffffffffffffffffffffffffffffffffffffff1602179055505060016000806101000a81548160ff021916908360ff160217905550604051602001620000a690620001d4565b6040516020818303038152906040528051906020012060018190555050620001eb565b600080fd5b600073ffffffffffffffffffffffffffffffffffffffff82169050919050565b6000620000fb82620000ce565b9050919050565b60006200010f82620000ee565b9050919050565b620001218162000102565b81146200012d57600080fd5b50565b600081519050620001418162000116565b92915050565b60006020828403121562000160576200015f620000c9565b5b6000620001708482850162000130565b91505092915050565b600081905092915050565b7f64616f2e70726f746f636f6c2e73657474696e672e0000000000000000000000600082015250565b6000620001bc60158362000179565b9150620001c98262000184565b601582019050919050565b6000620001e182620001ad565b9150819050919050565b61156a80620001fb6000396000f3fe608060405234801561001057600080fd5b50600436106100cf5760003560e01c80635e9d40441161008c578063cff0b64811610066578063cff0b648146101ee578063d6cd921e1461021e578063ee96d7741461023a578063f4d70e7814610258576100cf565b80635e9d4044146101aa5780638129fc1c146101c6578063a24f4aa2146101d0576100cf565b80630534f6db146100d457806306eaa68b146100f2578063232de716146101225780632a57d018146101525780634712a1431461016e57806354fd4d501461018c575b600080fd5b6100dc610288565b6040516100e99190610c07565b60405180910390f35b61010c60048036038101906101079190610db2565b6102d0565b6040516101199190610e4f565b60405180910390f35b61013c60048036038101906101379190610db2565b61030b565b6040516101499190610e85565b60405180910390f35b61016c60048036038101906101679190610ecc565b610346565b005b61017661037e565b6040516101839190610c07565b60405180910390f35b6101946103c6565b6040516101a19190610f44565b60405180910390f35b6101c460048036038101906101bf9190610f8b565b6103d7565b005b6101ce61040f565b005b6101d861069a565b6040516101e59190610c07565b60405180910390f35b61020860048036038101906102039190610fe7565b6106e2565b6040516102159190610e4f565b60405180910390f35b6102386004803603810190610233919061105c565b61078e565b005b6102426107c6565b60405161024f9190610c07565b60405180910390f35b610272600480360381019061026d9190610db2565b61080e565b60405161027f9190610c07565b60405180910390f35b60006102cb6001546040518060400160405280601c81526020017f6767702e696e666c6174696f6e2e696e74657276616c2e73746172740000000081525061080e565b905090565b600061030383836040516020016102e8929190611153565b60405160208183030381529060405280519060200120610849565b905092915050565b600061033e8383604051602001610323929190611153565b604051602081830303815290604052805190602001206108ed565b905092915050565b61037a6001548360405160200161035e929190611153565b6040516020818303038152906040528051906020012082610991565b5050565b60006103c16001546040518060400160405280601c81526020017f6176616c616e6368652e6578706563746564526577617264526174650000000081525061080e565b905090565b60008054906101000a900460ff1681565b61040b600154836040516020016103ef929190611153565b6040516020818303038152906040528051906020012082610a24565b5050565b600060019054906101000a900473ffffffffffffffffffffffffffffffffffffffff1673ffffffffffffffffffffffffffffffffffffffff1663a75b87d26040518163ffffffff1660e01b8152600401602060405180830381865afa15801561047c573d6000803e3d6000fd5b505050506040513d601f19601f820116820180604052508101906104a09190611190565b73ffffffffffffffffffffffffffffffffffffffff163373ffffffffffffffffffffffffffffffffffffffff161461050d576040517f08c379a00000000000000000000000000000000000000000000000000000000081526004016105049061121a565b60405180910390fd5b61053e6001546040516020016105239190611286565b604051602081830303815290604052805190602001206108ed565b610698576105896040518060400160405280601c81526020017f6176616c616e6368652e6578706563746564526577617264526174650000000081525067016345785d8a00006103d7565b6105d06040518060400160405280601b81526020017f6767702e696e666c6174696f6e2e696e74657276616c2e726174650000000000815250670de130489916479c6103d7565b61061d6040518060400160405280601c81526020017f6767702e696e666c6174696f6e2e696e74657276616c2e737461727400000000815250620151804261061891906112db565b6103d7565b6106646040518060400160405280601581526020017f6767617661782e726573657276652e746172676574000000000000000000000081525067016345785d8a00006103d7565b61069760015460405160200161067a9190611286565b604051602081830303815290604052805190602001206001610991565b5b565b60006106dd6001546040518060400160405280601581526020017f6767617661782e726573657276652e746172676574000000000000000000000081525061080e565b905090565b600080610714836040516020016106f9919061137d565b60405160208183030381529060405280519060200120610849565b9050600073ffffffffffffffffffffffffffffffffffffffff168173ffffffffffffffffffffffffffffffffffffffff1603610785576040517f08c379a000000000000000000000000000000000000000000000000000000000815260040161077c906113eb565b60405180910390fd5b80915050919050565b6107c2600154836040516020016107a6929190611153565b6040516020818303038152906040528051906020012082610ab7565b5050565b60006108096001546040518060400160405280601b81526020017f6767702e696e666c6174696f6e2e696e74657276616c2e72617465000000000081525061080e565b905090565b60006108418383604051602001610826929190611153565b60405160208183030381529060405280519060200120610b4a565b905092915050565b60008060019054906101000a900473ffffffffffffffffffffffffffffffffffffffff1673ffffffffffffffffffffffffffffffffffffffff166321f8a721836040518263ffffffff1660e01b81526004016108a5919061141a565b602060405180830381865afa1580156108c2573d6000803e3d6000fd5b505050506040513d601f19601f820116820180604052508101906108e69190611190565b9050919050565b60008060019054906101000a900473ffffffffffffffffffffffffffffffffffffffff1673ffffffffffffffffffffffffffffffffffffffff16637ae1cfca836040518263ffffffff1660e01b8152600401610949919061141a565b602060405180830381865afa158015610966573d6000803e3d6000fd5b505050506040513d601f19601f8201168201806040525081019061098a919061144a565b9050919050565b600060019054906101000a900473ffffffffffffffffffffffffffffffffffffffff1673ffffffffffffffffffffffffffffffffffffffff1663abfdcced83836040518363ffffffff1660e01b81526004016109ee929190611477565b600060405180830381600087803b158015610a0857600080fd5b505af1158015610a1c573d6000803e3d6000fd5b505050505050565b600060019054906101000a900473ffffffffffffffffffffffffffffffffffffffff1673ffffffffffffffffffffffffffffffffffffffff1663e2a4853a83836040518363ffffffff1660e01b8152600401610a819291906114a0565b600060405180830381600087803b158015610a9b57600080fd5b505af1158015610aaf573d6000803e3d6000fd5b505050505050565b600060019054906101000a900473ffffffffffffffffffffffffffffffffffffffff1673ffffffffffffffffffffffffffffffffffffffff1663ca446dd983836040518363ffffffff1660e01b8152600401610b149291906114c9565b600060405180830381600087803b158015610b2e57600080fd5b505af1158015610b42573d6000803e3d6000fd5b505050505050565b60008060019054906101000a900473ffffffffffffffffffffffffffffffffffffffff1673ffffffffffffffffffffffffffffffffffffffff1663bd02d0f5836040518263ffffffff1660e01b8152600401610ba6919061141a565b602060405180830381865afa158015610bc3573d6000803e3d6000fd5b505050506040513d601f19601f82011682018060405250810190610be79190611507565b9050919050565b6000819050919050565b610c0181610bee565b82525050565b6000602082019050610c1c6000830184610bf8565b92915050565b6000604051905090565b600080fd5b600080fd5b6000819050919050565b610c4981610c36565b8114610c5457600080fd5b50565b600081359050610c6681610c40565b92915050565b600080fd5b600080fd5b6000601f19601f8301169050919050565b7f4e487b7100000000000000000000000000000000000000000000000000000000600052604160045260246000fd5b610cbf82610c76565b810181811067ffffffffffffffff82111715610cde57610cdd610c87565b5b80604052505050565b6000610cf1610c22565b9050610cfd8282610cb6565b919050565b600067ffffffffffffffff821115610d1d57610d1c610c87565b5b610d2682610c76565b9050602081019050919050565b82818337600083830152505050565b6000610d55610d5084610d02565b610ce7565b905082815260208101848484011115610d7157610d70610c71565b5b610d7c848285610d33565b509392505050565b600082601f830112610d9957610d98610c6c565b5b8135610da9848260208601610d42565b91505092915050565b60008060408385031215610dc957610dc8610c2c565b5b6000610dd785828601610c57565b925050602083013567ffffffffffffffff811115610df857610df7610c31565b5b610e0485828601610d84565b9150509250929050565b600073ffffffffffffffffffffffffffffffffffffffff82169050919050565b6000610e3982610e0e565b9050919050565b610e4981610e2e565b82525050565b6000602082019050610e646000830184610e40565b92915050565b60008115159050919050565b610e7f81610e6a565b82525050565b6000602082019050610e9a6000830184610e76565b92915050565b610ea981610e6a565b8114610eb457600080fd5b50565b600081359050610ec681610ea0565b92915050565b60008060408385031215610ee357610ee2610c2c565b5b600083013567ffffffffffffffff811115610f0157610f00610c31565b5b610f0d85828601610d84565b9250506020610f1e85828601610eb7565b9150509250929050565b600060ff82169050919050565b610f3e81610f28565b82525050565b6000602082019050610f596000830184610f35565b92915050565b610f6881610bee565b8114610f7357600080fd5b50565b600081359050610f8581610f5f565b92915050565b60008060408385031215610fa257610fa1610c2c565b5b600083013567ffffffffffffffff811115610fc057610fbf610c31565b5b610fcc85828601610d84565b9250506020610fdd85828601610f76565b9150509250929050565b600060208284031215610ffd57610ffc610c2c565b5b600082013567ffffffffffffffff81111561101b5761101a610c31565b5b61102784828501610d84565b91505092915050565b61103981610e2e565b811461104457600080fd5b50565b60008135905061105681611030565b92915050565b6000806040838503121561107357611072610c2c565b5b600083013567ffffffffffffffff81111561109157611090610c31565b5b61109d85828601610d84565b92505060206110ae85828601611047565b9150509250929050565b6000819050919050565b6110d36110ce82610c36565b6110b8565b82525050565b600081519050919050565b600081905092915050565b60005b8381101561110d5780820151818401526020810190506110f2565b8381111561111c576000848401525b50505050565b600061112d826110d9565b61113781856110e4565b93506111478185602086016110ef565b80840191505092915050565b600061115f82856110c2565b60208201915061116f8284611122565b91508190509392505050565b60008151905061118a81611030565b92915050565b6000602082840312156111a6576111a5610c2c565b5b60006111b48482850161117b565b91505092915050565b600082825260208201905092915050565b7f4163636f756e74206973206e6f74206120677561726469616e00000000000000600082015250565b60006112046019836111bd565b915061120f826111ce565b602082019050919050565b60006020820190508181036000830152611233816111f7565b9050919050565b7f6465706c6f796564000000000000000000000000000000000000000000000000600082015250565b60006112706008836110e4565b915061127b8261123a565b600882019050919050565b600061129282846110c2565b6020820191506112a182611263565b915081905092915050565b7f4e487b7100000000000000000000000000000000000000000000000000000000600052601160045260246000fd5b60006112e682610bee565b91506112f183610bee565b9250827fffffffffffffffffffffffffffffffffffffffffffffffffffffffffffffffff03821115611326576113256112ac565b5b828201905092915050565b7f636f6e74726163742e6164647265737300000000000000000000000000000000600082015250565b60006113676010836110e4565b915061137282611331565b601082019050919050565b60006113888261135a565b91506113948284611122565b915081905092915050565b7f436f6e7472616374206e6f7420666f756e640000000000000000000000000000600082015250565b60006113d56012836111bd565b91506113e08261139f565b602082019050919050565b60006020820190508181036000830152611404816113c8565b9050919050565b61141481610c36565b82525050565b600060208201905061142f600083018461140b565b92915050565b60008151905061144481610ea0565b92915050565b6000602082840312156114605761145f610c2c565b5b600061146e84828501611435565b91505092915050565b600060408201905061148c600083018561140b565b6114996020830184610e76565b9392505050565b60006040820190506114b5600083018561140b565b6114c26020830184610bf8565b9392505050565b60006040820190506114de600083018561140b565b6114eb6020830184610e40565b9392505050565b60008151905061150181610f5f565b92915050565b60006020828403121561151d5761151c610c2c565b5b600061152b848285016114f2565b9150509291505056fea2646970667358221220bd4f70b3f09d94c18461ce92459ed1f917037835bd11bb4fa288b97a4b73124764736f6c634300080d0033",
  "linkReferences": {},
  "deployedLinkReferences": {}
}