{
  "_format": "hh-sol-artifact-1",
  "contractName": "ProtocolDAO",
  "sourceName": "contracts/contract/dao/ProtocolDAO.sol",
  "abi": [
    {
      "inputs": [
        {
          "internalType": "contract Storage",
          "name": "storageAddress",
          "type": "address"
        }
      ],
      "stateMutability": "nonpayable",
      "type": "constructor"
    },
    {
      "inputs": [],
      "name": "getDelegationDurationLimit",
      "outputs": [
        {
          "internalType": "uint256",
          "name": "",
          "type": "uint256"
        }
      ],
      "stateMutability": "view",
      "type": "function"
    },
    {
      "inputs": [],
      "name": "getExpectedRewardRate",
      "outputs": [
        {
          "internalType": "uint256",
          "name": "",
          "type": "uint256"
        }
      ],
      "stateMutability": "view",
      "type": "function"
    },
    {
      "inputs": [],
      "name": "getInflationIntervalRate",
      "outputs": [
        {
          "internalType": "uint256",
          "name": "",
          "type": "uint256"
        }
      ],
      "stateMutability": "view",
      "type": "function"
    },
    {
      "inputs": [],
      "name": "getInflationIntervalStartTime",
      "outputs": [
        {
          "internalType": "uint256",
          "name": "",
          "type": "uint256"
        }
      ],
      "stateMutability": "view",
      "type": "function"
    },
    {
      "inputs": [
        {
          "internalType": "string",
          "name": "_contractName",
          "type": "string"
        }
      ],
      "name": "getPublicContractAddress",
      "outputs": [
        {
          "internalType": "address",
          "name": "",
          "type": "address"
        }
      ],
      "stateMutability": "view",
      "type": "function"
    },
    {
      "inputs": [
        {
          "internalType": "bytes32",
          "name": "settingNameSpace",
          "type": "bytes32"
        },
        {
          "internalType": "string",
          "name": "_settingPath",
          "type": "string"
        }
      ],
      "name": "getSettingAddress",
      "outputs": [
        {
          "internalType": "address",
          "name": "",
          "type": "address"
        }
      ],
      "stateMutability": "view",
      "type": "function"
    },
    {
      "inputs": [
        {
          "internalType": "bytes32",
          "name": "settingNameSpace",
          "type": "bytes32"
        },
        {
          "internalType": "string",
          "name": "_settingPath",
          "type": "string"
        }
      ],
      "name": "getSettingBool",
      "outputs": [
        {
          "internalType": "bool",
          "name": "",
          "type": "bool"
        }
      ],
      "stateMutability": "view",
      "type": "function"
    },
    {
      "inputs": [
        {
          "internalType": "bytes32",
          "name": "settingNameSpace",
          "type": "bytes32"
        },
        {
          "internalType": "string",
          "name": "_settingPath",
          "type": "string"
        }
      ],
      "name": "getSettingUint",
      "outputs": [
        {
          "internalType": "uint256",
          "name": "",
          "type": "uint256"
        }
      ],
      "stateMutability": "view",
      "type": "function"
    },
    {
      "inputs": [],
      "name": "getTargetggAVAXReserveRate",
      "outputs": [
        {
          "internalType": "uint256",
          "name": "",
          "type": "uint256"
        }
      ],
      "stateMutability": "view",
      "type": "function"
    },
    {
      "inputs": [],
      "name": "initialize",
      "outputs": [],
      "stateMutability": "nonpayable",
      "type": "function"
    },
    {
      "inputs": [
        {
          "internalType": "string",
          "name": "_settingPath",
          "type": "string"
        },
        {
          "internalType": "address",
          "name": "_value",
          "type": "address"
        }
      ],
      "name": "setSettingAddress",
      "outputs": [],
      "stateMutability": "nonpayable",
      "type": "function"
    },
    {
      "inputs": [
        {
          "internalType": "string",
          "name": "_settingPath",
          "type": "string"
        },
        {
          "internalType": "bool",
          "name": "_value",
          "type": "bool"
        }
      ],
      "name": "setSettingBool",
      "outputs": [],
      "stateMutability": "nonpayable",
      "type": "function"
    },
    {
      "inputs": [
        {
          "internalType": "string",
          "name": "_settingPath",
          "type": "string"
        },
        {
          "internalType": "uint256",
          "name": "_value",
          "type": "uint256"
        }
      ],
      "name": "setSettingUint",
      "outputs": [],
      "stateMutability": "nonpayable",
      "type": "function"
    },
    {
      "inputs": [],
      "name": "version",
      "outputs": [
        {
          "internalType": "uint8",
          "name": "",
          "type": "uint8"
        }
      ],
      "stateMutability": "view",
      "type": "function"
    }
  ],
  "bytecode": "0x608060405234801561001057600080fd5b50604051610df8380380610df883398101604081905261002f916100a4565b6000805460016001600160a81b03199091166101006001600160a01b0385160260ff1916171790556040517f64616f2e70726f746f636f6c2e73657474696e672e0000000000000000000000602082015260350160408051601f198184030181529190528051602090910120600155506100d4565b6000602082840312156100b657600080fd5b81516001600160a01b03811681146100cd57600080fd5b9392505050565b610d15806100e36000396000f3fe608060405234801561001057600080fd5b50600436106100ea5760003560e01c80635e9d40441161008c578063cff0b64811610066578063cff0b648146101bf578063d6cd921e146101d2578063ee96d774146101e5578063f4d70e78146101ed57600080fd5b80635e9d40441461019c5780638129fc1c146101af578063a24f4aa2146101b757600080fd5b8063232de716116100c8578063232de7161461013d5780632a57d018146101605780634712a1431461017557806354fd4d501461017d57600080fd5b80630534f6db146100ef57806306eaa68b1461010a5780632323f73814610135575b600080fd5b6100f7610200565b6040519081526020015b60405180910390f35b61011d610118366004610a6c565b610248565b6040516001600160a01b039091168152602001610101565b6100f7610282565b61015061014b366004610a6c565b6102be565b6040519015158152602001610101565b61017361016e366004610ac4565b6102f1565b005b6100f7610329565b60005461018a9060ff1681565b60405160ff9091168152602001610101565b6101736101aa366004610b16565b61036c565b6101736103a0565b6100f761063e565b61011d6101cd366004610b5b565b610679565b6101736101e0366004610bad565b6106e3565b6100f7610717565b6100f76101fb366004610a6c565b610756565b60006102436001546040518060400160405280601c81526020017f6767702e696e666c6174696f6e2e696e74657276616c2e737461727400000000815250610756565b905090565b600061027b8383604051602001610260929190610c2f565b60405160208183030381529060405280519060200120610789565b9392505050565b6000610243600154604051806040016040528060168152602001753232b632b3b0ba34b7b71736b0bc223ab930ba34b7b760511b815250610756565b600061027b83836040516020016102d6929190610c2f565b604051602081830303815290604052805190602001206107fb565b61032560015483604051602001610309929190610c2f565b604051602081830303815290604052805190602001208261086d565b5050565b60006102436001546040518060400160405280601c81526020017f6176616c616e6368652e65787065637465645265776172645261746500000000815250610756565b61032560015483604051602001610384929190610c2f565b60405160208183030381529060405280519060200120826108dc565b600060019054906101000a90046001600160a01b03166001600160a01b031663a75b87d26040518163ffffffff1660e01b8152600401602060405180830381865afa1580156103f3573d6000803e3d6000fd5b505050506040513d601f19601f820116820180604052508101906104179190610c41565b6001600160a01b0316336001600160a01b03161461047c5760405162461bcd60e51b815260206004820152601960248201527f4163636f756e74206973206e6f74206120677561726469616e0000000000000060448201526064015b60405180910390fd5b6104a56001546040516020016102d69181526719195c1b1bde595960c21b602082015260280190565b61063c576104f06040518060400160405280601c81526020017f6176616c616e6368652e6578706563746564526577617264526174650000000081525067016345785d8a000061036c565b6105376040518060400160405280601b81526020017f6767702e696e666c6174696f6e2e696e74657276616c2e726174650000000000815250670de130489916479c61036c565b60408051808201909152601c81527f6767702e696e666c6174696f6e2e696e74657276616c2e737461727400000000602082015261057c906101aa4262015180610c5e565b6105bb6040518060400160405280601581526020017419d9d85d985e0b9c995cd95c9d994b9d185c99d95d605a1b81525067016345785d8a000061036c565b6105f6604051806040016040528060168152602001753232b632b3b0ba34b7b71736b0bc223ab930ba34b7b760511b815250624dc88061036c565b61063c60015460405160200161061f9181526719195c1b1bde595960c21b602082015260280190565b60405160208183030381529060405280519060200120600161086d565b565b60006102436001546040518060400160405280601581526020017419d9d85d985e0b9c995cd95c9d994b9d185c99d95d605a1b815250610756565b600080610690836040516020016102609190610c84565b90506001600160a01b0381166106dd5760405162461bcd60e51b815260206004820152601260248201527110dbdb9d1c9858dd081b9bdd08199bdd5b9960721b6044820152606401610473565b92915050565b610325600154836040516020016106fb929190610c2f565b6040516020818303038152906040528051906020012082610918565b60006102436001546040518060400160405280601b81526020017f6767702e696e666c6174696f6e2e696e74657276616c2e7261746500000000008152505b600061027b838360405160200161076e929190610c2f565b60405160208183030381529060405280519060200120610957565b600080546040516321f8a72160e01b8152600481018490526101009091046001600160a01b0316906321f8a72190602401602060405180830381865afa1580156107d7573d6000803e3d6000fd5b505050506040513d601f19601f820116820180604052508101906106dd9190610c41565b60008054604051633d70e7e560e11b8152600481018490526101009091046001600160a01b031690637ae1cfca90602401602060405180830381865afa158015610849573d6000803e3d6000fd5b505050506040513d601f19601f820116820180604052508101906106dd9190610ca9565b60005460405163abfdcced60e01b81526004810184905282151560248201526101009091046001600160a01b03169063abfdcced906044015b600060405180830381600087803b1580156108c057600080fd5b505af11580156108d4573d6000803e3d6000fd5b505050505050565b600054604051637152429d60e11b815260048101849052602481018390526101009091046001600160a01b03169063e2a4853a906044016108a6565b60005460405163ca446dd960e01b8152600481018490526001600160a01b0383811660248301526101009092049091169063ca446dd9906044016108a6565b6000805460405163bd02d0f560e01b8152600481018490526101009091046001600160a01b03169063bd02d0f590602401602060405180830381865afa1580156109a5573d6000803e3d6000fd5b505050506040513d601f19601f820116820180604052508101906106dd9190610cc6565b634e487b7160e01b600052604160045260246000fd5b600082601f8301126109f057600080fd5b813567ffffffffffffffff80821115610a0b57610a0b6109c9565b604051601f8301601f19908116603f01168101908282118183101715610a3357610a336109c9565b81604052838152866020858801011115610a4c57600080fd5b836020870160208301376000602085830101528094505050505092915050565b60008060408385031215610a7f57600080fd5b82359150602083013567ffffffffffffffff811115610a9d57600080fd5b610aa9858286016109df565b9150509250929050565b8015158114610ac157600080fd5b50565b60008060408385031215610ad757600080fd5b823567ffffffffffffffff811115610aee57600080fd5b610afa858286016109df565b9250506020830135610b0b81610ab3565b809150509250929050565b60008060408385031215610b2957600080fd5b823567ffffffffffffffff811115610b4057600080fd5b610b4c858286016109df565b95602094909401359450505050565b600060208284031215610b6d57600080fd5b813567ffffffffffffffff811115610b8457600080fd5b610b90848285016109df565b949350505050565b6001600160a01b0381168114610ac157600080fd5b60008060408385031215610bc057600080fd5b823567ffffffffffffffff811115610bd757600080fd5b610be3858286016109df565b9250506020830135610b0b81610b98565b6000815160005b81811015610c155760208185018101518683015201610bfb565b81811115610c24576000828601525b509290920192915050565b8281526000610b906020830184610bf4565b600060208284031215610c5357600080fd5b815161027b81610b98565b60008219821115610c7f57634e487b7160e01b600052601160045260246000fd5b500190565b6f636f6e74726163742e6164647265737360801b8152600061027b6010830184610bf4565b600060208284031215610cbb57600080fd5b815161027b81610ab3565b600060208284031215610cd857600080fd5b505191905056fea2646970667358221220a4adc0f2d9c383a1c88eed9f3e7e582c6a927c895df414d83ce2a42e87ab643164736f6c634300080d0033",
  "linkReferences": {},
  "deployedLinkReferences": {}
}