{
  "_format": "hh-sol-artifact-1",
  "contractName": "BaseUpgradeable",
  "sourceName": "contracts/contract/BaseUpgradeable.sol",
  "abi": [
    {
      "inputs": [
        {
          "internalType": "string",
          "name": "_contractName",
          "type": "string"
        }
      ],
      "name": "getPublicContractAddress",
      "outputs": [
        {
          "internalType": "address",
          "name": "",
          "type": "address"
        }
      ],
      "stateMutability": "view",
      "type": "function"
    },
    {
      "inputs": [
        {
          "internalType": "bytes32",
          "name": "settingNameSpace",
          "type": "bytes32"
        },
        {
          "internalType": "string",
          "name": "_settingPath",
          "type": "string"
        }
      ],
      "name": "getSettingAddress",
      "outputs": [
        {
          "internalType": "address",
          "name": "",
          "type": "address"
        }
      ],
      "stateMutability": "view",
      "type": "function"
    },
    {
      "inputs": [
        {
          "internalType": "bytes32",
          "name": "settingNameSpace",
          "type": "bytes32"
        },
        {
          "internalType": "string",
          "name": "_settingPath",
          "type": "string"
        }
      ],
      "name": "getSettingBool",
      "outputs": [
        {
          "internalType": "bool",
          "name": "",
          "type": "bool"
        }
      ],
      "stateMutability": "view",
      "type": "function"
    },
    {
      "inputs": [
        {
          "internalType": "bytes32",
          "name": "settingNameSpace",
          "type": "bytes32"
        },
        {
          "internalType": "string",
          "name": "_settingPath",
          "type": "string"
        }
      ],
      "name": "getSettingUint",
      "outputs": [
        {
          "internalType": "uint256",
          "name": "",
          "type": "uint256"
        }
      ],
      "stateMutability": "view",
      "type": "function"
    },
    {
      "inputs": [],
      "name": "version",
      "outputs": [
        {
          "internalType": "uint8",
          "name": "",
          "type": "uint8"
        }
      ],
      "stateMutability": "view",
      "type": "function"
    }
  ],
  "bytecode": "0x608060405234801561001057600080fd5b50610599806100206000396000f3fe608060405234801561001057600080fd5b50600436106100575760003560e01c806306eaa68b1461005c578063232de7161461008c57806354fd4d50146100af578063cff0b648146100ce578063f4d70e78146100e1575b600080fd5b61006f61006a366004610409565b610102565b6040516001600160a01b0390911681526020015b60405180910390f35b61009f61009a366004610409565b61013c565b6040519015158152602001610083565b6000546100bc9060ff1681565b60405160ff9091168152602001610083565b61006f6100dc366004610450565b61016f565b6100f46100ef366004610409565b6101dd565b604051908152602001610083565b6000610135838360405160200161011a9291906104c8565b60405160208183030381529060405280519060200120610210565b9392505050565b600061013583836040516020016101549291906104c8565b60405160208183030381529060405280519060200120610282565b6000806101868360405160200161011a91906104da565b90506001600160a01b0381166101d75760405162461bcd60e51b815260206004820152601260248201527110dbdb9d1c9858dd081b9bdd08199bdd5b9960721b604482015260640160405180910390fd5b92915050565b600061013583836040516020016101f59291906104c8565b604051602081830303815290604052805190602001206102f4565b600080546040516321f8a72160e01b8152600481018490526101009091046001600160a01b0316906321f8a72190602401602060405180830381865afa15801561025e573d6000803e3d6000fd5b505050506040513d601f19601f820116820180604052508101906101d791906104ff565b60008054604051633d70e7e560e11b8152600481018490526101009091046001600160a01b031690637ae1cfca90602401602060405180830381865afa1580156102d0573d6000803e3d6000fd5b505050506040513d601f19601f820116820180604052508101906101d79190610528565b6000805460405163bd02d0f560e01b8152600481018490526101009091046001600160a01b03169063bd02d0f590602401602060405180830381865afa158015610342573d6000803e3d6000fd5b505050506040513d601f19601f820116820180604052508101906101d7919061054a565b634e487b7160e01b600052604160045260246000fd5b600082601f83011261038d57600080fd5b813567ffffffffffffffff808211156103a8576103a8610366565b604051601f8301601f19908116603f011681019082821181831017156103d0576103d0610366565b816040528381528660208588010111156103e957600080fd5b836020870160208301376000602085830101528094505050505092915050565b6000806040838503121561041c57600080fd5b82359150602083013567ffffffffffffffff81111561043a57600080fd5b6104468582860161037c565b9150509250929050565b60006020828403121561046257600080fd5b813567ffffffffffffffff81111561047957600080fd5b6104858482850161037c565b949350505050565b6000815160005b818110156104ae5760208185018101518683015201610494565b818111156104bd576000828601525b509290920192915050565b8281526000610485602083018461048d565b6f636f6e74726163742e6164647265737360801b81526000610135601083018461048d565b60006020828403121561051157600080fd5b81516001600160a01b038116811461013557600080fd5b60006020828403121561053a57600080fd5b8151801515811461013557600080fd5b60006020828403121561055c57600080fd5b505191905056fea2646970667358221220cb282d1fcf964f0291c814166edbaf10444d8b59b0b668754f99fc344b5cb73b64736f6c634300080d0033",
  "linkReferences": {},
  "deployedLinkReferences": {}
}