{
  "_format": "hh-sol-artifact-1",
  "contractName": "ProtocolDAOClaim",
  "sourceName": "contracts/contract/rewards/claims/ProtocolDAOClaim.sol",
  "abi": [
    {
      "inputs": [
        {
          "internalType": "contract Storage",
          "name": "storageAddress",
          "type": "address"
        }
      ],
      "stateMutability": "nonpayable",
      "type": "constructor"
    },
    {
      "anonymous": false,
      "inputs": [
        {
          "indexed": false,
          "internalType": "string",
          "name": "invoiceID",
          "type": "string"
        },
        {
          "indexed": true,
          "internalType": "address",
          "name": "from",
          "type": "address"
        },
        {
          "indexed": true,
          "internalType": "address",
          "name": "to",
          "type": "address"
        },
        {
          "indexed": false,
          "internalType": "uint256",
          "name": "amount",
          "type": "uint256"
        },
        {
          "indexed": false,
          "internalType": "uint256",
          "name": "time",
          "type": "uint256"
        }
      ],
      "name": "GGPTokensSentByDAOProtocol",
      "type": "event"
    },
    {
      "inputs": [],
      "name": "getEnabled",
      "outputs": [
        {
          "internalType": "bool",
          "name": "",
          "type": "bool"
        }
      ],
      "stateMutability": "view",
      "type": "function"
    },
    {
      "inputs": [
        {
          "internalType": "string",
          "name": "_contractName",
          "type": "string"
        }
      ],
      "name": "getPublicContractAddress",
      "outputs": [
        {
          "internalType": "address",
          "name": "",
          "type": "address"
        }
      ],
      "stateMutability": "view",
      "type": "function"
    },
    {
      "inputs": [
        {
          "internalType": "bytes32",
          "name": "settingNameSpace",
          "type": "bytes32"
        },
        {
          "internalType": "string",
          "name": "_settingPath",
          "type": "string"
        }
      ],
      "name": "getSettingAddress",
      "outputs": [
        {
          "internalType": "address",
          "name": "",
          "type": "address"
        }
      ],
      "stateMutability": "view",
      "type": "function"
    },
    {
      "inputs": [
        {
          "internalType": "bytes32",
          "name": "settingNameSpace",
          "type": "bytes32"
        },
        {
          "internalType": "string",
          "name": "_settingPath",
          "type": "string"
        }
      ],
      "name": "getSettingBool",
      "outputs": [
        {
          "internalType": "bool",
          "name": "",
          "type": "bool"
        }
      ],
      "stateMutability": "view",
      "type": "function"
    },
    {
      "inputs": [
        {
          "internalType": "bytes32",
          "name": "settingNameSpace",
          "type": "bytes32"
        },
        {
          "internalType": "string",
          "name": "_settingPath",
          "type": "string"
        }
      ],
      "name": "getSettingUint",
      "outputs": [
        {
          "internalType": "uint256",
          "name": "",
          "type": "uint256"
        }
      ],
      "stateMutability": "view",
      "type": "function"
    },
    {
      "inputs": [
        {
          "internalType": "string",
          "name": "_invoiceID",
          "type": "string"
        },
        {
          "internalType": "address",
          "name": "_recipientAddress",
          "type": "address"
        },
        {
          "internalType": "uint256",
          "name": "_amount",
          "type": "uint256"
        }
      ],
      "name": "spend",
      "outputs": [],
      "stateMutability": "nonpayable",
      "type": "function"
    },
    {
      "inputs": [],
      "name": "version",
      "outputs": [
        {
          "internalType": "uint8",
          "name": "",
          "type": "uint8"
        }
      ],
      "stateMutability": "view",
      "type": "function"
    }
  ],
  "bytecode": "0x608060405234801561001057600080fd5b5060405161096938038061096983398101604081905261002f91610063565b6000805460ff196001600160a01b0390931661010002929092166001600160a81b0319909216919091176001179055610093565b60006020828403121561007557600080fd5b81516001600160a01b038116811461008c57600080fd5b9392505050565b6108c7806100a26000396000f3fe608060405234801561001057600080fd5b506004361061007d5760003560e01c8063232de7161161005b578063232de716146100da57806354fd4d50146100ed578063cff0b6481461010c578063f4d70e781461011f57600080fd5b806306eaa68b14610082578063082ef32b146100b257806318de0afd146100c7575b600080fd5b610095610090366004610673565b610140565b6040516001600160a01b0390911681526020015b60405180910390f35b6100c56100c03660046106d2565b61017a565b005b60015b60405190151581526020016100a9565b6100ca6100e8366004610673565b6103aa565b6000546100fa9060ff1681565b60405160ff90911681526020016100a9565b61009561011a36600461072c565b6103dd565b61013261012d366004610673565b610447565b6040519081526020016100a9565b60006101738383604051602001610158929190610799565b6040516020818303038152906040528051906020012061047a565b9392505050565b60006101a26040518060400160405280600581526020016415985d5b1d60da1b8152506103dd565b905060006101cf604051806040016040528060088152602001670546f6b656e4747560c41b8152506103dd565b90506000831180156102735750604080516376677ffb60e11b81526004810191909152601060448201526f50726f746f636f6c44414f436c61696d60801b60648201526001600160a01b03828116602483015283169063eccefff690608401602060405180830381865afa15801561024b573d6000803e3d6000fd5b505050506040513d601f19601f8201168201806040525081019061026f91906107bf565b8311155b6102ea5760405162461bcd60e51b815260206004820152603d60248201527f596f752063616e6e6f742073656e64203020474750206f72206d6f726520746860448201527f616e207468652044414f2068617320696e20697473206163636f756e7400000060648201526084015b60405180910390fd5b6040516301e3366760e01b81526001600160a01b0385811660048301528281166024830152604482018590528316906301e3366790606401600060405180830381600087803b15801561033c57600080fd5b505af1158015610350573d6000803e3d6000fd5b50505050836001600160a01b0316306001600160a01b03167fa80d16cb2293c22adff8e6266edc97592dd5f749a184811bd84db7a0ec831c5187864260405161039b939291906107d8565b60405180910390a35050505050565b600061017383836040516020016103c2929190610799565b604051602081830303815290604052805190602001206104ec565b6000806103f483604051602001610158919061081a565b90506001600160a01b0381166104415760405162461bcd60e51b815260206004820152601260248201527110dbdb9d1c9858dd081b9bdd08199bdd5b9960721b60448201526064016102e1565b92915050565b6000610173838360405160200161045f929190610799565b6040516020818303038152906040528051906020012061055e565b600080546040516321f8a72160e01b8152600481018490526101009091046001600160a01b0316906321f8a72190602401602060405180830381865afa1580156104c8573d6000803e3d6000fd5b505050506040513d601f19601f820116820180604052508101906104419190610852565b60008054604051633d70e7e560e11b8152600481018490526101009091046001600160a01b031690637ae1cfca90602401602060405180830381865afa15801561053a573d6000803e3d6000fd5b505050506040513d601f19601f82011682018060405250810190610441919061086f565b6000805460405163bd02d0f560e01b8152600481018490526101009091046001600160a01b03169063bd02d0f590602401602060405180830381865afa1580156105ac573d6000803e3d6000fd5b505050506040513d601f19601f8201168201806040525081019061044191906107bf565b634e487b7160e01b600052604160045260246000fd5b600082601f8301126105f757600080fd5b813567ffffffffffffffff80821115610612576106126105d0565b604051601f8301601f19908116603f0116810190828211818310171561063a5761063a6105d0565b8160405283815286602085880101111561065357600080fd5b836020870160208301376000602085830101528094505050505092915050565b6000806040838503121561068657600080fd5b82359150602083013567ffffffffffffffff8111156106a457600080fd5b6106b0858286016105e6565b9150509250929050565b6001600160a01b03811681146106cf57600080fd5b50565b6000806000606084860312156106e757600080fd5b833567ffffffffffffffff8111156106fe57600080fd5b61070a868287016105e6565b935050602084013561071b816106ba565b929592945050506040919091013590565b60006020828403121561073e57600080fd5b813567ffffffffffffffff81111561075557600080fd5b610761848285016105e6565b949350505050565b60005b8381101561078457818101518382015260200161076c565b83811115610793576000848401525b50505050565b828152600082516107b1816020850160208701610769565b919091016020019392505050565b6000602082840312156107d157600080fd5b5051919050565b60608152600084518060608401526107f7816080850160208901610769565b60208301949094525060408101919091526080601f909201601f19160101919050565b6f636f6e74726163742e6164647265737360801b815260008251610845816010850160208701610769565b9190910160100192915050565b60006020828403121561086457600080fd5b8151610173816106ba565b60006020828403121561088157600080fd5b8151801515811461017357600080fdfea2646970667358221220bf61054db90f1512184ef4c922de30ee0ecfb1bfd12f4e36a2d9e3f4fdc75f5364736f6c634300080d0033",
  "linkReferences": {},
  "deployedLinkReferences": {}
}