{
  "_format": "hh-sol-artifact-1",
  "contractName": "Oracle",
  "sourceName": "contracts/contract/Oracle.sol",
  "abi": [
    {
      "inputs": [
        {
          "internalType": "contract Storage",
          "name": "storageAddress",
          "type": "address"
        }
      ],
      "stateMutability": "nonpayable",
      "type": "constructor"
    },
    {
      "inputs": [],
      "name": "InvalidGGPPrice",
      "type": "error"
    },
    {
      "inputs": [],
      "name": "InvalidMultisigDisabled",
      "type": "error"
    },
    {
      "inputs": [],
      "name": "InvalidTimestamp",
      "type": "error"
    },
    {
      "anonymous": false,
      "inputs": [
        {
          "indexed": true,
          "internalType": "uint256",
          "name": "price",
          "type": "uint256"
        }
      ],
      "name": "GGPPriceUpdated",
      "type": "event"
    },
    {
      "inputs": [],
      "name": "getGGPPrice",
      "outputs": [
        {
          "internalType": "uint256",
          "name": "price",
          "type": "uint256"
        },
        {
          "internalType": "uint256",
          "name": "timestamp",
          "type": "uint256"
        }
      ],
      "stateMutability": "view",
      "type": "function"
    },
    {
      "inputs": [],
      "name": "getGGPPriceFromOneInch",
      "outputs": [
        {
          "internalType": "uint256",
          "name": "price",
          "type": "uint256"
        },
        {
          "internalType": "uint256",
          "name": "timestamp",
          "type": "uint256"
        }
      ],
      "stateMutability": "view",
      "type": "function"
    },
    {
      "inputs": [
        {
          "internalType": "string",
          "name": "_contractName",
          "type": "string"
        }
      ],
      "name": "getPublicContractAddress",
      "outputs": [
        {
          "internalType": "address",
          "name": "",
          "type": "address"
        }
      ],
      "stateMutability": "view",
      "type": "function"
    },
    {
      "inputs": [
        {
          "internalType": "bytes32",
          "name": "settingNameSpace",
          "type": "bytes32"
        },
        {
          "internalType": "string",
          "name": "_settingPath",
          "type": "string"
        }
      ],
      "name": "getSettingAddress",
      "outputs": [
        {
          "internalType": "address",
          "name": "",
          "type": "address"
        }
      ],
      "stateMutability": "view",
      "type": "function"
    },
    {
      "inputs": [
        {
          "internalType": "bytes32",
          "name": "settingNameSpace",
          "type": "bytes32"
        },
        {
          "internalType": "string",
          "name": "_settingPath",
          "type": "string"
        }
      ],
      "name": "getSettingBool",
      "outputs": [
        {
          "internalType": "bool",
          "name": "",
          "type": "bool"
        }
      ],
      "stateMutability": "view",
      "type": "function"
    },
    {
      "inputs": [
        {
          "internalType": "bytes32",
          "name": "settingNameSpace",
          "type": "bytes32"
        },
        {
          "internalType": "string",
          "name": "_settingPath",
          "type": "string"
        }
      ],
      "name": "getSettingUint",
      "outputs": [
        {
          "internalType": "uint256",
          "name": "",
          "type": "uint256"
        }
      ],
      "stateMutability": "view",
      "type": "function"
    },
    {
      "inputs": [
        {
          "internalType": "uint256",
          "name": "price",
          "type": "uint256"
        },
        {
          "internalType": "uint256",
          "name": "timestamp",
          "type": "uint256"
        }
      ],
      "name": "setGGPPrice",
      "outputs": [],
      "stateMutability": "nonpayable",
      "type": "function"
    },
    {
      "inputs": [
        {
          "internalType": "address",
          "name": "addr",
          "type": "address"
        }
      ],
      "name": "setOneInch",
      "outputs": [],
      "stateMutability": "nonpayable",
      "type": "function"
    },
    {
      "inputs": [],
      "name": "version",
      "outputs": [
        {
          "internalType": "uint8",
          "name": "",
          "type": "uint8"
        }
      ],
      "stateMutability": "view",
      "type": "function"
    }
  ],
  "bytecode": "0x608060405234801561001057600080fd5b50604051610a27380380610a2783398101604081905261002f91610063565b6000805460ff196001600160a01b0390931661010002929092166001600160a81b0319909216919091176001179055610093565b60006020828403121561007557600080fd5b81516001600160a01b038116811461008c57600080fd5b9392505050565b610985806100a26000396000f3fe608060405234801561001057600080fd5b50600436106100935760003560e01c80635e1ccad7116100665780635e1ccad71461011f578063a41bfc6a1461013c578063bece349b1461014f578063cff0b64814610157578063f4d70e781461016a57600080fd5b806306eaa68b146100985780630a13a871146100c8578063232de716146100dd57806354fd4d5014610100575b600080fd5b6100ab6100a63660046107ad565b61018b565b6040516001600160a01b0390911681526020015b60405180910390f35b6100db6100d63660046107f4565b6101c5565b005b6100f06100eb3660046107ad565b6102c2565b60405190151581526020016100bf565b60005461010d9060ff1681565b60405160ff90911681526020016100bf565b6101276102f5565b604080519283526020830191909152016100bf565b6100db61014a36600461082b565b6103c6565b6101276103e8565b6100ab610165366004610848565b610466565b61017d6101783660046107ad565b6104d4565b6040519081526020016100bf565b60006101be83836040516020016101a39291906108c0565b60405160208183030381529060405280519060200120610507565b9392505050565b60006101f07fcda01f6e74f1b3c7d7dd55100aebb58fd9e2408f74508e6ec4c2259194986d98610579565b9050808210806101ff57504282115b1561021d5760405163b7d0949760e01b815260040160405180910390fd5b8260000361023e57604051632ec7260b60e21b815260040160405180910390fd5b6102687fd739db26e78e179a5f07fc9d4a06ecb305d9607dd4b6e08706920698ed90806c846105eb565b6102927fcda01f6e74f1b3c7d7dd55100aebb58fd9e2408f74508e6ec4c2259194986d98836105eb565b60405183907fddde4d882dc95b863fbe6e3dca12cbc84cc8fb59d1323600bf6a18fdfe8d69bd90600090a2505050565b60006101be83836040516020016102da9291906108c0565b60405160208183030381529060405280519060200120610659565b6000806000610323604051806040016040528060088152602001670546f6b656e4747560c41b815250610466565b90506000610345710dee4c2c6d8ca5ccecee05cdedccad2dcc6d60731b610507565b6040516307de4fd160e41b81526001600160a01b038481166004830152600060248301529192508291821690637de4fd1090604401602060405180830381865afa158015610397573d6000803e3d6000fd5b505050506040513d601f19601f820116820180604052508101906103bb91906108d2565b954295509350505050565b6103e5710dee4c2c6d8ca5ccecee05cdedccad2dcc6d60731b826106cb565b50565b6000806104147fd739db26e78e179a5f07fc9d4a06ecb305d9607dd4b6e08706920698ed90806c610579565b91508160000361043757604051632ec7260b60e21b815260040160405180910390fd5b6104607fcda01f6e74f1b3c7d7dd55100aebb58fd9e2408f74508e6ec4c2259194986d98610579565b90509091565b60008061047d836040516020016101a391906108eb565b90506001600160a01b0381166104ce5760405162461bcd60e51b815260206004820152601260248201527110dbdb9d1c9858dd081b9bdd08199bdd5b9960721b604482015260640160405180910390fd5b92915050565b60006101be83836040516020016104ec9291906108c0565b60405160208183030381529060405280519060200120610579565b600080546040516321f8a72160e01b8152600481018490526101009091046001600160a01b0316906321f8a72190602401602060405180830381865afa158015610555573d6000803e3d6000fd5b505050506040513d601f19601f820116820180604052508101906104ce9190610910565b6000805460405163bd02d0f560e01b8152600481018490526101009091046001600160a01b03169063bd02d0f590602401602060405180830381865afa1580156105c7573d6000803e3d6000fd5b505050506040513d601f19601f820116820180604052508101906104ce91906108d2565b600054604051637152429d60e11b815260048101849052602481018390526101009091046001600160a01b03169063e2a4853a906044015b600060405180830381600087803b15801561063d57600080fd5b505af1158015610651573d6000803e3d6000fd5b505050505050565b60008054604051633d70e7e560e11b8152600481018490526101009091046001600160a01b031690637ae1cfca90602401602060405180830381865afa1580156106a7573d6000803e3d6000fd5b505050506040513d601f19601f820116820180604052508101906104ce919061092d565b60005460405163ca446dd960e01b8152600481018490526001600160a01b0383811660248301526101009092049091169063ca446dd990604401610623565b634e487b7160e01b600052604160045260246000fd5b600082601f83011261073157600080fd5b813567ffffffffffffffff8082111561074c5761074c61070a565b604051601f8301601f19908116603f011681019082821181831017156107745761077461070a565b8160405283815286602085880101111561078d57600080fd5b836020870160208301376000602085830101528094505050505092915050565b600080604083850312156107c057600080fd5b82359150602083013567ffffffffffffffff8111156107de57600080fd5b6107ea85828601610720565b9150509250929050565b6000806040838503121561080757600080fd5b50508035926020909101359150565b6001600160a01b03811681146103e557600080fd5b60006020828403121561083d57600080fd5b81356101be81610816565b60006020828403121561085a57600080fd5b813567ffffffffffffffff81111561087157600080fd5b61087d84828501610720565b949350505050565b6000815160005b818110156108a6576020818501810151868301520161088c565b818111156108b5576000828601525b509290920192915050565b828152600061087d6020830184610885565b6000602082840312156108e457600080fd5b5051919050565b6f636f6e74726163742e6164647265737360801b815260006101be6010830184610885565b60006020828403121561092257600080fd5b81516101be81610816565b60006020828403121561093f57600080fd5b815180151581146101be57600080fdfea26469706673582212203d0baeead3c6931321480119a52114cf6d0206f6b4b7f97f942f6aa1fde39a5864736f6c634300080d0033",
  "linkReferences": {},
  "deployedLinkReferences": {}
}