{
  "_format": "hh-sol-artifact-1",
  "contractName": "Oracle",
  "sourceName": "contracts/contract/Oracle.sol",
  "abi": [
    {
      "inputs": [
        {
          "internalType": "contract IStorage",
          "name": "storageAddress",
          "type": "address"
        }
      ],
      "stateMutability": "nonpayable",
      "type": "constructor"
    },
    {
      "inputs": [],
      "name": "InvalidGGPPrice",
      "type": "error"
    },
    {
      "inputs": [],
      "name": "InvalidMultisigDisabled",
      "type": "error"
    },
    {
      "inputs": [],
      "name": "InvalidTimestamp",
      "type": "error"
    },
    {
      "anonymous": false,
      "inputs": [
        {
          "indexed": true,
          "internalType": "uint256",
          "name": "price",
          "type": "uint256"
        }
      ],
      "name": "GGPPriceUpdated",
      "type": "event"
    },
    {
      "inputs": [],
      "name": "getGGPPrice",
      "outputs": [
        {
          "internalType": "uint256",
          "name": "price",
          "type": "uint256"
        },
        {
          "internalType": "uint256",
          "name": "timestamp",
          "type": "uint256"
        }
      ],
      "stateMutability": "view",
      "type": "function"
    },
    {
      "inputs": [],
      "name": "getGGPPriceFromOneInch",
      "outputs": [
        {
          "internalType": "uint256",
          "name": "price",
          "type": "uint256"
        },
        {
          "internalType": "uint256",
          "name": "timestamp",
          "type": "uint256"
        }
      ],
      "stateMutability": "view",
      "type": "function"
    },
    {
      "inputs": [
        {
          "internalType": "string",
          "name": "_contractName",
          "type": "string"
        }
      ],
      "name": "getPublicContractAddress",
      "outputs": [
        {
          "internalType": "address",
          "name": "",
          "type": "address"
        }
      ],
      "stateMutability": "view",
      "type": "function"
    },
    {
      "inputs": [
        {
          "internalType": "bytes32",
          "name": "settingNameSpace",
          "type": "bytes32"
        },
        {
          "internalType": "string",
          "name": "_settingPath",
          "type": "string"
        }
      ],
      "name": "getSettingAddress",
      "outputs": [
        {
          "internalType": "address",
          "name": "",
          "type": "address"
        }
      ],
      "stateMutability": "view",
      "type": "function"
    },
    {
      "inputs": [
        {
          "internalType": "bytes32",
          "name": "settingNameSpace",
          "type": "bytes32"
        },
        {
          "internalType": "string",
          "name": "_settingPath",
          "type": "string"
        }
      ],
      "name": "getSettingBool",
      "outputs": [
        {
          "internalType": "bool",
          "name": "",
          "type": "bool"
        }
      ],
      "stateMutability": "view",
      "type": "function"
    },
    {
      "inputs": [
        {
          "internalType": "bytes32",
          "name": "settingNameSpace",
          "type": "bytes32"
        },
        {
          "internalType": "string",
          "name": "_settingPath",
          "type": "string"
        }
      ],
      "name": "getSettingUint",
      "outputs": [
        {
          "internalType": "uint256",
          "name": "",
          "type": "uint256"
        }
      ],
      "stateMutability": "view",
      "type": "function"
    },
    {
      "inputs": [
        {
          "internalType": "uint256",
          "name": "price",
          "type": "uint256"
        },
        {
          "internalType": "uint256",
          "name": "timestamp",
          "type": "uint256"
        }
      ],
      "name": "setGGPPrice",
      "outputs": [],
      "stateMutability": "nonpayable",
      "type": "function"
    },
    {
      "inputs": [
        {
          "internalType": "address",
          "name": "addr",
          "type": "address"
        }
      ],
      "name": "setOneInch",
      "outputs": [],
      "stateMutability": "nonpayable",
      "type": "function"
    },
    {
      "inputs": [],
      "name": "version",
      "outputs": [
        {
          "internalType": "uint8",
          "name": "",
          "type": "uint8"
        }
      ],
      "stateMutability": "view",
      "type": "function"
    }
  ],
  "bytecode": "0x60806040523480156200001157600080fd5b506040516200134e3803806200134e83398181016040528101906200003791906200011a565b8080600060016101000a81548173ffffffffffffffffffffffffffffffffffffffff021916908373ffffffffffffffffffffffffffffffffffffffff1602179055505060016000806101000a81548160ff021916908360ff160217905550506200014c565b600080fd5b600073ffffffffffffffffffffffffffffffffffffffff82169050919050565b6000620000ce82620000a1565b9050919050565b6000620000e282620000c1565b9050919050565b620000f481620000d5565b81146200010057600080fd5b50565b6000815190506200011481620000e9565b92915050565b6000602082840312156200013357620001326200009c565b5b6000620001438482850162000103565b91505092915050565b6111f2806200015c6000396000f3fe608060405234801561001057600080fd5b50600436106100935760003560e01c80635e1ccad7116100665780635e1ccad714610132578063a41bfc6a14610151578063bece349b1461016d578063cff0b6481461018c578063f4d70e78146101bc57610093565b806306eaa68b146100985780630a13a871146100c8578063232de716146100e457806354fd4d5014610114575b600080fd5b6100b260048036038101906100ad9190610b9d565b6101ec565b6040516100bf9190610c3a565b60405180910390f35b6100e260048036038101906100dd9190610c8b565b610227565b005b6100fe60048036038101906100f99190610b9d565b610358565b60405161010b9190610ce6565b60405180910390f35b61011c610393565b6040516101299190610d1d565b60405180910390f35b61013a6103a4565b604051610148929190610d47565b60405180910390f35b61016b60048036038101906101669190610d9c565b6104a4565b005b6101756104d1565b604051610183929190610d47565b60405180910390f35b6101a660048036038101906101a19190610dc9565b610568565b6040516101b39190610c3a565b60405180910390f35b6101d660048036038101906101d19190610b9d565b610614565b6040516101e39190610e12565b60405180910390f35b600061021f8383604051602001610204929190610ec8565b6040516020818303038152906040528051906020012061064f565b905092915050565b60006102527fcda01f6e74f1b3c7d7dd55100aebb58fd9e2408f74508e6ec4c2259194986d986106f3565b90508082108061026157504282115b15610298576040517fb7d0949700000000000000000000000000000000000000000000000000000000815260040160405180910390fd5b600083036102d2576040517fbb1c982c00000000000000000000000000000000000000000000000000000000815260040160405180910390fd5b6102fc7fd739db26e78e179a5f07fc9d4a06ecb305d9607dd4b6e08706920698ed90806c84610797565b6103267fcda01f6e74f1b3c7d7dd55100aebb58fd9e2408f74508e6ec4c2259194986d9883610797565b827fddde4d882dc95b863fbe6e3dca12cbc84cc8fb59d1323600bf6a18fdfe8d69bd60405160405180910390a2505050565b600061038b8383604051602001610370929190610ec8565b6040516020818303038152906040528051906020012061082a565b905092915050565b60008054906101000a900460ff1681565b60008060006103e76040518060400160405280600881526020017f546f6b656e4747500000000000000000000000000000000000000000000000008152506108ce565b905060006104147f6f7261636c652e6767702e6f6e65696e6368000000000000000000000000000061064f565b905060008190508073ffffffffffffffffffffffffffffffffffffffff16637de4fd108460006040518363ffffffff1660e01b8152600401610457929190610f4f565b602060405180830381865afa158015610474573d6000803e3d6000fd5b505050506040513d601f19601f820116820180604052508101906104989190610f8d565b94504293505050509091565b6104ce7f6f7261636c652e6767702e6f6e65696e636800000000000000000000000000008261097a565b50565b6000806104fd7fd739db26e78e179a5f07fc9d4a06ecb305d9607dd4b6e08706920698ed90806c6106f3565b915060008203610539576040517fbb1c982c00000000000000000000000000000000000000000000000000000000815260040160405180910390fd5b6105627fcda01f6e74f1b3c7d7dd55100aebb58fd9e2408f74508e6ec4c2259194986d986106f3565b90509091565b60008061059a8360405160200161057f9190611006565b6040516020818303038152906040528051906020012061064f565b9050600073ffffffffffffffffffffffffffffffffffffffff168173ffffffffffffffffffffffffffffffffffffffff160361060b576040517f08c379a000000000000000000000000000000000000000000000000000000000815260040161060290611085565b60405180910390fd5b80915050919050565b6000610647838360405160200161062c929190610ec8565b604051602081830303815290604052805190602001206106f3565b905092915050565b60008060019054906101000a900473ffffffffffffffffffffffffffffffffffffffff1673ffffffffffffffffffffffffffffffffffffffff166321f8a721836040518263ffffffff1660e01b81526004016106ab91906110b4565b602060405180830381865afa1580156106c8573d6000803e3d6000fd5b505050506040513d601f19601f820116820180604052508101906106ec91906110e4565b9050919050565b60008060019054906101000a900473ffffffffffffffffffffffffffffffffffffffff1673ffffffffffffffffffffffffffffffffffffffff1663bd02d0f5836040518263ffffffff1660e01b815260040161074f91906110b4565b602060405180830381865afa15801561076c573d6000803e3d6000fd5b505050506040513d601f19601f820116820180604052508101906107909190610f8d565b9050919050565b600060019054906101000a900473ffffffffffffffffffffffffffffffffffffffff1673ffffffffffffffffffffffffffffffffffffffff1663e2a4853a83836040518363ffffffff1660e01b81526004016107f4929190611111565b600060405180830381600087803b15801561080e57600080fd5b505af1158015610822573d6000803e3d6000fd5b505050505050565b60008060019054906101000a900473ffffffffffffffffffffffffffffffffffffffff1673ffffffffffffffffffffffffffffffffffffffff16637ae1cfca836040518263ffffffff1660e01b815260040161088691906110b4565b602060405180830381865afa1580156108a3573d6000803e3d6000fd5b505050506040513d601f19601f820116820180604052508101906108c79190611166565b9050919050565b600080610900836040516020016108e59190611006565b6040516020818303038152906040528051906020012061064f565b9050600073ffffffffffffffffffffffffffffffffffffffff168173ffffffffffffffffffffffffffffffffffffffff1603610971576040517f08c379a000000000000000000000000000000000000000000000000000000000815260040161096890611085565b60405180910390fd5b80915050919050565b600060019054906101000a900473ffffffffffffffffffffffffffffffffffffffff1673ffffffffffffffffffffffffffffffffffffffff1663ca446dd983836040518363ffffffff1660e01b81526004016109d7929190611193565b600060405180830381600087803b1580156109f157600080fd5b505af1158015610a05573d6000803e3d6000fd5b505050505050565b6000604051905090565b600080fd5b600080fd5b6000819050919050565b610a3481610a21565b8114610a3f57600080fd5b50565b600081359050610a5181610a2b565b92915050565b600080fd5b600080fd5b6000601f19601f8301169050919050565b7f4e487b7100000000000000000000000000000000000000000000000000000000600052604160045260246000fd5b610aaa82610a61565b810181811067ffffffffffffffff82111715610ac957610ac8610a72565b5b80604052505050565b6000610adc610a0d565b9050610ae88282610aa1565b919050565b600067ffffffffffffffff821115610b0857610b07610a72565b5b610b1182610a61565b9050602081019050919050565b82818337600083830152505050565b6000610b40610b3b84610aed565b610ad2565b905082815260208101848484011115610b5c57610b5b610a5c565b5b610b67848285610b1e565b509392505050565b600082601f830112610b8457610b83610a57565b5b8135610b94848260208601610b2d565b91505092915050565b60008060408385031215610bb457610bb3610a17565b5b6000610bc285828601610a42565b925050602083013567ffffffffffffffff811115610be357610be2610a1c565b5b610bef85828601610b6f565b9150509250929050565b600073ffffffffffffffffffffffffffffffffffffffff82169050919050565b6000610c2482610bf9565b9050919050565b610c3481610c19565b82525050565b6000602082019050610c4f6000830184610c2b565b92915050565b6000819050919050565b610c6881610c55565b8114610c7357600080fd5b50565b600081359050610c8581610c5f565b92915050565b60008060408385031215610ca257610ca1610a17565b5b6000610cb085828601610c76565b9250506020610cc185828601610c76565b9150509250929050565b60008115159050919050565b610ce081610ccb565b82525050565b6000602082019050610cfb6000830184610cd7565b92915050565b600060ff82169050919050565b610d1781610d01565b82525050565b6000602082019050610d326000830184610d0e565b92915050565b610d4181610c55565b82525050565b6000604082019050610d5c6000830185610d38565b610d696020830184610d38565b9392505050565b610d7981610c19565b8114610d8457600080fd5b50565b600081359050610d9681610d70565b92915050565b600060208284031215610db257610db1610a17565b5b6000610dc084828501610d87565b91505092915050565b600060208284031215610ddf57610dde610a17565b5b600082013567ffffffffffffffff811115610dfd57610dfc610a1c565b5b610e0984828501610b6f565b91505092915050565b6000602082019050610e276000830184610d38565b92915050565b6000819050919050565b610e48610e4382610a21565b610e2d565b82525050565b600081519050919050565b600081905092915050565b60005b83811015610e82578082015181840152602081019050610e67565b83811115610e91576000848401525b50505050565b6000610ea282610e4e565b610eac8185610e59565b9350610ebc818560208601610e64565b80840191505092915050565b6000610ed48285610e37565b602082019150610ee48284610e97565b91508190509392505050565b6000819050919050565b6000610f15610f10610f0b84610bf9565b610ef0565b610bf9565b9050919050565b6000610f2782610efa565b9050919050565b6000610f3982610f1c565b9050919050565b610f4981610f2e565b82525050565b6000604082019050610f646000830185610f40565b610f716020830184610cd7565b9392505050565b600081519050610f8781610c5f565b92915050565b600060208284031215610fa357610fa2610a17565b5b6000610fb184828501610f78565b91505092915050565b7f636f6e74726163742e6164647265737300000000000000000000000000000000600082015250565b6000610ff0601083610e59565b9150610ffb82610fba565b601082019050919050565b600061101182610fe3565b915061101d8284610e97565b915081905092915050565b600082825260208201905092915050565b7f436f6e7472616374206e6f7420666f756e640000000000000000000000000000600082015250565b600061106f601283611028565b915061107a82611039565b602082019050919050565b6000602082019050818103600083015261109e81611062565b9050919050565b6110ae81610a21565b82525050565b60006020820190506110c960008301846110a5565b92915050565b6000815190506110de81610d70565b92915050565b6000602082840312156110fa576110f9610a17565b5b6000611108848285016110cf565b91505092915050565b600060408201905061112660008301856110a5565b6111336020830184610d38565b9392505050565b61114381610ccb565b811461114e57600080fd5b50565b6000815190506111608161113a565b92915050565b60006020828403121561117c5761117b610a17565b5b600061118a84828501611151565b91505092915050565b60006040820190506111a860008301856110a5565b6111b56020830184610c2b565b939250505056fea2646970667358221220527598407e0faff94ce67926435566c3bd18e01b8aeb83e181b057957171bd3064736f6c634300080d0033",
  "linkReferences": {},
  "deployedLinkReferences": {}
}