{
  "_format": "hh-sol-artifact-1",
  "contractName": "BaseQueue",
  "sourceName": "contracts/contract/BaseQueue.sol",
  "abi": [
    {
      "inputs": [
        {
          "internalType": "contract Storage",
          "name": "storageAddress",
          "type": "address"
        }
      ],
      "stateMutability": "nonpayable",
      "type": "constructor"
    },
    {
      "inputs": [],
      "name": "CAPACITY",
      "outputs": [
        {
          "internalType": "uint256",
          "name": "",
          "type": "uint256"
        }
      ],
      "stateMutability": "view",
      "type": "function"
    },
    {
      "inputs": [
        {
          "internalType": "bytes32",
          "name": "key",
          "type": "bytes32"
        },
        {
          "internalType": "address",
          "name": "nodeID",
          "type": "address"
        }
      ],
      "name": "cancel",
      "outputs": [],
      "stateMutability": "nonpayable",
      "type": "function"
    },
    {
      "inputs": [
        {
          "internalType": "bytes32",
          "name": "key",
          "type": "bytes32"
        }
      ],
      "name": "dequeue",
      "outputs": [
        {
          "internalType": "address",
          "name": "",
          "type": "address"
        }
      ],
      "stateMutability": "nonpayable",
      "type": "function"
    },
    {
      "inputs": [
        {
          "internalType": "bytes32",
          "name": "key",
          "type": "bytes32"
        },
        {
          "internalType": "address",
          "name": "nodeID",
          "type": "address"
        }
      ],
      "name": "enqueue",
      "outputs": [],
      "stateMutability": "nonpayable",
      "type": "function"
    },
    {
      "inputs": [
        {
          "internalType": "bytes32",
          "name": "key",
          "type": "bytes32"
        },
        {
          "internalType": "address",
          "name": "nodeID",
          "type": "address"
        }
      ],
      "name": "getIndexOf",
      "outputs": [
        {
          "internalType": "int256",
          "name": "",
          "type": "int256"
        }
      ],
      "stateMutability": "view",
      "type": "function"
    },
    {
      "inputs": [
        {
          "internalType": "bytes32",
          "name": "key",
          "type": "bytes32"
        },
        {
          "internalType": "uint256",
          "name": "_index",
          "type": "uint256"
        }
      ],
      "name": "getItem",
      "outputs": [
        {
          "internalType": "address",
          "name": "",
          "type": "address"
        }
      ],
      "stateMutability": "view",
      "type": "function"
    },
    {
      "inputs": [
        {
          "internalType": "bytes32",
          "name": "key",
          "type": "bytes32"
        }
      ],
      "name": "getLength",
      "outputs": [
        {
          "internalType": "uint256",
          "name": "",
          "type": "uint256"
        }
      ],
      "stateMutability": "view",
      "type": "function"
    },
    {
      "inputs": [
        {
          "internalType": "string",
          "name": "_contractName",
          "type": "string"
        }
      ],
      "name": "getPublicContractAddress",
      "outputs": [
        {
          "internalType": "address",
          "name": "",
          "type": "address"
        }
      ],
      "stateMutability": "view",
      "type": "function"
    },
    {
      "inputs": [
        {
          "internalType": "bytes32",
          "name": "settingNameSpace",
          "type": "bytes32"
        },
        {
          "internalType": "string",
          "name": "_settingPath",
          "type": "string"
        }
      ],
      "name": "getSettingAddress",
      "outputs": [
        {
          "internalType": "address",
          "name": "",
          "type": "address"
        }
      ],
      "stateMutability": "view",
      "type": "function"
    },
    {
      "inputs": [
        {
          "internalType": "bytes32",
          "name": "settingNameSpace",
          "type": "bytes32"
        },
        {
          "internalType": "string",
          "name": "_settingPath",
          "type": "string"
        }
      ],
      "name": "getSettingBool",
      "outputs": [
        {
          "internalType": "bool",
          "name": "",
          "type": "bool"
        }
      ],
      "stateMutability": "view",
      "type": "function"
    },
    {
      "inputs": [
        {
          "internalType": "bytes32",
          "name": "settingNameSpace",
          "type": "bytes32"
        },
        {
          "internalType": "string",
          "name": "_settingPath",
          "type": "string"
        }
      ],
      "name": "getSettingUint",
      "outputs": [
        {
          "internalType": "uint256",
          "name": "",
          "type": "uint256"
        }
      ],
      "stateMutability": "view",
      "type": "function"
    },
    {
      "inputs": [
        {
          "internalType": "bytes32",
          "name": "key",
          "type": "bytes32"
        }
      ],
      "name": "peek",
      "outputs": [
        {
          "internalType": "address",
          "name": "",
          "type": "address"
        }
      ],
      "stateMutability": "view",
      "type": "function"
    },
    {
      "inputs": [],
      "name": "version",
      "outputs": [
        {
          "internalType": "uint8",
          "name": "",
          "type": "uint8"
        }
      ],
      "stateMutability": "view",
      "type": "function"
    }
  ],
  "bytecode": "0x608060405234801561001057600080fd5b50604051610f0e380380610f0e83398101604081905261002f91610063565b6000805460ff196001600160a01b0390931661010002929092166001600160a81b0319909216919091176001179055610093565b60006020828403121561007557600080fd5b81516001600160a01b038116811461008c57600080fd5b9392505050565b610e6c806100a26000396000f3fe608060405234801561001057600080fd5b50600436106100cf5760003560e01c806368ee92c91161008c578063cff0b64811610066578063cff0b648146101c0578063f3358a3a146101d3578063f4d70e78146101e6578063fd82e9dd146101f957600080fd5b806368ee92c9146101875780637c906ef91461019a5780637f86d1eb146101ad57600080fd5b806306eaa68b146100d457806322cae9a214610104578063232de71614610119578063427fbf5a1461013c57806354fd4d50146101555780635e48ce0f14610174575b600080fd5b6100e76100e2366004610b18565b61020c565b6040516001600160a01b0390911681526020015b60405180910390f35b610117610112366004610b77565b610246565b005b61012c610127366004610b18565b61040b565b60405190151581526020016100fb565b610147600160ff1b81565b6040519081526020016100fb565b6000546101629060ff1681565b60405160ff90911681526020016100fb565b6100e7610182366004610ba7565b61043e565b610147610195366004610b77565b610529565b6101176101a8366004610b77565b610598565b6100e76101bb366004610ba7565b610715565b6100e76101ce366004610bc0565b610746565b6100e76101e1366004610bf5565b6107b0565b6101476101f4366004610b18565b610806565b610147610207366004610ba7565b61081e565b600061023f8383604051602001610224929190610c52565b60405160208183030381529060405280519060200120610872565b9392505050565b6000610279838360405160200161025e929190610c64565b604051602081830303815290604052805190602001206108e4565b905060008161028781610ca9565b9250116102db5760405162461bcd60e51b815260206004820152601e60248201527f4e6f6465494420646f6573206e6f7420657869737420696e207175657565000060448201526064015b60405180910390fd5b60006102f18460405160200161025e9190610cc0565b9050806000036103025750600160ff1b5b61030d600182610cd6565b90508082146103a257600061032e8583604051602001610224929190610ced565b90506103628584604051602001610346929190610ced565b6040516020818303038152906040528051906020012082610956565b6103a08582604051602001610378929190610c64565b6040516020818303038152906040528051906020012084600161039b9190610d09565b6109c7565b505b6103d584846040516020016103b8929190610c64565b6040516020818303038152906040528051906020012060006109c7565b610405846040516020016103e99190610cc0565b60405160208183030381529060405280519060200120826109c7565b50505050565b600061023f8383604051602001610423929190610c52565b60405160208183030381529060405280519060200120610a03565b60008061044a8361081e565b116104885760405162461bcd60e51b815260206004820152600e60248201526d517565756520697320656d70747960901b60448201526064016102d2565b600061049e8360405160200161025e9190610d21565b905060006104b88483604051602001610224929190610ced565b90506104c5826001610d09565b9150600160ff1b82106104e3576104e0600160ff1b83610cd6565b91505b6104f984826040516020016103b8929190610c64565b61023f8460405160200161050d9190610d21565b60405160208183030381529060405280519060200120836109c7565b6000806001610544858560405160200161025e929190610c64565b61054e9190610d39565b9050806000191461023f5761056d8460405160200161025e9190610d21565b6105779082610d39565b9050600081121561023f57610590600160ff1b82610d78565b949350505050565b6105a76001600160ff1b610cd6565b6105b08361081e565b106105f45760405162461bcd60e51b8152602060048201526014602482015273517565756520697320617420636170616369747960601b60448201526064016102d2565b61060a828260405160200161025e929190610c64565b156106505760405162461bcd60e51b81526020600482015260166024820152754e6f646549442065786973747320696e20717565756560501b60448201526064016102d2565b60006106668360405160200161025e9190610cc0565b905061069a838260405160200161067e929190610ced565b6040516020818303038152906040528051906020012083610956565b6106d383836040516020016106b0929190610c64565b6040516020818303038152906040528051906020012082600161039b9190610d09565b6106de816001610d09565b9050600160ff1b81106106fc576106f9600160ff1b82610cd6565b90505b610710836040516020016103e99190610cc0565b505050565b60008061072c8360405160200161025e9190610d21565b905060006105908483604051602001610224929190610ced565b60008061075d836040516020016102249190610db9565b90506001600160a01b0381166107aa5760405162461bcd60e51b815260206004820152601260248201527110dbdb9d1c9858dd081b9bdd08199bdd5b9960721b60448201526064016102d2565b92915050565b600080826107c88560405160200161025e9190610d21565b6107d29190610d09565b9050600160ff1b81106107f0576107ed600160ff1b82610cd6565b90505b6105908482604051602001610224929190610ced565b600061023f838360405160200161025e929190610c52565b6000806108358360405160200161025e9190610d21565b9050600061084d8460405160200161025e9190610cc0565b90508181101561086857610865600160ff1b82610d09565b90505b6105908282610cd6565b600080546040516321f8a72160e01b8152600481018490526101009091046001600160a01b0316906321f8a72190602401602060405180830381865afa1580156108c0573d6000803e3d6000fd5b505050506040513d601f19601f820116820180604052508101906107aa9190610dde565b6000805460405163bd02d0f560e01b8152600481018490526101009091046001600160a01b03169063bd02d0f590602401602060405180830381865afa158015610932573d6000803e3d6000fd5b505050506040513d601f19601f820116820180604052508101906107aa9190610dfb565b60005460405163ca446dd960e01b8152600481018490526001600160a01b0383811660248301526101009092049091169063ca446dd9906044015b600060405180830381600087803b1580156109ab57600080fd5b505af11580156109bf573d6000803e3d6000fd5b505050505050565b600054604051637152429d60e11b815260048101849052602481018390526101009091046001600160a01b03169063e2a4853a90604401610991565b60008054604051633d70e7e560e11b8152600481018490526101009091046001600160a01b031690637ae1cfca90602401602060405180830381865afa158015610a51573d6000803e3d6000fd5b505050506040513d601f19601f820116820180604052508101906107aa9190610e14565b634e487b7160e01b600052604160045260246000fd5b600082601f830112610a9c57600080fd5b813567ffffffffffffffff80821115610ab757610ab7610a75565b604051601f8301601f19908116603f01168101908282118183101715610adf57610adf610a75565b81604052838152866020858801011115610af857600080fd5b836020870160208301376000602085830101528094505050505092915050565b60008060408385031215610b2b57600080fd5b82359150602083013567ffffffffffffffff811115610b4957600080fd5b610b5585828601610a8b565b9150509250929050565b6001600160a01b0381168114610b7457600080fd5b50565b60008060408385031215610b8a57600080fd5b823591506020830135610b9c81610b5f565b809150509250929050565b600060208284031215610bb957600080fd5b5035919050565b600060208284031215610bd257600080fd5b813567ffffffffffffffff811115610be957600080fd5b61059084828501610a8b565b60008060408385031215610c0857600080fd5b50508035926020909101359150565b6000815160005b81811015610c385760208185018101518683015201610c1e565b81811115610c47576000828601525b509290920192915050565b82815260006105906020830184610c17565b9182526505cd2dcc8caf60d31b602083015260601b6bffffffffffffffffffffffff19166026820152603a0190565b634e487b7160e01b600052601160045260246000fd5b600081610cb857610cb8610c93565b506000190190565b908152630b995b9960e21b602082015260240190565b600082821015610ce857610ce8610c93565b500390565b918252642e6974656d60d81b6020830152602582015260450190565b60008219821115610d1c57610d1c610c93565b500190565b908152650b9cdd185c9d60d21b602082015260260190565b60008083128015600160ff1b850184121615610d5757610d57610c93565b6001600160ff1b0384018313811615610d7257610d72610c93565b50500390565b600080821280156001600160ff1b0384900385131615610d9a57610d9a610c93565b600160ff1b8390038412811615610db357610db3610c93565b50500190565b6f636f6e74726163742e6164647265737360801b8152600061023f6010830184610c17565b600060208284031215610df057600080fd5b815161023f81610b5f565b600060208284031215610e0d57600080fd5b5051919050565b600060208284031215610e2657600080fd5b8151801515811461023f57600080fdfea26469706673582212202c0f219bf7a0800872f6831cc6307aec2698eaa03cee3ca0324fd3fb2f0a150864736f6c634300080d0033",
  "linkReferences": {},
  "deployedLinkReferences": {}
}