{
  "_format": "hh-sol-artifact-1",
  "contractName": "BaseQueue",
  "sourceName": "contracts/contract/BaseQueue.sol",
  "abi": [
    {
      "inputs": [
        {
          "internalType": "contract IStorage",
          "name": "storageAddress",
          "type": "address"
        }
      ],
      "stateMutability": "nonpayable",
      "type": "constructor"
    },
    {
      "inputs": [],
      "name": "CAPACITY",
      "outputs": [
        {
          "internalType": "uint256",
          "name": "",
          "type": "uint256"
        }
      ],
      "stateMutability": "view",
      "type": "function"
    },
    {
      "inputs": [
        {
          "internalType": "bytes32",
          "name": "key",
          "type": "bytes32"
        },
        {
          "internalType": "address",
          "name": "nodeID",
          "type": "address"
        }
      ],
      "name": "cancel",
      "outputs": [],
      "stateMutability": "nonpayable",
      "type": "function"
    },
    {
      "inputs": [
        {
          "internalType": "bytes32",
          "name": "key",
          "type": "bytes32"
        }
      ],
      "name": "dequeue",
      "outputs": [
        {
          "internalType": "address",
          "name": "",
          "type": "address"
        }
      ],
      "stateMutability": "nonpayable",
      "type": "function"
    },
    {
      "inputs": [
        {
          "internalType": "bytes32",
          "name": "key",
          "type": "bytes32"
        },
        {
          "internalType": "address",
          "name": "nodeID",
          "type": "address"
        }
      ],
      "name": "enqueue",
      "outputs": [],
      "stateMutability": "nonpayable",
      "type": "function"
    },
    {
      "inputs": [
        {
          "internalType": "bytes32",
          "name": "key",
          "type": "bytes32"
        },
        {
          "internalType": "address",
          "name": "nodeID",
          "type": "address"
        }
      ],
      "name": "getIndexOf",
      "outputs": [
        {
          "internalType": "int256",
          "name": "",
          "type": "int256"
        }
      ],
      "stateMutability": "view",
      "type": "function"
    },
    {
      "inputs": [
        {
          "internalType": "bytes32",
          "name": "key",
          "type": "bytes32"
        },
        {
          "internalType": "uint256",
          "name": "_index",
          "type": "uint256"
        }
      ],
      "name": "getItem",
      "outputs": [
        {
          "internalType": "address",
          "name": "",
          "type": "address"
        }
      ],
      "stateMutability": "view",
      "type": "function"
    },
    {
      "inputs": [
        {
          "internalType": "bytes32",
          "name": "key",
          "type": "bytes32"
        }
      ],
      "name": "getLength",
      "outputs": [
        {
          "internalType": "uint256",
          "name": "",
          "type": "uint256"
        }
      ],
      "stateMutability": "view",
      "type": "function"
    },
    {
      "inputs": [
        {
          "internalType": "string",
          "name": "_contractName",
          "type": "string"
        }
      ],
      "name": "getPublicContractAddress",
      "outputs": [
        {
          "internalType": "address",
          "name": "",
          "type": "address"
        }
      ],
      "stateMutability": "view",
      "type": "function"
    },
    {
      "inputs": [
        {
          "internalType": "bytes32",
          "name": "settingNameSpace",
          "type": "bytes32"
        },
        {
          "internalType": "string",
          "name": "_settingPath",
          "type": "string"
        }
      ],
      "name": "getSettingAddress",
      "outputs": [
        {
          "internalType": "address",
          "name": "",
          "type": "address"
        }
      ],
      "stateMutability": "view",
      "type": "function"
    },
    {
      "inputs": [
        {
          "internalType": "bytes32",
          "name": "settingNameSpace",
          "type": "bytes32"
        },
        {
          "internalType": "string",
          "name": "_settingPath",
          "type": "string"
        }
      ],
      "name": "getSettingBool",
      "outputs": [
        {
          "internalType": "bool",
          "name": "",
          "type": "bool"
        }
      ],
      "stateMutability": "view",
      "type": "function"
    },
    {
      "inputs": [
        {
          "internalType": "bytes32",
          "name": "settingNameSpace",
          "type": "bytes32"
        },
        {
          "internalType": "string",
          "name": "_settingPath",
          "type": "string"
        }
      ],
      "name": "getSettingUint",
      "outputs": [
        {
          "internalType": "uint256",
          "name": "",
          "type": "uint256"
        }
      ],
      "stateMutability": "view",
      "type": "function"
    },
    {
      "inputs": [
        {
          "internalType": "bytes32",
          "name": "key",
          "type": "bytes32"
        }
      ],
      "name": "peek",
      "outputs": [
        {
          "internalType": "address",
          "name": "",
          "type": "address"
        }
      ],
      "stateMutability": "view",
      "type": "function"
    },
    {
      "inputs": [],
      "name": "version",
      "outputs": [
        {
          "internalType": "uint8",
          "name": "",
          "type": "uint8"
        }
      ],
      "stateMutability": "view",
      "type": "function"
    }
  ],
  "bytecode": "0x60806040523480156200001157600080fd5b5060405162001f3f38038062001f3f83398181016040528101906200003791906200011a565b8080600060016101000a81548173ffffffffffffffffffffffffffffffffffffffff021916908373ffffffffffffffffffffffffffffffffffffffff1602179055505060016000806101000a81548160ff021916908360ff160217905550506200014c565b600080fd5b600073ffffffffffffffffffffffffffffffffffffffff82169050919050565b6000620000ce82620000a1565b9050919050565b6000620000e282620000c1565b9050919050565b620000f481620000d5565b81146200010057600080fd5b50565b6000815190506200011481620000e9565b92915050565b6000602082840312156200013357620001326200009c565b5b6000620001438482850162000103565b91505092915050565b611de3806200015c6000396000f3fe608060405234801561001057600080fd5b50600436106100cf5760003560e01c806368ee92c91161008c578063cff0b64811610066578063cff0b64814610238578063f3358a3a14610268578063f4d70e7814610298578063fd82e9dd146102c8576100cf565b806368ee92c9146101bc5780637c906ef9146101ec5780637f86d1eb14610208576100cf565b806306eaa68b146100d457806322cae9a214610104578063232de71614610120578063427fbf5a1461015057806354fd4d501461016e5780635e48ce0f1461018c575b600080fd5b6100ee60048036038101906100e991906111be565b6102f8565b6040516100fb919061125b565b60405180910390f35b61011e600480360381019061011991906112a2565b610333565b005b61013a600480360381019061013591906111be565b61053c565b60405161014791906112fd565b60405180910390f35b610158610577565b6040516101659190611331565b60405180910390f35b61017661059b565b6040516101839190611368565b60405180910390f35b6101a660048036038101906101a19190611383565b6105ac565b6040516101b3919061125b565b60405180910390f35b6101d660048036038101906101d191906112a2565b610732565b6040516101e391906113c9565b60405180910390f35b610206600480360381019061020191906112a2565b61081a565b005b610222600480360381019061021d9190611383565b610a40565b60405161022f919061125b565b60405180910390f35b610252600480360381019061024d91906113e4565b610ab3565b60405161025f919061125b565b60405180910390f35b610282600480360381019061027d9190611459565b610b5f565b60405161028f919061125b565b60405180910390f35b6102b260048036038101906102ad91906111be565b610c2e565b6040516102bf9190611331565b60405180910390f35b6102e260048036038101906102dd9190611383565b610c69565b6040516102ef9190611331565b60405180910390f35b600061032b8383604051602001610310929190611534565b60405160208183030381529060405280519060200120610d1c565b905092915050565b6000610366838360405160200161034b9291906115f0565b60405160208183030381529060405280519060200120610dc0565b90506000818061037590611656565b9250116103b7576040517f08c379a00000000000000000000000000000000000000000000000000000000081526004016103ae906116dc565b60405180910390fd5b60006103e8846040516020016103cd9190611748565b60405160208183030381529060405280519060200120610dc0565b905060008103610416577f800000000000000000000000000000000000000000000000000000000000000090505b600181610423919061176e565b90508082146104d357600061045f858360405160200161044492919061180f565b60405160208183030381529060405280519060200120610d1c565b9050610493858460405160200161047792919061180f565b6040516020818303038152906040528051906020012082610e64565b6104d185826040516020016104a99291906115f0565b604051602081830303815290604052805190602001206001856104cc9190611846565b610ef7565b505b61050684846040516020016104e99291906115f0565b604051602081830303815290604052805190602001206000610ef7565b6105368460405160200161051a9190611748565b6040516020818303038152906040528051906020012082610ef7565b50505050565b600061056f8383604051602001610554929190611534565b60405160208183030381529060405280519060200120610f8a565b905092915050565b7f800000000000000000000000000000000000000000000000000000000000000081565b60008054906101000a900460ff1681565b6000806105b883610c69565b116105f8576040517f08c379a00000000000000000000000000000000000000000000000000000000081526004016105ef906118e8565b60405180910390fd5b60006106298360405160200161060e9190611954565b60405160208183030381529060405280519060200120610dc0565b9050600061065e848360405160200161064392919061180f565b60405160208183030381529060405280519060200120610d1c565b905060018261066d9190611846565b91507f800000000000000000000000000000000000000000000000000000000000000082106106c5577f8000000000000000000000000000000000000000000000000000000000000000826106c2919061176e565b91505b6106f884826040516020016106db9291906115f0565b604051602081830303815290604052805190602001206000610ef7565b6107288460405160200161070c9190611954565b6040516020818303038152906040528051906020012083610ef7565b8092505050919050565b6000806001610768858560405160200161074d9291906115f0565b60405160208183030381529060405280519060200120610dc0565b610772919061197a565b90507fffffffffffffffffffffffffffffffffffffffffffffffffffffffffffffffff8114610810576107ca846040516020016107af9190611954565b60405160208183030381529060405280519060200120610dc0565b816107d5919061197a565b9050600081121561080f577f80000000000000000000000000000000000000000000000000000000000000008161080c9190611a0e565b90505b5b8091505092915050565b60017f8000000000000000000000000000000000000000000000000000000000000000610847919061176e565b61085083610c69565b10610890576040517f08c379a000000000000000000000000000000000000000000000000000000000815260040161088790611aee565b60405180910390fd5b60006108c383836040516020016108a89291906115f0565b60405160208183030381529060405280519060200120610dc0565b14610903576040517f08c379a00000000000000000000000000000000000000000000000000000000081526004016108fa90611b5a565b60405180910390fd5b6000610934836040516020016109199190611748565b60405160208183030381529060405280519060200120610dc0565b9050610968838260405160200161094c92919061180f565b6040516020818303038152906040528051906020012083610e64565b6109a6838360405160200161097e9291906115f0565b604051602081830303815290604052805190602001206001836109a19190611846565b610ef7565b6001816109b39190611846565b90507f80000000000000000000000000000000000000000000000000000000000000008110610a0b577f800000000000000000000000000000000000000000000000000000000000000081610a08919061176e565b90505b610a3b83604051602001610a1f9190611748565b6040516020818303038152906040528051906020012082610ef7565b505050565b600080610a7283604051602001610a579190611954565b60405160208183030381529060405280519060200120610dc0565b90506000610aa78483604051602001610a8c92919061180f565b60405160208183030381529060405280519060200120610d1c565b90508092505050919050565b600080610ae583604051602001610aca9190611bc6565b60405160208183030381529060405280519060200120610d1c565b9050600073ffffffffffffffffffffffffffffffffffffffff168173ffffffffffffffffffffffffffffffffffffffff1603610b56576040517f08c379a0000000000000000000000000000000000000000000000000000000008152600401610b4d90611c34565b60405180910390fd5b80915050919050565b60008082610b9285604051602001610b779190611954565b60405160208183030381529060405280519060200120610dc0565b610b9c9190611846565b90507f80000000000000000000000000000000000000000000000000000000000000008110610bf4577f800000000000000000000000000000000000000000000000000000000000000081610bf1919061176e565b90505b610c258482604051602001610c0a92919061180f565b60405160208183030381529060405280519060200120610d1c565b91505092915050565b6000610c618383604051602001610c46929190611534565b60405160208183030381529060405280519060200120610dc0565b905092915050565b600080610c9b83604051602001610c809190611954565b60405160208183030381529060405280519060200120610dc0565b90506000610cce84604051602001610cb39190611748565b60405160208183030381529060405280519060200120610dc0565b905081811015610d07577f800000000000000000000000000000000000000000000000000000000000000081610d049190611846565b90505b8181610d13919061176e565b92505050919050565b60008060019054906101000a900473ffffffffffffffffffffffffffffffffffffffff1673ffffffffffffffffffffffffffffffffffffffff166321f8a721836040518263ffffffff1660e01b8152600401610d789190611c63565b602060405180830381865afa158015610d95573d6000803e3d6000fd5b505050506040513d601f19601f82011682018060405250810190610db99190611c93565b9050919050565b60008060019054906101000a900473ffffffffffffffffffffffffffffffffffffffff1673ffffffffffffffffffffffffffffffffffffffff1663bd02d0f5836040518263ffffffff1660e01b8152600401610e1c9190611c63565b602060405180830381865afa158015610e39573d6000803e3d6000fd5b505050506040513d601f19601f82011682018060405250810190610e5d9190611cd5565b9050919050565b600060019054906101000a900473ffffffffffffffffffffffffffffffffffffffff1673ffffffffffffffffffffffffffffffffffffffff1663ca446dd983836040518363ffffffff1660e01b8152600401610ec1929190611d02565b600060405180830381600087803b158015610edb57600080fd5b505af1158015610eef573d6000803e3d6000fd5b505050505050565b600060019054906101000a900473ffffffffffffffffffffffffffffffffffffffff1673ffffffffffffffffffffffffffffffffffffffff1663e2a4853a83836040518363ffffffff1660e01b8152600401610f54929190611d2b565b600060405180830381600087803b158015610f6e57600080fd5b505af1158015610f82573d6000803e3d6000fd5b505050505050565b60008060019054906101000a900473ffffffffffffffffffffffffffffffffffffffff1673ffffffffffffffffffffffffffffffffffffffff16637ae1cfca836040518263ffffffff1660e01b8152600401610fe69190611c63565b602060405180830381865afa158015611003573d6000803e3d6000fd5b505050506040513d601f19601f820116820180604052508101906110279190611d80565b9050919050565b6000604051905090565b600080fd5b600080fd5b6000819050919050565b61105581611042565b811461106057600080fd5b50565b6000813590506110728161104c565b92915050565b600080fd5b600080fd5b6000601f19601f8301169050919050565b7f4e487b7100000000000000000000000000000000000000000000000000000000600052604160045260246000fd5b6110cb82611082565b810181811067ffffffffffffffff821117156110ea576110e9611093565b5b80604052505050565b60006110fd61102e565b905061110982826110c2565b919050565b600067ffffffffffffffff82111561112957611128611093565b5b61113282611082565b9050602081019050919050565b82818337600083830152505050565b600061116161115c8461110e565b6110f3565b90508281526020810184848401111561117d5761117c61107d565b5b61118884828561113f565b509392505050565b600082601f8301126111a5576111a4611078565b5b81356111b584826020860161114e565b91505092915050565b600080604083850312156111d5576111d4611038565b5b60006111e385828601611063565b925050602083013567ffffffffffffffff8111156112045761120361103d565b5b61121085828601611190565b9150509250929050565b600073ffffffffffffffffffffffffffffffffffffffff82169050919050565b60006112458261121a565b9050919050565b6112558161123a565b82525050565b6000602082019050611270600083018461124c565b92915050565b61127f8161123a565b811461128a57600080fd5b50565b60008135905061129c81611276565b92915050565b600080604083850312156112b9576112b8611038565b5b60006112c785828601611063565b92505060206112d88582860161128d565b9150509250929050565b60008115159050919050565b6112f7816112e2565b82525050565b600060208201905061131260008301846112ee565b92915050565b6000819050919050565b61132b81611318565b82525050565b60006020820190506113466000830184611322565b92915050565b600060ff82169050919050565b6113628161134c565b82525050565b600060208201905061137d6000830184611359565b92915050565b60006020828403121561139957611398611038565b5b60006113a784828501611063565b91505092915050565b6000819050919050565b6113c3816113b0565b82525050565b60006020820190506113de60008301846113ba565b92915050565b6000602082840312156113fa576113f9611038565b5b600082013567ffffffffffffffff8111156114185761141761103d565b5b61142484828501611190565b91505092915050565b61143681611318565b811461144157600080fd5b50565b6000813590506114538161142d565b92915050565b600080604083850312156114705761146f611038565b5b600061147e85828601611063565b925050602061148f85828601611444565b9150509250929050565b6000819050919050565b6114b46114af82611042565b611499565b82525050565b600081519050919050565b600081905092915050565b60005b838110156114ee5780820151818401526020810190506114d3565b838111156114fd576000848401525b50505050565b600061150e826114ba565b61151881856114c5565b93506115288185602086016114d0565b80840191505092915050565b600061154082856114a3565b6020820191506115508284611503565b91508190509392505050565b7f2e696e6465780000000000000000000000000000000000000000000000000000600082015250565b60006115926006836114c5565b915061159d8261155c565b600682019050919050565b60008160601b9050919050565b60006115c0826115a8565b9050919050565b60006115d2826115b5565b9050919050565b6115ea6115e58261123a565b6115c7565b82525050565b60006115fc82856114a3565b60208201915061160b82611585565b915061161782846115d9565b6014820191508190509392505050565b7f4e487b7100000000000000000000000000000000000000000000000000000000600052601160045260246000fd5b600061166182611318565b91506000820361167457611673611627565b5b600182039050919050565b600082825260208201905092915050565b7f4e6f6465494420646f6573206e6f7420657869737420696e2071756575650000600082015250565b60006116c6601e8361167f565b91506116d182611690565b602082019050919050565b600060208201905081810360008301526116f5816116b9565b9050919050565b7f2e656e6400000000000000000000000000000000000000000000000000000000600082015250565b60006117326004836114c5565b915061173d826116fc565b600482019050919050565b600061175482846114a3565b60208201915061176382611725565b915081905092915050565b600061177982611318565b915061178483611318565b92508282101561179757611796611627565b5b828203905092915050565b7f2e6974656d000000000000000000000000000000000000000000000000000000600082015250565b60006117d86005836114c5565b91506117e3826117a2565b600582019050919050565b6000819050919050565b61180961180482611318565b6117ee565b82525050565b600061181b82856114a3565b60208201915061182a826117cb565b915061183682846117f8565b6020820191508190509392505050565b600061185182611318565b915061185c83611318565b9250827fffffffffffffffffffffffffffffffffffffffffffffffffffffffffffffffff0382111561189157611890611627565b5b828201905092915050565b7f517565756520697320656d707479000000000000000000000000000000000000600082015250565b60006118d2600e8361167f565b91506118dd8261189c565b602082019050919050565b60006020820190508181036000830152611901816118c5565b9050919050565b7f2e73746172740000000000000000000000000000000000000000000000000000600082015250565b600061193e6006836114c5565b915061194982611908565b600682019050919050565b600061196082846114a3565b60208201915061196f82611931565b915081905092915050565b6000611985826113b0565b9150611990836113b0565b9250827f8000000000000000000000000000000000000000000000000000000000000000018212600084121516156119cb576119ca611627565b5b827f7fffffffffffffffffffffffffffffffffffffffffffffffffffffffffffffff018213600084121615611a0357611a02611627565b5b828203905092915050565b6000611a19826113b0565b9150611a24836113b0565b9250817f7fffffffffffffffffffffffffffffffffffffffffffffffffffffffffffffff03831360008312151615611a5f57611a5e611627565b5b817f8000000000000000000000000000000000000000000000000000000000000000038312600083121615611a9757611a96611627565b5b828201905092915050565b7f5175657565206973206174206361706163697479000000000000000000000000600082015250565b6000611ad860148361167f565b9150611ae382611aa2565b602082019050919050565b60006020820190508181036000830152611b0781611acb565b9050919050565b7f4e6f646549442065786973747320696e20717565756500000000000000000000600082015250565b6000611b4460168361167f565b9150611b4f82611b0e565b602082019050919050565b60006020820190508181036000830152611b7381611b37565b9050919050565b7f636f6e74726163742e6164647265737300000000000000000000000000000000600082015250565b6000611bb06010836114c5565b9150611bbb82611b7a565b601082019050919050565b6000611bd182611ba3565b9150611bdd8284611503565b915081905092915050565b7f436f6e7472616374206e6f7420666f756e640000000000000000000000000000600082015250565b6000611c1e60128361167f565b9150611c2982611be8565b602082019050919050565b60006020820190508181036000830152611c4d81611c11565b9050919050565b611c5d81611042565b82525050565b6000602082019050611c786000830184611c54565b92915050565b600081519050611c8d81611276565b92915050565b600060208284031215611ca957611ca8611038565b5b6000611cb784828501611c7e565b91505092915050565b600081519050611ccf8161142d565b92915050565b600060208284031215611ceb57611cea611038565b5b6000611cf984828501611cc0565b91505092915050565b6000604082019050611d176000830185611c54565b611d24602083018461124c565b9392505050565b6000604082019050611d406000830185611c54565b611d4d6020830184611322565b9392505050565b611d5d816112e2565b8114611d6857600080fd5b50565b600081519050611d7a81611d54565b92915050565b600060208284031215611d9657611d95611038565b5b6000611da484828501611d6b565b9150509291505056fea26469706673582212204056f0aa1af7aa880e9430122f3630aa79beb149eee745ecb234a39f95c3335364736f6c634300080d0033",
  "linkReferences": {},
  "deployedLinkReferences": {}
}