{
  "_format": "hh-sol-artifact-1",
  "contractName": "OneInchMock",
  "sourceName": "contracts/contract/OneInchMock.sol",
  "abi": [
    {
      "inputs": [],
      "stateMutability": "nonpayable",
      "type": "constructor"
    },
    {
      "inputs": [
        {
          "internalType": "contract IERC20",
          "name": "srcToken",
          "type": "address"
        },
        {
          "internalType": "bool",
          "name": "useSrcWrappers",
          "type": "bool"
        }
      ],
      "name": "getRateToEth",
      "outputs": [
        {
          "internalType": "uint256",
          "name": "weightedRate",
          "type": "uint256"
        }
      ],
      "stateMutability": "view",
      "type": "function"
    },
    {
      "inputs": [],
      "name": "mockedRate",
      "outputs": [
        {
          "internalType": "uint256",
          "name": "",
          "type": "uint256"
        }
      ],
      "stateMutability": "view",
      "type": "function"
    },
    {
      "inputs": [
        {
          "internalType": "uint256",
          "name": "rate",
          "type": "uint256"
        }
      ],
      "name": "setMockedRate",
      "outputs": [],
      "stateMutability": "nonpayable",
      "type": "function"
    }
  ],
  "bytecode": "0x6080604052670de0b6b3a764000060005534801561001c57600080fd5b5061027c8061002c6000396000f3fe608060405234801561001057600080fd5b50600436106100415760003560e01c80633edc4940146100465780637de4fd1014610062578063afaa4a5914610092575b600080fd5b610060600480360381019061005b9190610107565b6100b0565b005b61007c600480360381019061007791906101dc565b6100ba565b604051610089919061022b565b60405180910390f35b61009a6100c6565b6040516100a7919061022b565b60405180910390f35b8060008190555050565b60008054905092915050565b60005481565b600080fd5b6000819050919050565b6100e4816100d1565b81146100ef57600080fd5b50565b600081359050610101816100db565b92915050565b60006020828403121561011d5761011c6100cc565b5b600061012b848285016100f2565b91505092915050565b600073ffffffffffffffffffffffffffffffffffffffff82169050919050565b600061015f82610134565b9050919050565b600061017182610154565b9050919050565b61018181610166565b811461018c57600080fd5b50565b60008135905061019e81610178565b92915050565b60008115159050919050565b6101b9816101a4565b81146101c457600080fd5b50565b6000813590506101d6816101b0565b92915050565b600080604083850312156101f3576101f26100cc565b5b60006102018582860161018f565b9250506020610212858286016101c7565b9150509250929050565b610225816100d1565b82525050565b6000602082019050610240600083018461021c565b9291505056fea264697066735822122035768a8f4ddd9be7016d6ffe6034ce8f96cac2dd2a1d5f961f538c70a22f932b64736f6c634300080d0033",
  "linkReferences": {},
  "deployedLinkReferences": {}
}