{
  "_format": "hh-sol-artifact-1",
  "contractName": "OneInchMock",
  "sourceName": "contracts/contract/OneInchMock.sol",
  "abi": [
    {
      "inputs": [
        {
          "internalType": "contract IERC20",
          "name": "srcToken",
          "type": "address"
        },
        {
          "internalType": "bool",
          "name": "useSrcWrappers",
          "type": "bool"
        }
      ],
      "name": "getRateToEth",
      "outputs": [
        {
          "internalType": "uint256",
          "name": "weightedRate",
          "type": "uint256"
        }
      ],
      "stateMutability": "view",
      "type": "function"
    },
    {
      "inputs": [],
      "name": "mockedRate",
      "outputs": [
        {
          "internalType": "uint256",
          "name": "",
          "type": "uint256"
        }
      ],
      "stateMutability": "view",
      "type": "function"
    },
    {
      "inputs": [
        {
          "internalType": "uint256",
          "name": "rate",
          "type": "uint256"
        }
      ],
      "name": "setMockedRate",
      "outputs": [],
      "stateMutability": "nonpayable",
      "type": "function"
    }
  ],
  "bytecode": "0x6080604052670de0b6b3a764000060005534801561001c57600080fd5b506101158061002c6000396000f3fe6080604052348015600f57600080fd5b5060043610603c5760003560e01c80633edc49401460415780637de4fd10146053578063afaa4a59146078575b600080fd5b6051604c3660046080565b600055565b005b6066605e3660046098565b505060005490565b60405190815260200160405180910390f35b606660005481565b600060208284031215609157600080fd5b5035919050565b6000806040838503121560aa57600080fd5b82356001600160a01b038116811460c057600080fd5b91506020830135801515811460d457600080fd5b80915050925092905056fea26469706673582212203c55597921d721ab3968a068a6734a6011e342070c660c85dad6493a53cf3aeb64736f6c634300080d0033",
  "linkReferences": {},
  "deployedLinkReferences": {}
}