{
  "_format": "hh-sol-artifact-1",
  "contractName": "AddressSetStorage",
  "sourceName": "contracts/contract/util/AddressSetStorage.sol",
  "abi": [
    {
      "inputs": [
        {
          "internalType": "contract Storage",
          "name": "storageAddress",
          "type": "address"
        }
      ],
      "stateMutability": "nonpayable",
      "type": "constructor"
    },
    {
      "inputs": [
        {
          "internalType": "bytes32",
          "name": "_key",
          "type": "bytes32"
        },
        {
          "internalType": "address",
          "name": "_value",
          "type": "address"
        }
      ],
      "name": "addItem",
      "outputs": [],
      "stateMutability": "nonpayable",
      "type": "function"
    },
    {
      "inputs": [
        {
          "internalType": "bytes32",
          "name": "_key",
          "type": "bytes32"
        }
      ],
      "name": "getCount",
      "outputs": [
        {
          "internalType": "uint256",
          "name": "",
          "type": "uint256"
        }
      ],
      "stateMutability": "view",
      "type": "function"
    },
    {
      "inputs": [
        {
          "internalType": "bytes32",
          "name": "_key",
          "type": "bytes32"
        },
        {
          "internalType": "address",
          "name": "_value",
          "type": "address"
        }
      ],
      "name": "getIndexOf",
      "outputs": [
        {
          "internalType": "int256",
          "name": "",
          "type": "int256"
        }
      ],
      "stateMutability": "view",
      "type": "function"
    },
    {
      "inputs": [
        {
          "internalType": "bytes32",
          "name": "_key",
          "type": "bytes32"
        },
        {
          "internalType": "uint256",
          "name": "_index",
          "type": "uint256"
        }
      ],
      "name": "getItem",
      "outputs": [
        {
          "internalType": "address",
          "name": "",
          "type": "address"
        }
      ],
      "stateMutability": "view",
      "type": "function"
    },
    {
      "inputs": [
        {
          "internalType": "string",
          "name": "_contractName",
          "type": "string"
        }
      ],
      "name": "getPublicContractAddress",
      "outputs": [
        {
          "internalType": "address",
          "name": "",
          "type": "address"
        }
      ],
      "stateMutability": "view",
      "type": "function"
    },
    {
      "inputs": [
        {
          "internalType": "bytes32",
          "name": "settingNameSpace",
          "type": "bytes32"
        },
        {
          "internalType": "string",
          "name": "_settingPath",
          "type": "string"
        }
      ],
      "name": "getSettingAddress",
      "outputs": [
        {
          "internalType": "address",
          "name": "",
          "type": "address"
        }
      ],
      "stateMutability": "view",
      "type": "function"
    },
    {
      "inputs": [
        {
          "internalType": "bytes32",
          "name": "settingNameSpace",
          "type": "bytes32"
        },
        {
          "internalType": "string",
          "name": "_settingPath",
          "type": "string"
        }
      ],
      "name": "getSettingBool",
      "outputs": [
        {
          "internalType": "bool",
          "name": "",
          "type": "bool"
        }
      ],
      "stateMutability": "view",
      "type": "function"
    },
    {
      "inputs": [
        {
          "internalType": "bytes32",
          "name": "settingNameSpace",
          "type": "bytes32"
        },
        {
          "internalType": "string",
          "name": "_settingPath",
          "type": "string"
        }
      ],
      "name": "getSettingUint",
      "outputs": [
        {
          "internalType": "uint256",
          "name": "",
          "type": "uint256"
        }
      ],
      "stateMutability": "view",
      "type": "function"
    },
    {
      "inputs": [
        {
          "internalType": "bytes32",
          "name": "_key",
          "type": "bytes32"
        },
        {
          "internalType": "address",
          "name": "_value",
          "type": "address"
        }
      ],
      "name": "removeItem",
      "outputs": [],
      "stateMutability": "nonpayable",
      "type": "function"
    },
    {
      "inputs": [],
      "name": "version",
      "outputs": [
        {
          "internalType": "uint8",
          "name": "",
          "type": "uint8"
        }
      ],
      "stateMutability": "view",
      "type": "function"
    }
  ],
  "bytecode": "0x608060405234801561001057600080fd5b50604051610bfc380380610bfc83398101604081905261002f91610063565b6000805460ff196001600160a01b0390931661010002929092166001600160a81b0319909216919091176001179055610093565b60006020828403121561007557600080fd5b81516001600160a01b038116811461008c57600080fd5b9392505050565b610b5a806100a26000396000f3fe608060405234801561001057600080fd5b506004361061009e5760003560e01c8063c9d6fee911610066578063c9d6fee91461014b578063cff0b6481461015e578063f3358a3a14610171578063f4d70e7814610184578063f79b36ad1461019757600080fd5b806306eaa68b146100a3578063232de716146100d357806354fd4d50146100f657806368ee92c9146101155780638892716614610136575b600080fd5b6100b66100b1366004610855565b6101aa565b6040516001600160a01b0390911681526020015b60405180910390f35b6100e66100e1366004610855565b6101e4565b60405190151581526020016100ca565b6000546101039060ff1681565b60405160ff90911681526020016100ca565b6101286101233660046108b4565b610217565b6040519081526020016100ca565b6101496101443660046108b4565b610256565b005b6101286101593660046108e4565b61035f565b6100b661016c3660046108fd565b61037b565b6100b661017f36600461093a565b6103df565b610128610192366004610855565b6103f7565b6101496101a53660046108b4565b61040f565b60006101dd83836040516020016101c2929190610997565b604051602081830303815290604052805190602001206105af565b9392505050565b60006101dd83836040516020016101fc929190610997565b60405160208183030381529060405280519060200120610621565b6000600161024c84846040516020016102319291906109a9565b60405160208183030381529060405280519060200120610693565b6101dd91906109ee565b61026c82826040516020016102319291906109a9565b156102be5760405162461bcd60e51b815260206004820152601a60248201527f4974656d20616c72656164792065786973747320696e2073657400000000000060448201526064015b60405180910390fd5b60006102d4836040516020016102319190610a2d565b905061030883826040516020016102ec929190610a45565b6040516020818303038152906040528051906020012083610705565b610346838360405160200161031e9291906109a9565b604051602081830303815290604052805190602001208260016103419190610a61565b610776565b61035a8360405160200161031e9190610a2d565b505050565b6000610375826040516020016102319190610a2d565b92915050565b600080610392836040516020016101c29190610a79565b90506001600160a01b0381166103755760405162461bcd60e51b815260206004820152601260248201527110dbdb9d1c9858dd081b9bdd08199bdd5b9960721b60448201526064016102b5565b60006101dd83836040516020016101c2929190610a45565b60006101dd8383604051602001610231929190610997565b600061042783836040516020016102319291906109a9565b905060008161043581610a9e565b9250116104845760405162461bcd60e51b815260206004820152601a60248201527f4974656d20646f6573206e6f7420657869737420696e2073657400000000000060448201526064016102b5565b600061049a846040516020016102319190610a2d565b90506104a7600182610ab5565b82101561053f5760006104d0856104bf600185610ab5565b6040516020016101c2929190610a45565b905061050485846040516020016104e8929190610a45565b6040516020818303038152906040528051906020012082610705565b61053d858260405160200161051a9291906109a9565b604051602081830303815290604052805190602001208460016103419190610a61565b505b61057284846040516020016105559291906109a9565b604051602081830303815290604052805190602001206000610776565b6105a9846040516020016105869190610a2d565b604051602081830303815290604052805190602001206001836103419190610ab5565b50505050565b600080546040516321f8a72160e01b8152600481018490526101009091046001600160a01b0316906321f8a72190602401602060405180830381865afa1580156105fd573d6000803e3d6000fd5b505050506040513d601f19601f820116820180604052508101906103759190610acc565b60008054604051633d70e7e560e11b8152600481018490526101009091046001600160a01b031690637ae1cfca90602401602060405180830381865afa15801561066f573d6000803e3d6000fd5b505050506040513d601f19601f820116820180604052508101906103759190610ae9565b6000805460405163bd02d0f560e01b8152600481018490526101009091046001600160a01b03169063bd02d0f590602401602060405180830381865afa1580156106e1573d6000803e3d6000fd5b505050506040513d601f19601f820116820180604052508101906103759190610b0b565b60005460405163ca446dd960e01b8152600481018490526001600160a01b0383811660248301526101009092049091169063ca446dd9906044015b600060405180830381600087803b15801561075a57600080fd5b505af115801561076e573d6000803e3d6000fd5b505050505050565b600054604051637152429d60e11b815260048101849052602481018390526101009091046001600160a01b03169063e2a4853a90604401610740565b634e487b7160e01b600052604160045260246000fd5b600082601f8301126107d957600080fd5b813567ffffffffffffffff808211156107f4576107f46107b2565b604051601f8301601f19908116603f0116810190828211818310171561081c5761081c6107b2565b8160405283815286602085880101111561083557600080fd5b836020870160208301376000602085830101528094505050505092915050565b6000806040838503121561086857600080fd5b82359150602083013567ffffffffffffffff81111561088657600080fd5b610892858286016107c8565b9150509250929050565b6001600160a01b03811681146108b157600080fd5b50565b600080604083850312156108c757600080fd5b8235915060208301356108d98161089c565b809150509250929050565b6000602082840312156108f657600080fd5b5035919050565b60006020828403121561090f57600080fd5b813567ffffffffffffffff81111561092657600080fd5b610932848285016107c8565b949350505050565b6000806040838503121561094d57600080fd5b50508035926020909101359150565b6000815160005b8181101561097d5760208185018101518683015201610963565b8181111561098c576000828601525b509290920192915050565b8281526000610932602083018461095c565b9182526505cd2dcc8caf60d31b602083015260601b6bffffffffffffffffffffffff19166026820152603a0190565b634e487b7160e01b600052601160045260246000fd5b60008083128015600160ff1b850184121615610a0c57610a0c6109d8565b6001600160ff1b0384018313811615610a2757610a276109d8565b50500390565b908152650b98dbdd5b9d60d21b602082015260260190565b918252642e6974656d60d81b6020830152602582015260450190565b60008219821115610a7457610a746109d8565b500190565b6f636f6e74726163742e6164647265737360801b815260006101dd601083018461095c565b600081610aad57610aad6109d8565b506000190190565b600082821015610ac757610ac76109d8565b500390565b600060208284031215610ade57600080fd5b81516101dd8161089c565b600060208284031215610afb57600080fd5b815180151581146101dd57600080fd5b600060208284031215610b1d57600080fd5b505191905056fea2646970667358221220358389dcc9bf458dfc5d5e56602f36baee197f3492effd15ffe756c81e7b6fbc64736f6c634300080d0033",
  "linkReferences": {},
  "deployedLinkReferences": {}
}