{
  "_format": "hh-sol-artifact-1",
  "contractName": "NOPClaim",
  "sourceName": "contracts/contract/rewards/claims/NOPClaim.sol",
  "abi": [
    {
      "inputs": [
        {
          "internalType": "contract Storage",
          "name": "storageAddress",
          "type": "address"
        }
      ],
      "stateMutability": "nonpayable",
      "type": "constructor"
    },
    {
      "inputs": [],
      "name": "claim",
      "outputs": [],
      "stateMutability": "nonpayable",
      "type": "function"
    },
    {
      "inputs": [
        {
          "internalType": "address",
          "name": "_nodeAddress",
          "type": "address"
        }
      ],
      "name": "getClaimPossible",
      "outputs": [
        {
          "internalType": "bool",
          "name": "",
          "type": "bool"
        }
      ],
      "stateMutability": "view",
      "type": "function"
    },
    {
      "inputs": [
        {
          "internalType": "address",
          "name": "_nodeAddress",
          "type": "address"
        }
      ],
      "name": "getClaimRewardsAmount",
      "outputs": [
        {
          "internalType": "uint256",
          "name": "",
          "type": "uint256"
        }
      ],
      "stateMutability": "view",
      "type": "function"
    },
    {
      "inputs": [
        {
          "internalType": "address",
          "name": "_nodeAddress",
          "type": "address"
        }
      ],
      "name": "getClaimRewardsPerc",
      "outputs": [
        {
          "internalType": "uint256",
          "name": "",
          "type": "uint256"
        }
      ],
      "stateMutability": "view",
      "type": "function"
    },
    {
      "inputs": [],
      "name": "getEnabled",
      "outputs": [
        {
          "internalType": "bool",
          "name": "",
          "type": "bool"
        }
      ],
      "stateMutability": "view",
      "type": "function"
    },
    {
      "inputs": [
        {
          "internalType": "string",
          "name": "_contractName",
          "type": "string"
        }
      ],
      "name": "getPublicContractAddress",
      "outputs": [
        {
          "internalType": "address",
          "name": "",
          "type": "address"
        }
      ],
      "stateMutability": "view",
      "type": "function"
    },
    {
      "inputs": [
        {
          "internalType": "bytes32",
          "name": "settingNameSpace",
          "type": "bytes32"
        },
        {
          "internalType": "string",
          "name": "_settingPath",
          "type": "string"
        }
      ],
      "name": "getSettingAddress",
      "outputs": [
        {
          "internalType": "address",
          "name": "",
          "type": "address"
        }
      ],
      "stateMutability": "view",
      "type": "function"
    },
    {
      "inputs": [
        {
          "internalType": "bytes32",
          "name": "settingNameSpace",
          "type": "bytes32"
        },
        {
          "internalType": "string",
          "name": "_settingPath",
          "type": "string"
        }
      ],
      "name": "getSettingBool",
      "outputs": [
        {
          "internalType": "bool",
          "name": "",
          "type": "bool"
        }
      ],
      "stateMutability": "view",
      "type": "function"
    },
    {
      "inputs": [
        {
          "internalType": "bytes32",
          "name": "settingNameSpace",
          "type": "bytes32"
        },
        {
          "internalType": "string",
          "name": "_settingPath",
          "type": "string"
        }
      ],
      "name": "getSettingUint",
      "outputs": [
        {
          "internalType": "uint256",
          "name": "",
          "type": "uint256"
        }
      ],
      "stateMutability": "view",
      "type": "function"
    },
    {
      "inputs": [
        {
          "internalType": "address",
          "name": "_nodeAddress",
          "type": "address"
        },
        {
          "internalType": "bool",
          "name": "_enable",
          "type": "bool"
        }
      ],
      "name": "register",
      "outputs": [],
      "stateMutability": "nonpayable",
      "type": "function"
    },
    {
      "inputs": [],
      "name": "version",
      "outputs": [
        {
          "internalType": "uint8",
          "name": "",
          "type": "uint8"
        }
      ],
      "stateMutability": "view",
      "type": "function"
    }
  ],
  "bytecode": "0x608060405234801561001057600080fd5b50604051610d14380380610d1483398101604081905261002f91610063565b6000805460ff196001600160a01b0390931661010002929092166001600160a81b0319909216919091176001179055610093565b60006020828403121561007557600080fd5b81516001600160a01b038116811461008c57600080fd5b9392505050565b610c72806100a26000396000f3fe608060405234801561001057600080fd5b50600436106100a95760003560e01c80634e71d92d116100715780634e71d92d14610138578063533cb4b01461014257806354fd4d5014610155578063ab01b46914610174578063cff0b64814610187578063f4d70e781461019a57600080fd5b806306eaa68b146100ae57806318de0afd146100de578063232de716146100f15780632420bf6614610104578063305456ad14610117575b600080fd5b6100c16100bc3660046109ad565b6101ad565b6040516001600160a01b0390911681526020015b60405180910390f35b60015b60405190151581526020016100d5565b6100e16100ff3660046109ad565b6101e7565b6100e1610112366004610a0c565b61021a565b61012a610125366004610a0c565b6103cb565b6040519081526020016100d5565b610140610473565b005b61012a610150366004610a0c565b61052d565b6000546101629060ff1681565b60405160ff90911681526020016100d5565b610140610182366004610a37565b610679565b6100c1610195366004610a70565b610713565b61012a6101a83660046109ad565b610781565b60006101e083836040516020016101c5929190610ae0565b604051602081830303815290604052805190602001206107b4565b9392505050565b60006101e083836040516020016101ff929190610ae0565b60405160208183030381529060405280519060200120610826565b6000806102496040518060400160405280600b81526020016a14995dd85c991cd41bdbdb60aa1b815250610713565b90506000610275604051806040016040528060078152602001665374616b696e6760c81b815250610713565b604051630e5091fd60e21b81529091506001600160a01b0383169063394247f4906102a4908790600401610af2565b602060405180830381865afa1580156102c1573d6000803e3d6000fd5b505050506040513d601f19601f820116820180604052508101906102e59190610b34565b80156103c3575060405163063885e160e01b81526001600160a01b03858116600483015282169063063885e190602401602060405180830381865afa158015610332573d6000803e3d6000fd5b505050506040513d601f19601f820116820180604052508101906103569190610b51565b604051636ae0785160e01b81526001600160a01b038681166004830152831690636ae0785190602401602060405180830381865afa15801561039c573d6000803e3d6000fd5b505050506040513d601f19601f820116820180604052508101906103c09190610b51565b10155b949350505050565b6000806103fa6040518060400160405280600b81526020016a14995dd85c991cd41bdbdb60aa1b815250610713565b9050806001600160a01b03166367e84784846104158661052d565b6040518363ffffffff1660e01b8152600401610432929190610b6a565b602060405180830381865afa15801561044f573d6000803e3d6000fd5b505050506040513d601f19601f820116820180604052508101906101e09190610b51565b600033905060006104a66040518060400160405280600b81526020016a14995dd85c991cd41bdbdb60aa1b815250610713565b9050806001600160a01b031663996cba6833846104c23361052d565b6040516001600160e01b031960e086901b1681526001600160a01b0393841660048201529290911660248301526044820152606401600060405180830381600087803b15801561051157600080fd5b505af1158015610525573d6000803e3d6000fd5b505050505050565b60006105388261021a565b61054457506000919050565b60006105766040518060400160405280600f81526020016e26b4b734b837b7b626b0b730b3b2b960891b815250610713565b90506000816001600160a01b031663f7dadb056040518163ffffffff1660e01b8152600401602060405180830381865afa1580156105b8573d6000803e3d6000fd5b505050506040513d601f19601f820116820180604052508101906105dc9190610b51565b9050806000036105f0575060009392505050565b60405163b68f82e760e01b81526001600160a01b03858116600483015282919084169063b68f82e790602401602060405180830381865afa158015610639573d6000803e3d6000fd5b505050506040513d601f19601f8201168201806040525081019061065d9190610b51565b61066f90670de0b6b3a7640000610bab565b6103c39190610bd8565b60006106a76040518060400160405280600b81526020016a14995dd85c991cd41bdbdb60aa1b815250610713565b604051634b0e3d2560e01b81526001600160a01b038581166004830152841515602483015291925090821690634b0e3d2590604401600060405180830381600087803b1580156106f657600080fd5b505af115801561070a573d6000803e3d6000fd5b50505050505050565b60008061072a836040516020016101c59190610bfa565b90506001600160a01b03811661077b5760405162461bcd60e51b815260206004820152601260248201527110dbdb9d1c9858dd081b9bdd08199bdd5b9960721b604482015260640160405180910390fd5b92915050565b60006101e08383604051602001610799929190610ae0565b60405160208183030381529060405280519060200120610898565b600080546040516321f8a72160e01b8152600481018490526101009091046001600160a01b0316906321f8a72190602401602060405180830381865afa158015610802573d6000803e3d6000fd5b505050506040513d601f19601f8201168201806040525081019061077b9190610c1f565b60008054604051633d70e7e560e11b8152600481018490526101009091046001600160a01b031690637ae1cfca90602401602060405180830381865afa158015610874573d6000803e3d6000fd5b505050506040513d601f19601f8201168201806040525081019061077b9190610b34565b6000805460405163bd02d0f560e01b8152600481018490526101009091046001600160a01b03169063bd02d0f590602401602060405180830381865afa1580156108e6573d6000803e3d6000fd5b505050506040513d601f19601f8201168201806040525081019061077b9190610b51565b634e487b7160e01b600052604160045260246000fd5b600082601f83011261093157600080fd5b813567ffffffffffffffff8082111561094c5761094c61090a565b604051601f8301601f19908116603f011681019082821181831017156109745761097461090a565b8160405283815286602085880101111561098d57600080fd5b836020870160208301376000602085830101528094505050505092915050565b600080604083850312156109c057600080fd5b82359150602083013567ffffffffffffffff8111156109de57600080fd5b6109ea85828601610920565b9150509250929050565b6001600160a01b0381168114610a0957600080fd5b50565b600060208284031215610a1e57600080fd5b81356101e0816109f4565b8015158114610a0957600080fd5b60008060408385031215610a4a57600080fd5b8235610a55816109f4565b91506020830135610a6581610a29565b809150509250929050565b600060208284031215610a8257600080fd5b813567ffffffffffffffff811115610a9957600080fd5b6103c384828501610920565b6000815160005b81811015610ac65760208185018101518683015201610aac565b81811115610ad5576000828601525b509290920192915050565b82815260006103c36020830184610aa5565b604081526000610b1a6040830160088152674e4f50436c61696d60c01b602082015260400190565b6001600160a01b0393909316602092909201919091525090565b600060208284031215610b4657600080fd5b81516101e081610a29565b600060208284031215610b6357600080fd5b5051919050565b606081526000610b926060830160088152674e4f50436c61696d60c01b602082015260400190565b6001600160a01b03949094166020830152506040015290565b6000816000190483118215151615610bd357634e487b7160e01b600052601160045260246000fd5b500290565b600082610bf557634e487b7160e01b600052601260045260246000fd5b500490565b6f636f6e74726163742e6164647265737360801b815260006101e06010830184610aa5565b600060208284031215610c3157600080fd5b81516101e0816109f456fea2646970667358221220aee5bf1685c9a0fd1f74c9cc41a63fbc47f9ee5f251c0ee2d019f404ac2ab26e64736f6c634300080d0033",
  "linkReferences": {},
  "deployedLinkReferences": {}
}