{
  "_format": "hh-sol-artifact-1",
  "contractName": "MinipoolManager",
  "sourceName": "contracts/contract/MinipoolManager.sol",
  "abi": [
    {
      "inputs": [
        {
          "internalType": "contract Storage",
          "name": "storageAddress",
          "type": "address"
        },
        {
          "internalType": "contract ERC20",
          "name": "ggp_",
          "type": "address"
        },
        {
          "internalType": "contract TokenggAVAX",
          "name": "ggAVAX_",
          "type": "address"
        }
      ],
      "stateMutability": "nonpayable",
      "type": "constructor"
    },
    {
      "inputs": [],
      "name": "ErrorIssuingValidationTx",
      "type": "error"
    },
    {
      "inputs": [],
      "name": "ErrorSendingAvax",
      "type": "error"
    },
    {
      "inputs": [],
      "name": "InsufficientAvaxForStaking",
      "type": "error"
    },
    {
      "inputs": [],
      "name": "InsufficientAvaxVaultBalance",
      "type": "error"
    },
    {
      "inputs": [],
      "name": "InvalidAmount",
      "type": "error"
    },
    {
      "inputs": [],
      "name": "InvalidEndTime",
      "type": "error"
    },
    {
      "inputs": [],
      "name": "InvalidMultisigAddress",
      "type": "error"
    },
    {
      "inputs": [],
      "name": "InvalidMultisigSignature",
      "type": "error"
    },
    {
      "inputs": [],
      "name": "InvalidStateTransition",
      "type": "error"
    },
    {
      "inputs": [],
      "name": "MinipoolAlreadyRegistered",
      "type": "error"
    },
    {
      "inputs": [],
      "name": "MinipoolMustBeInitialised",
      "type": "error"
    },
    {
      "inputs": [],
      "name": "MinipoolNotFound",
      "type": "error"
    },
    {
      "inputs": [],
      "name": "OnlyOwnerCanCancel",
      "type": "error"
    },
    {
      "inputs": [],
      "name": "OnlyOwnerCanWithdraw",
      "type": "error"
    },
    {
      "anonymous": false,
      "inputs": [
        {
          "indexed": true,
          "internalType": "address",
          "name": "nodeID",
          "type": "address"
        },
        {
          "indexed": true,
          "internalType": "enum MinipoolStatus",
          "name": "status",
          "type": "uint8"
        }
      ],
      "name": "MinipoolStatusChanged",
      "type": "event"
    },
    {
      "anonymous": false,
      "inputs": [
        {
          "indexed": true,
          "internalType": "address",
          "name": "nodeID",
          "type": "address"
        }
      ],
      "name": "ZeroRewardsReceived",
      "type": "event"
    },
    {
      "inputs": [],
      "name": "MINIPOOL_QUEUE_KEY",
      "outputs": [
        {
          "internalType": "bytes32",
          "name": "",
          "type": "bytes32"
        }
      ],
      "stateMutability": "view",
      "type": "function"
    },
    {
      "inputs": [],
      "name": "MIN_STAKING_AMT",
      "outputs": [
        {
          "internalType": "uint256",
          "name": "",
          "type": "uint256"
        }
      ],
      "stateMutability": "view",
      "type": "function"
    },
    {
      "inputs": [
        {
          "internalType": "uint256",
          "name": "avaxRewardAmt",
          "type": "uint256"
        }
      ],
      "name": "calculateSlashAmt",
      "outputs": [
        {
          "internalType": "uint256",
          "name": "",
          "type": "uint256"
        }
      ],
      "stateMutability": "view",
      "type": "function"
    },
    {
      "inputs": [
        {
          "internalType": "address",
          "name": "nodeID",
          "type": "address"
        }
      ],
      "name": "canClaimAndInitiateStaking",
      "outputs": [
        {
          "internalType": "bool",
          "name": "",
          "type": "bool"
        }
      ],
      "stateMutability": "view",
      "type": "function"
    },
    {
      "inputs": [
        {
          "internalType": "address",
          "name": "nodeID",
          "type": "address"
        }
      ],
      "name": "cancelMinipool",
      "outputs": [],
      "stateMutability": "nonpayable",
      "type": "function"
    },
    {
      "inputs": [
        {
          "internalType": "address",
          "name": "nodeID",
          "type": "address"
        }
      ],
      "name": "claimAndInitiateStaking",
      "outputs": [],
      "stateMutability": "nonpayable",
      "type": "function"
    },
    {
      "inputs": [
        {
          "internalType": "address",
          "name": "nodeID",
          "type": "address"
        },
        {
          "internalType": "uint256",
          "name": "duration",
          "type": "uint256"
        },
        {
          "internalType": "uint256",
          "name": "delegationFee",
          "type": "uint256"
        },
        {
          "internalType": "uint256",
          "name": "ggpBondAmt",
          "type": "uint256"
        }
      ],
      "name": "createMinipool",
      "outputs": [],
      "stateMutability": "payable",
      "type": "function"
    },
    {
      "inputs": [
        {
          "internalType": "uint256",
          "name": "duration",
          "type": "uint256"
        },
        {
          "internalType": "uint256",
          "name": "avaxAmt",
          "type": "uint256"
        }
      ],
      "name": "expectedRewardAmt",
      "outputs": [
        {
          "internalType": "uint256",
          "name": "",
          "type": "uint256"
        }
      ],
      "stateMutability": "view",
      "type": "function"
    },
    {
      "inputs": [
        {
          "internalType": "address",
          "name": "nodeID",
          "type": "address"
        }
      ],
      "name": "getIndexOf",
      "outputs": [
        {
          "internalType": "int256",
          "name": "",
          "type": "int256"
        }
      ],
      "stateMutability": "view",
      "type": "function"
    },
    {
      "inputs": [
        {
          "internalType": "int256",
          "name": "index",
          "type": "int256"
        }
      ],
      "name": "getMinipool",
      "outputs": [
        {
          "components": [
            {
              "internalType": "address",
              "name": "nodeID",
              "type": "address"
            },
            {
              "internalType": "uint256",
              "name": "status",
              "type": "uint256"
            },
            {
              "internalType": "uint256",
              "name": "duration",
              "type": "uint256"
            },
            {
              "internalType": "uint256",
              "name": "startTime",
              "type": "uint256"
            },
            {
              "internalType": "uint256",
              "name": "endTime",
              "type": "uint256"
            },
            {
              "internalType": "uint256",
              "name": "delegationFee",
              "type": "uint256"
            },
            {
              "internalType": "uint256",
              "name": "ggpBondAmt",
              "type": "uint256"
            },
            {
              "internalType": "uint256",
              "name": "ggpSlashAmt",
              "type": "uint256"
            },
            {
              "internalType": "uint256",
              "name": "avaxNodeOpAmt",
              "type": "uint256"
            },
            {
              "internalType": "uint256",
              "name": "avaxUserAmt",
              "type": "uint256"
            },
            {
              "internalType": "uint256",
              "name": "avaxTotalRewardAmt",
              "type": "uint256"
            },
            {
              "internalType": "uint256",
              "name": "avaxNodeOpRewardAmt",
              "type": "uint256"
            },
            {
              "internalType": "uint256",
              "name": "avaxUserRewardAmt",
              "type": "uint256"
            },
            {
              "internalType": "address",
              "name": "owner",
              "type": "address"
            },
            {
              "internalType": "address",
              "name": "multisigAddr",
              "type": "address"
            }
          ],
          "internalType": "struct MinipoolManager.Minipool",
          "name": "mp",
          "type": "tuple"
        }
      ],
      "stateMutability": "view",
      "type": "function"
    },
    {
      "inputs": [],
      "name": "getMinipoolCount",
      "outputs": [
        {
          "internalType": "uint256",
          "name": "",
          "type": "uint256"
        }
      ],
      "stateMutability": "view",
      "type": "function"
    },
    {
      "inputs": [
        {
          "internalType": "uint256",
          "name": "offset",
          "type": "uint256"
        },
        {
          "internalType": "uint256",
          "name": "limit",
          "type": "uint256"
        }
      ],
      "name": "getMinipoolCountPerStatus",
      "outputs": [
        {
          "internalType": "uint256",
          "name": "prelaunchCount",
          "type": "uint256"
        },
        {
          "internalType": "uint256",
          "name": "launchedCount",
          "type": "uint256"
        },
        {
          "internalType": "uint256",
          "name": "stakingCount",
          "type": "uint256"
        },
        {
          "internalType": "uint256",
          "name": "withdrawableCount",
          "type": "uint256"
        },
        {
          "internalType": "uint256",
          "name": "finishedCount",
          "type": "uint256"
        },
        {
          "internalType": "uint256",
          "name": "canceledCount",
          "type": "uint256"
        }
      ],
      "stateMutability": "view",
      "type": "function"
    },
    {
      "inputs": [
        {
          "internalType": "enum MinipoolStatus",
          "name": "status",
          "type": "uint8"
        },
        {
          "internalType": "uint256",
          "name": "offset",
          "type": "uint256"
        },
        {
          "internalType": "uint256",
          "name": "limit",
          "type": "uint256"
        }
      ],
      "name": "getMinipools",
      "outputs": [
        {
          "components": [
            {
              "internalType": "address",
              "name": "nodeID",
              "type": "address"
            },
            {
              "internalType": "uint256",
              "name": "status",
              "type": "uint256"
            },
            {
              "internalType": "uint256",
              "name": "duration",
              "type": "uint256"
            },
            {
              "internalType": "uint256",
              "name": "startTime",
              "type": "uint256"
            },
            {
              "internalType": "uint256",
              "name": "endTime",
              "type": "uint256"
            },
            {
              "internalType": "uint256",
              "name": "delegationFee",
              "type": "uint256"
            },
            {
              "internalType": "uint256",
              "name": "ggpBondAmt",
              "type": "uint256"
            },
            {
              "internalType": "uint256",
              "name": "ggpSlashAmt",
              "type": "uint256"
            },
            {
              "internalType": "uint256",
              "name": "avaxNodeOpAmt",
              "type": "uint256"
            },
            {
              "internalType": "uint256",
              "name": "avaxUserAmt",
              "type": "uint256"
            },
            {
              "internalType": "uint256",
              "name": "avaxTotalRewardAmt",
              "type": "uint256"
            },
            {
              "internalType": "uint256",
              "name": "avaxNodeOpRewardAmt",
              "type": "uint256"
            },
            {
              "internalType": "uint256",
              "name": "avaxUserRewardAmt",
              "type": "uint256"
            },
            {
              "internalType": "address",
              "name": "owner",
              "type": "address"
            },
            {
              "internalType": "address",
              "name": "multisigAddr",
              "type": "address"
            }
          ],
          "internalType": "struct MinipoolManager.Minipool[]",
          "name": "minipools",
          "type": "tuple[]"
        }
      ],
      "stateMutability": "view",
      "type": "function"
    },
    {
      "inputs": [
        {
          "internalType": "string",
          "name": "_contractName",
          "type": "string"
        }
      ],
      "name": "getPublicContractAddress",
      "outputs": [
        {
          "internalType": "address",
          "name": "",
          "type": "address"
        }
      ],
      "stateMutability": "view",
      "type": "function"
    },
    {
      "inputs": [
        {
          "internalType": "bytes32",
          "name": "settingNameSpace",
          "type": "bytes32"
        },
        {
          "internalType": "string",
          "name": "_settingPath",
          "type": "string"
        }
      ],
      "name": "getSettingAddress",
      "outputs": [
        {
          "internalType": "address",
          "name": "",
          "type": "address"
        }
      ],
      "stateMutability": "view",
      "type": "function"
    },
    {
      "inputs": [
        {
          "internalType": "bytes32",
          "name": "settingNameSpace",
          "type": "bytes32"
        },
        {
          "internalType": "string",
          "name": "_settingPath",
          "type": "string"
        }
      ],
      "name": "getSettingBool",
      "outputs": [
        {
          "internalType": "bool",
          "name": "",
          "type": "bool"
        }
      ],
      "stateMutability": "view",
      "type": "function"
    },
    {
      "inputs": [
        {
          "internalType": "bytes32",
          "name": "settingNameSpace",
          "type": "bytes32"
        },
        {
          "internalType": "string",
          "name": "_settingPath",
          "type": "string"
        }
      ],
      "name": "getSettingUint",
      "outputs": [
        {
          "internalType": "uint256",
          "name": "",
          "type": "uint256"
        }
      ],
      "stateMutability": "view",
      "type": "function"
    },
    {
      "inputs": [],
      "name": "ggAVAX",
      "outputs": [
        {
          "internalType": "contract TokenggAVAX",
          "name": "",
          "type": "address"
        }
      ],
      "stateMutability": "view",
      "type": "function"
    },
    {
      "inputs": [],
      "name": "ggp",
      "outputs": [
        {
          "internalType": "contract ERC20",
          "name": "",
          "type": "address"
        }
      ],
      "stateMutability": "view",
      "type": "function"
    },
    {
      "inputs": [],
      "name": "receiveWithdrawalAVAX",
      "outputs": [],
      "stateMutability": "payable",
      "type": "function"
    },
    {
      "inputs": [
        {
          "internalType": "address",
          "name": "nodeID",
          "type": "address"
        },
        {
          "internalType": "uint256",
          "name": "endTime",
          "type": "uint256"
        },
        {
          "internalType": "uint256",
          "name": "avaxTotalRewardAmt",
          "type": "uint256"
        }
      ],
      "name": "recordStakingEnd",
      "outputs": [],
      "stateMutability": "payable",
      "type": "function"
    },
    {
      "inputs": [
        {
          "internalType": "address",
          "name": "nodeID",
          "type": "address"
        },
        {
          "internalType": "uint256",
          "name": "endTime",
          "type": "uint256"
        },
        {
          "internalType": "string",
          "name": "message",
          "type": "string"
        }
      ],
      "name": "recordStakingError",
      "outputs": [],
      "stateMutability": "nonpayable",
      "type": "function"
    },
    {
      "inputs": [
        {
          "internalType": "address",
          "name": "nodeID",
          "type": "address"
        },
        {
          "internalType": "uint256",
          "name": "startTime",
          "type": "uint256"
        }
      ],
      "name": "recordStakingStart",
      "outputs": [],
      "stateMutability": "nonpayable",
      "type": "function"
    },
    {
      "inputs": [
        {
          "internalType": "address",
          "name": "nodeID",
          "type": "address"
        },
        {
          "internalType": "enum MinipoolStatus",
          "name": "status",
          "type": "uint8"
        }
      ],
      "name": "updateMinipoolStatus",
      "outputs": [],
      "stateMutability": "nonpayable",
      "type": "function"
    },
    {
      "inputs": [],
      "name": "version",
      "outputs": [
        {
          "internalType": "uint8",
          "name": "",
          "type": "uint8"
        }
      ],
      "stateMutability": "view",
      "type": "function"
    },
    {
      "inputs": [
        {
          "internalType": "address",
          "name": "nodeID",
          "type": "address"
        }
      ],
      "name": "withdrawMinipoolFunds",
      "outputs": [],
      "stateMutability": "nonpayable",
      "type": "function"
    }
  ],
  "bytecode": "0x610100604052686c6b935b8bbd40000060c0908152507fe675a52310cd568651491803fe5dccf5a3cb1afd2c9bec7092ea6592e5d5778c60e0908152503480156200004957600080fd5b50604051620059433803806200594383398181016040528101906200006f91906200025a565b8280600060016101000a81548173ffffffffffffffffffffffffffffffffffffffff021916908373ffffffffffffffffffffffffffffffffffffffff1602179055505060016000806101000a81548160ff021916908360ff1602179055508173ffffffffffffffffffffffffffffffffffffffff1660808173ffffffffffffffffffffffffffffffffffffffff16815250508073ffffffffffffffffffffffffffffffffffffffff1660a08173ffffffffffffffffffffffffffffffffffffffff1681525050505050620002b6565b600080fd5b600073ffffffffffffffffffffffffffffffffffffffff82169050919050565b6000620001708262000143565b9050919050565b6000620001848262000163565b9050919050565b620001968162000177565b8114620001a257600080fd5b50565b600081519050620001b6816200018b565b92915050565b6000620001c98262000163565b9050919050565b620001db81620001bc565b8114620001e757600080fd5b50565b600081519050620001fb81620001d0565b92915050565b60006200020e8262000143565b9050919050565b6000620002228262000201565b9050919050565b620002348162000215565b81146200024057600080fd5b50565b600081519050620002548162000229565b92915050565b6000806000606084860312156200027657620002756200013e565b5b60006200028686828701620001a5565b93505060206200029986828701620001ea565b9250506040620002ac8682870162000243565b9150509250925092565b60805160a05160c05160e0516155f16200035260003960006108070152600081816116f10152818161171a015281816118880152818161277a0152818161289801526128c101526000818161178101528181611c6201528181611d730152818161219b01526128ef015260008181610a5501528181610ca401528181610d8301528181610e7c0152818161299e015261348d01526155f16000f3fe6080604052600436106101815760003560e01c80639cbed340116100d1578063e49e49bf1161008a578063f321df4911610064578063f321df49146105b5578063f4812b88146105e0578063f4d70e781461061d578063ffe092411461065a57610181565b8063e49e49bf14610524578063e92aa0ce1461054f578063ea3092d11461057857610181565b80639cbed340146103ee578063abd149dc14610417578063ae4d0bed14610442578063cff0b6481461046d578063d8ce16f4146104aa578063de5a61e3146104e757610181565b8063356ff5a51161013e57806375c987151161011857806375c9871514610343578063809784c51461036c5780638e481d6014610395578063934857bb146103b157610181565b8063356ff5a5146102ba5780633b5ecefa146102d657806354fd4d501461031857610181565b8063017df5221461018657806306eaa68b146101c357806319ef22b214610200578063232de7161461022957806328b105fd146102665780632f1fbf9b14610291575b600080fd5b34801561019257600080fd5b506101ad60048036038101906101a891906137d3565b610664565b6040516101ba9190613819565b60405180910390f35b3480156101cf57600080fd5b506101ea60048036038101906101e591906139b0565b6106a8565b6040516101f79190613a1b565b60405180910390f35b34801561020c57600080fd5b5061022760048036038101906102229190613a6c565b6106e3565b005b34801561023557600080fd5b50610250600480360381019061024b91906139b0565b6107ca565b60405161025d9190613ac7565b60405180910390f35b34801561027257600080fd5b5061027b610805565b6040516102889190613af1565b60405180910390f35b34801561029d57600080fd5b506102b860048036038101906102b391906137d3565b610829565b005b6102d460048036038101906102cf9190613b0c565b610c57565b005b3480156102e257600080fd5b506102fd60048036038101906102f89190613b73565b61148a565b60405161030f96959493929190613bc2565b60405180910390f35b34801561032457600080fd5b5061032d61164a565b60405161033a9190613c3f565b60405180910390f35b34801561034f57600080fd5b5061036a60048036038101906103659190613cba565b61165b565b005b34801561037857600080fd5b50610393600480360381019061038e91906137d3565b611661565b005b6103af60048036038101906103aa9190613d2e565b6119ab565b005b3480156103bd57600080fd5b506103d860048036038101906103d39190613da6565b611f4c565b6040516103e59190613ffc565b60405180910390f35b3480156103fa57600080fd5b50610415600480360381019061041091906137d3565b61208c565b005b34801561042357600080fd5b5061042c612199565b604051610439919061407d565b60405180910390f35b34801561044e57600080fd5b506104576121bd565b6040516104649190614098565b60405180910390f35b34801561047957600080fd5b50610494600480360381019061048f91906140b3565b6121ed565b6040516104a19190613a1b565b60405180910390f35b3480156104b657600080fd5b506104d160048036038101906104cc9190614128565b612299565b6040516104de919061428a565b60405180910390f35b3480156104f357600080fd5b5061050e60048036038101906105099190613b73565b61267f565b60405161051b9190614098565b60405180910390f35b34801561053057600080fd5b50610539612778565b6040516105469190614098565b60405180910390f35b34801561055b57600080fd5b50610576600480360381019061057191906142a6565b61279c565b005b34801561058457600080fd5b5061059f600480360381019061059a91906137d3565b612849565b6040516105ac9190613ac7565b60405180910390f35b3480156105c157600080fd5b506105ca61299c565b6040516105d79190614319565b60405180910390f35b3480156105ec57600080fd5b5061060760048036038101906106029190614334565b6129c0565b6040516106149190614098565b60405180910390f35b34801561062957600080fd5b50610644600480360381019061063f91906139b0565b612a9e565b6040516106519190614098565b60405180910390f35b610662612ad9565b005b600060016106978360405160200161067c9190614400565b60405160208183030381529060405280519060200120612adb565b6106a19190614455565b9050919050565b60006106db83836040516020016106c0929190614579565b60405160208183030381529060405280519060200120612b7f565b905092915050565b60006106ee83612c23565b90506106fb816002612d2c565b61073e8160405160200161070f919061465a565b60405160208183030381529060405280519060200120600260068111156107395761073861468b565b5b613013565b61076e816040516020016107529190614706565b6040516020818303038152906040528051906020012083613013565b600260068111156107825761078161468b565b5b8373ffffffffffffffffffffffffffffffffffffffff167fc9c043637725967252aedd2704cc65fee962e7b8a1e3cf8098587a66601e50c560405160405180910390a3505050565b60006107fd83836040516020016107e2929190614579565b604051602081830303815290604052805190602001206130a6565b905092915050565b7f000000000000000000000000000000000000000000000000000000000000000081565b600061083482610664565b90507fffffffffffffffffffffffffffffffffffffffffffffffffffffffffffffffff810361088f576040517fd2fc63e300000000000000000000000000000000000000000000000000000000815260040160405180910390fd5b60006108c0826040516020016108a59190614783565b60405160208183030381529060405280519060200120612b7f565b90508073ffffffffffffffffffffffffffffffffffffffff163373ffffffffffffffffffffffffffffffffffffffff1614610927576040517f47418db100000000000000000000000000000000000000000000000000000000815260040160405180910390fd5b610932826004612d2c565b61097582604051602001610946919061465a565b60405160208183030381529060405280519060200120600460068111156109705761096f61468b565b5b613013565b60006109b56040518060400160405280600581526020017f5661756c7400000000000000000000000000000000000000000000000000000081525061314a565b905060006109e8846040516020016109cd9190614800565b60405160208183030381529060405280519060200120612adb565b90506000610a1b85604051602001610a00919061487d565b60405160208183030381529060405280519060200120612adb565b905060008183610a2b91906148ae565b90506000811115610ac6578373ffffffffffffffffffffffffffffffffffffffff166301e33667867f0000000000000000000000000000000000000000000000000000000000000000846040518463ffffffff1660e01b8152600401610a93939291906148e2565b600060405180830381600087803b158015610aad57600080fd5b505af1158015610ac1573d6000803e3d6000fd5b505050505b6000610af787604051602001610adc9190614965565b60405160208183030381529060405280519060200120612adb565b90506000610b2a88604051602001610b0f91906149e2565b60405160208183030381529060405280519060200120612adb565b905060008183610b3a9190614a13565b90508673ffffffffffffffffffffffffffffffffffffffff16630eb8d896826040518263ffffffff1660e01b8152600401610b759190614098565b600060405180830381600087803b158015610b8f57600080fd5b505af1158015610ba3573d6000803e3d6000fd5b5050505060008873ffffffffffffffffffffffffffffffffffffffff1682604051610bcd90614a9a565b60006040518083038185875af1925050503d8060008114610c0a576040519150601f19603f3d011682016040523d82523d6000602084013e610c0f565b606091505b5050905080610c4a576040517f9d60fd7500000000000000000000000000000000000000000000000000000000815260040160405180910390fd5b5050505050505050505050565b6000610c976040518060400160405280600581526020017f5661756c7400000000000000000000000000000000000000000000000000000081525061314a565b90506000821115610eec577f000000000000000000000000000000000000000000000000000000000000000073ffffffffffffffffffffffffffffffffffffffff166323b872dd3330856040518463ffffffff1660e01b8152600401610cff93929190614aaf565b6020604051808303816000875af1158015610d1e573d6000803e3d6000fd5b505050506040513d601f19601f82011682018060405250810190610d429190614b12565b610d81576040517f08c379a0000000000000000000000000000000000000000000000000000000008152600401610d7890614bc2565b60405180910390fd5b7f000000000000000000000000000000000000000000000000000000000000000073ffffffffffffffffffffffffffffffffffffffff1663095ea7b382846040518363ffffffff1660e01b8152600401610ddc929190614be2565b6020604051808303816000875af1158015610dfb573d6000803e3d6000fd5b505050506040513d601f19601f82011682018060405250810190610e1f9190614b12565b610e5e576040517f08c379a0000000000000000000000000000000000000000000000000000000008152600401610e5590614c7d565b60405180910390fd5b8073ffffffffffffffffffffffffffffffffffffffff1663f44429587f0000000000000000000000000000000000000000000000000000000000000000846040518363ffffffff1660e01b8152600401610eb9929190614ce9565b600060405180830381600087803b158015610ed357600080fd5b505af1158015610ee7573d6000803e3d6000fd5b505050505b8073ffffffffffffffffffffffffffffffffffffffff166324056867346040518263ffffffff1660e01b81526004016000604051808303818588803b158015610f3457600080fd5b505af1158015610f48573d6000803e3d6000fd5b50505050506000610f5886610664565b90507fffffffffffffffffffffffffffffffffffffffffffffffffffffffffffffffff81146110e857610f8c816000612d2c565b610fbd81604051602001610fa09190614706565b604051602081830303815290604052805190602001206000613013565b610fee81604051602001610fd19190614d71565b604051602081830303815290604052805190602001206000613013565b61101f816040516020016110029190614dee565b604051602081830303815290604052805190602001206000613013565b611050816040516020016110339190614e6b565b604051602081830303815290604052805190602001206000613013565b6110818160405160200161106491906149e2565b604051602081830303815290604052805190602001206000613013565b6110b2816040516020016110959190614ee8565b604051602081830303815290604052805190602001206000613013565b6110e3816040516020016110c6919061487d565b604051602081830303815290604052805190602001206000613013565b611114565b6111117fe0350abf7e528889b5822fca885fa12de74628619c3752923dd9ec3ce44e4602612adb565b90505b60006111546040518060400160405280600f81526020017f4d756c74697369674d616e61676572000000000000000000000000000000000081525061314a565b905060008173ffffffffffffffffffffffffffffffffffffffff1663867533e66040518163ffffffff1660e01b8152600401602060405180830381865afa1580156111a3573d6000803e3d6000fd5b505050506040513d601f19601f820116820180604052508101906111c79190614f2e565b9050600073ffffffffffffffffffffffffffffffffffffffff168173ffffffffffffffffffffffffffffffffffffffff160361122f576040517fc2bd570700000000000000000000000000000000000000000000000000000000815260040160405180910390fd5b61125f836040516020016112439190614fa7565b60405160208183030381529060405280519060200120896131f6565b6112a283604051602001611273919061465a565b604051602081830303815290604052805190602001206000600681111561129d5761129c61468b565b5b613013565b6112d2836040516020016112b69190615024565b6040516020818303038152906040528051906020012088613013565b611302836040516020016112e691906150a1565b60405160208183030381529060405280519060200120826131f6565b611332836040516020016113169190614783565b60405160208183030381529060405280519060200120336131f6565b611362836040516020016113469190614965565b6040516020818303038152906040528051906020012034613013565b61139283604051602001611376919061511e565b6040516020818303038152906040528051906020012087613013565b6113c2836040516020016113a69190614800565b6040516020818303038152906040528051906020012086613013565b6113fe886040516020016113d69190614400565b604051602081830303815290604052805190602001206001856113f9919061514f565b613013565b6114297fe0350abf7e528889b5822fca885fa12de74628619c3752923dd9ec3ce44e46026001613289565b6000600681111561143d5761143c61468b565b5b8873ffffffffffffffffffffffffffffffffffffffff167fc9c043637725967252aedd2704cc65fee962e7b8a1e3cf8098587a66601e50c560405160405180910390a35050505050505050565b60008060008060008060006114be7fe0350abf7e528889b5822fca885fa12de74628619c3752923dd9ec3ce44e4602612adb565b90506000888a6114ce9190614a13565b9050818111806114de5750600089145b156114e7578190505b60008a90505b8181101561163d57600061150082612299565b9050600060068111156115165761151561468b565b5b81602001510361153357898061152b906151e3565b9a5050611629565b600160068111156115475761154661468b565b5b81602001510361156457888061155c906151e3565b995050611628565b600260068111156115785761157761468b565b5b81602001510361159557878061158d906151e3565b985050611627565b600360068111156115a9576115a861468b565b5b8160200151036115c65786806115be906151e3565b975050611626565b600460068111156115da576115d961468b565b5b8160200151036115f75785806115ef906151e3565b965050611625565b6005600681111561160b5761160a61468b565b5b816020015103611624578480611620906151e3565b9550505b5b5b5b5b5b508080611635906151e3565b9150506114ed565b5050509295509295509295565b60008054906101000a900460ff1681565b50505050565b600061166c82612c23565b9050611679816001612d2c565b60006116b96040518060400160405280600581526020017f5661756c7400000000000000000000000000000000000000000000000000000081525061314a565b90506000806116ed846040516020016116d29190614965565b60405160208183030381529060405280519060200120612adb565b90507f000000000000000000000000000000000000000000000000000000000000000081101561174657807f000000000000000000000000000000000000000000000000000000000000000061174391906148ae565b91505b600082111561180b5761177f846040516020016117639190614dee565b6040516020818303038152906040528051906020012083613013565b7f000000000000000000000000000000000000000000000000000000000000000073ffffffffffffffffffffffffffffffffffffffff1663efe441d9836040518263ffffffff1660e01b81526004016117d89190614098565b600060405180830381600087803b1580156117f257600080fd5b505af1158015611806573d6000803e3d6000fd5b505050505b8273ffffffffffffffffffffffffffffffffffffffff16630eb8d896826040518263ffffffff1660e01b81526004016118449190614098565b600060405180830381600087803b15801561185e57600080fd5b505af1158015611872573d6000803e3d6000fd5b50505050600082826118849190614a13565b90507f00000000000000000000000000000000000000000000000000000000000000008110156118e0576040517f1d2edfdc00000000000000000000000000000000000000000000000000000000815260040160405180910390fd5b611923856040516020016118f4919061465a565b604051602081830303815290604052805190602001206001600681111561191e5761191d61468b565b5b613013565b600160068111156119375761193661468b565b5b8673ffffffffffffffffffffffffffffffffffffffff167fc9c043637725967252aedd2704cc65fee962e7b8a1e3cf8098587a66601e50c560405160405180910390a36119a3813373ffffffffffffffffffffffffffffffffffffffff1661331c90919063ffffffff16565b505050505050565b60006119eb6040518060400160405280600581526020017f5661756c7400000000000000000000000000000000000000000000000000000081525061314a565b905060006119f885612c23565b9050611a05816003612d2c565b6000611a3682604051602001611a1b9190614706565b60405160208183030381529060405280519060200120612adb565b90508085111580611a4657504285115b15611a7d576040517f38af65f700000000000000000000000000000000000000000000000000000000815260040160405180910390fd5b6000611aae83604051602001611a939190614965565b60405160208183030381529060405280519060200120612adb565b90506000611ae184604051602001611ac69190614dee565b60405160208183030381529060405280519060200120612adb565b905060008183611af19190614a13565b90508681611aff9190614a13565b3414611b37576040517f2c5211c600000000000000000000000000000000000000000000000000000000815260040160405180910390fd5b611b7a85604051602001611b4b919061465a565b6040516020818303038152906040528051906020012060036006811115611b7557611b7461468b565b5b613013565b611baa85604051602001611b8e9190614d71565b6040516020818303038152906040528051906020012089613013565b611bda85604051602001611bbe9190614e6b565b6040516020818303038152906040528051906020012088613013565b60008703611d58576000611c1386604051602001611bf89190615024565b60405160208183030381529060405280519060200120612adb565b90506000611c21828561267f565b90506000611c2e826129c0565b9050611c6088604051602001611c44919061487d565b6040516020818303038152906040528051906020012082613013565b7f000000000000000000000000000000000000000000000000000000000000000073ffffffffffffffffffffffffffffffffffffffff1663383dcbc4868760006040518463ffffffff1660e01b8152600401611cbd929190615266565b6000604051808303818588803b158015611cd657600080fd5b505af1158015611cea573d6000803e3d6000fd5b50505050508873ffffffffffffffffffffffffffffffffffffffff166324056867876040518263ffffffff1660e01b81526004016000604051808303818588803b158015611d3757600080fd5b505af1158015611d4b573d6000803e3d6000fd5b5050505050505050611eea565b600080831115611e0b57600288611d6f91906152be565b90507f000000000000000000000000000000000000000000000000000000000000000073ffffffffffffffffffffffffffffffffffffffff1663383dcbc48285611db99190614a13565b85846040518463ffffffff1660e01b8152600401611dd89291906152ef565b6000604051808303818588803b158015611df157600080fd5b505af1158015611e05573d6000803e3d6000fd5b50505050505b60008189611e1991906148ae565b9050611e4b87604051602001611e2f91906149e2565b6040516020818303038152906040528051906020012082613013565b611e7b87604051602001611e5f9190614ee8565b6040516020818303038152906040528051906020012083613013565b8773ffffffffffffffffffffffffffffffffffffffff1663240568678287611ea39190614a13565b6040518263ffffffff1660e01b81526004016000604051808303818588803b158015611ece57600080fd5b505af1158015611ee2573d6000803e3d6000fd5b505050505050505b60036006811115611efe57611efd61468b565b5b8973ffffffffffffffffffffffffffffffffffffffff167fc9c043637725967252aedd2704cc65fee962e7b8a1e3cf8098587a66601e50c560405160405180910390a3505050505050505050565b60606000611f797fe0350abf7e528889b5822fca885fa12de74628619c3752923dd9ec3ce44e4602612adb565b905060008385611f899190614a13565b905081811180611f995750600084145b15611fa2578190505b8481611fae91906148ae565b67ffffffffffffffff811115611fc757611fc6613885565b5b60405190808252806020026020018201604052801561200057816020015b611fed6136a9565b815260200190600190039081611fe55790505b5092506000808690505b8281101561207e57600061201d82612299565b90508860068111156120325761203161468b565b5b81602001510361206a57808684815181106120505761204f615318565b5b60200260200101819052508280612066906151e3565b9350505b508080612076906151e3565b91505061200a565b508084525050509392505050565b600061209782610664565b90507fffffffffffffffffffffffffffffffffffffffffffffffffffffffffffffffff81036120f2576040517fd2fc63e300000000000000000000000000000000000000000000000000000000815260040160405180910390fd5b6000612123826040516020016121089190614783565b60405160208183030381529060405280519060200120612b7f565b90508073ffffffffffffffffffffffffffffffffffffffff163373ffffffffffffffffffffffffffffffffffffffff161461218a576040517f896e7ee800000000000000000000000000000000000000000000000000000000815260040160405180910390fd5b612194838361336f565b505050565b7f000000000000000000000000000000000000000000000000000000000000000081565b60006121e87fe0350abf7e528889b5822fca885fa12de74628619c3752923dd9ec3ce44e4602612adb565b905090565b60008061221f836040516020016122049190615393565b60405160208183030381529060405280519060200120612b7f565b9050600073ffffffffffffffffffffffffffffffffffffffff168173ffffffffffffffffffffffffffffffffffffffff1603612290576040517f08c379a000000000000000000000000000000000000000000000000000000000815260040161228790615401565b60405180910390fd5b80915050919050565b6122a16136a9565b6122d0826040516020016122b59190614fa7565b60405160208183030381529060405280519060200120612b7f565b816000019073ffffffffffffffffffffffffffffffffffffffff16908173ffffffffffffffffffffffffffffffffffffffff16815250506123368260405160200161231b919061465a565b60405160208183030381529060405280519060200120612adb565b81602001818152505061236e826040516020016123539190615024565b60405160208183030381529060405280519060200120612adb565b8160400181815250506123a68260405160200161238b9190614706565b60405160208183030381529060405280519060200120612adb565b8160600181815250506123de826040516020016123c39190614d71565b60405160208183030381529060405280519060200120612adb565b816080018181525050612416826040516020016123fb919061511e565b60405160208183030381529060405280519060200120612adb565b8160a001818152505061244e826040516020016124339190614800565b60405160208183030381529060405280519060200120612adb565b8160c00181815250506124868260405160200161246b919061487d565b60405160208183030381529060405280519060200120612adb565b8160e00181815250506124be826040516020016124a39190614965565b60405160208183030381529060405280519060200120612adb565b816101000181815250506124f7826040516020016124dc9190614dee565b60405160208183030381529060405280519060200120612adb565b81610120018181525050612530826040516020016125159190614e6b565b60405160208183030381529060405280519060200120612adb565b816101400181815250506125698260405160200161254e91906149e2565b60405160208183030381529060405280519060200120612adb565b816101600181815250506125a2826040516020016125879190614ee8565b60405160208183030381529060405280519060200120612adb565b816101800181815250506125db826040516020016125c091906150a1565b60405160208183030381529060405280519060200120612b7f565b816101c0019073ffffffffffffffffffffffffffffffffffffffff16908173ffffffffffffffffffffffffffffffffffffffff1681525050612642826040516020016126279190614783565b60405160208183030381529060405280519060200120612b7f565b816101a0019073ffffffffffffffffffffffffffffffffffffffff16908173ffffffffffffffffffffffffffffffffffffffff1681525050919050565b6000806126c06040518060400160405280600b81526020017f50726f746f636f6c44414f00000000000000000000000000000000000000000081525061314a565b905060008173ffffffffffffffffffffffffffffffffffffffff16634712a1436040518163ffffffff1660e01b8152600401602060405180830381865afa15801561270f573d6000803e3d6000fd5b505050506040513d601f19601f820116820180604052508101906127339190615436565b9050670de0b6b3a76400006301e13380828761274f9190615463565b61275991906152be565b856127649190615463565b61276e91906152be565b9250505092915050565b7f000000000000000000000000000000000000000000000000000000000000000081565b60006127a783610664565b90507fffffffffffffffffffffffffffffffffffffffffffffffffffffffffffffffff8103612802576040517fd2fc63e300000000000000000000000000000000000000000000000000000000815260040160405180910390fd5b61284481604051602001612816919061465a565b6040516020818303038152906040528051906020012083600681111561283f5761283e61468b565b5b613013565b505050565b60008061285583612c23565b9050612862816001612d2c565b600080612894836040516020016128799190614965565b60405160208183030381529060405280519060200120612adb565b90507f00000000000000000000000000000000000000000000000000000000000000008110156128ed57807f00000000000000000000000000000000000000000000000000000000000000006128ea91906148ae565b91505b7f000000000000000000000000000000000000000000000000000000000000000073ffffffffffffffffffffffffffffffffffffffff1663be13733c6040518163ffffffff1660e01b8152600401602060405180830381865afa158015612958573d6000803e3d6000fd5b505050506040513d601f19601f8201168201806040525081019061297c9190615436565b82111561298f5760009350505050612997565b600193505050505b919050565b7f000000000000000000000000000000000000000000000000000000000000000081565b600080612a016040518060400160405280600681526020017f4f7261636c65000000000000000000000000000000000000000000000000000081525061314a565b905060008173ffffffffffffffffffffffffffffffffffffffff1663bece349b6040518163ffffffff1660e01b81526004016040805180830381865afa158015612a4f573d6000803e3d6000fd5b505050506040513d601f19601f82011682018060405250810190612a7391906154bd565b5090508084670de0b6b3a7640000612a8b9190615463565b612a9591906152be565b92505050919050565b6000612ad18383604051602001612ab6929190614579565b60405160208183030381529060405280519060200120612adb565b905092915050565b565b60008060019054906101000a900473ffffffffffffffffffffffffffffffffffffffff1673ffffffffffffffffffffffffffffffffffffffff1663bd02d0f5836040518263ffffffff1660e01b8152600401612b379190613af1565b602060405180830381865afa158015612b54573d6000803e3d6000fd5b505050506040513d601f19601f82011682018060405250810190612b789190615436565b9050919050565b60008060019054906101000a900473ffffffffffffffffffffffffffffffffffffffff1673ffffffffffffffffffffffffffffffffffffffff166321f8a721836040518263ffffffff1660e01b8152600401612bdb9190613af1565b602060405180830381865afa158015612bf8573d6000803e3d6000fd5b505050506040513d601f19601f82011682018060405250810190612c1c9190614f2e565b9050919050565b600080612c2f83610664565b90507fffffffffffffffffffffffffffffffffffffffffffffffffffffffffffffffff8103612c8a576040517fd2fc63e300000000000000000000000000000000000000000000000000000000815260040160405180910390fd5b6000612cbb82604051602001612ca091906150a1565b60405160208183030381529060405280519060200120612b7f565b90508073ffffffffffffffffffffffffffffffffffffffff163373ffffffffffffffffffffffffffffffffffffffff1614612d22576040517fc2bd570700000000000000000000000000000000000000000000000000000000815260040160405180910390fd5b8192505050919050565b600082604051602001612d3f919061465a565b6040516020818303038152906040528051906020012090506000612d6282612adb565b6006811115612d7457612d7361468b565b5b90506000806006811115612d8b57612d8a61468b565b5b826006811115612d9e57612d9d61468b565b5b03612e015760016006811115612db757612db661468b565b5b846006811115612dca57612dc961468b565b5b1480612dfa575060056006811115612de557612de461468b565b5b846006811115612df857612df761468b565b5b145b9050612fd5565b60016006811115612e1557612e1461468b565b5b826006811115612e2857612e2761468b565b5b03612e8b5760026006811115612e4157612e4061468b565b5b846006811115612e5457612e5361468b565b5b1480612e84575060056006811115612e6f57612e6e61468b565b5b846006811115612e8257612e8161468b565b5b145b9050612fd4565b60026006811115612e9f57612e9e61468b565b5b826006811115612eb257612eb161468b565b5b03612ee65760036006811115612ecb57612eca61468b565b5b846006811115612ede57612edd61468b565b5b149050612fd3565b60036006811115612efa57612ef961468b565b5b826006811115612f0d57612f0c61468b565b5b03612f415760046006811115612f2657612f2561468b565b5b846006811115612f3957612f3861468b565b5b149050612fd2565b60046006811115612f5557612f5461468b565b5b826006811115612f6857612f6761468b565b5b1480612f98575060056006811115612f8357612f8261468b565b5b826006811115612f9657612f9561468b565b5b145b15612fcc5760006006811115612fb157612fb061468b565b5b846006811115612fc457612fc361468b565b5b149050612fd1565b600090505b5b5b5b5b8061300c576040517f8f9a780c00000000000000000000000000000000000000000000000000000000815260040160405180910390fd5b5050505050565b600060019054906101000a900473ffffffffffffffffffffffffffffffffffffffff1673ffffffffffffffffffffffffffffffffffffffff1663e2a4853a83836040518363ffffffff1660e01b81526004016130709291906154fd565b600060405180830381600087803b15801561308a57600080fd5b505af115801561309e573d6000803e3d6000fd5b505050505050565b60008060019054906101000a900473ffffffffffffffffffffffffffffffffffffffff1673ffffffffffffffffffffffffffffffffffffffff16637ae1cfca836040518263ffffffff1660e01b81526004016131029190613af1565b602060405180830381865afa15801561311f573d6000803e3d6000fd5b505050506040513d601f19601f820116820180604052508101906131439190614b12565b9050919050565b60008061317c836040516020016131619190615393565b60405160208183030381529060405280519060200120612b7f565b9050600073ffffffffffffffffffffffffffffffffffffffff168173ffffffffffffffffffffffffffffffffffffffff16036131ed576040517f08c379a00000000000000000000000000000000000000000000000000000000081526004016131e490615401565b60405180910390fd5b80915050919050565b600060019054906101000a900473ffffffffffffffffffffffffffffffffffffffff1673ffffffffffffffffffffffffffffffffffffffff1663ca446dd983836040518363ffffffff1660e01b8152600401613253929190615526565b600060405180830381600087803b15801561326d57600080fd5b505af1158015613281573d6000803e3d6000fd5b505050505050565b600060019054906101000a900473ffffffffffffffffffffffffffffffffffffffff1673ffffffffffffffffffffffffffffffffffffffff1663adb353dc83836040518363ffffffff1660e01b81526004016132e69291906154fd565b600060405180830381600087803b15801561330057600080fd5b505af1158015613314573d6000803e3d6000fd5b505050505050565b600080600080600085875af190508061336a576040517f08c379a00000000000000000000000000000000000000000000000000000000081526004016133619061559b565b60405180910390fd5b505050565b61337a816005612d2c565b6133bd8160405160200161338e919061465a565b60405160208183030381529060405280519060200120600560068111156133b8576133b761468b565b5b613013565b60006133fd6040518060400160405280600581526020017f5661756c7400000000000000000000000000000000000000000000000000000081525061314a565b90506000613430836040516020016134159190614783565b60405160208183030381529060405280519060200120612b7f565b90506000613463846040516020016134489190614800565b60405160208183030381529060405280519060200120612adb565b905060008111156134fe578273ffffffffffffffffffffffffffffffffffffffff166301e33667837f0000000000000000000000000000000000000000000000000000000000000000846040518463ffffffff1660e01b81526004016134cb939291906148e2565b600060405180830381600087803b1580156134e557600080fd5b505af11580156134f9573d6000803e3d6000fd5b505050505b600061352f856040516020016135149190614965565b60405160208183030381529060405280519060200120612adb565b9050600081111561364a578373ffffffffffffffffffffffffffffffffffffffff16630eb8d896826040518263ffffffff1660e01b81526004016135739190614098565b600060405180830381600087803b15801561358d57600080fd5b505af11580156135a1573d6000803e3d6000fd5b5050505060008373ffffffffffffffffffffffffffffffffffffffff16826040516135cb90614a9a565b60006040518083038185875af1925050503d8060008114613608576040519150601f19603f3d011682016040523d82523d6000602084013e61360d565b606091505b5050905080613648576040517f9d60fd7500000000000000000000000000000000000000000000000000000000815260040160405180910390fd5b505b6005600681111561365e5761365d61468b565b5b8673ffffffffffffffffffffffffffffffffffffffff167fc9c043637725967252aedd2704cc65fee962e7b8a1e3cf8098587a66601e50c560405160405180910390a3505050505050565b604051806101e00160405280600073ffffffffffffffffffffffffffffffffffffffff168152602001600081526020016000815260200160008152602001600081526020016000815260200160008152602001600081526020016000815260200160008152602001600081526020016000815260200160008152602001600073ffffffffffffffffffffffffffffffffffffffff168152602001600073ffffffffffffffffffffffffffffffffffffffff1681525090565b6000604051905090565b600080fd5b600080fd5b600073ffffffffffffffffffffffffffffffffffffffff82169050919050565b60006137a082613775565b9050919050565b6137b081613795565b81146137bb57600080fd5b50565b6000813590506137cd816137a7565b92915050565b6000602082840312156137e9576137e861376b565b5b60006137f7848285016137be565b91505092915050565b6000819050919050565b61381381613800565b82525050565b600060208201905061382e600083018461380a565b92915050565b6000819050919050565b61384781613834565b811461385257600080fd5b50565b6000813590506138648161383e565b92915050565b600080fd5b600080fd5b6000601f19601f8301169050919050565b7f4e487b7100000000000000000000000000000000000000000000000000000000600052604160045260246000fd5b6138bd82613874565b810181811067ffffffffffffffff821117156138dc576138db613885565b5b80604052505050565b60006138ef613761565b90506138fb82826138b4565b919050565b600067ffffffffffffffff82111561391b5761391a613885565b5b61392482613874565b9050602081019050919050565b82818337600083830152505050565b600061395361394e84613900565b6138e5565b90508281526020810184848401111561396f5761396e61386f565b5b61397a848285613931565b509392505050565b600082601f8301126139975761399661386a565b5b81356139a7848260208601613940565b91505092915050565b600080604083850312156139c7576139c661376b565b5b60006139d585828601613855565b925050602083013567ffffffffffffffff8111156139f6576139f5613770565b5b613a0285828601613982565b9150509250929050565b613a1581613795565b82525050565b6000602082019050613a306000830184613a0c565b92915050565b6000819050919050565b613a4981613a36565b8114613a5457600080fd5b50565b600081359050613a6681613a40565b92915050565b60008060408385031215613a8357613a8261376b565b5b6000613a91858286016137be565b9250506020613aa285828601613a57565b9150509250929050565b60008115159050919050565b613ac181613aac565b82525050565b6000602082019050613adc6000830184613ab8565b92915050565b613aeb81613834565b82525050565b6000602082019050613b066000830184613ae2565b92915050565b60008060008060808587031215613b2657613b2561376b565b5b6000613b34878288016137be565b9450506020613b4587828801613a57565b9350506040613b5687828801613a57565b9250506060613b6787828801613a57565b91505092959194509250565b60008060408385031215613b8a57613b8961376b565b5b6000613b9885828601613a57565b9250506020613ba985828601613a57565b9150509250929050565b613bbc81613a36565b82525050565b600060c082019050613bd76000830189613bb3565b613be46020830188613bb3565b613bf16040830187613bb3565b613bfe6060830186613bb3565b613c0b6080830185613bb3565b613c1860a0830184613bb3565b979650505050505050565b600060ff82169050919050565b613c3981613c23565b82525050565b6000602082019050613c546000830184613c30565b92915050565b600080fd5b600080fd5b60008083601f840112613c7a57613c7961386a565b5b8235905067ffffffffffffffff811115613c9757613c96613c5a565b5b602083019150836001820283011115613cb357613cb2613c5f565b5b9250929050565b60008060008060608587031215613cd457613cd361376b565b5b6000613ce2878288016137be565b9450506020613cf387828801613a57565b935050604085013567ffffffffffffffff811115613d1457613d13613770565b5b613d2087828801613c64565b925092505092959194509250565b600080600060608486031215613d4757613d4661376b565b5b6000613d55868287016137be565b9350506020613d6686828701613a57565b9250506040613d7786828701613a57565b9150509250925092565b60078110613d8e57600080fd5b50565b600081359050613da081613d81565b92915050565b600080600060608486031215613dbf57613dbe61376b565b5b6000613dcd86828701613d91565b9350506020613dde86828701613a57565b9250506040613def86828701613a57565b9150509250925092565b600081519050919050565b600082825260208201905092915050565b6000819050602082019050919050565b613e2e81613795565b82525050565b613e3d81613a36565b82525050565b6101e082016000820151613e5a6000850182613e25565b506020820151613e6d6020850182613e34565b506040820151613e806040850182613e34565b506060820151613e936060850182613e34565b506080820151613ea66080850182613e34565b5060a0820151613eb960a0850182613e34565b5060c0820151613ecc60c0850182613e34565b5060e0820151613edf60e0850182613e34565b50610100820151613ef4610100850182613e34565b50610120820151613f09610120850182613e34565b50610140820151613f1e610140850182613e34565b50610160820151613f33610160850182613e34565b50610180820151613f48610180850182613e34565b506101a0820151613f5d6101a0850182613e25565b506101c0820151613f726101c0850182613e25565b50505050565b6000613f848383613e43565b6101e08301905092915050565b6000602082019050919050565b6000613fa982613df9565b613fb38185613e04565b9350613fbe83613e15565b8060005b83811015613fef578151613fd68882613f78565b9750613fe183613f91565b925050600181019050613fc2565b5085935050505092915050565b600060208201905081810360008301526140168184613f9e565b905092915050565b6000819050919050565b600061404361403e61403984613775565b61401e565b613775565b9050919050565b600061405582614028565b9050919050565b60006140678261404a565b9050919050565b6140778161405c565b82525050565b6000602082019050614092600083018461406e565b92915050565b60006020820190506140ad6000830184613bb3565b92915050565b6000602082840312156140c9576140c861376b565b5b600082013567ffffffffffffffff8111156140e7576140e6613770565b5b6140f384828501613982565b91505092915050565b61410581613800565b811461411057600080fd5b50565b600081359050614122816140fc565b92915050565b60006020828403121561413e5761413d61376b565b5b600061414c84828501614113565b91505092915050565b6101e08201600082015161416c6000850182613e25565b50602082015161417f6020850182613e34565b5060408201516141926040850182613e34565b5060608201516141a56060850182613e34565b5060808201516141b86080850182613e34565b5060a08201516141cb60a0850182613e34565b5060c08201516141de60c0850182613e34565b5060e08201516141f160e0850182613e34565b50610100820151614206610100850182613e34565b5061012082015161421b610120850182613e34565b50610140820151614230610140850182613e34565b50610160820151614245610160850182613e34565b5061018082015161425a610180850182613e34565b506101a082015161426f6101a0850182613e25565b506101c08201516142846101c0850182613e25565b50505050565b60006101e0820190506142a06000830184614155565b92915050565b600080604083850312156142bd576142bc61376b565b5b60006142cb858286016137be565b92505060206142dc85828601613d91565b9150509250929050565b60006142f182614028565b9050919050565b6000614303826142e6565b9050919050565b614313816142f8565b82525050565b600060208201905061432e600083018461430a565b92915050565b60006020828403121561434a5761434961376b565b5b600061435884828501613a57565b91505092915050565b600081905092915050565b7f6d696e69706f6f6c2e696e646578000000000000000000000000000000000000600082015250565b60006143a2600e83614361565b91506143ad8261436c565b600e82019050919050565b60008160601b9050919050565b60006143d0826143b8565b9050919050565b60006143e2826143c5565b9050919050565b6143fa6143f582613795565b6143d7565b82525050565b600061440b82614395565b915061441782846143e9565b60148201915081905092915050565b7f4e487b7100000000000000000000000000000000000000000000000000000000600052601160045260246000fd5b600061446082613800565b915061446b83613800565b9250827f8000000000000000000000000000000000000000000000000000000000000000018212600084121516156144a6576144a5614426565b5b827f7fffffffffffffffffffffffffffffffffffffffffffffffffffffffffffffff0182136000841216156144de576144dd614426565b5b828203905092915050565b6000819050919050565b6145046144ff82613834565b6144e9565b82525050565b600081519050919050565b60005b83811015614533578082015181840152602081019050614518565b83811115614542576000848401525b50505050565b60006145538261450a565b61455d8185614361565b935061456d818560208601614515565b80840191505092915050565b600061458582856144f3565b6020820191506145958284614548565b91508190509392505050565b7f6d696e69706f6f6c2e6974656d00000000000000000000000000000000000000600082015250565b60006145d7600d83614361565b91506145e2826145a1565b600d82019050919050565b6000819050919050565b61460861460382613800565b6145ed565b82525050565b7f2e73746174757300000000000000000000000000000000000000000000000000600082015250565b6000614644600783614361565b915061464f8261460e565b600782019050919050565b6000614665826145ca565b915061467182846145f7565b60208201915061468082614637565b915081905092915050565b7f4e487b7100000000000000000000000000000000000000000000000000000000600052602160045260246000fd5b7f2e737461727454696d6500000000000000000000000000000000000000000000600082015250565b60006146f0600a83614361565b91506146fb826146ba565b600a82019050919050565b6000614711826145ca565b915061471d82846145f7565b60208201915061472c826146e3565b915081905092915050565b7f2e6f776e65720000000000000000000000000000000000000000000000000000600082015250565b600061476d600683614361565b915061477882614737565b600682019050919050565b600061478e826145ca565b915061479a82846145f7565b6020820191506147a982614760565b915081905092915050565b7f2e676770426f6e64416d74000000000000000000000000000000000000000000600082015250565b60006147ea600b83614361565b91506147f5826147b4565b600b82019050919050565b600061480b826145ca565b915061481782846145f7565b602082019150614826826147dd565b915081905092915050565b7f2e676770536c617368416d740000000000000000000000000000000000000000600082015250565b6000614867600c83614361565b915061487282614831565b600c82019050919050565b6000614888826145ca565b915061489482846145f7565b6020820191506148a38261485a565b915081905092915050565b60006148b982613a36565b91506148c483613a36565b9250828210156148d7576148d6614426565b5b828203905092915050565b60006060820190506148f76000830186613a0c565b614904602083018561430a565b6149116040830184613bb3565b949350505050565b7f2e617661784e6f64654f70416d74000000000000000000000000000000000000600082015250565b600061494f600e83614361565b915061495a82614919565b600e82019050919050565b6000614970826145ca565b915061497c82846145f7565b60208201915061498b82614942565b915081905092915050565b7f2e617661784e6f64654f70526577617264416d74000000000000000000000000600082015250565b60006149cc601483614361565b91506149d782614996565b601482019050919050565b60006149ed826145ca565b91506149f982846145f7565b602082019150614a08826149bf565b915081905092915050565b6000614a1e82613a36565b9150614a2983613a36565b9250827fffffffffffffffffffffffffffffffffffffffffffffffffffffffffffffffff03821115614a5e57614a5d614426565b5b828201905092915050565b600081905092915050565b50565b6000614a84600083614a69565b9150614a8f82614a74565b600082019050919050565b6000614aa582614a77565b9150819050919050565b6000606082019050614ac46000830186613a0c565b614ad16020830185613a0c565b614ade6040830184613bb3565b949350505050565b614aef81613aac565b8114614afa57600080fd5b50565b600081519050614b0c81614ae6565b92915050565b600060208284031215614b2857614b2761376b565b5b6000614b3684828501614afd565b91505092915050565b600082825260208201905092915050565b7f436f756c64206e6f74207472616e736665722047475020746f204d696e69506f60008201527f6f6c20636f6e7472616374000000000000000000000000000000000000000000602082015250565b6000614bac602b83614b3f565b9150614bb782614b50565b604082019050919050565b60006020820190508181036000830152614bdb81614b9f565b9050919050565b6000604082019050614bf76000830185613a0c565b614c046020830184613bb3565b9392505050565b7f436f756c64206e6f7420617070726f7665207661756c7420474750206465706f60008201527f7369740000000000000000000000000000000000000000000000000000000000602082015250565b6000614c67602383614b3f565b9150614c7282614c0b565b604082019050919050565b60006020820190508181036000830152614c9681614c5a565b9050919050565b7f4d696e69706f6f6c4d616e616765720000000000000000000000000000000000600082015250565b6000614cd3600f83614b3f565b9150614cde82614c9d565b602082019050919050565b60006060820190508181036000830152614d0281614cc6565b9050614d11602083018561430a565b614d1e6040830184613bb3565b9392505050565b7f2e656e6454696d65000000000000000000000000000000000000000000000000600082015250565b6000614d5b600883614361565b9150614d6682614d25565b600882019050919050565b6000614d7c826145ca565b9150614d8882846145f7565b602082019150614d9782614d4e565b915081905092915050565b7f2e6176617855736572416d740000000000000000000000000000000000000000600082015250565b6000614dd8600c83614361565b9150614de382614da2565b600c82019050919050565b6000614df9826145ca565b9150614e0582846145f7565b602082019150614e1482614dcb565b915081905092915050565b7f2e61766178546f74616c526577617264416d7400000000000000000000000000600082015250565b6000614e55601383614361565b9150614e6082614e1f565b601382019050919050565b6000614e76826145ca565b9150614e8282846145f7565b602082019150614e9182614e48565b915081905092915050565b7f2e6176617855736572526577617264416d740000000000000000000000000000600082015250565b6000614ed2601283614361565b9150614edd82614e9c565b601282019050919050565b6000614ef3826145ca565b9150614eff82846145f7565b602082019150614f0e82614ec5565b915081905092915050565b600081519050614f28816137a7565b92915050565b600060208284031215614f4457614f4361376b565b5b6000614f5284828501614f19565b91505092915050565b7f2e6e6f6465494400000000000000000000000000000000000000000000000000600082015250565b6000614f91600783614361565b9150614f9c82614f5b565b600782019050919050565b6000614fb2826145ca565b9150614fbe82846145f7565b602082019150614fcd82614f84565b915081905092915050565b7f2e6475726174696f6e0000000000000000000000000000000000000000000000600082015250565b600061500e600983614361565b915061501982614fd8565b600982019050919050565b600061502f826145ca565b915061503b82846145f7565b60208201915061504a82615001565b915081905092915050565b7f2e6d756c74697369674164647200000000000000000000000000000000000000600082015250565b600061508b600d83614361565b915061509682615055565b600d82019050919050565b60006150ac826145ca565b91506150b882846145f7565b6020820191506150c78261507e565b915081905092915050565b7f2e64656c65676174696f6e466565000000000000000000000000000000000000600082015250565b6000615108600e83614361565b9150615113826150d2565b600e82019050919050565b6000615129826145ca565b915061513582846145f7565b602082019150615144826150fb565b915081905092915050565b600061515a82613800565b915061516583613800565b9250817f7fffffffffffffffffffffffffffffffffffffffffffffffffffffffffffffff038313600083121516156151a05761519f614426565b5b817f80000000000000000000000000000000000000000000000000000000000000000383126000831216156151d8576151d7614426565b5b828201905092915050565b60006151ee82613a36565b91507fffffffffffffffffffffffffffffffffffffffffffffffffffffffffffffffff82036152205761521f614426565b5b600182019050919050565b6000819050919050565b600061525061524b6152468461522b565b61401e565b613a36565b9050919050565b61526081615235565b82525050565b600060408201905061527b6000830185613bb3565b6152886020830184615257565b9392505050565b7f4e487b7100000000000000000000000000000000000000000000000000000000600052601260045260246000fd5b60006152c982613a36565b91506152d483613a36565b9250826152e4576152e361528f565b5b828204905092915050565b60006040820190506153046000830185613bb3565b6153116020830184613bb3565b9392505050565b7f4e487b7100000000000000000000000000000000000000000000000000000000600052603260045260246000fd5b7f636f6e74726163742e6164647265737300000000000000000000000000000000600082015250565b600061537d601083614361565b915061538882615347565b601082019050919050565b600061539e82615370565b91506153aa8284614548565b915081905092915050565b7f436f6e7472616374206e6f7420666f756e640000000000000000000000000000600082015250565b60006153eb601283614b3f565b91506153f6826153b5565b602082019050919050565b6000602082019050818103600083015261541a816153de565b9050919050565b60008151905061543081613a40565b92915050565b60006020828403121561544c5761544b61376b565b5b600061545a84828501615421565b91505092915050565b600061546e82613a36565b915061547983613a36565b9250817fffffffffffffffffffffffffffffffffffffffffffffffffffffffffffffffff04831182151516156154b2576154b1614426565b5b828202905092915050565b600080604083850312156154d4576154d361376b565b5b60006154e285828601615421565b92505060206154f385828601615421565b9150509250929050565b60006040820190506155126000830185613ae2565b61551f6020830184613bb3565b9392505050565b600060408201905061553b6000830185613ae2565b6155486020830184613a0c565b9392505050565b7f4554485f5452414e534645525f4641494c454400000000000000000000000000600082015250565b6000615585601383614b3f565b91506155908261554f565b602082019050919050565b600060208201905081810360008301526155b481615578565b905091905056fea26469706673582212202edc3d9441db911e25a3b580c06a6f94d33e1f740c714faa8288f5afd964f9f364736f6c634300080d0033",
  "linkReferences": {},
  "deployedLinkReferences": {}
}