{
  "_format": "hh-sol-artifact-1",
  "contractName": "MinipoolManager",
  "sourceName": "contracts/contract/MinipoolManager.sol",
  "abi": [
    {
      "inputs": [
        {
          "internalType": "contract Storage",
          "name": "storageAddress",
          "type": "address"
        },
        {
          "internalType": "contract ERC20",
          "name": "ggp_",
          "type": "address"
        },
        {
          "internalType": "contract TokenggAVAX",
          "name": "ggAVAX_",
          "type": "address"
        }
      ],
      "stateMutability": "nonpayable",
      "type": "constructor"
    },
    {
      "inputs": [],
      "name": "ErrorIssuingValidationTx",
      "type": "error"
    },
    {
      "inputs": [],
      "name": "ErrorSendingAvax",
      "type": "error"
    },
    {
      "inputs": [],
      "name": "InsufficientAvaxForStaking",
      "type": "error"
    },
    {
      "inputs": [],
      "name": "InsufficientAvaxVaultBalance",
      "type": "error"
    },
    {
      "inputs": [],
      "name": "InvalidAmount",
      "type": "error"
    },
    {
      "inputs": [],
      "name": "InvalidEndTime",
      "type": "error"
    },
    {
      "inputs": [],
      "name": "InvalidMultisigAddress",
      "type": "error"
    },
    {
      "inputs": [],
      "name": "InvalidMultisigSignature",
      "type": "error"
    },
    {
      "inputs": [],
      "name": "InvalidStateTransition",
      "type": "error"
    },
    {
      "inputs": [],
      "name": "MinipoolAlreadyRegistered",
      "type": "error"
    },
    {
      "inputs": [],
      "name": "MinipoolMustBeInitialised",
      "type": "error"
    },
    {
      "inputs": [],
      "name": "MinipoolNotFound",
      "type": "error"
    },
    {
      "inputs": [],
      "name": "OnlyOwnerCanCancel",
      "type": "error"
    },
    {
      "inputs": [],
      "name": "OnlyOwnerCanWithdraw",
      "type": "error"
    },
    {
      "anonymous": false,
      "inputs": [
        {
          "indexed": true,
          "internalType": "address",
          "name": "nodeID",
          "type": "address"
        },
        {
          "indexed": true,
          "internalType": "enum MinipoolStatus",
          "name": "status",
          "type": "uint8"
        }
      ],
      "name": "MinipoolStatusChanged",
      "type": "event"
    },
    {
      "anonymous": false,
      "inputs": [
        {
          "indexed": true,
          "internalType": "address",
          "name": "nodeID",
          "type": "address"
        }
      ],
      "name": "ZeroRewardsReceived",
      "type": "event"
    },
    {
      "inputs": [],
      "name": "MINIPOOL_QUEUE_KEY",
      "outputs": [
        {
          "internalType": "bytes32",
          "name": "",
          "type": "bytes32"
        }
      ],
      "stateMutability": "view",
      "type": "function"
    },
    {
      "inputs": [],
      "name": "MIN_STAKING_AMT",
      "outputs": [
        {
          "internalType": "uint256",
          "name": "",
          "type": "uint256"
        }
      ],
      "stateMutability": "view",
      "type": "function"
    },
    {
      "inputs": [
        {
          "internalType": "uint256",
          "name": "avaxRewardAmt",
          "type": "uint256"
        }
      ],
      "name": "calculateSlashAmt",
      "outputs": [
        {
          "internalType": "uint256",
          "name": "",
          "type": "uint256"
        }
      ],
      "stateMutability": "view",
      "type": "function"
    },
    {
      "inputs": [
        {
          "internalType": "address",
          "name": "nodeID",
          "type": "address"
        }
      ],
      "name": "canClaimAndInitiateStaking",
      "outputs": [
        {
          "internalType": "bool",
          "name": "",
          "type": "bool"
        }
      ],
      "stateMutability": "view",
      "type": "function"
    },
    {
      "inputs": [
        {
          "internalType": "address",
          "name": "nodeID",
          "type": "address"
        }
      ],
      "name": "cancelMinipool",
      "outputs": [],
      "stateMutability": "nonpayable",
      "type": "function"
    },
    {
      "inputs": [
        {
          "internalType": "address",
          "name": "nodeID",
          "type": "address"
        }
      ],
      "name": "claimAndInitiateStaking",
      "outputs": [],
      "stateMutability": "nonpayable",
      "type": "function"
    },
    {
      "inputs": [
        {
          "internalType": "address",
          "name": "nodeID",
          "type": "address"
        },
        {
          "internalType": "uint256",
          "name": "duration",
          "type": "uint256"
        },
        {
          "internalType": "uint256",
          "name": "delegationFee",
          "type": "uint256"
        },
        {
          "internalType": "uint256",
          "name": "ggpBondAmt",
          "type": "uint256"
        }
      ],
      "name": "createMinipool",
      "outputs": [],
      "stateMutability": "payable",
      "type": "function"
    },
    {
      "inputs": [
        {
          "internalType": "uint256",
          "name": "duration",
          "type": "uint256"
        },
        {
          "internalType": "uint256",
          "name": "avaxAmt",
          "type": "uint256"
        }
      ],
      "name": "expectedRewardAmt",
      "outputs": [
        {
          "internalType": "uint256",
          "name": "",
          "type": "uint256"
        }
      ],
      "stateMutability": "view",
      "type": "function"
    },
    {
      "inputs": [
        {
          "internalType": "address",
          "name": "nodeID",
          "type": "address"
        }
      ],
      "name": "getIndexOf",
      "outputs": [
        {
          "internalType": "int256",
          "name": "",
          "type": "int256"
        }
      ],
      "stateMutability": "view",
      "type": "function"
    },
    {
      "inputs": [
        {
          "internalType": "int256",
          "name": "index",
          "type": "int256"
        }
      ],
      "name": "getMinipool",
      "outputs": [
        {
          "components": [
            {
              "internalType": "address",
              "name": "nodeID",
              "type": "address"
            },
            {
              "internalType": "uint256",
              "name": "status",
              "type": "uint256"
            },
            {
              "internalType": "uint256",
              "name": "duration",
              "type": "uint256"
            },
            {
              "internalType": "uint256",
              "name": "startTime",
              "type": "uint256"
            },
            {
              "internalType": "uint256",
              "name": "endTime",
              "type": "uint256"
            },
            {
              "internalType": "uint256",
              "name": "delegationFee",
              "type": "uint256"
            },
            {
              "internalType": "uint256",
              "name": "ggpBondAmt",
              "type": "uint256"
            },
            {
              "internalType": "uint256",
              "name": "ggpSlashAmt",
              "type": "uint256"
            },
            {
              "internalType": "uint256",
              "name": "avaxNodeOpAmt",
              "type": "uint256"
            },
            {
              "internalType": "uint256",
              "name": "avaxUserAmt",
              "type": "uint256"
            },
            {
              "internalType": "uint256",
              "name": "avaxTotalRewardAmt",
              "type": "uint256"
            },
            {
              "internalType": "uint256",
              "name": "avaxNodeOpRewardAmt",
              "type": "uint256"
            },
            {
              "internalType": "uint256",
              "name": "avaxUserRewardAmt",
              "type": "uint256"
            },
            {
              "internalType": "address",
              "name": "owner",
              "type": "address"
            },
            {
              "internalType": "address",
              "name": "multisigAddr",
              "type": "address"
            },
            {
              "internalType": "bytes32",
              "name": "txID",
              "type": "bytes32"
            }
          ],
          "internalType": "struct MinipoolManager.Minipool",
          "name": "mp",
          "type": "tuple"
        }
      ],
      "stateMutability": "view",
      "type": "function"
    },
    {
      "inputs": [],
      "name": "getMinipoolCount",
      "outputs": [
        {
          "internalType": "uint256",
          "name": "",
          "type": "uint256"
        }
      ],
      "stateMutability": "view",
      "type": "function"
    },
    {
      "inputs": [
        {
          "internalType": "uint256",
          "name": "offset",
          "type": "uint256"
        },
        {
          "internalType": "uint256",
          "name": "limit",
          "type": "uint256"
        }
      ],
      "name": "getMinipoolCountPerStatus",
      "outputs": [
        {
          "internalType": "uint256",
          "name": "prelaunchCount",
          "type": "uint256"
        },
        {
          "internalType": "uint256",
          "name": "launchedCount",
          "type": "uint256"
        },
        {
          "internalType": "uint256",
          "name": "stakingCount",
          "type": "uint256"
        },
        {
          "internalType": "uint256",
          "name": "withdrawableCount",
          "type": "uint256"
        },
        {
          "internalType": "uint256",
          "name": "finishedCount",
          "type": "uint256"
        },
        {
          "internalType": "uint256",
          "name": "canceledCount",
          "type": "uint256"
        }
      ],
      "stateMutability": "view",
      "type": "function"
    },
    {
      "inputs": [
        {
          "internalType": "enum MinipoolStatus",
          "name": "status",
          "type": "uint8"
        },
        {
          "internalType": "uint256",
          "name": "offset",
          "type": "uint256"
        },
        {
          "internalType": "uint256",
          "name": "limit",
          "type": "uint256"
        }
      ],
      "name": "getMinipools",
      "outputs": [
        {
          "components": [
            {
              "internalType": "address",
              "name": "nodeID",
              "type": "address"
            },
            {
              "internalType": "uint256",
              "name": "status",
              "type": "uint256"
            },
            {
              "internalType": "uint256",
              "name": "duration",
              "type": "uint256"
            },
            {
              "internalType": "uint256",
              "name": "startTime",
              "type": "uint256"
            },
            {
              "internalType": "uint256",
              "name": "endTime",
              "type": "uint256"
            },
            {
              "internalType": "uint256",
              "name": "delegationFee",
              "type": "uint256"
            },
            {
              "internalType": "uint256",
              "name": "ggpBondAmt",
              "type": "uint256"
            },
            {
              "internalType": "uint256",
              "name": "ggpSlashAmt",
              "type": "uint256"
            },
            {
              "internalType": "uint256",
              "name": "avaxNodeOpAmt",
              "type": "uint256"
            },
            {
              "internalType": "uint256",
              "name": "avaxUserAmt",
              "type": "uint256"
            },
            {
              "internalType": "uint256",
              "name": "avaxTotalRewardAmt",
              "type": "uint256"
            },
            {
              "internalType": "uint256",
              "name": "avaxNodeOpRewardAmt",
              "type": "uint256"
            },
            {
              "internalType": "uint256",
              "name": "avaxUserRewardAmt",
              "type": "uint256"
            },
            {
              "internalType": "address",
              "name": "owner",
              "type": "address"
            },
            {
              "internalType": "address",
              "name": "multisigAddr",
              "type": "address"
            },
            {
              "internalType": "bytes32",
              "name": "txID",
              "type": "bytes32"
            }
          ],
          "internalType": "struct MinipoolManager.Minipool[]",
          "name": "minipools",
          "type": "tuple[]"
        }
      ],
      "stateMutability": "view",
      "type": "function"
    },
    {
      "inputs": [
        {
          "internalType": "string",
          "name": "_contractName",
          "type": "string"
        }
      ],
      "name": "getPublicContractAddress",
      "outputs": [
        {
          "internalType": "address",
          "name": "",
          "type": "address"
        }
      ],
      "stateMutability": "view",
      "type": "function"
    },
    {
      "inputs": [
        {
          "internalType": "bytes32",
          "name": "settingNameSpace",
          "type": "bytes32"
        },
        {
          "internalType": "string",
          "name": "_settingPath",
          "type": "string"
        }
      ],
      "name": "getSettingAddress",
      "outputs": [
        {
          "internalType": "address",
          "name": "",
          "type": "address"
        }
      ],
      "stateMutability": "view",
      "type": "function"
    },
    {
      "inputs": [
        {
          "internalType": "bytes32",
          "name": "settingNameSpace",
          "type": "bytes32"
        },
        {
          "internalType": "string",
          "name": "_settingPath",
          "type": "string"
        }
      ],
      "name": "getSettingBool",
      "outputs": [
        {
          "internalType": "bool",
          "name": "",
          "type": "bool"
        }
      ],
      "stateMutability": "view",
      "type": "function"
    },
    {
      "inputs": [
        {
          "internalType": "bytes32",
          "name": "settingNameSpace",
          "type": "bytes32"
        },
        {
          "internalType": "string",
          "name": "_settingPath",
          "type": "string"
        }
      ],
      "name": "getSettingUint",
      "outputs": [
        {
          "internalType": "uint256",
          "name": "",
          "type": "uint256"
        }
      ],
      "stateMutability": "view",
      "type": "function"
    },
    {
      "inputs": [],
      "name": "ggAVAX",
      "outputs": [
        {
          "internalType": "contract TokenggAVAX",
          "name": "",
          "type": "address"
        }
      ],
      "stateMutability": "view",
      "type": "function"
    },
    {
      "inputs": [],
      "name": "ggp",
      "outputs": [
        {
          "internalType": "contract ERC20",
          "name": "",
          "type": "address"
        }
      ],
      "stateMutability": "view",
      "type": "function"
    },
    {
      "inputs": [],
      "name": "receiveWithdrawalAVAX",
      "outputs": [],
      "stateMutability": "payable",
      "type": "function"
    },
    {
      "inputs": [
        {
          "internalType": "address",
          "name": "nodeID",
          "type": "address"
        },
        {
          "internalType": "uint256",
          "name": "endTime",
          "type": "uint256"
        },
        {
          "internalType": "uint256",
          "name": "avaxTotalRewardAmt",
          "type": "uint256"
        }
      ],
      "name": "recordStakingEnd",
      "outputs": [],
      "stateMutability": "payable",
      "type": "function"
    },
    {
      "inputs": [
        {
          "internalType": "address",
          "name": "nodeID",
          "type": "address"
        },
        {
          "internalType": "string",
          "name": "message",
          "type": "string"
        }
      ],
      "name": "recordStakingError",
      "outputs": [],
      "stateMutability": "nonpayable",
      "type": "function"
    },
    {
      "inputs": [
        {
          "internalType": "address",
          "name": "nodeID",
          "type": "address"
        },
        {
          "internalType": "bytes32",
          "name": "txID",
          "type": "bytes32"
        },
        {
          "internalType": "uint256",
          "name": "startTime",
          "type": "uint256"
        }
      ],
      "name": "recordStakingStart",
      "outputs": [],
      "stateMutability": "nonpayable",
      "type": "function"
    },
    {
      "inputs": [
        {
          "internalType": "address",
          "name": "nodeID",
          "type": "address"
        },
        {
          "internalType": "enum MinipoolStatus",
          "name": "status",
          "type": "uint8"
        }
      ],
      "name": "updateMinipoolStatus",
      "outputs": [],
      "stateMutability": "nonpayable",
      "type": "function"
    },
    {
      "inputs": [],
      "name": "version",
      "outputs": [
        {
          "internalType": "uint8",
          "name": "",
          "type": "uint8"
        }
      ],
      "stateMutability": "view",
      "type": "function"
    },
    {
      "inputs": [
        {
          "internalType": "address",
          "name": "nodeID",
          "type": "address"
        }
      ],
      "name": "withdrawMinipoolFunds",
      "outputs": [],
      "stateMutability": "nonpayable",
      "type": "function"
    }
  ],
  "bytecode": "0x610100604052686c6b935b8bbd40000060c0527fe675a52310cd568651491803fe5dccf5a3cb1afd2c9bec7092ea6592e5d5778c60e0523480156200004357600080fd5b5060405162003357380380620033578339810160408190526200006691620000b8565b6000805460ff196001600160a01b0395861661010002166001600160a81b03199091161760011790559082166080521660a0526200010c565b6001600160a01b0381168114620000b557600080fd5b50565b600080600060608486031215620000ce57600080fd5b8351620000db816200009f565b6020850151909350620000ee816200009f565b604085015190925062000101816200009f565b809150509250925092565b60805160a05160c05160e0516131af620001a8600039600061023301526000818161048b0152818161114a01528181611176015281816112ba01528181611dec0152611e180152600081816103d5015281816111e90152818161154e015281816116530152611e410152600081816104ff0152818161074a0152818161092201528181610a2201528181610b24015261250701526131af6000f3fe6080604052600436106101815760003560e01c80639cbed340116100d1578063e49e49bf1161008a578063f321df4911610064578063f321df49146104ed578063f4812b8814610521578063f4d70e7814610541578063ffe092411461027557600080fd5b8063e49e49bf14610479578063e92aa0ce146104ad578063ea3092d1146104cd57600080fd5b80639cbed340146103a3578063abd149dc146103c3578063ae4d0bed146103f7578063cff0b6481461040c578063d8ce16f41461042c578063de5a61e31461045957600080fd5b80633b5ecefa1161013e578063809784c511610118578063809784c5146103235780638e481d6014610343578063934857bb146103565780639a3070a01461038357600080fd5b80633b5ecefa1461028a57806354fd4d50146102d757806362b0c29f1461030357600080fd5b8063017df5221461018657806306eaa68b146101b9578063232de716146101f157806328b105fd146102215780632f1fbf9b14610255578063356ff5a514610277575b600080fd5b34801561019257600080fd5b506101a66101a1366004612776565b610561565b6040519081526020015b60405180910390f35b3480156101c557600080fd5b506101d96101d4366004612836565b6105a4565b6040516001600160a01b0390911681526020016101b0565b3480156101fd57600080fd5b5061021161020c366004612836565b6105de565b60405190151581526020016101b0565b34801561022d57600080fd5b506101a67f000000000000000000000000000000000000000000000000000000000000000081565b34801561026157600080fd5b50610275610270366004612776565b610611565b005b61027561028536600461287d565b6108d0565b34801561029657600080fd5b506102aa6102a53660046128b8565b610fc2565b604080519687526020870195909552938501929092526060840152608083015260a082015260c0016101b0565b3480156102e357600080fd5b506000546102f19060ff1681565b60405160ff90911681526020016101b0565b34801561030f57600080fd5b5061027561031e3660046128da565b505050565b34801561032f57600080fd5b5061027561033e366004612776565b6110ed565b61027561035136600461295f565b611362565b34801561036257600080fd5b506103766103713660046129a8565b6117bc565b6040516101b09190612a92565b34801561038f57600080fd5b5061027561039e36600461295f565b6118db565b3480156103af57600080fd5b506102756103be366004612776565b611994565b3480156103cf57600080fd5b506101d97f000000000000000000000000000000000000000000000000000000000000000081565b34801561040357600080fd5b506101a6611a0b565b34801561041857600080fd5b506101d9610427366004612ae1565b611a29565b34801561043857600080fd5b5061044c610447366004612b16565b611a8d565b6040516101b09190612b2f565b34801561046557600080fd5b506101a66104743660046128b8565b611c7a565b34801561048557600080fd5b506101a67f000000000000000000000000000000000000000000000000000000000000000081565b3480156104b957600080fd5b506102756104c8366004612b3e565b611d50565b3480156104d957600080fd5b506102116104e8366004612776565b611db8565b3480156104f957600080fd5b506101d97f000000000000000000000000000000000000000000000000000000000000000081565b34801561052d57600080fd5b506101a661053c366004612b16565b611ede565b34801561054d57600080fd5b506101a661055c366004612836565b611f95565b60006001610594836040516020016105799190612b73565b60405160208183030381529060405280519060200120611fad565b61059e9190612bbd565b92915050565b60006105d783836040516020016105bc929190612c37565b60405160208183030381529060405280519060200120612020565b9392505050565b60006105d783836040516020016105f6929190612c37565b60405160208183030381529060405280519060200120612092565b600061061c82610561565b9050801961063d5760405163d2fc63e360e01b815260040160405180910390fd5b6000610653826040516020016105bc9190612c49565b9050336001600160a01b0382161461067e576040516347418db160e01b815260040160405180910390fd5b610689826004612104565b6106bd8260405160200161069d9190612c79565b60408051601f19818403018152919052805160209091012060045b612267565b60006106e56040518060400160405280600581526020016415985d5b1d60da1b815250611a29565b905060006106fd846040516020016105799190612cc0565b90506000610715856040516020016105799190612cf5565b905060006107238284612d2b565b905080156107b6576040516301e3366760e01b81526001600160a01b0386811660048301527f000000000000000000000000000000000000000000000000000000000000000081166024830152604482018390528516906301e3366790606401600060405180830381600087803b15801561079d57600080fd5b505af11580156107b1573d6000803e3d6000fd5b505050505b60006107cc876040516020016105799190612d42565b905060006107e4886040516020016105799190612d7a565b905060006107f28284612db8565b60405163075c6c4b60e11b8152600481018290529091506001600160a01b03881690630eb8d89690602401600060405180830381600087803b15801561083757600080fd5b505af115801561084b573d6000803e3d6000fd5b505050506000886001600160a01b03168260405160006040518083038185875af1925050503d806000811461089c576040519150601f19603f3d011682016040523d82523d6000602084013e6108a1565b606091505b50509050806108c357604051639d60fd7560e01b815260040160405180910390fd5b5050505050505050505050565b60006108f86040518060400160405280600581526020016415985d5b1d60da1b815250611a29565b90508115610b90576040516323b872dd60e01b8152336004820152306024820152604481018390527f00000000000000000000000000000000000000000000000000000000000000006001600160a01b0316906323b872dd906064016020604051808303816000875af1158015610973573d6000803e3d6000fd5b505050506040513d601f19601f820116820180604052508101906109979190612dd0565b6109fc5760405162461bcd60e51b815260206004820152602b60248201527f436f756c64206e6f74207472616e736665722047475020746f204d696e69506f60448201526a1bdb0818dbdb9d1c9858dd60aa1b60648201526084015b60405180910390fd5b60405163095ea7b360e01b81526001600160a01b038281166004830152602482018490527f0000000000000000000000000000000000000000000000000000000000000000169063095ea7b3906044016020604051808303816000875af1158015610a6b573d6000803e3d6000fd5b505050506040513d601f19601f82011682018060405250810190610a8f9190612dd0565b610ae75760405162461bcd60e51b815260206004820152602360248201527f436f756c64206e6f7420617070726f7665207661756c7420474750206465706f6044820152621cda5d60ea1b60648201526084016109f3565b604051631e88852b60e31b815260606004820152600f60648201526e26b4b734b837b7b626b0b730b3b2b960891b60848201526001600160a01b037f0000000000000000000000000000000000000000000000000000000000000000811660248301526044820184905282169063f44429589060a401600060405180830381600087803b158015610b7757600080fd5b505af1158015610b8b573d6000803e3d6000fd5b505050505b806001600160a01b03166324056867346040518263ffffffff1660e01b81526004016000604051808303818588803b158015610bcb57600080fd5b505af1158015610bdf573d6000803e3d6000fd5b50505050506000610bef86610561565b90508060001914610ce657610c05816000612104565b610c3881604051602001610c199190612df2565b604051602081830303815290604052805190602001206000801b6122cd565b610c6981604051602001610c4c9190612e21565b604051602081830303815290604052805190602001206000612267565b610c7d81604051602001610c4c9190612e55565b610c9181604051602001610c4c9190612e87565b610ca581604051602001610c4c9190612ebd565b610cb981604051602001610c4c9190612d7a565b610ccd81604051602001610c4c9190612efa565b610ce181604051602001610c4c9190612cf5565b610d00565b610cfd60008051602061313a833981519152611fad565b90505b6000610d326040518060400160405280600f81526020016e26bab63a34b9b4b3a6b0b730b3b2b960891b815250611a29565b90506000816001600160a01b031663867533e66040518163ffffffff1660e01b8152600401602060405180830381865afa158015610d74573d6000803e3d6000fd5b505050506040513d601f19601f82011682018060405250810190610d989190612f36565b90506001600160a01b038116610dc15760405163c2bd570760e01b815260040160405180910390fd5b610df183604051602001610dd59190612f53565b6040516020818303038152906040528051906020012089612309565b610e2483604051602001610e059190612c79565b60408051601f1981840301815291905280516020909101206000612267565b610e5483604051602001610e389190612f84565b6040516020818303038152906040528051906020012088612267565b610e8483604051602001610e689190612fb7565b6040516020818303038152906040528051906020012082612309565b610eb483604051602001610e989190612c49565b6040516020818303038152906040528051906020012033612309565b610ee483604051602001610ec89190612d42565b6040516020818303038152906040528051906020012034612267565b610f1483604051602001610ef89190612fee565b6040516020818303038152906040528051906020012087612267565b610f4483604051602001610f289190612cc0565b6040516020818303038152906040528051906020012086612267565b610f7b88604051602001610f589190612b73565b604051602081830303815290604052805190602001208460016106b89190613026565b610f9460008051602061313a8339815191526001612348565b60006040516001600160a01b038a169060008051602061315a83398151915290600090a35050505050505050565b6000806000806000806000610fe460008051602061313a833981519152611fad565b90506000610ff2898b612db8565b905081811180611000575088155b156110085750805b895b818110156110e057600061101d82611a8d565b602081015190915061103b578961103381613067565b9a50506110cd565b6001816020015103611059578861105181613067565b9950506110cd565b6002816020015103611077578761106f81613067565b9850506110cd565b6003816020015103611095578661108d81613067565b9750506110cd565b60048160200151036110b357856110ab81613067565b9650506110cd565b60058160200151036110cd57846110c981613067565b9550505b50806110d881613067565b91505061100a565b5050509295509295509295565b60006110f882612384565b9050611105816001612104565b600061112d6040518060400160405280600581526020016415985d5b1d60da1b815250611a29565b9050600080611146846040516020016105799190612d42565b90507f000000000000000000000000000000000000000000000000000000000000000081101561119d5761119a817f0000000000000000000000000000000000000000000000000000000000000000612d2b565b91505b811561124e576111d3846040516020016111b79190612e87565b6040516020818303038152906040528051906020012083612267565b60405163efe441d960e01b8152600481018390527f00000000000000000000000000000000000000000000000000000000000000006001600160a01b03169063efe441d990602401600060405180830381600087803b15801561123557600080fd5b505af1158015611249573d6000803e3d6000fd5b505050505b60405163075c6c4b60e11b8152600481018290526001600160a01b03841690630eb8d89690602401600060405180830381600087803b15801561129057600080fd5b505af11580156112a4573d6000803e3d6000fd5b50505050600082826112b69190612db8565b90507f00000000000000000000000000000000000000000000000000000000000000008110156112f95760405163074bb7f760e21b815260040160405180910390fd5b61132c8560405160200161130d9190612c79565b60408051601f1981840301815291905280516020909101206001612267565b60016040516001600160a01b0388169060008051602061315a83398151915290600090a361135a33826123f9565b505050505050565b600061138a6040518060400160405280600581526020016415985d5b1d60da1b815250611a29565b9050600061139785612384565b90506113a4816003612104565b60006113ba826040516020016105799190612e21565b905080851115806113ca57504285115b156113e8576040516338af65f760e01b815260040160405180910390fd5b60006113fe836040516020016105799190612d42565b90506000611416846040516020016105799190612e87565b905060006114248284612db8565b90506114308782612db8565b341461144f5760405163162908e360e11b815260040160405180910390fd5b611482856040516020016114639190612c79565b60408051601f1981840301815291905280516020909101206003612267565b6114b2856040516020016114969190612e55565b6040516020818303038152906040528051906020012089612267565b6114c685604051602001610e389190612ebd565b866000036116105760006114e4866040516020016105799190612f84565b905060006114f28285611c7a565b905060006114ff82611ede565b9050611531886040516020016115159190612cf5565b6040516020818303038152906040528051906020012082612267565b604051630e0f72f160e21b815260048101869052600060248201527f00000000000000000000000000000000000000000000000000000000000000006001600160a01b03169063383dcbc49087906044016000604051808303818588803b15801561159b57600080fd5b505af11580156115af573d6000803e3d6000fd5b5050505050886001600160a01b03166324056867876040518263ffffffff1660e01b81526004016000604051808303818588803b1580156115ef57600080fd5b505af1158015611603573d6000803e3d6000fd5b505050505050505061178d565b60008083156116da5761162460028a613080565b9050606461163382600f6130a2565b61163d9190613080565b6116479082612d2b565b91506001600160a01b037f00000000000000000000000000000000000000000000000000000000000000001663383dcbc46116828487612db8565b6040516001600160e01b031960e084901b16815260048101889052602481018690526044016000604051808303818588803b1580156116c057600080fd5b505af11580156116d4573d6000803e3d6000fd5b50505050505b60006116e6838b612d2b565b90506116fc886040516020016115159190612d7a565b61172c886040516020016117109190612efa565b6040516020818303038152906040528051906020012084612267565b6001600160a01b03891663240568676117458389612db8565b6040518263ffffffff1660e01b81526004016000604051808303818588803b15801561177057600080fd5b505af1158015611784573d6000803e3d6000fd5b50505050505050505b60036040516001600160a01b038b169060008051602061315a83398151915290600090a3505050505050505050565b606060006117d760008051602061313a833981519152611fad565b905060006117e58486612db8565b9050818111806117f3575083155b156117fb5750805b6118058582612d2b565b67ffffffffffffffff81111561181d5761181d612793565b60405190808252806020026020018201604052801561185657816020015b6118436126c3565b81526020019060019003908161183b5790505b5092506000855b828110156118ce57600061187082611a8d565b905088600681111561188457611884612caa565b8160200151036118bb57808684815181106118a1576118a16130c1565b602002602001018190525082806118b790613067565b9350505b50806118c681613067565b91505061185d565b5083525090949350505050565b60006118e684612384565b90506118f3816002612104565b611926816040516020016119079190612c79565b60408051601f1981840301815291905280516020909101206002612267565b6119568160405160200161193a9190612df2565b60405160208183030381529060405280519060200120846122cd565b61196a816040516020016111b79190612e21565b60026040516001600160a01b0386169060008051602061315a83398151915290600090a350505050565b600061199f82610561565b905080196119c05760405163d2fc63e360e01b815260040160405180910390fd5b60006119d6826040516020016105bc9190612c49565b9050336001600160a01b03821614611a015760405163112dcfdd60e31b815260040160405180910390fd5b61031e838361244a565b6000611a2460008051602061313a833981519152611fad565b905090565b600080611a40836040516020016105bc91906130d7565b90506001600160a01b03811661059e5760405162461bcd60e51b815260206004820152601260248201527110dbdb9d1c9858dd081b9bdd08199bdd5b9960721b60448201526064016109f3565b611a956126c3565b611aa9826040516020016105bc9190612f53565b6001600160a01b03168152604051611ac990610579908490602001612c79565b816020018181525050611ae6826040516020016105799190612f84565b816040018181525050611b1e82604051602001611b039190612df2565b6040516020818303038152906040528051906020012061268d565b6101e0820152604051611b3990610579908490602001612e21565b6060820152604051611b5390610579908490602001612e55565b6080820152604051611b6d90610579908490602001612fee565b60a0820152604051611b8790610579908490602001612cc0565b60c0820152604051611ba190610579908490602001612cf5565b60e0820152604051611bbb90610579908490602001612d42565b610100820152604051611bd690610579908490602001612e87565b610120820152604051611bf190610579908490602001612ebd565b610140820152604051611c0c90610579908490602001612d7a565b610160820152604051611c2790610579908490602001612efa565b610180820152604051611c42906105bc908490602001612fb7565b6001600160a01b03166101c0820152604051611c66906105bc908490602001612c49565b6001600160a01b03166101a0820152919050565b600080611ca96040518060400160405280600b81526020016a50726f746f636f6c44414f60a81b815250611a29565b90506000816001600160a01b0316634712a1436040518163ffffffff1660e01b8152600401602060405180830381865afa158015611ceb573d6000803e3d6000fd5b505050506040513d601f19601f82011682018060405250810190611d0f91906130fc565b9050670de0b6b3a76400006301e13380611d2983886130a2565b611d339190613080565b611d3d90866130a2565b611d479190613080565b95945050505050565b6000611d5b83610561565b90508019611d7c5760405163d2fc63e360e01b815260040160405180910390fd5b61031e81604051602001611d909190612c79565b604051602081830303815290604052805190602001208360068111156106b8576106b8612caa565b600080611dc483612384565b9050611dd1816001612104565b600080611de8836040516020016105799190612d42565b90507f0000000000000000000000000000000000000000000000000000000000000000811015611e3f57611e3c817f0000000000000000000000000000000000000000000000000000000000000000612d2b565b91505b7f00000000000000000000000000000000000000000000000000000000000000006001600160a01b031663be13733c6040518163ffffffff1660e01b8152600401602060405180830381865afa158015611e9d573d6000803e3d6000fd5b505050506040513d601f19601f82011682018060405250810190611ec191906130fc565b821115611ed357506000949350505050565b506001949350505050565b600080611f08604051806040016040528060068152602001654f7261636c6560d01b815250611a29565b90506000816001600160a01b031663bece349b6040518163ffffffff1660e01b81526004016040805180830381865afa158015611f49573d6000803e3d6000fd5b505050506040513d601f19601f82011682018060405250810190611f6d9190613115565b50905080611f8385670de0b6b3a76400006130a2565b611f8d9190613080565b949350505050565b60006105d78383604051602001610579929190612c37565b6000805460405163bd02d0f560e01b8152600481018490526101009091046001600160a01b03169063bd02d0f5906024015b602060405180830381865afa158015611ffc573d6000803e3d6000fd5b505050506040513d601f19601f8201168201806040525081019061059e91906130fc565b600080546040516321f8a72160e01b8152600481018490526101009091046001600160a01b0316906321f8a72190602401602060405180830381865afa15801561206e573d6000803e3d6000fd5b505050506040513d601f19601f8201168201806040525081019061059e9190612f36565b60008054604051633d70e7e560e11b8152600481018490526101009091046001600160a01b031690637ae1cfca90602401602060405180830381865afa1580156120e0573d6000803e3d6000fd5b505050506040513d601f19601f8201168201806040525081019061059e9190612dd0565b6000826040516020016121179190612c79565b604051602081830303815290604052805190602001209050600061213a82611fad565b600681111561214b5761214b612caa565b905060008082600681111561216257612162612caa565b036121a15760015b84600681111561217c5761217c612caa565b148061219a575060055b84600681111561219857612198612caa565b145b9050612242565b60018260068111156121b5576121b5612caa565b036121c157600261216a565b60028260068111156121d5576121d5612caa565b036121e1576003612186565b60038260068111156121f5576121f5612caa565b03612201576004612186565b600482600681111561221557612215612caa565b14806122325750600582600681111561223057612230612caa565b145b1561223e576000612186565b5060005b80612260576040516323e69e0360e21b815260040160405180910390fd5b5050505050565b600054604051637152429d60e11b815260048101849052602481018390526101009091046001600160a01b03169063e2a4853a906044015b600060405180830381600087803b1580156122b957600080fd5b505af115801561135a573d6000803e3d6000fd5b6000546040516309d23b6160e31b815260048101849052602481018390526101009091046001600160a01b031690634e91db089060440161229f565b60005460405163ca446dd960e01b8152600481018490526001600160a01b0383811660248301526101009092049091169063ca446dd99060440161229f565b600054604051632b6cd4f760e21b815260048101849052602481018390526101009091046001600160a01b03169063adb353dc9060440161229f565b60008061239083610561565b905080196123b15760405163d2fc63e360e01b815260040160405180910390fd5b60006123c7826040516020016105bc9190612fb7565b9050336001600160a01b038216146123f25760405163c2bd570760e01b815260040160405180910390fd5b5092915050565b600080600080600085875af190508061031e5760405162461bcd60e51b815260206004820152601360248201527211551217d514905394d1915497d19052531151606a1b60448201526064016109f3565b612455816005612104565b612488816040516020016124699190612c79565b60408051601f1981840301815291905280516020909101206005612267565b60006124b06040518060400160405280600581526020016415985d5b1d60da1b815250611a29565b905060006124c8836040516020016105bc9190612c49565b905060006124e0846040516020016105799190612cc0565b90508015612573576040516301e3366760e01b81526001600160a01b0383811660048301527f000000000000000000000000000000000000000000000000000000000000000081166024830152604482018390528416906301e3366790606401600060405180830381600087803b15801561255a57600080fd5b505af115801561256e573d6000803e3d6000fd5b505050505b6000612589856040516020016105799190612d42565b905080156126615760405163075c6c4b60e11b8152600481018290526001600160a01b03851690630eb8d89690602401600060405180830381600087803b1580156125d357600080fd5b505af11580156125e7573d6000803e3d6000fd5b505050506000836001600160a01b03168260405160006040518083038185875af1925050503d8060008114612638576040519150601f19603f3d011682016040523d82523d6000602084013e61263d565b606091505b505090508061265f57604051639d60fd7560e01b815260040160405180910390fd5b505b60056040516001600160a01b0388169060008051602061315a83398151915290600090a3505050505050565b60008054604051635376ab1f60e11b8152600481018490526101009091046001600160a01b03169063a6ed563e90602401611fdf565b60405180610200016040528060006001600160a01b0316815260200160008152602001600081526020016000815260200160008152602001600081526020016000815260200160008152602001600081526020016000815260200160008152602001600081526020016000815260200160006001600160a01b0316815260200160006001600160a01b03168152602001600080191681525090565b6001600160a01b038116811461277357600080fd5b50565b60006020828403121561278857600080fd5b81356105d78161275e565b634e487b7160e01b600052604160045260246000fd5b600082601f8301126127ba57600080fd5b813567ffffffffffffffff808211156127d5576127d5612793565b604051601f8301601f19908116603f011681019082821181831017156127fd576127fd612793565b8160405283815286602085880101111561281657600080fd5b836020870160208301376000602085830101528094505050505092915050565b6000806040838503121561284957600080fd5b82359150602083013567ffffffffffffffff81111561286757600080fd5b612873858286016127a9565b9150509250929050565b6000806000806080858703121561289357600080fd5b843561289e8161275e565b966020860135965060408601359560600135945092505050565b600080604083850312156128cb57600080fd5b50508035926020909101359150565b6000806000604084860312156128ef57600080fd5b83356128fa8161275e565b9250602084013567ffffffffffffffff8082111561291757600080fd5b818601915086601f83011261292b57600080fd5b81358181111561293a57600080fd5b87602082850101111561294c57600080fd5b6020830194508093505050509250925092565b60008060006060848603121561297457600080fd5b833561297f8161275e565b95602085013595506040909401359392505050565b8035600781106129a357600080fd5b919050565b6000806000606084860312156129bd57600080fd5b61297f84612994565b80516001600160a01b031682526020810151602083015260408101516040830152606081015160608301526080810151608083015260a081015160a083015260c081015160c083015260e081015160e08301526101008082015181840152506101208082015181840152506101408082015181840152506101608082015181840152506101808082015181840152506101a080820151612a70828501826001600160a01b03169052565b50506101c0818101516001600160a01b0316908301526101e090810151910152565b6020808252825182820181905260009190848201906040850190845b81811015612ad557612ac18385516129c6565b928401926102009290920191600101612aae565b50909695505050505050565b600060208284031215612af357600080fd5b813567ffffffffffffffff811115612b0a57600080fd5b611f8d848285016127a9565b600060208284031215612b2857600080fd5b5035919050565b610200810161059e82846129c6565b60008060408385031215612b5157600080fd5b8235612b5c8161275e565b9150612b6a60208401612994565b90509250929050565b6d0dad2dcd2e0deded85cd2dcc8caf60931b815260609190911b6bffffffffffffffffffffffff1916600e82015260220190565b634e487b7160e01b600052601160045260246000fd5b60008083128015600160ff1b850184121615612bdb57612bdb612ba7565b6001600160ff1b0384018313811615612bf657612bf6612ba7565b50500390565b6000815160005b81811015612c1d5760208185018101518683015201612c03565b81811115612c2c576000828601525b509290920192915050565b8281526000611f8d6020830184612bfc565b6c6d696e69706f6f6c2e6974656d60981b8152600d810191909152651737bbb732b960d11b602d82015260330190565b6c6d696e69706f6f6c2e6974656d60981b8152600d810191909152662e73746174757360c81b602d82015260340190565b634e487b7160e01b600052602160045260246000fd5b6c6d696e69706f6f6c2e6974656d60981b8152600d8101919091526a0b99d9dc109bdb99105b5d60aa1b602d82015260380190565b6c6d696e69706f6f6c2e6974656d60981b8152600d8101919091526b0b99d9dc14db185cda105b5d60a21b602d82015260390190565b600082821015612d3d57612d3d612ba7565b500390565b6c6d696e69706f6f6c2e6974656d60981b8152600d8101919091526d0b985d985e139bd91953dc105b5d60921b602d820152603b0190565b6c6d696e69706f6f6c2e6974656d60981b8152600d810191909152730b985d985e139bd91953dc14995dd85c99105b5d60621b602d82015260410190565b60008219821115612dcb57612dcb612ba7565b500190565b600060208284031215612de257600080fd5b815180151581146105d757600080fd5b6c6d696e69706f6f6c2e6974656d60981b8152600d810191909152640b9d1e125160da1b602d82015260320190565b6c6d696e69706f6f6c2e6974656d60981b8152600d810191909152692e737461727454696d6560b01b602d82015260370190565b6c6d696e69706f6f6c2e6974656d60981b8152600d810191909152672e656e6454696d6560c01b602d82015260350190565b6c6d696e69706f6f6c2e6974656d60981b8152600d8101919091526b0b985d985e155cd95c905b5d60a21b602d82015260390190565b6c6d696e69706f6f6c2e6974656d60981b8152600d810191909152720b985d985e151bdd185b14995dd85c99105b5d606a1b602d82015260400190565b6c6d696e69706f6f6c2e6974656d60981b8152600d810191909152710b985d985e155cd95c94995dd85c99105b5d60721b602d820152603f0190565b600060208284031215612f4857600080fd5b81516105d78161275e565b6c6d696e69706f6f6c2e6974656d60981b8152600d810191909152660b9b9bd919525160ca1b602d82015260340190565b6c6d696e69706f6f6c2e6974656d60981b8152600d8101919091526817323ab930ba34b7b760b91b602d82015260360190565b6c6d696e69706f6f6c2e6974656d60981b8152600d8101919091526c1736bab63a34b9b4b3a0b2323960991b602d820152603a0190565b6c6d696e69706f6f6c2e6974656d60981b8152600d8101919091526d2e64656c65676174696f6e46656560901b602d820152603b0190565b600080821280156001600160ff1b038490038513161561304857613048612ba7565b600160ff1b839003841281161561306157613061612ba7565b50500190565b60006001820161307957613079612ba7565b5060010190565b60008261309d57634e487b7160e01b600052601260045260246000fd5b500490565b60008160001904831182151516156130bc576130bc612ba7565b500290565b634e487b7160e01b600052603260045260246000fd5b6f636f6e74726163742e6164647265737360801b815260006105d76010830184612bfc565b60006020828403121561310e57600080fd5b5051919050565b6000806040838503121561312857600080fd5b50508051602090910151909290915056fee0350abf7e528889b5822fca885fa12de74628619c3752923dd9ec3ce44e4602c9c043637725967252aedd2704cc65fee962e7b8a1e3cf8098587a66601e50c5a26469706673582212201e4b668fd5f143e3f18fb59c0d5f9b07a6c456e77a0e440cd54521824f14348864736f6c634300080d0033",
  "linkReferences": {},
  "deployedLinkReferences": {}
}