{
  "_format": "hh-sol-artifact-1",
  "contractName": "MinipoolManager",
  "sourceName": "contracts/contract/MinipoolManager.sol",
  "abi": [
    {
      "inputs": [
        {
          "internalType": "contract Storage",
          "name": "storageAddress",
          "type": "address"
        },
        {
          "internalType": "contract ERC20",
          "name": "ggp_",
          "type": "address"
        },
        {
          "internalType": "contract TokenggAVAX",
          "name": "ggAVAX_",
          "type": "address"
        }
      ],
      "stateMutability": "nonpayable",
      "type": "constructor"
    },
    {
      "inputs": [],
      "name": "ErrorIssuingValidationTx",
      "type": "error"
    },
    {
      "inputs": [],
      "name": "ErrorSendingAvax",
      "type": "error"
    },
    {
      "inputs": [],
      "name": "InsufficientAvaxForStaking",
      "type": "error"
    },
    {
      "inputs": [],
      "name": "InsufficientAvaxVaultBalance",
      "type": "error"
    },
    {
      "inputs": [],
      "name": "InvalidAmount",
      "type": "error"
    },
    {
      "inputs": [],
      "name": "InvalidEndTime",
      "type": "error"
    },
    {
      "inputs": [],
      "name": "InvalidMultisigAddress",
      "type": "error"
    },
    {
      "inputs": [],
      "name": "InvalidMultisigSignature",
      "type": "error"
    },
    {
      "inputs": [],
      "name": "InvalidStateTransition",
      "type": "error"
    },
    {
      "inputs": [],
      "name": "MinipoolAlreadyRegistered",
      "type": "error"
    },
    {
      "inputs": [],
      "name": "MinipoolMustBeInitialised",
      "type": "error"
    },
    {
      "inputs": [],
      "name": "MinipoolNotFound",
      "type": "error"
    },
    {
      "inputs": [],
      "name": "OnlyOwnerCanCancel",
      "type": "error"
    },
    {
      "inputs": [],
      "name": "OnlyOwnerCanWithdraw",
      "type": "error"
    },
    {
      "anonymous": false,
      "inputs": [
        {
          "indexed": true,
          "internalType": "address",
          "name": "nodeID",
          "type": "address"
        },
        {
          "indexed": true,
          "internalType": "enum MinipoolStatus",
          "name": "status",
          "type": "uint8"
        }
      ],
      "name": "MinipoolStatusChanged",
      "type": "event"
    },
    {
      "anonymous": false,
      "inputs": [
        {
          "indexed": true,
          "internalType": "address",
          "name": "nodeID",
          "type": "address"
        }
      ],
      "name": "ZeroRewardsReceived",
      "type": "event"
    },
    {
      "inputs": [],
      "name": "MINIPOOL_QUEUE_KEY",
      "outputs": [
        {
          "internalType": "bytes32",
          "name": "",
          "type": "bytes32"
        }
      ],
      "stateMutability": "view",
      "type": "function"
    },
    {
      "inputs": [],
      "name": "MIN_STAKING_AMT",
      "outputs": [
        {
          "internalType": "uint256",
          "name": "",
          "type": "uint256"
        }
      ],
      "stateMutability": "view",
      "type": "function"
    },
    {
      "inputs": [
        {
          "internalType": "uint256",
          "name": "avaxRewardAmt",
          "type": "uint256"
        }
      ],
      "name": "calculateSlashAmt",
      "outputs": [
        {
          "internalType": "uint256",
          "name": "",
          "type": "uint256"
        }
      ],
      "stateMutability": "view",
      "type": "function"
    },
    {
      "inputs": [
        {
          "internalType": "address",
          "name": "nodeID",
          "type": "address"
        }
      ],
      "name": "canClaimAndInitiateStaking",
      "outputs": [
        {
          "internalType": "bool",
          "name": "",
          "type": "bool"
        }
      ],
      "stateMutability": "view",
      "type": "function"
    },
    {
      "inputs": [
        {
          "internalType": "address",
          "name": "nodeID",
          "type": "address"
        }
      ],
      "name": "cancelMinipool",
      "outputs": [],
      "stateMutability": "nonpayable",
      "type": "function"
    },
    {
      "inputs": [
        {
          "internalType": "address",
          "name": "nodeID",
          "type": "address"
        }
      ],
      "name": "claimAndInitiateStaking",
      "outputs": [],
      "stateMutability": "nonpayable",
      "type": "function"
    },
    {
      "inputs": [
        {
          "internalType": "address",
          "name": "nodeID",
          "type": "address"
        },
        {
          "internalType": "uint256",
          "name": "duration",
          "type": "uint256"
        },
        {
          "internalType": "uint256",
          "name": "delegationFee",
          "type": "uint256"
        },
        {
          "internalType": "uint256",
          "name": "ggpBondAmt",
          "type": "uint256"
        }
      ],
      "name": "createMinipool",
      "outputs": [],
      "stateMutability": "payable",
      "type": "function"
    },
    {
      "inputs": [
        {
          "internalType": "uint256",
          "name": "duration",
          "type": "uint256"
        },
        {
          "internalType": "uint256",
          "name": "avaxAmt",
          "type": "uint256"
        }
      ],
      "name": "expectedRewardAmt",
      "outputs": [
        {
          "internalType": "uint256",
          "name": "",
          "type": "uint256"
        }
      ],
      "stateMutability": "view",
      "type": "function"
    },
    {
      "inputs": [
        {
          "internalType": "address",
          "name": "nodeID",
          "type": "address"
        }
      ],
      "name": "getIndexOf",
      "outputs": [
        {
          "internalType": "int256",
          "name": "",
          "type": "int256"
        }
      ],
      "stateMutability": "view",
      "type": "function"
    },
    {
      "inputs": [
        {
          "internalType": "int256",
          "name": "index",
          "type": "int256"
        }
      ],
      "name": "getMinipool",
      "outputs": [
        {
          "components": [
            {
              "internalType": "address",
              "name": "nodeID",
              "type": "address"
            },
            {
              "internalType": "uint256",
              "name": "status",
              "type": "uint256"
            },
            {
              "internalType": "uint256",
              "name": "duration",
              "type": "uint256"
            },
            {
              "internalType": "uint256",
              "name": "startTime",
              "type": "uint256"
            },
            {
              "internalType": "uint256",
              "name": "endTime",
              "type": "uint256"
            },
            {
              "internalType": "uint256",
              "name": "delegationFee",
              "type": "uint256"
            },
            {
              "internalType": "uint256",
              "name": "ggpBondAmt",
              "type": "uint256"
            },
            {
              "internalType": "uint256",
              "name": "ggpSlashAmt",
              "type": "uint256"
            },
            {
              "internalType": "uint256",
              "name": "avaxNodeOpAmt",
              "type": "uint256"
            },
            {
              "internalType": "uint256",
              "name": "avaxUserAmt",
              "type": "uint256"
            },
            {
              "internalType": "uint256",
              "name": "avaxTotalRewardAmt",
              "type": "uint256"
            },
            {
              "internalType": "uint256",
              "name": "avaxNodeOpRewardAmt",
              "type": "uint256"
            },
            {
              "internalType": "uint256",
              "name": "avaxUserRewardAmt",
              "type": "uint256"
            },
            {
              "internalType": "address",
              "name": "owner",
              "type": "address"
            },
            {
              "internalType": "address",
              "name": "multisigAddr",
              "type": "address"
            }
          ],
          "internalType": "struct MinipoolManager.Minipool",
          "name": "mp",
          "type": "tuple"
        }
      ],
      "stateMutability": "view",
      "type": "function"
    },
    {
      "inputs": [],
      "name": "getMinipoolCount",
      "outputs": [
        {
          "internalType": "uint256",
          "name": "",
          "type": "uint256"
        }
      ],
      "stateMutability": "view",
      "type": "function"
    },
    {
      "inputs": [
        {
          "internalType": "uint256",
          "name": "offset",
          "type": "uint256"
        },
        {
          "internalType": "uint256",
          "name": "limit",
          "type": "uint256"
        }
      ],
      "name": "getMinipoolCountPerStatus",
      "outputs": [
        {
          "internalType": "uint256",
          "name": "prelaunchCount",
          "type": "uint256"
        },
        {
          "internalType": "uint256",
          "name": "launchedCount",
          "type": "uint256"
        },
        {
          "internalType": "uint256",
          "name": "stakingCount",
          "type": "uint256"
        },
        {
          "internalType": "uint256",
          "name": "withdrawableCount",
          "type": "uint256"
        },
        {
          "internalType": "uint256",
          "name": "finishedCount",
          "type": "uint256"
        },
        {
          "internalType": "uint256",
          "name": "canceledCount",
          "type": "uint256"
        }
      ],
      "stateMutability": "view",
      "type": "function"
    },
    {
      "inputs": [
        {
          "internalType": "enum MinipoolStatus",
          "name": "status",
          "type": "uint8"
        },
        {
          "internalType": "uint256",
          "name": "offset",
          "type": "uint256"
        },
        {
          "internalType": "uint256",
          "name": "limit",
          "type": "uint256"
        }
      ],
      "name": "getMinipools",
      "outputs": [
        {
          "components": [
            {
              "internalType": "address",
              "name": "nodeID",
              "type": "address"
            },
            {
              "internalType": "uint256",
              "name": "status",
              "type": "uint256"
            },
            {
              "internalType": "uint256",
              "name": "duration",
              "type": "uint256"
            },
            {
              "internalType": "uint256",
              "name": "startTime",
              "type": "uint256"
            },
            {
              "internalType": "uint256",
              "name": "endTime",
              "type": "uint256"
            },
            {
              "internalType": "uint256",
              "name": "delegationFee",
              "type": "uint256"
            },
            {
              "internalType": "uint256",
              "name": "ggpBondAmt",
              "type": "uint256"
            },
            {
              "internalType": "uint256",
              "name": "ggpSlashAmt",
              "type": "uint256"
            },
            {
              "internalType": "uint256",
              "name": "avaxNodeOpAmt",
              "type": "uint256"
            },
            {
              "internalType": "uint256",
              "name": "avaxUserAmt",
              "type": "uint256"
            },
            {
              "internalType": "uint256",
              "name": "avaxTotalRewardAmt",
              "type": "uint256"
            },
            {
              "internalType": "uint256",
              "name": "avaxNodeOpRewardAmt",
              "type": "uint256"
            },
            {
              "internalType": "uint256",
              "name": "avaxUserRewardAmt",
              "type": "uint256"
            },
            {
              "internalType": "address",
              "name": "owner",
              "type": "address"
            },
            {
              "internalType": "address",
              "name": "multisigAddr",
              "type": "address"
            }
          ],
          "internalType": "struct MinipoolManager.Minipool[]",
          "name": "minipools",
          "type": "tuple[]"
        }
      ],
      "stateMutability": "view",
      "type": "function"
    },
    {
      "inputs": [
        {
          "internalType": "string",
          "name": "_contractName",
          "type": "string"
        }
      ],
      "name": "getPublicContractAddress",
      "outputs": [
        {
          "internalType": "address",
          "name": "",
          "type": "address"
        }
      ],
      "stateMutability": "view",
      "type": "function"
    },
    {
      "inputs": [
        {
          "internalType": "bytes32",
          "name": "settingNameSpace",
          "type": "bytes32"
        },
        {
          "internalType": "string",
          "name": "_settingPath",
          "type": "string"
        }
      ],
      "name": "getSettingAddress",
      "outputs": [
        {
          "internalType": "address",
          "name": "",
          "type": "address"
        }
      ],
      "stateMutability": "view",
      "type": "function"
    },
    {
      "inputs": [
        {
          "internalType": "bytes32",
          "name": "settingNameSpace",
          "type": "bytes32"
        },
        {
          "internalType": "string",
          "name": "_settingPath",
          "type": "string"
        }
      ],
      "name": "getSettingBool",
      "outputs": [
        {
          "internalType": "bool",
          "name": "",
          "type": "bool"
        }
      ],
      "stateMutability": "view",
      "type": "function"
    },
    {
      "inputs": [
        {
          "internalType": "bytes32",
          "name": "settingNameSpace",
          "type": "bytes32"
        },
        {
          "internalType": "string",
          "name": "_settingPath",
          "type": "string"
        }
      ],
      "name": "getSettingUint",
      "outputs": [
        {
          "internalType": "uint256",
          "name": "",
          "type": "uint256"
        }
      ],
      "stateMutability": "view",
      "type": "function"
    },
    {
      "inputs": [],
      "name": "ggAVAX",
      "outputs": [
        {
          "internalType": "contract TokenggAVAX",
          "name": "",
          "type": "address"
        }
      ],
      "stateMutability": "view",
      "type": "function"
    },
    {
      "inputs": [],
      "name": "ggp",
      "outputs": [
        {
          "internalType": "contract ERC20",
          "name": "",
          "type": "address"
        }
      ],
      "stateMutability": "view",
      "type": "function"
    },
    {
      "inputs": [],
      "name": "receiveWithdrawalAVAX",
      "outputs": [],
      "stateMutability": "payable",
      "type": "function"
    },
    {
      "inputs": [
        {
          "internalType": "address",
          "name": "nodeID",
          "type": "address"
        },
        {
          "internalType": "uint256",
          "name": "endTime",
          "type": "uint256"
        },
        {
          "internalType": "uint256",
          "name": "avaxTotalRewardAmt",
          "type": "uint256"
        }
      ],
      "name": "recordStakingEnd",
      "outputs": [],
      "stateMutability": "payable",
      "type": "function"
    },
    {
      "inputs": [
        {
          "internalType": "address",
          "name": "nodeID",
          "type": "address"
        },
        {
          "internalType": "string",
          "name": "message",
          "type": "string"
        }
      ],
      "name": "recordStakingError",
      "outputs": [],
      "stateMutability": "nonpayable",
      "type": "function"
    },
    {
      "inputs": [
        {
          "internalType": "address",
          "name": "nodeID",
          "type": "address"
        },
        {
          "internalType": "uint256",
          "name": "startTime",
          "type": "uint256"
        }
      ],
      "name": "recordStakingStart",
      "outputs": [],
      "stateMutability": "nonpayable",
      "type": "function"
    },
    {
      "inputs": [
        {
          "internalType": "address",
          "name": "nodeID",
          "type": "address"
        },
        {
          "internalType": "enum MinipoolStatus",
          "name": "status",
          "type": "uint8"
        }
      ],
      "name": "updateMinipoolStatus",
      "outputs": [],
      "stateMutability": "nonpayable",
      "type": "function"
    },
    {
      "inputs": [],
      "name": "version",
      "outputs": [
        {
          "internalType": "uint8",
          "name": "",
          "type": "uint8"
        }
      ],
      "stateMutability": "view",
      "type": "function"
    },
    {
      "inputs": [
        {
          "internalType": "address",
          "name": "nodeID",
          "type": "address"
        }
      ],
      "name": "withdrawMinipoolFunds",
      "outputs": [],
      "stateMutability": "nonpayable",
      "type": "function"
    }
  ],
  "bytecode": "0x610100604052686c6b935b8bbd40000060c0527fe675a52310cd568651491803fe5dccf5a3cb1afd2c9bec7092ea6592e5d5778c60e0523480156200004357600080fd5b50604051620031f1380380620031f18339810160408190526200006691620000b8565b6000805460ff196001600160a01b0395861661010002166001600160a81b03199091161760011790559082166080521660a0526200010c565b6001600160a01b0381168114620000b557600080fd5b50565b600080600060608486031215620000ce57600080fd5b8351620000db816200009f565b6020850151909350620000ee816200009f565b604085015190925062000101816200009f565b809150509250925092565b60805160a05160c05160e051613049620001a8600039600061025501526000818161048b015281816111bb015281816111e70152818161130f01528181611d110152611d3d0152600081816103d50152818161123e015281816115a3015281816116840152611d660152600081816104ff015281816107ee015281816109c601528181610ac601528181610bc801526123ef01526130496000f3fe6080604052600436106101815760003560e01c80639cbed340116100d1578063e49e49bf1161008a578063f321df4911610064578063f321df49146104ed578063f4812b8814610521578063f4d70e7814610541578063ffe092411461021157600080fd5b8063e49e49bf14610479578063e92aa0ce146104ad578063ea3092d1146104cd57600080fd5b80639cbed340146103a3578063abd149dc146103c3578063ae4d0bed146103f7578063cff0b6481461040c578063d8ce16f41461042c578063de5a61e31461045957600080fd5b8063356ff5a51161013e57806362b0c29f1161011857806362b0c29f14610323578063809784c5146103435780638e481d6014610363578063934857bb1461037657600080fd5b8063356ff5a5146102975780633b5ecefa146102aa57806354fd4d50146102f757600080fd5b8063017df5221461018657806306eaa68b146101b957806319ef22b2146101f1578063232de7161461021357806328b105fd146102435780632f1fbf9b14610277575b600080fd5b34801561019257600080fd5b506101a66101a136600461261e565b610561565b6040519081526020015b60405180910390f35b3480156101c557600080fd5b506101d96101d43660046126de565b6105a4565b6040516001600160a01b0390911681526020016101b0565b3480156101fd57600080fd5b5061021161020c366004612725565b6105de565b005b34801561021f57600080fd5b5061023361022e3660046126de565b610683565b60405190151581526020016101b0565b34801561024f57600080fd5b506101a67f000000000000000000000000000000000000000000000000000000000000000081565b34801561028357600080fd5b5061021161029236600461261e565b6106b6565b6102116102a5366004612751565b610974565b3480156102b657600080fd5b506102ca6102c536600461278c565b611033565b604080519687526020870195909552938501929092526060840152608083015260a082015260c0016101b0565b34801561030357600080fd5b506000546103119060ff1681565b60405160ff90911681526020016101b0565b34801561032f57600080fd5b5061021161033e3660046127ae565b505050565b34801561034f57600080fd5b5061021161035e36600461261e565b61115e565b610211610371366004612833565b6113b7565b34801561038257600080fd5b5061039661039136600461287c565b6117d0565b6040516101b0919061295b565b3480156103af57600080fd5b506102116103be36600461261e565b6118ef565b3480156103cf57600080fd5b506101d97f000000000000000000000000000000000000000000000000000000000000000081565b34801561040357600080fd5b506101a6611966565b34801561041857600080fd5b506101d96104273660046129aa565b611984565b34801561043857600080fd5b5061044c6104473660046129df565b6119e8565b6040516101b091906129f8565b34801561046557600080fd5b506101a661047436600461278c565b611b9f565b34801561048557600080fd5b506101a67f000000000000000000000000000000000000000000000000000000000000000081565b3480156104b957600080fd5b506102116104c8366004612a07565b611c75565b3480156104d957600080fd5b506102336104e836600461261e565b611cdd565b3480156104f957600080fd5b506101d97f000000000000000000000000000000000000000000000000000000000000000081565b34801561052d57600080fd5b506101a661053c3660046129df565b611e03565b34801561054d57600080fd5b506101a661055c3660046126de565b611eba565b60006001610594836040516020016105799190612a3c565b60405160208183030381529060405280519060200120611ed2565b61059e9190612a86565b92915050565b60006105d783836040516020016105bc929190612b00565b60405160208183030381529060405280519060200120611f44565b9392505050565b60006105e983611fb6565b90506105f681600261202b565b61062a8160405160200161060a9190612b12565b60408051601f19818403018152919052805160209091012060025b61218e565b61065a8160405160200161063e9190612b59565b604051602081830303815290604052805190602001208361218e565b60026040516001600160a01b03851690600080516020612ff483398151915290600090a3505050565b60006105d7838360405160200161069b929190612b00565b604051602081830303815290604052805190602001206121f4565b60006106c182610561565b905080196106e25760405163d2fc63e360e01b815260040160405180910390fd5b60006106f8826040516020016105bc9190612b8d565b9050336001600160a01b03821614610723576040516347418db160e01b815260040160405180910390fd5b61072e82600461202b565b610761826040516020016107429190612b12565b60408051601f198184030181529190528051602090910120600461218e565b60006107896040518060400160405280600581526020016415985d5b1d60da1b815250611984565b905060006107a1846040516020016105799190612bbd565b905060006107b9856040516020016105799190612bf2565b905060006107c78284612c28565b9050801561085a576040516301e3366760e01b81526001600160a01b0386811660048301527f000000000000000000000000000000000000000000000000000000000000000081166024830152604482018390528516906301e3366790606401600060405180830381600087803b15801561084157600080fd5b505af1158015610855573d6000803e3d6000fd5b505050505b6000610870876040516020016105799190612c3f565b90506000610888886040516020016105799190612c77565b905060006108968284612cb5565b60405163075c6c4b60e11b8152600481018290529091506001600160a01b03881690630eb8d89690602401600060405180830381600087803b1580156108db57600080fd5b505af11580156108ef573d6000803e3d6000fd5b505050506000886001600160a01b03168260405160006040518083038185875af1925050503d8060008114610940576040519150601f19603f3d011682016040523d82523d6000602084013e610945565b606091505b505090508061096757604051639d60fd7560e01b815260040160405180910390fd5b5050505050505050505050565b600061099c6040518060400160405280600581526020016415985d5b1d60da1b815250611984565b90508115610c34576040516323b872dd60e01b8152336004820152306024820152604481018390527f00000000000000000000000000000000000000000000000000000000000000006001600160a01b0316906323b872dd906064016020604051808303816000875af1158015610a17573d6000803e3d6000fd5b505050506040513d601f19601f82011682018060405250810190610a3b9190612ccd565b610aa05760405162461bcd60e51b815260206004820152602b60248201527f436f756c64206e6f74207472616e736665722047475020746f204d696e69506f60448201526a1bdb0818dbdb9d1c9858dd60aa1b60648201526084015b60405180910390fd5b60405163095ea7b360e01b81526001600160a01b038281166004830152602482018490527f0000000000000000000000000000000000000000000000000000000000000000169063095ea7b3906044016020604051808303816000875af1158015610b0f573d6000803e3d6000fd5b505050506040513d601f19601f82011682018060405250810190610b339190612ccd565b610b8b5760405162461bcd60e51b815260206004820152602360248201527f436f756c64206e6f7420617070726f7665207661756c7420474750206465706f6044820152621cda5d60ea1b6064820152608401610a97565b604051631e88852b60e31b815260606004820152600f60648201526e26b4b734b837b7b626b0b730b3b2b960891b60848201526001600160a01b037f0000000000000000000000000000000000000000000000000000000000000000811660248301526044820184905282169063f44429589060a401600060405180830381600087803b158015610c1b57600080fd5b505af1158015610c2f573d6000803e3d6000fd5b505050505b806001600160a01b03166324056867346040518263ffffffff1660e01b81526004016000604051808303818588803b158015610c6f57600080fd5b505af1158015610c83573d6000803e3d6000fd5b50505050506000610c9386610561565b90508060001914610d5757610ca981600061202b565b610cda81604051602001610cbd9190612b59565b60405160208183030381529060405280519060200120600061218e565b610cee81604051602001610cbd9190612cef565b610d0281604051602001610cbd9190612d21565b610d1681604051602001610cbd9190612d57565b610d2a81604051602001610cbd9190612c77565b610d3e81604051602001610cbd9190612d94565b610d5281604051602001610cbd9190612bf2565b610d71565b610d6e600080516020612fd4833981519152611ed2565b90505b6000610da36040518060400160405280600f81526020016e26bab63a34b9b4b3a6b0b730b3b2b960891b815250611984565b90506000816001600160a01b031663867533e66040518163ffffffff1660e01b8152600401602060405180830381865afa158015610de5573d6000803e3d6000fd5b505050506040513d601f19601f82011682018060405250810190610e099190612dd0565b90506001600160a01b038116610e325760405163c2bd570760e01b815260040160405180910390fd5b610e6283604051602001610e469190612ded565b6040516020818303038152906040528051906020012089612266565b610e9583604051602001610e769190612b12565b60408051601f198184030181529190528051602090910120600061218e565b610ec583604051602001610ea99190612e1e565b604051602081830303815290604052805190602001208861218e565b610ef583604051602001610ed99190612e51565b6040516020818303038152906040528051906020012082612266565b610f2583604051602001610f099190612b8d565b6040516020818303038152906040528051906020012033612266565b610f5583604051602001610f399190612c3f565b604051602081830303815290604052805190602001203461218e565b610f8583604051602001610f699190612e88565b604051602081830303815290604052805190602001208761218e565b610fb583604051602001610f999190612bbd565b604051602081830303815290604052805190602001208661218e565b610fec88604051602001610fc99190612a3c565b604051602081830303815290604052805190602001208460016106259190612ec0565b611005600080516020612fd483398151915260016122a5565b60006040516001600160a01b038a1690600080516020612ff483398151915290600090a35050505050505050565b6000806000806000806000611055600080516020612fd4833981519152611ed2565b90506000611063898b612cb5565b905081811180611071575088155b156110795750805b895b8181101561115157600061108e826119e8565b60208101519091506110ac57896110a481612f01565b9a505061113e565b60018160200151036110ca57886110c281612f01565b99505061113e565b60028160200151036110e857876110e081612f01565b98505061113e565b600381602001510361110657866110fe81612f01565b97505061113e565b6004816020015103611124578561111c81612f01565b96505061113e565b600581602001510361113e578461113a81612f01565b9550505b508061114981612f01565b91505061107b565b5050509295509295509295565b600061116982611fb6565b905061117681600161202b565b600061119e6040518060400160405280600581526020016415985d5b1d60da1b815250611984565b90506000806111b7846040516020016105799190612c3f565b90507f000000000000000000000000000000000000000000000000000000000000000081101561120e5761120b817f0000000000000000000000000000000000000000000000000000000000000000612c28565b91505b81156112a3576112288460405160200161063e9190612d21565b60405163efe441d960e01b8152600481018390527f00000000000000000000000000000000000000000000000000000000000000006001600160a01b03169063efe441d990602401600060405180830381600087803b15801561128a57600080fd5b505af115801561129e573d6000803e3d6000fd5b505050505b60405163075c6c4b60e11b8152600481018290526001600160a01b03841690630eb8d89690602401600060405180830381600087803b1580156112e557600080fd5b505af11580156112f9573d6000803e3d6000fd5b505050506000828261130b9190612cb5565b90507f000000000000000000000000000000000000000000000000000000000000000081101561134e5760405163074bb7f760e21b815260040160405180910390fd5b611381856040516020016113629190612b12565b60408051601f198184030181529190528051602090910120600161218e565b60016040516001600160a01b03881690600080516020612ff483398151915290600090a36113af33826122e1565b505050505050565b60006113df6040518060400160405280600581526020016415985d5b1d60da1b815250611984565b905060006113ec85611fb6565b90506113f981600361202b565b600061140f826040516020016105799190612b59565b9050808511158061141f57504285115b1561143d576040516338af65f760e01b815260040160405180910390fd5b6000611453836040516020016105799190612c3f565b9050600061146b846040516020016105799190612d21565b905060006114798284612cb5565b90506114858782612cb5565b34146114a45760405163162908e360e11b815260040160405180910390fd5b6114d7856040516020016114b89190612b12565b60408051601f198184030181529190528051602090910120600361218e565b611507856040516020016114eb9190612cef565b604051602081830303815290604052805190602001208961218e565b61151b85604051602001610ea99190612d57565b86600003611665576000611539866040516020016105799190612e1e565b905060006115478285611b9f565b9050600061155482611e03565b90506115868860405160200161156a9190612bf2565b604051602081830303815290604052805190602001208261218e565b604051630e0f72f160e21b815260048101869052600060248201527f00000000000000000000000000000000000000000000000000000000000000006001600160a01b03169063383dcbc49087906044016000604051808303818588803b1580156115f057600080fd5b505af1158015611604573d6000803e3d6000fd5b5050505050886001600160a01b03166324056867876040518263ffffffff1660e01b81526004016000604051808303818588803b15801561164457600080fd5b505af1158015611658573d6000803e3d6000fd5b50505050505050506117a1565b6000821561170b57611678600289612f1a565b90506001600160a01b037f00000000000000000000000000000000000000000000000000000000000000001663383dcbc46116b38386612cb5565b6040516001600160e01b031960e084901b16815260048101879052602481018590526044016000604051808303818588803b1580156116f157600080fd5b505af1158015611705573d6000803e3d6000fd5b50505050505b6000611717828a612c28565b905061172d8760405160200161156a9190612c77565b6117418760405160200161063e9190612d94565b6001600160a01b038816632405686761175a8388612cb5565b6040518263ffffffff1660e01b81526004016000604051808303818588803b15801561178557600080fd5b505af1158015611799573d6000803e3d6000fd5b505050505050505b60036040516001600160a01b038b1690600080516020612ff483398151915290600090a3505050505050505050565b606060006117eb600080516020612fd4833981519152611ed2565b905060006117f98486612cb5565b905081811180611807575083155b1561180f5750805b6118198582612c28565b67ffffffffffffffff8111156118315761183161263b565b60405190808252806020026020018201604052801561186a57816020015b611857612575565b81526020019060019003908161184f5790505b5092506000855b828110156118e2576000611884826119e8565b905088600681111561189857611898612b43565b8160200151036118cf57808684815181106118b5576118b5612f3c565b602002602001018190525082806118cb90612f01565b9350505b50806118da81612f01565b915050611871565b5083525090949350505050565b60006118fa82610561565b9050801961191b5760405163d2fc63e360e01b815260040160405180910390fd5b6000611931826040516020016105bc9190612b8d565b9050336001600160a01b0382161461195c5760405163112dcfdd60e31b815260040160405180910390fd5b61033e8383612332565b600061197f600080516020612fd4833981519152611ed2565b905090565b60008061199b836040516020016105bc9190612f52565b90506001600160a01b03811661059e5760405162461bcd60e51b815260206004820152601260248201527110dbdb9d1c9858dd081b9bdd08199bdd5b9960721b6044820152606401610a97565b6119f0612575565b611a04826040516020016105bc9190612ded565b6001600160a01b03168152604051611a2490610579908490602001612b12565b816020018181525050611a41826040516020016105799190612e1e565b816040018181525050611a5e826040516020016105799190612b59565b6060820152604051611a7890610579908490602001612cef565b6080820152604051611a9290610579908490602001612e88565b60a0820152604051611aac90610579908490602001612bbd565b60c0820152604051611ac690610579908490602001612bf2565b60e0820152604051611ae090610579908490602001612c3f565b610100820152604051611afb90610579908490602001612d21565b610120820152604051611b1690610579908490602001612d57565b610140820152604051611b3190610579908490602001612c77565b610160820152604051611b4c90610579908490602001612d94565b610180820152604051611b67906105bc908490602001612e51565b6001600160a01b03166101c0820152604051611b8b906105bc908490602001612b8d565b6001600160a01b03166101a0820152919050565b600080611bce6040518060400160405280600b81526020016a50726f746f636f6c44414f60a81b815250611984565b90506000816001600160a01b0316634712a1436040518163ffffffff1660e01b8152600401602060405180830381865afa158015611c10573d6000803e3d6000fd5b505050506040513d601f19601f82011682018060405250810190611c349190612f77565b9050670de0b6b3a76400006301e13380611c4e8388612f90565b611c589190612f1a565b611c629086612f90565b611c6c9190612f1a565b95945050505050565b6000611c8083610561565b90508019611ca15760405163d2fc63e360e01b815260040160405180910390fd5b61033e81604051602001611cb59190612b12565b6040516020818303038152906040528051906020012083600681111561062557610625612b43565b600080611ce983611fb6565b9050611cf681600161202b565b600080611d0d836040516020016105799190612c3f565b90507f0000000000000000000000000000000000000000000000000000000000000000811015611d6457611d61817f0000000000000000000000000000000000000000000000000000000000000000612c28565b91505b7f00000000000000000000000000000000000000000000000000000000000000006001600160a01b031663be13733c6040518163ffffffff1660e01b8152600401602060405180830381865afa158015611dc2573d6000803e3d6000fd5b505050506040513d601f19601f82011682018060405250810190611de69190612f77565b821115611df857506000949350505050565b506001949350505050565b600080611e2d604051806040016040528060068152602001654f7261636c6560d01b815250611984565b90506000816001600160a01b031663bece349b6040518163ffffffff1660e01b81526004016040805180830381865afa158015611e6e573d6000803e3d6000fd5b505050506040513d601f19601f82011682018060405250810190611e929190612faf565b50905080611ea885670de0b6b3a7640000612f90565b611eb29190612f1a565b949350505050565b60006105d78383604051602001610579929190612b00565b6000805460405163bd02d0f560e01b8152600481018490526101009091046001600160a01b03169063bd02d0f590602401602060405180830381865afa158015611f20573d6000803e3d6000fd5b505050506040513d601f19601f8201168201806040525081019061059e9190612f77565b600080546040516321f8a72160e01b8152600481018490526101009091046001600160a01b0316906321f8a72190602401602060405180830381865afa158015611f92573d6000803e3d6000fd5b505050506040513d601f19601f8201168201806040525081019061059e9190612dd0565b600080611fc283610561565b90508019611fe35760405163d2fc63e360e01b815260040160405180910390fd5b6000611ff9826040516020016105bc9190612e51565b9050336001600160a01b038216146120245760405163c2bd570760e01b815260040160405180910390fd5b5092915050565b60008260405160200161203e9190612b12565b604051602081830303815290604052805190602001209050600061206182611ed2565b600681111561207257612072612b43565b905060008082600681111561208957612089612b43565b036120c85760015b8460068111156120a3576120a3612b43565b14806120c1575060055b8460068111156120bf576120bf612b43565b145b9050612169565b60018260068111156120dc576120dc612b43565b036120e8576002612091565b60028260068111156120fc576120fc612b43565b036121085760036120ad565b600382600681111561211c5761211c612b43565b036121285760046120ad565b600482600681111561213c5761213c612b43565b14806121595750600582600681111561215757612157612b43565b145b156121655760006120ad565b5060005b80612187576040516323e69e0360e21b815260040160405180910390fd5b5050505050565b600054604051637152429d60e11b815260048101849052602481018390526101009091046001600160a01b03169063e2a4853a906044015b600060405180830381600087803b1580156121e057600080fd5b505af11580156113af573d6000803e3d6000fd5b60008054604051633d70e7e560e11b8152600481018490526101009091046001600160a01b031690637ae1cfca90602401602060405180830381865afa158015612242573d6000803e3d6000fd5b505050506040513d601f19601f8201168201806040525081019061059e9190612ccd565b60005460405163ca446dd960e01b8152600481018490526001600160a01b0383811660248301526101009092049091169063ca446dd9906044016121c6565b600054604051632b6cd4f760e21b815260048101849052602481018390526101009091046001600160a01b03169063adb353dc906044016121c6565b600080600080600085875af190508061033e5760405162461bcd60e51b815260206004820152601360248201527211551217d514905394d1915497d19052531151606a1b6044820152606401610a97565b61233d81600561202b565b612370816040516020016123519190612b12565b60408051601f198184030181529190528051602090910120600561218e565b60006123986040518060400160405280600581526020016415985d5b1d60da1b815250611984565b905060006123b0836040516020016105bc9190612b8d565b905060006123c8846040516020016105799190612bbd565b9050801561245b576040516301e3366760e01b81526001600160a01b0383811660048301527f000000000000000000000000000000000000000000000000000000000000000081166024830152604482018390528416906301e3366790606401600060405180830381600087803b15801561244257600080fd5b505af1158015612456573d6000803e3d6000fd5b505050505b6000612471856040516020016105799190612c3f565b905080156125495760405163075c6c4b60e11b8152600481018290526001600160a01b03851690630eb8d89690602401600060405180830381600087803b1580156124bb57600080fd5b505af11580156124cf573d6000803e3d6000fd5b505050506000836001600160a01b03168260405160006040518083038185875af1925050503d8060008114612520576040519150601f19603f3d011682016040523d82523d6000602084013e612525565b606091505b505090508061254757604051639d60fd7560e01b815260040160405180910390fd5b505b60056040516001600160a01b03881690600080516020612ff483398151915290600090a3505050505050565b604051806101e0016040528060006001600160a01b0316815260200160008152602001600081526020016000815260200160008152602001600081526020016000815260200160008152602001600081526020016000815260200160008152602001600081526020016000815260200160006001600160a01b0316815260200160006001600160a01b031681525090565b6001600160a01b038116811461261b57600080fd5b50565b60006020828403121561263057600080fd5b81356105d781612606565b634e487b7160e01b600052604160045260246000fd5b600082601f83011261266257600080fd5b813567ffffffffffffffff8082111561267d5761267d61263b565b604051601f8301601f19908116603f011681019082821181831017156126a5576126a561263b565b816040528381528660208588010111156126be57600080fd5b836020870160208301376000602085830101528094505050505092915050565b600080604083850312156126f157600080fd5b82359150602083013567ffffffffffffffff81111561270f57600080fd5b61271b85828601612651565b9150509250929050565b6000806040838503121561273857600080fd5b823561274381612606565b946020939093013593505050565b6000806000806080858703121561276757600080fd5b843561277281612606565b966020860135965060408601359560600135945092505050565b6000806040838503121561279f57600080fd5b50508035926020909101359150565b6000806000604084860312156127c357600080fd5b83356127ce81612606565b9250602084013567ffffffffffffffff808211156127eb57600080fd5b818601915086601f8301126127ff57600080fd5b81358181111561280e57600080fd5b87602082850101111561282057600080fd5b6020830194508093505050509250925092565b60008060006060848603121561284857600080fd5b833561285381612606565b95602085013595506040909401359392505050565b80356007811061287757600080fd5b919050565b60008060006060848603121561289157600080fd5b61285384612868565b80516001600160a01b031682526020810151602083015260408101516040830152606081015160608301526080810151608083015260a081015160a083015260c081015160c083015260e081015160e08301526101008082015181840152506101208082015181840152506101408082015181840152506101608082015181840152506101808082015181840152506101a080820151612944828501826001600160a01b03169052565b50506101c0908101516001600160a01b0316910152565b6020808252825182820181905260009190848201906040850190845b8181101561299e5761298a83855161289a565b928401926101e09290920191600101612977565b50909695505050505050565b6000602082840312156129bc57600080fd5b813567ffffffffffffffff8111156129d357600080fd5b611eb284828501612651565b6000602082840312156129f157600080fd5b5035919050565b6101e0810161059e828461289a565b60008060408385031215612a1a57600080fd5b8235612a2581612606565b9150612a3360208401612868565b90509250929050565b6d0dad2dcd2e0deded85cd2dcc8caf60931b815260609190911b6bffffffffffffffffffffffff1916600e82015260220190565b634e487b7160e01b600052601160045260246000fd5b60008083128015600160ff1b850184121615612aa457612aa4612a70565b6001600160ff1b0384018313811615612abf57612abf612a70565b50500390565b6000815160005b81811015612ae65760208185018101518683015201612acc565b81811115612af5576000828601525b509290920192915050565b8281526000611eb26020830184612ac5565b6c6d696e69706f6f6c2e6974656d60981b8152600d810191909152662e73746174757360c81b602d82015260340190565b634e487b7160e01b600052602160045260246000fd5b6c6d696e69706f6f6c2e6974656d60981b8152600d810191909152692e737461727454696d6560b01b602d82015260370190565b6c6d696e69706f6f6c2e6974656d60981b8152600d810191909152651737bbb732b960d11b602d82015260330190565b6c6d696e69706f6f6c2e6974656d60981b8152600d8101919091526a0b99d9dc109bdb99105b5d60aa1b602d82015260380190565b6c6d696e69706f6f6c2e6974656d60981b8152600d8101919091526b0b99d9dc14db185cda105b5d60a21b602d82015260390190565b600082821015612c3a57612c3a612a70565b500390565b6c6d696e69706f6f6c2e6974656d60981b8152600d8101919091526d0b985d985e139bd91953dc105b5d60921b602d820152603b0190565b6c6d696e69706f6f6c2e6974656d60981b8152600d810191909152730b985d985e139bd91953dc14995dd85c99105b5d60621b602d82015260410190565b60008219821115612cc857612cc8612a70565b500190565b600060208284031215612cdf57600080fd5b815180151581146105d757600080fd5b6c6d696e69706f6f6c2e6974656d60981b8152600d810191909152672e656e6454696d6560c01b602d82015260350190565b6c6d696e69706f6f6c2e6974656d60981b8152600d8101919091526b0b985d985e155cd95c905b5d60a21b602d82015260390190565b6c6d696e69706f6f6c2e6974656d60981b8152600d810191909152720b985d985e151bdd185b14995dd85c99105b5d606a1b602d82015260400190565b6c6d696e69706f6f6c2e6974656d60981b8152600d810191909152710b985d985e155cd95c94995dd85c99105b5d60721b602d820152603f0190565b600060208284031215612de257600080fd5b81516105d781612606565b6c6d696e69706f6f6c2e6974656d60981b8152600d810191909152660b9b9bd919525160ca1b602d82015260340190565b6c6d696e69706f6f6c2e6974656d60981b8152600d8101919091526817323ab930ba34b7b760b91b602d82015260360190565b6c6d696e69706f6f6c2e6974656d60981b8152600d8101919091526c1736bab63a34b9b4b3a0b2323960991b602d820152603a0190565b6c6d696e69706f6f6c2e6974656d60981b8152600d8101919091526d2e64656c65676174696f6e46656560901b602d820152603b0190565b600080821280156001600160ff1b0384900385131615612ee257612ee2612a70565b600160ff1b8390038412811615612efb57612efb612a70565b50500190565b600060018201612f1357612f13612a70565b5060010190565b600082612f3757634e487b7160e01b600052601260045260246000fd5b500490565b634e487b7160e01b600052603260045260246000fd5b6f636f6e74726163742e6164647265737360801b815260006105d76010830184612ac5565b600060208284031215612f8957600080fd5b5051919050565b6000816000190483118215151615612faa57612faa612a70565b500290565b60008060408385031215612fc257600080fd5b50508051602090910151909290915056fee0350abf7e528889b5822fca885fa12de74628619c3752923dd9ec3ce44e4602c9c043637725967252aedd2704cc65fee962e7b8a1e3cf8098587a66601e50c5a264697066735822122026ede46a93b1c05635854ddaddf34d4103d64e12e302ea5301cb2ba4fe28dd6d64736f6c634300080d0033",
  "linkReferences": {},
  "deployedLinkReferences": {}
}