{
  "_format": "hh-sol-artifact-1",
  "contractName": "MinipoolManager",
  "sourceName": "contracts/contract/MinipoolManager.sol",
  "abi": [
    {
      "inputs": [
        {
          "internalType": "contract Storage",
          "name": "storageAddress",
          "type": "address"
        },
        {
          "internalType": "contract ERC20",
          "name": "ggp_",
          "type": "address"
        },
        {
          "internalType": "contract TokenggAVAX",
          "name": "ggAVAX_",
          "type": "address"
        }
      ],
      "stateMutability": "nonpayable",
      "type": "constructor"
    },
    {
      "inputs": [],
      "name": "ErrorIssuingValidationTx",
      "type": "error"
    },
    {
      "inputs": [],
      "name": "ErrorSendingAvax",
      "type": "error"
    },
    {
      "inputs": [],
      "name": "InsufficientAvaxForStaking",
      "type": "error"
    },
    {
      "inputs": [],
      "name": "InsufficientAvaxVaultBalance",
      "type": "error"
    },
    {
      "inputs": [],
      "name": "InsufficientGgpCollateralization",
      "type": "error"
    },
    {
      "inputs": [],
      "name": "InvalidAmount",
      "type": "error"
    },
    {
      "inputs": [],
      "name": "InvalidEndTime",
      "type": "error"
    },
    {
      "inputs": [],
      "name": "InvalidMultisigAddress",
      "type": "error"
    },
    {
      "inputs": [],
      "name": "InvalidMultisigSignature",
      "type": "error"
    },
    {
      "inputs": [],
      "name": "InvalidStateTransition",
      "type": "error"
    },
    {
      "inputs": [],
      "name": "MinipoolAlreadyRegistered",
      "type": "error"
    },
    {
      "inputs": [],
      "name": "MinipoolMustBeInitialised",
      "type": "error"
    },
    {
      "inputs": [],
      "name": "MinipoolNotFound",
      "type": "error"
    },
    {
      "inputs": [],
      "name": "OnlyOwnerCanCancel",
      "type": "error"
    },
    {
      "inputs": [],
      "name": "OnlyOwnerCanWithdraw",
      "type": "error"
    },
    {
      "anonymous": false,
      "inputs": [
        {
          "indexed": true,
          "internalType": "address",
          "name": "nodeID",
          "type": "address"
        },
        {
          "indexed": true,
          "internalType": "enum MinipoolStatus",
          "name": "status",
          "type": "uint8"
        }
      ],
      "name": "MinipoolStatusChanged",
      "type": "event"
    },
    {
      "anonymous": false,
      "inputs": [
        {
          "indexed": true,
          "internalType": "address",
          "name": "nodeID",
          "type": "address"
        }
      ],
      "name": "ZeroRewardsReceived",
      "type": "event"
    },
    {
      "inputs": [],
      "name": "MINIPOOL_QUEUE_KEY",
      "outputs": [
        {
          "internalType": "bytes32",
          "name": "",
          "type": "bytes32"
        }
      ],
      "stateMutability": "view",
      "type": "function"
    },
    {
      "inputs": [],
      "name": "MIN_STAKING_AMT",
      "outputs": [
        {
          "internalType": "uint256",
          "name": "",
          "type": "uint256"
        }
      ],
      "stateMutability": "view",
      "type": "function"
    },
    {
      "inputs": [
        {
          "internalType": "uint256",
          "name": "avaxRewardAmt",
          "type": "uint256"
        }
      ],
      "name": "calculateSlashAmt",
      "outputs": [
        {
          "internalType": "uint256",
          "name": "",
          "type": "uint256"
        }
      ],
      "stateMutability": "view",
      "type": "function"
    },
    {
      "inputs": [
        {
          "internalType": "address",
          "name": "nodeID",
          "type": "address"
        }
      ],
      "name": "canClaimAndInitiateStaking",
      "outputs": [
        {
          "internalType": "bool",
          "name": "",
          "type": "bool"
        }
      ],
      "stateMutability": "view",
      "type": "function"
    },
    {
      "inputs": [
        {
          "internalType": "address",
          "name": "nodeID",
          "type": "address"
        }
      ],
      "name": "cancelMinipool",
      "outputs": [],
      "stateMutability": "nonpayable",
      "type": "function"
    },
    {
      "inputs": [
        {
          "internalType": "address",
          "name": "nodeID",
          "type": "address"
        }
      ],
      "name": "claimAndInitiateStaking",
      "outputs": [],
      "stateMutability": "nonpayable",
      "type": "function"
    },
    {
      "inputs": [
        {
          "internalType": "address",
          "name": "nodeID",
          "type": "address"
        },
        {
          "internalType": "uint256",
          "name": "duration",
          "type": "uint256"
        },
        {
          "internalType": "uint256",
          "name": "delegationFee",
          "type": "uint256"
        }
      ],
      "name": "createMinipool",
      "outputs": [],
      "stateMutability": "payable",
      "type": "function"
    },
    {
      "inputs": [
        {
          "internalType": "uint256",
          "name": "duration",
          "type": "uint256"
        },
        {
          "internalType": "uint256",
          "name": "avaxAmt",
          "type": "uint256"
        }
      ],
      "name": "expectedRewardAmt",
      "outputs": [
        {
          "internalType": "uint256",
          "name": "",
          "type": "uint256"
        }
      ],
      "stateMutability": "view",
      "type": "function"
    },
    {
      "inputs": [
        {
          "internalType": "address",
          "name": "nodeID",
          "type": "address"
        }
      ],
      "name": "getIndexOf",
      "outputs": [
        {
          "internalType": "int256",
          "name": "",
          "type": "int256"
        }
      ],
      "stateMutability": "view",
      "type": "function"
    },
    {
      "inputs": [
        {
          "internalType": "int256",
          "name": "index",
          "type": "int256"
        }
      ],
      "name": "getMinipool",
      "outputs": [
        {
          "components": [
            {
              "internalType": "address",
              "name": "nodeID",
              "type": "address"
            },
            {
              "internalType": "uint256",
              "name": "status",
              "type": "uint256"
            },
            {
              "internalType": "uint256",
              "name": "duration",
              "type": "uint256"
            },
            {
              "internalType": "uint256",
              "name": "startTime",
              "type": "uint256"
            },
            {
              "internalType": "uint256",
              "name": "endTime",
              "type": "uint256"
            },
            {
              "internalType": "uint256",
              "name": "delegationFee",
              "type": "uint256"
            },
            {
              "internalType": "uint256",
              "name": "ggpBondAmt",
              "type": "uint256"
            },
            {
              "internalType": "uint256",
              "name": "ggpSlashAmt",
              "type": "uint256"
            },
            {
              "internalType": "uint256",
              "name": "avaxNodeOpAmt",
              "type": "uint256"
            },
            {
              "internalType": "uint256",
              "name": "avaxUserAmt",
              "type": "uint256"
            },
            {
              "internalType": "uint256",
              "name": "avaxTotalRewardAmt",
              "type": "uint256"
            },
            {
              "internalType": "uint256",
              "name": "avaxNodeOpRewardAmt",
              "type": "uint256"
            },
            {
              "internalType": "uint256",
              "name": "avaxUserRewardAmt",
              "type": "uint256"
            },
            {
              "internalType": "address",
              "name": "owner",
              "type": "address"
            },
            {
              "internalType": "address",
              "name": "multisigAddr",
              "type": "address"
            },
            {
              "internalType": "bytes32",
              "name": "txID",
              "type": "bytes32"
            }
          ],
          "internalType": "struct MinipoolManager.Minipool",
          "name": "mp",
          "type": "tuple"
        }
      ],
      "stateMutability": "view",
      "type": "function"
    },
    {
      "inputs": [],
      "name": "getMinipoolCount",
      "outputs": [
        {
          "internalType": "uint256",
          "name": "",
          "type": "uint256"
        }
      ],
      "stateMutability": "view",
      "type": "function"
    },
    {
      "inputs": [
        {
          "internalType": "uint256",
          "name": "offset",
          "type": "uint256"
        },
        {
          "internalType": "uint256",
          "name": "limit",
          "type": "uint256"
        }
      ],
      "name": "getMinipoolCountPerStatus",
      "outputs": [
        {
          "internalType": "uint256",
          "name": "prelaunchCount",
          "type": "uint256"
        },
        {
          "internalType": "uint256",
          "name": "launchedCount",
          "type": "uint256"
        },
        {
          "internalType": "uint256",
          "name": "stakingCount",
          "type": "uint256"
        },
        {
          "internalType": "uint256",
          "name": "withdrawableCount",
          "type": "uint256"
        },
        {
          "internalType": "uint256",
          "name": "finishedCount",
          "type": "uint256"
        },
        {
          "internalType": "uint256",
          "name": "canceledCount",
          "type": "uint256"
        }
      ],
      "stateMutability": "view",
      "type": "function"
    },
    {
      "inputs": [
        {
          "internalType": "enum MinipoolStatus",
          "name": "status",
          "type": "uint8"
        },
        {
          "internalType": "uint256",
          "name": "offset",
          "type": "uint256"
        },
        {
          "internalType": "uint256",
          "name": "limit",
          "type": "uint256"
        }
      ],
      "name": "getMinipools",
      "outputs": [
        {
          "components": [
            {
              "internalType": "address",
              "name": "nodeID",
              "type": "address"
            },
            {
              "internalType": "uint256",
              "name": "status",
              "type": "uint256"
            },
            {
              "internalType": "uint256",
              "name": "duration",
              "type": "uint256"
            },
            {
              "internalType": "uint256",
              "name": "startTime",
              "type": "uint256"
            },
            {
              "internalType": "uint256",
              "name": "endTime",
              "type": "uint256"
            },
            {
              "internalType": "uint256",
              "name": "delegationFee",
              "type": "uint256"
            },
            {
              "internalType": "uint256",
              "name": "ggpBondAmt",
              "type": "uint256"
            },
            {
              "internalType": "uint256",
              "name": "ggpSlashAmt",
              "type": "uint256"
            },
            {
              "internalType": "uint256",
              "name": "avaxNodeOpAmt",
              "type": "uint256"
            },
            {
              "internalType": "uint256",
              "name": "avaxUserAmt",
              "type": "uint256"
            },
            {
              "internalType": "uint256",
              "name": "avaxTotalRewardAmt",
              "type": "uint256"
            },
            {
              "internalType": "uint256",
              "name": "avaxNodeOpRewardAmt",
              "type": "uint256"
            },
            {
              "internalType": "uint256",
              "name": "avaxUserRewardAmt",
              "type": "uint256"
            },
            {
              "internalType": "address",
              "name": "owner",
              "type": "address"
            },
            {
              "internalType": "address",
              "name": "multisigAddr",
              "type": "address"
            },
            {
              "internalType": "bytes32",
              "name": "txID",
              "type": "bytes32"
            }
          ],
          "internalType": "struct MinipoolManager.Minipool[]",
          "name": "minipools",
          "type": "tuple[]"
        }
      ],
      "stateMutability": "view",
      "type": "function"
    },
    {
      "inputs": [
        {
          "internalType": "address",
          "name": "_nodeAddress",
          "type": "address"
        }
      ],
      "name": "getNodeEffectiveGGPStake",
      "outputs": [
        {
          "internalType": "uint256",
          "name": "",
          "type": "uint256"
        }
      ],
      "stateMutability": "view",
      "type": "function"
    },
    {
      "inputs": [
        {
          "internalType": "string",
          "name": "_contractName",
          "type": "string"
        }
      ],
      "name": "getPublicContractAddress",
      "outputs": [
        {
          "internalType": "address",
          "name": "",
          "type": "address"
        }
      ],
      "stateMutability": "view",
      "type": "function"
    },
    {
      "inputs": [
        {
          "internalType": "bytes32",
          "name": "settingNameSpace",
          "type": "bytes32"
        },
        {
          "internalType": "string",
          "name": "_settingPath",
          "type": "string"
        }
      ],
      "name": "getSettingAddress",
      "outputs": [
        {
          "internalType": "address",
          "name": "",
          "type": "address"
        }
      ],
      "stateMutability": "view",
      "type": "function"
    },
    {
      "inputs": [
        {
          "internalType": "bytes32",
          "name": "settingNameSpace",
          "type": "bytes32"
        },
        {
          "internalType": "string",
          "name": "_settingPath",
          "type": "string"
        }
      ],
      "name": "getSettingBool",
      "outputs": [
        {
          "internalType": "bool",
          "name": "",
          "type": "bool"
        }
      ],
      "stateMutability": "view",
      "type": "function"
    },
    {
      "inputs": [
        {
          "internalType": "bytes32",
          "name": "settingNameSpace",
          "type": "bytes32"
        },
        {
          "internalType": "string",
          "name": "_settingPath",
          "type": "string"
        }
      ],
      "name": "getSettingUint",
      "outputs": [
        {
          "internalType": "uint256",
          "name": "",
          "type": "uint256"
        }
      ],
      "stateMutability": "view",
      "type": "function"
    },
    {
      "inputs": [
        {
          "internalType": "address",
          "name": "_nodeAddress",
          "type": "address"
        }
      ],
      "name": "getTotalAvaxStakedByUser",
      "outputs": [
        {
          "internalType": "uint256",
          "name": "",
          "type": "uint256"
        }
      ],
      "stateMutability": "view",
      "type": "function"
    },
    {
      "inputs": [],
      "name": "getTotalEffectiveGGPStake",
      "outputs": [
        {
          "internalType": "uint256",
          "name": "",
          "type": "uint256"
        }
      ],
      "stateMutability": "view",
      "type": "function"
    },
    {
      "inputs": [],
      "name": "ggAVAX",
      "outputs": [
        {
          "internalType": "contract TokenggAVAX",
          "name": "",
          "type": "address"
        }
      ],
      "stateMutability": "view",
      "type": "function"
    },
    {
      "inputs": [],
      "name": "ggp",
      "outputs": [
        {
          "internalType": "contract ERC20",
          "name": "",
          "type": "address"
        }
      ],
      "stateMutability": "view",
      "type": "function"
    },
    {
      "inputs": [],
      "name": "receiveWithdrawalAVAX",
      "outputs": [],
      "stateMutability": "payable",
      "type": "function"
    },
    {
      "inputs": [
        {
          "internalType": "address",
          "name": "nodeID",
          "type": "address"
        },
        {
          "internalType": "uint256",
          "name": "endTime",
          "type": "uint256"
        },
        {
          "internalType": "uint256",
          "name": "avaxTotalRewardAmt",
          "type": "uint256"
        }
      ],
      "name": "recordStakingEnd",
      "outputs": [],
      "stateMutability": "payable",
      "type": "function"
    },
    {
      "inputs": [
        {
          "internalType": "address",
          "name": "nodeID",
          "type": "address"
        },
        {
          "internalType": "string",
          "name": "message",
          "type": "string"
        }
      ],
      "name": "recordStakingError",
      "outputs": [],
      "stateMutability": "nonpayable",
      "type": "function"
    },
    {
      "inputs": [
        {
          "internalType": "address",
          "name": "nodeID",
          "type": "address"
        },
        {
          "internalType": "bytes32",
          "name": "txID",
          "type": "bytes32"
        },
        {
          "internalType": "uint256",
          "name": "startTime",
          "type": "uint256"
        }
      ],
      "name": "recordStakingStart",
      "outputs": [],
      "stateMutability": "nonpayable",
      "type": "function"
    },
    {
      "inputs": [
        {
          "internalType": "address",
          "name": "nodeID",
          "type": "address"
        },
        {
          "internalType": "enum MinipoolStatus",
          "name": "status",
          "type": "uint8"
        }
      ],
      "name": "updateMinipoolStatus",
      "outputs": [],
      "stateMutability": "nonpayable",
      "type": "function"
    },
    {
      "inputs": [],
      "name": "version",
      "outputs": [
        {
          "internalType": "uint8",
          "name": "",
          "type": "uint8"
        }
      ],
      "stateMutability": "view",
      "type": "function"
    },
    {
      "inputs": [
        {
          "internalType": "address",
          "name": "nodeID",
          "type": "address"
        }
      ],
      "name": "withdrawMinipoolFunds",
      "outputs": [],
      "stateMutability": "nonpayable",
      "type": "function"
    }
  ],
  "bytecode": "0x610100604052686c6b935b8bbd40000060c0527fe675a52310cd568651491803fe5dccf5a3cb1afd2c9bec7092ea6592e5d5778c60e0523480156200004357600080fd5b5060405162003a0638038062003a068339810160408190526200006691620000b8565b6000805460ff196001600160a01b0395861661010002166001600160a81b03199091161760011790559082166080521660a0526200010c565b6001600160a01b0381168114620000b557600080fd5b50565b600080600060608486031215620000ce57600080fd5b8351620000db816200009f565b6020850151909350620000ee816200009f565b604085015190925062000101816200009f565b809150509250925092565b60805160a05160c05160e05161387a6200018c600039600061027401526000818161050c0152818161124e0152818161127a015281816113be015281816120bf01526120eb015260008181610436015281816112ed015281816116520152818161175701526121140152600081816105800152610864015261387a6000f3fe6080604052600436106101c25760003560e01c80639cbed340116100f7578063e49e49bf11610095578063f4812b8811610064578063f4812b88146105a2578063f4d70e78146105c2578063f7dadb05146105e2578063ffe09241146102b657600080fd5b8063e49e49bf146104fa578063e92aa0ce1461052e578063ea3092d11461054e578063f321df491461056e57600080fd5b8063b68f82e7116100d1578063b68f82e71461046d578063cff0b6481461048d578063d8ce16f4146104ad578063de5a61e3146104da57600080fd5b80639cbed34014610404578063abd149dc14610424578063ae4d0bed1461045857600080fd5b806354fd4d5011610164578063809784c51161013e578063809784c5146103845780638e481d60146103a4578063934857bb146103b75780639a3070a0146103e457600080fd5b806354fd4d501461031857806362b0c29f14610344578063636e7cc61461036457600080fd5b806328b105fd116101a057806328b105fd146102625780632f1fbf9b146102965780633b5ecefa146102b8578063518148941461030557600080fd5b8063017df522146101c757806306eaa68b146101fa578063232de71614610232575b600080fd5b3480156101d357600080fd5b506101e76101e2366004612eb1565b6105f7565b6040519081526020015b60405180910390f35b34801561020657600080fd5b5061021a610215366004612f71565b61063a565b6040516001600160a01b0390911681526020016101f1565b34801561023e57600080fd5b5061025261024d366004612f71565b610674565b60405190151581526020016101f1565b34801561026e57600080fd5b506101e77f000000000000000000000000000000000000000000000000000000000000000081565b3480156102a257600080fd5b506102b66102b1366004612eb1565b6106a7565b005b3480156102c457600080fd5b506102d86102d3366004612fb8565b6109eb565b604080519687526020870195909552938501929092526060840152608083015260a082015260c0016101f1565b6102b6610313366004612fda565b610b16565b34801561032457600080fd5b506000546103329060ff1681565b60405160ff90911681526020016101f1565b34801561035057600080fd5b506102b661035f36600461300f565b505050565b34801561037057600080fd5b506101e761037f366004612eb1565b61115e565b34801561039057600080fd5b506102b661039f366004612eb1565b6111f1565b6102b66103b2366004612fda565b611466565b3480156103c357600080fd5b506103d76103d23660046130a8565b6118c0565b6040516101f19190613192565b3480156103f057600080fd5b506102b66103ff366004612fda565b6119df565b34801561041057600080fd5b506102b661041f366004612eb1565b611a98565b34801561043057600080fd5b5061021a7f000000000000000000000000000000000000000000000000000000000000000081565b34801561046457600080fd5b506101e7611b0f565b34801561047957600080fd5b506101e7610488366004612eb1565b611b2d565b34801561049957600080fd5b5061021a6104a83660046131e1565b611d16565b3480156104b957600080fd5b506104cd6104c8366004613216565b611d7a565b6040516101f1919061322f565b3480156104e657600080fd5b506101e76104f5366004612fb8565b611f4d565b34801561050657600080fd5b506101e77f000000000000000000000000000000000000000000000000000000000000000081565b34801561053a57600080fd5b506102b661054936600461323e565b612023565b34801561055a57600080fd5b50610252610569366004612eb1565b61208b565b34801561057a57600080fd5b5061021a7f000000000000000000000000000000000000000000000000000000000000000081565b3480156105ae57600080fd5b506101e76105bd366004613216565b6121b1565b3480156105ce57600080fd5b506101e76105dd366004612f71565b612268565b3480156105ee57600080fd5b506101e7612280565b6000600161062a8360405160200161060f9190613273565b6040516020818303038152906040528051906020012061245d565b61063491906132bd565b92915050565b600061066d8383604051602001610652929190613337565b604051602081830303815290604052805190602001206124d0565b9392505050565b600061066d838360405160200161068c929190613337565b60405160208183030381529060405280519060200120612542565b60006106b2826105f7565b905080196106d35760405163d2fc63e360e01b815260040160405180910390fd5b60006106e9826040516020016106529190613349565b9050336001600160a01b03821614610714576040516347418db160e01b815260040160405180910390fd5b61071f8260046125b4565b610753826040516020016107339190613379565b60408051601f19818403018152919052805160209091012060045b612717565b600061077b6040518060400160405280600581526020016415985d5b1d60da1b815250611d16565b905060006107a7604051806040016040528060078152602001665374616b696e6760c81b815250611d16565b604051636ae0785160e01b81526001600160a01b038781166004830152919250600091831690636ae0785190602401602060405180830381865afa1580156107f3573d6000803e3d6000fd5b505050506040513d601f19601f8201168201806040525081019061081791906133c0565b9050600061082f8660405160200161060f91906133d9565b9050600061083d828461340f565b905080156108d0576040516301e3366760e01b81526001600160a01b0387811660048301527f000000000000000000000000000000000000000000000000000000000000000081166024830152604482018390528616906301e3366790606401600060405180830381600087803b1580156108b757600080fd5b505af11580156108cb573d6000803e3d6000fd5b505050505b60006108e68860405160200161060f9190613426565b905060006108fe8960405160200161060f919061345e565b9050600061090c828461349c565b60405163075c6c4b60e11b8152600481018290529091506001600160a01b03891690630eb8d89690602401600060405180830381600087803b15801561095157600080fd5b505af1158015610965573d6000803e3d6000fd5b505050506000896001600160a01b03168260405160006040518083038185875af1925050503d80600081146109b6576040519150601f19603f3d011682016040523d82523d6000602084013e6109bb565b606091505b50509050806109dd57604051639d60fd7560e01b815260040160405180910390fd5b505050505050505050505050565b6000806000806000806000610a0d60008051602061380583398151915261245d565b90506000610a1b898b61349c565b905081811180610a29575088155b15610a315750805b895b81811015610b09576000610a4682611d7a565b6020810151909150610a645789610a5c816134b4565b9a5050610af6565b6001816020015103610a825788610a7a816134b4565b995050610af6565b6002816020015103610aa05787610a98816134b4565b985050610af6565b6003816020015103610abe5786610ab6816134b4565b975050610af6565b6004816020015103610adc5785610ad4816134b4565b965050610af6565b6005816020015103610af65784610af2816134b4565b9550505b5080610b01816134b4565b915050610a33565b5050509295509295509295565b6000610b3e6040518060400160405280600581526020016415985d5b1d60da1b815250611d16565b9050683635c9adc5dea00000341015610bb55760405162461bcd60e51b815260206004820152602e60248201527f4d757374206372656174652061206d696e69706f6f6c2077697468206174206c60448201526d0cac2e6e840626060604082ac82b60931b60648201526084015b60405180910390fd5b6000610bde604051806040016040528060068152602001654f7261636c6560d01b815250611d16565b90506000816001600160a01b031663bece349b6040518163ffffffff1660e01b81526004016040805180830381865afa158015610c1f573d6000803e3d6000fd5b505050506040513d601f19601f82011682018060405250810190610c4391906134cd565b5090506000610c70604051806040016040528060078152602001665374616b696e6760c81b815250611d16565b9050600a34610c7e3361115e565b610c88919061349c565b604051636ae0785160e01b8152336004820152670de0b6b3a76400009085906001600160a01b03861690636ae0785190602401602060405180830381865afa158015610cd8573d6000803e3d6000fd5b505050506040513d601f19601f82011682018060405250810190610cfc91906133c0565b610d0691906134f1565b610d119060646134f1565b610d1b9190613510565b610d259190613510565b1015610d4457604051635986860360e11b815260040160405180910390fd5b836001600160a01b03166324056867346040518263ffffffff1660e01b81526004016000604051808303818588803b158015610d7f57600080fd5b505af1158015610d93573d6000803e3d6000fd5b50505050506000610da3886105f7565b90508060001914610e9a57610db98160006125b4565b610dec81604051602001610dcd9190613532565b604051602081830303815290604052805190602001206000801b61277d565b610e1d81604051602001610e009190613561565b604051602081830303815290604052805190602001206000612717565b610e3181604051602001610e009190613595565b610e4581604051602001610e0091906135c7565b610e5981604051602001610e0091906135fd565b610e6d81604051602001610e00919061345e565b610e8181604051602001610e00919061363a565b610e9581604051602001610e0091906133d9565b610eb4565b610eb160008051602061380583398151915261245d565b90505b6000610ee66040518060400160405280600f81526020016e26bab63a34b9b4b3a6b0b730b3b2b960891b815250611d16565b90506000816001600160a01b031663867533e66040518163ffffffff1660e01b8152600401602060405180830381865afa158015610f28573d6000803e3d6000fd5b505050506040513d601f19601f82011682018060405250810190610f4c9190613676565b90506001600160a01b038116610f755760405163c2bd570760e01b815260040160405180910390fd5b610fa583604051602001610f899190613693565b604051602081830303815290604052805190602001208b6127b9565b610fd883604051602001610fb99190613379565b60408051601f1981840301815291905280516020909101206000612717565b61100883604051602001610fec91906136c4565b604051602081830303815290604052805190602001208a612717565b6110388360405160200161101c91906136f7565b60405160208183030381529060405280519060200120826127b9565b6110688360405160200161104c9190613349565b60405160208183030381529060405280519060200120336127b9565b6110988360405160200161107c9190613426565b6040516020818303038152906040528051906020012034612717565b6110c8836040516020016110ac919061372e565b6040516020818303038152906040528051906020012089612717565b6110ff8a6040516020016110dc9190613273565b6040516020818303038152906040528051906020012084600161074e9190613766565b61111860008051602061380583398151915260016127f8565b61112133612834565b61112e5761112e3361292a565b60006040516001600160a01b038c169060008051602061382583398151915290600090a350505050505050505050565b60008061117860008051602061380583398151915261245d565b90506000805b828110156111e957600061119182611d7a565b9050856001600160a01b0316816101a001516001600160a01b03161480156111be57506005816020015114155b156111d6576101008101516111d3908461349c565b92505b50806111e1816134b4565b91505061117e565b509392505050565b60006111fc82612aef565b90506112098160016125b4565b60006112316040518060400160405280600581526020016415985d5b1d60da1b815250611d16565b905060008061124a8460405160200161060f9190613426565b90507f00000000000000000000000000000000000000000000000000000000000000008110156112a15761129e817f000000000000000000000000000000000000000000000000000000000000000061340f565b91505b8115611352576112d7846040516020016112bb91906135c7565b6040516020818303038152906040528051906020012083612717565b60405163efe441d960e01b8152600481018390527f00000000000000000000000000000000000000000000000000000000000000006001600160a01b03169063efe441d990602401600060405180830381600087803b15801561133957600080fd5b505af115801561134d573d6000803e3d6000fd5b505050505b60405163075c6c4b60e11b8152600481018290526001600160a01b03841690630eb8d89690602401600060405180830381600087803b15801561139457600080fd5b505af11580156113a8573d6000803e3d6000fd5b50505050600082826113ba919061349c565b90507f00000000000000000000000000000000000000000000000000000000000000008110156113fd5760405163074bb7f760e21b815260040160405180910390fd5b611430856040516020016114119190613379565b60408051601f1981840301815291905280516020909101206001612717565b60016040516001600160a01b0388169060008051602061382583398151915290600090a361145e3382612b64565b505050505050565b600061147184612aef565b905061147e8160036125b4565b60006114948260405160200161060f9190613561565b905080841115806114a457504284115b156114c2576040516338af65f760e01b815260040160405180910390fd5b60006114d88360405160200161060f9190613426565b905060006114f08460405160200161060f91906135c7565b905060006114fe828461349c565b905061150a868261349c565b34146115295760405163162908e360e11b815260040160405180910390fd5b60006115516040518060400160405280600581526020016415985d5b1d60da1b815250611d16565b9050611586866040516020016115679190613379565b60408051601f1981840301815291905280516020909101206003612717565b61159a866040516020016110ac9190613595565b6115ca866040516020016115ae91906135fd565b6040516020818303038152906040528051906020012088612717565b866000036117145760006115e88760405160200161060f91906136c4565b905060006115f68286611f4d565b90506000611603826121b1565b90506116358960405160200161161991906133d9565b6040516020818303038152906040528051906020012082612717565b604051630e0f72f160e21b815260048101879052600060248201527f00000000000000000000000000000000000000000000000000000000000000006001600160a01b03169063383dcbc49088906044016000604051808303818588803b15801561169f57600080fd5b505af11580156116b3573d6000803e3d6000fd5b5050505050836001600160a01b03166324056867886040518263ffffffff1660e01b81526004016000604051808303818588803b1580156116f357600080fd5b505af1158015611707573d6000803e3d6000fd5b5050505050505050611891565b60008084156117de5761172860028a613510565b9050606461173782600f6134f1565b6117419190613510565b61174b908261340f565b91506001600160a01b037f00000000000000000000000000000000000000000000000000000000000000001663383dcbc4611786848861349c565b6040516001600160e01b031960e084901b16815260048101899052602481018690526044016000604051808303818588803b1580156117c457600080fd5b505af11580156117d8573d6000803e3d6000fd5b50505050505b60006117ea838b61340f565b905061180089604051602001611619919061345e565b61183089604051602001611814919061363a565b6040516020818303038152906040528051906020012084612717565b6001600160a01b0384166324056867611849838a61349c565b6040518263ffffffff1660e01b81526004016000604051808303818588803b15801561187457600080fd5b505af1158015611888573d6000803e3d6000fd5b50505050505050505b60036040516001600160a01b038b169060008051602061382583398151915290600090a3505050505050505050565b606060006118db60008051602061380583398151915261245d565b905060006118e9848661349c565b9050818111806118f7575083155b156118ff5750805b611909858261340f565b67ffffffffffffffff81111561192157611921612ece565b60405190808252806020026020018201604052801561195a57816020015b611947612dfe565b81526020019060019003908161193f5790505b5092506000855b828110156119d257600061197482611d7a565b9050886006811115611988576119886133aa565b8160200151036119bf57808684815181106119a5576119a56137a7565b602002602001018190525082806119bb906134b4565b9350505b50806119ca816134b4565b915050611961565b5083525090949350505050565b60006119ea84612aef565b90506119f78160026125b4565b611a2a81604051602001611a0b9190613379565b60408051601f1981840301815291905280516020909101206002612717565b611a5a81604051602001611a3e9190613532565b604051602081830303815290604052805190602001208461277d565b611a6e816040516020016112bb9190613561565b60026040516001600160a01b0386169060008051602061382583398151915290600090a350505050565b6000611aa3826105f7565b90508019611ac45760405163d2fc63e360e01b815260040160405180910390fd5b6000611ada826040516020016106529190613349565b9050336001600160a01b03821614611b055760405163112dcfdd60e31b815260040160405180910390fd5b61035f8383612bb5565b6000611b2860008051602061380583398151915261245d565b905090565b600080611b57604051806040016040528060068152602001654f7261636c6560d01b815250611d16565b90506000816001600160a01b031663bece349b6040518163ffffffff1660e01b81526004016040805180830381865afa158015611b98573d6000803e3d6000fd5b505050506040513d601f19601f82011682018060405250810190611bbc91906134cd565b5090506000611be9604051806040016040528060078152602001665374616b696e6760c81b815250611d16565b604051636ae0785160e01b81526001600160a01b038781166004830152919250600091831690636ae0785190602401602060405180830381865afa158015611c35573d6000803e3d6000fd5b505050506040513d601f19601f82011682018060405250810190611c5991906133c0565b90506000611c7460008051602061380583398151915261245d565b90506000805b82811015611cfe576000611c8d82611d7a565b9050896001600160a01b0316816101a001516001600160a01b031603611ceb576000670de0b6b3a76400008261010001516714d1120d7b160000611cd191906134f1565b611cdb9190613510565b9050611ce7818561349c565b9350505b5080611cf6816134b4565b915050611c7a565b50611d0a838287612d4e565b98975050505050505050565b600080611d2d8360405160200161065291906137bd565b90506001600160a01b0381166106345760405162461bcd60e51b815260206004820152601260248201527110dbdb9d1c9858dd081b9bdd08199bdd5b9960721b6044820152606401610bac565b611d82612dfe565b611d96826040516020016106529190613693565b6001600160a01b03168152604051611db69061060f908490602001613379565b816020018181525050611dd38260405160200161060f91906136c4565b816040018181525050611e0b82604051602001611df09190613532565b60405160208183030381529060405280519060200120612d8b565b6101e0820152604051611e269061060f908490602001613561565b6060820152604051611e409061060f908490602001613595565b6080820152604051611e5a9061060f90849060200161372e565b60a0820152604051611e749061060f9084906020016133d9565b60e0820152604051611e8e9061060f908490602001613426565b610100820152604051611ea99061060f9084906020016135c7565b610120820152604051611ec49061060f9084906020016135fd565b610140820152604051611edf9061060f90849060200161345e565b610160820152604051611efa9061060f90849060200161363a565b610180820152604051611f15906106529084906020016136f7565b6001600160a01b03166101c0820152604051611f3990610652908490602001613349565b6001600160a01b03166101a0820152919050565b600080611f7c6040518060400160405280600b81526020016a50726f746f636f6c44414f60a81b815250611d16565b90506000816001600160a01b0316634712a1436040518163ffffffff1660e01b8152600401602060405180830381865afa158015611fbe573d6000803e3d6000fd5b505050506040513d601f19601f82011682018060405250810190611fe291906133c0565b9050670de0b6b3a76400006301e13380611ffc83886134f1565b6120069190613510565b61201090866134f1565b61201a9190613510565b95945050505050565b600061202e836105f7565b9050801961204f5760405163d2fc63e360e01b815260040160405180910390fd5b61035f816040516020016120639190613379565b6040516020818303038152906040528051906020012083600681111561074e5761074e6133aa565b60008061209783612aef565b90506120a48160016125b4565b6000806120bb8360405160200161060f9190613426565b90507f00000000000000000000000000000000000000000000000000000000000000008110156121125761210f817f000000000000000000000000000000000000000000000000000000000000000061340f565b91505b7f00000000000000000000000000000000000000000000000000000000000000006001600160a01b031663be13733c6040518163ffffffff1660e01b8152600401602060405180830381865afa158015612170573d6000803e3d6000fd5b505050506040513d601f19601f8201168201806040525081019061219491906133c0565b8211156121a657506000949350505050565b506001949350505050565b6000806121db604051806040016040528060068152602001654f7261636c6560d01b815250611d16565b90506000816001600160a01b031663bece349b6040518163ffffffff1660e01b81526004016040805180830381865afa15801561221c573d6000803e3d6000fd5b505050506040513d601f19601f8201168201806040525081019061224091906134cd565b5090508061225685670de0b6b3a76400006134f1565b6122609190613510565b949350505050565b600061066d838360405160200161060f929190613337565b60008061229a60008051602061380583398151915261245d565b905060006122c5604051806040016040528060068152602001654f7261636c6560d01b815250611d16565b90506000816001600160a01b031663bece349b6040518163ffffffff1660e01b81526004016040805180830381865afa158015612306573d6000803e3d6000fd5b505050506040513d601f19601f8201168201806040525081019061232a91906134cd565b5090506000612357604051806040016040528060078152602001665374616b696e6760c81b815250611d16565b90506000816001600160a01b031663bf79cbf66040518163ffffffff1660e01b8152600401602060405180830381865afa158015612399573d6000803e3d6000fd5b505050506040513d601f19601f820116820180604052508101906123bd91906133c0565b90506000805b868110156124245760006123d682611d7a565b9050670de0b6b3a76400008161010001516714d1120d7b1600006123fa91906134f1565b6124049190613510565b61240e908461349c565b925050808061241c906134b4565b9150506123c3565b506000670de0b6b3a764000061243a86856134f1565b6124449190613510565b9050612451818387612d4e565b97505050505050505090565b6000805460405163bd02d0f560e01b8152600481018490526101009091046001600160a01b03169063bd02d0f5906024015b602060405180830381865afa1580156124ac573d6000803e3d6000fd5b505050506040513d601f19601f8201168201806040525081019061063491906133c0565b600080546040516321f8a72160e01b8152600481018490526101009091046001600160a01b0316906321f8a72190602401602060405180830381865afa15801561251e573d6000803e3d6000fd5b505050506040513d601f19601f820116820180604052508101906106349190613676565b60008054604051633d70e7e560e11b8152600481018490526101009091046001600160a01b031690637ae1cfca90602401602060405180830381865afa158015612590573d6000803e3d6000fd5b505050506040513d601f19601f8201168201806040525081019061063491906137e2565b6000826040516020016125c79190613379565b60405160208183030381529060405280519060200120905060006125ea8261245d565b60068111156125fb576125fb6133aa565b9050600080826006811115612612576126126133aa565b036126515760015b84600681111561262c5761262c6133aa565b148061264a575060055b846006811115612648576126486133aa565b145b90506126f2565b6001826006811115612665576126656133aa565b0361267157600261261a565b6002826006811115612685576126856133aa565b03612691576003612636565b60038260068111156126a5576126a56133aa565b036126b1576004612636565b60048260068111156126c5576126c56133aa565b14806126e2575060058260068111156126e0576126e06133aa565b145b156126ee576000612636565b5060005b80612710576040516323e69e0360e21b815260040160405180910390fd5b5050505050565b600054604051637152429d60e11b815260048101849052602481018390526101009091046001600160a01b03169063e2a4853a906044015b600060405180830381600087803b15801561276957600080fd5b505af115801561145e573d6000803e3d6000fd5b6000546040516309d23b6160e31b815260048101849052602481018390526101009091046001600160a01b031690634e91db089060440161274f565b60005460405163ca446dd960e01b8152600481018490526001600160a01b0383811660248301526101009092049091169063ca446dd99060440161274f565b600054604051632b6cd4f760e21b815260048101849052602481018390526101009091046001600160a01b03169063adb353dc9060440161274f565b600080612869604051806040016040528060118152602001704164647265737353657453746f7261676560781b815250611d16565b9050806001600160a01b03166368ee92c960405160200161289c906b0dcdec8ca9ee05cd2dcc8caf60a31b8152600c0190565b60408051601f198184030181529082905280516020909101206001600160e01b031960e084901b16825260048201526001600160a01b0386166024820152604401602060405180830381865afa1580156128fa573d6000803e3d6000fd5b505050506040513d601f19601f8201168201806040525081019061291e91906133c0565b60001914159392505050565b6040516c6e6f64654f702e65786973747360981b60208201526bffffffffffffffffffffffff193360601b16602d82015261297f90604101604051602081830303815290604052805190602001206001612dc1565b60006129b3604051806040016040528060118152602001704164647265737353657453746f7261676560781b815250611d16565b9050806001600160a01b031663889271666040516020016129e6906b0dcdec8ca9ee05cd2dcc8caf60a31b8152600c0190565b60408051601f198184030181529082905280516020909101206001600160e01b031960e084901b16825260048201526001600160a01b0385166024820152604401600060405180830381600087803b158015612a4157600080fd5b505af1158015612a55573d6000803e3d6000fd5b505050506000612a84604051806040016040528060088152602001674e4f50436c61696d60c01b815250611d16565b60405163ab01b46960e01b81526001600160a01b038581166004830152600160248301529192509082169063ab01b46990604401600060405180830381600087803b158015612ad257600080fd5b505af1158015612ae6573d6000803e3d6000fd5b50505050505050565b600080612afb836105f7565b90508019612b1c5760405163d2fc63e360e01b815260040160405180910390fd5b6000612b328260405160200161065291906136f7565b9050336001600160a01b03821614612b5d5760405163c2bd570760e01b815260040160405180910390fd5b5092915050565b600080600080600085875af190508061035f5760405162461bcd60e51b815260206004820152601360248201527211551217d514905394d1915497d19052531151606a1b6044820152606401610bac565b612bc08160056125b4565b612bf381604051602001612bd49190613379565b60408051601f1981840301815291905280516020909101206005612717565b6000612c1b6040518060400160405280600581526020016415985d5b1d60da1b815250611d16565b90506000612c33836040516020016106529190613349565b90506000612c4b8460405160200161060f9190613426565b90508015612d235760405163075c6c4b60e11b8152600481018290526001600160a01b03841690630eb8d89690602401600060405180830381600087803b158015612c9557600080fd5b505af1158015612ca9573d6000803e3d6000fd5b505050506000826001600160a01b03168260405160006040518083038185875af1925050503d8060008114612cfa576040519150601f19603f3d011682016040523d82523d6000602084013e612cff565b606091505b5050905080612d2157604051639d60fd7560e01b815260040160405180910390fd5b505b60056040516001600160a01b0387169060008051602061382583398151915290600090a35050505050565b60008083851015612d60575083612d63565b50825b6000612d6f8483613510565b612d8190670de0b6b3a76400006134f1565b9695505050505050565b60008054604051635376ab1f60e11b8152600481018490526101009091046001600160a01b03169063a6ed563e9060240161248f565b60005460405163abfdcced60e01b81526004810184905282151560248201526101009091046001600160a01b03169063abfdcced9060440161274f565b60405180610200016040528060006001600160a01b0316815260200160008152602001600081526020016000815260200160008152602001600081526020016000815260200160008152602001600081526020016000815260200160008152602001600081526020016000815260200160006001600160a01b0316815260200160006001600160a01b03168152602001600080191681525090565b6001600160a01b0381168114612eae57600080fd5b50565b600060208284031215612ec357600080fd5b813561066d81612e99565b634e487b7160e01b600052604160045260246000fd5b600082601f830112612ef557600080fd5b813567ffffffffffffffff80821115612f1057612f10612ece565b604051601f8301601f19908116603f01168101908282118183101715612f3857612f38612ece565b81604052838152866020858801011115612f5157600080fd5b836020870160208301376000602085830101528094505050505092915050565b60008060408385031215612f8457600080fd5b82359150602083013567ffffffffffffffff811115612fa257600080fd5b612fae85828601612ee4565b9150509250929050565b60008060408385031215612fcb57600080fd5b50508035926020909101359150565b600080600060608486031215612fef57600080fd5b8335612ffa81612e99565b95602085013595506040909401359392505050565b60008060006040848603121561302457600080fd5b833561302f81612e99565b9250602084013567ffffffffffffffff8082111561304c57600080fd5b818601915086601f83011261306057600080fd5b81358181111561306f57600080fd5b87602082850101111561308157600080fd5b6020830194508093505050509250925092565b8035600781106130a357600080fd5b919050565b6000806000606084860312156130bd57600080fd5b612ffa84613094565b80516001600160a01b031682526020810151602083015260408101516040830152606081015160608301526080810151608083015260a081015160a083015260c081015160c083015260e081015160e08301526101008082015181840152506101208082015181840152506101408082015181840152506101608082015181840152506101808082015181840152506101a080820151613170828501826001600160a01b03169052565b50506101c0818101516001600160a01b0316908301526101e090810151910152565b6020808252825182820181905260009190848201906040850190845b818110156131d5576131c18385516130c6565b9284019261020092909201916001016131ae565b50909695505050505050565b6000602082840312156131f357600080fd5b813567ffffffffffffffff81111561320a57600080fd5b61226084828501612ee4565b60006020828403121561322857600080fd5b5035919050565b610200810161063482846130c6565b6000806040838503121561325157600080fd5b823561325c81612e99565b915061326a60208401613094565b90509250929050565b6d0dad2dcd2e0deded85cd2dcc8caf60931b815260609190911b6bffffffffffffffffffffffff1916600e82015260220190565b634e487b7160e01b600052601160045260246000fd5b60008083128015600160ff1b8501841216156132db576132db6132a7565b6001600160ff1b03840183138116156132f6576132f66132a7565b50500390565b6000815160005b8181101561331d5760208185018101518683015201613303565b8181111561332c576000828601525b509290920192915050565b828152600061226060208301846132fc565b6c6d696e69706f6f6c2e6974656d60981b8152600d810191909152651737bbb732b960d11b602d82015260330190565b6c6d696e69706f6f6c2e6974656d60981b8152600d810191909152662e73746174757360c81b602d82015260340190565b634e487b7160e01b600052602160045260246000fd5b6000602082840312156133d257600080fd5b5051919050565b6c6d696e69706f6f6c2e6974656d60981b8152600d8101919091526b0b99d9dc14db185cda105b5d60a21b602d82015260390190565b600082821015613421576134216132a7565b500390565b6c6d696e69706f6f6c2e6974656d60981b8152600d8101919091526d0b985d985e139bd91953dc105b5d60921b602d820152603b0190565b6c6d696e69706f6f6c2e6974656d60981b8152600d810191909152730b985d985e139bd91953dc14995dd85c99105b5d60621b602d82015260410190565b600082198211156134af576134af6132a7565b500190565b6000600182016134c6576134c66132a7565b5060010190565b600080604083850312156134e057600080fd5b505080516020909101519092909150565b600081600019048311821515161561350b5761350b6132a7565b500290565b60008261352d57634e487b7160e01b600052601260045260246000fd5b500490565b6c6d696e69706f6f6c2e6974656d60981b8152600d810191909152640b9d1e125160da1b602d82015260320190565b6c6d696e69706f6f6c2e6974656d60981b8152600d810191909152692e737461727454696d6560b01b602d82015260370190565b6c6d696e69706f6f6c2e6974656d60981b8152600d810191909152672e656e6454696d6560c01b602d82015260350190565b6c6d696e69706f6f6c2e6974656d60981b8152600d8101919091526b0b985d985e155cd95c905b5d60a21b602d82015260390190565b6c6d696e69706f6f6c2e6974656d60981b8152600d810191909152720b985d985e151bdd185b14995dd85c99105b5d606a1b602d82015260400190565b6c6d696e69706f6f6c2e6974656d60981b8152600d810191909152710b985d985e155cd95c94995dd85c99105b5d60721b602d820152603f0190565b60006020828403121561368857600080fd5b815161066d81612e99565b6c6d696e69706f6f6c2e6974656d60981b8152600d810191909152660b9b9bd919525160ca1b602d82015260340190565b6c6d696e69706f6f6c2e6974656d60981b8152600d8101919091526817323ab930ba34b7b760b91b602d82015260360190565b6c6d696e69706f6f6c2e6974656d60981b8152600d8101919091526c1736bab63a34b9b4b3a0b2323960991b602d820152603a0190565b6c6d696e69706f6f6c2e6974656d60981b8152600d8101919091526d2e64656c65676174696f6e46656560901b602d820152603b0190565b600080821280156001600160ff1b0384900385131615613788576137886132a7565b600160ff1b83900384128116156137a1576137a16132a7565b50500190565b634e487b7160e01b600052603260045260246000fd5b6f636f6e74726163742e6164647265737360801b8152600061066d60108301846132fc565b6000602082840312156137f457600080fd5b8151801515811461066d57600080fdfee0350abf7e528889b5822fca885fa12de74628619c3752923dd9ec3ce44e4602c9c043637725967252aedd2704cc65fee962e7b8a1e3cf8098587a66601e50c5a26469706673582212204490e98dd690266997404889d8e68fdf13b205f56e2482515961fc3c27caa1b964736f6c634300080d0033",
  "linkReferences": {},
  "deployedLinkReferences": {}
}