{
  "_format": "hh-sol-artifact-1",
  "contractName": "Vault",
  "sourceName": "contracts/contract/Vault.sol",
  "abi": [
    {
      "inputs": [
        {
          "internalType": "contract Storage",
          "name": "storageAddress",
          "type": "address"
        }
      ],
      "stateMutability": "nonpayable",
      "type": "constructor"
    },
    {
      "inputs": [],
      "name": "InsufficientContractBalance",
      "type": "error"
    },
    {
      "inputs": [],
      "name": "InvalidAmount",
      "type": "error"
    },
    {
      "inputs": [],
      "name": "InvalidNetworkContract",
      "type": "error"
    },
    {
      "inputs": [],
      "name": "TokenTransferFailed",
      "type": "error"
    },
    {
      "inputs": [],
      "name": "VaultTokenWithdrawalFailed",
      "type": "error"
    },
    {
      "anonymous": false,
      "inputs": [
        {
          "indexed": true,
          "internalType": "string",
          "name": "by",
          "type": "string"
        },
        {
          "indexed": false,
          "internalType": "uint256",
          "name": "amount",
          "type": "uint256"
        },
        {
          "indexed": false,
          "internalType": "uint256",
          "name": "time",
          "type": "uint256"
        }
      ],
      "name": "AvaxDeposited",
      "type": "event"
    },
    {
      "anonymous": false,
      "inputs": [
        {
          "indexed": true,
          "internalType": "string",
          "name": "from",
          "type": "string"
        },
        {
          "indexed": true,
          "internalType": "string",
          "name": "to",
          "type": "string"
        },
        {
          "indexed": false,
          "internalType": "uint256",
          "name": "amount",
          "type": "uint256"
        },
        {
          "indexed": false,
          "internalType": "uint256",
          "name": "time",
          "type": "uint256"
        }
      ],
      "name": "AvaxTransfer",
      "type": "event"
    },
    {
      "anonymous": false,
      "inputs": [
        {
          "indexed": true,
          "internalType": "string",
          "name": "by",
          "type": "string"
        },
        {
          "indexed": false,
          "internalType": "uint256",
          "name": "amount",
          "type": "uint256"
        },
        {
          "indexed": false,
          "internalType": "uint256",
          "name": "time",
          "type": "uint256"
        }
      ],
      "name": "AvaxWithdrawn",
      "type": "event"
    },
    {
      "anonymous": false,
      "inputs": [
        {
          "indexed": true,
          "internalType": "bytes32",
          "name": "by",
          "type": "bytes32"
        },
        {
          "indexed": true,
          "internalType": "address",
          "name": "tokenAddress",
          "type": "address"
        },
        {
          "indexed": false,
          "internalType": "uint256",
          "name": "amount",
          "type": "uint256"
        },
        {
          "indexed": false,
          "internalType": "uint256",
          "name": "time",
          "type": "uint256"
        }
      ],
      "name": "TokenBurned",
      "type": "event"
    },
    {
      "anonymous": false,
      "inputs": [
        {
          "indexed": true,
          "internalType": "bytes32",
          "name": "by",
          "type": "bytes32"
        },
        {
          "indexed": true,
          "internalType": "address",
          "name": "tokenAddress",
          "type": "address"
        },
        {
          "indexed": false,
          "internalType": "uint256",
          "name": "amount",
          "type": "uint256"
        },
        {
          "indexed": false,
          "internalType": "uint256",
          "name": "time",
          "type": "uint256"
        }
      ],
      "name": "TokenDeposited",
      "type": "event"
    },
    {
      "anonymous": false,
      "inputs": [
        {
          "indexed": true,
          "internalType": "bytes32",
          "name": "by",
          "type": "bytes32"
        },
        {
          "indexed": true,
          "internalType": "bytes32",
          "name": "to",
          "type": "bytes32"
        },
        {
          "indexed": true,
          "internalType": "address",
          "name": "tokenAddress",
          "type": "address"
        },
        {
          "indexed": false,
          "internalType": "uint256",
          "name": "amount",
          "type": "uint256"
        },
        {
          "indexed": false,
          "internalType": "uint256",
          "name": "time",
          "type": "uint256"
        }
      ],
      "name": "TokenTransfer",
      "type": "event"
    },
    {
      "anonymous": false,
      "inputs": [
        {
          "indexed": true,
          "internalType": "bytes32",
          "name": "by",
          "type": "bytes32"
        },
        {
          "indexed": true,
          "internalType": "address",
          "name": "tokenAddress",
          "type": "address"
        },
        {
          "indexed": false,
          "internalType": "uint256",
          "name": "amount",
          "type": "uint256"
        },
        {
          "indexed": false,
          "internalType": "uint256",
          "name": "time",
          "type": "uint256"
        }
      ],
      "name": "TokenWithdrawn",
      "type": "event"
    },
    {
      "inputs": [
        {
          "internalType": "string",
          "name": "_networkContractName",
          "type": "string"
        }
      ],
      "name": "balanceOf",
      "outputs": [
        {
          "internalType": "uint256",
          "name": "",
          "type": "uint256"
        }
      ],
      "stateMutability": "view",
      "type": "function"
    },
    {
      "inputs": [
        {
          "internalType": "string",
          "name": "_networkContractName",
          "type": "string"
        },
        {
          "internalType": "contract ERC20",
          "name": "_tokenAddress",
          "type": "address"
        }
      ],
      "name": "balanceOfToken",
      "outputs": [
        {
          "internalType": "uint256",
          "name": "",
          "type": "uint256"
        }
      ],
      "stateMutability": "view",
      "type": "function"
    },
    {
      "inputs": [
        {
          "internalType": "contract ERC20Burnable",
          "name": "_tokenAddress",
          "type": "address"
        },
        {
          "internalType": "uint256",
          "name": "_amount",
          "type": "uint256"
        }
      ],
      "name": "burnToken",
      "outputs": [],
      "stateMutability": "nonpayable",
      "type": "function"
    },
    {
      "inputs": [],
      "name": "depositAvax",
      "outputs": [],
      "stateMutability": "payable",
      "type": "function"
    },
    {
      "inputs": [
        {
          "internalType": "string",
          "name": "_networkContractName",
          "type": "string"
        },
        {
          "internalType": "contract ERC20",
          "name": "_tokenContract",
          "type": "address"
        },
        {
          "internalType": "uint256",
          "name": "_amount",
          "type": "uint256"
        }
      ],
      "name": "depositToken",
      "outputs": [],
      "stateMutability": "nonpayable",
      "type": "function"
    },
    {
      "inputs": [
        {
          "internalType": "string",
          "name": "_contractName",
          "type": "string"
        }
      ],
      "name": "getPublicContractAddress",
      "outputs": [
        {
          "internalType": "address",
          "name": "",
          "type": "address"
        }
      ],
      "stateMutability": "view",
      "type": "function"
    },
    {
      "inputs": [
        {
          "internalType": "bytes32",
          "name": "settingNameSpace",
          "type": "bytes32"
        },
        {
          "internalType": "string",
          "name": "_settingPath",
          "type": "string"
        }
      ],
      "name": "getSettingAddress",
      "outputs": [
        {
          "internalType": "address",
          "name": "",
          "type": "address"
        }
      ],
      "stateMutability": "view",
      "type": "function"
    },
    {
      "inputs": [
        {
          "internalType": "bytes32",
          "name": "settingNameSpace",
          "type": "bytes32"
        },
        {
          "internalType": "string",
          "name": "_settingPath",
          "type": "string"
        }
      ],
      "name": "getSettingBool",
      "outputs": [
        {
          "internalType": "bool",
          "name": "",
          "type": "bool"
        }
      ],
      "stateMutability": "view",
      "type": "function"
    },
    {
      "inputs": [
        {
          "internalType": "bytes32",
          "name": "settingNameSpace",
          "type": "bytes32"
        },
        {
          "internalType": "string",
          "name": "_settingPath",
          "type": "string"
        }
      ],
      "name": "getSettingUint",
      "outputs": [
        {
          "internalType": "uint256",
          "name": "",
          "type": "uint256"
        }
      ],
      "stateMutability": "view",
      "type": "function"
    },
    {
      "inputs": [
        {
          "internalType": "string",
          "name": "fromContractName",
          "type": "string"
        },
        {
          "internalType": "string",
          "name": "toContractName",
          "type": "string"
        },
        {
          "internalType": "uint256",
          "name": "amount",
          "type": "uint256"
        }
      ],
      "name": "transferAvax",
      "outputs": [],
      "stateMutability": "nonpayable",
      "type": "function"
    },
    {
      "inputs": [
        {
          "internalType": "string",
          "name": "_networkContractName",
          "type": "string"
        },
        {
          "internalType": "contract ERC20",
          "name": "_tokenAddress",
          "type": "address"
        },
        {
          "internalType": "uint256",
          "name": "_amount",
          "type": "uint256"
        }
      ],
      "name": "transferToken",
      "outputs": [],
      "stateMutability": "nonpayable",
      "type": "function"
    },
    {
      "inputs": [],
      "name": "version",
      "outputs": [
        {
          "internalType": "uint8",
          "name": "",
          "type": "uint8"
        }
      ],
      "stateMutability": "view",
      "type": "function"
    },
    {
      "inputs": [
        {
          "internalType": "uint256",
          "name": "_amount",
          "type": "uint256"
        }
      ],
      "name": "withdrawAvax",
      "outputs": [],
      "stateMutability": "nonpayable",
      "type": "function"
    },
    {
      "inputs": [
        {
          "internalType": "address",
          "name": "_withdrawalAddress",
          "type": "address"
        },
        {
          "internalType": "contract ERC20",
          "name": "_tokenAddress",
          "type": "address"
        },
        {
          "internalType": "uint256",
          "name": "_amount",
          "type": "uint256"
        }
      ],
      "name": "withdrawToken",
      "outputs": [],
      "stateMutability": "nonpayable",
      "type": "function"
    }
  ],
  "bytecode": "0x60806040523480156200001157600080fd5b50604051620026353803806200263583398181016040528101906200003791906200011a565b8080600060016101000a81548173ffffffffffffffffffffffffffffffffffffffff021916908373ffffffffffffffffffffffffffffffffffffffff1602179055505060016000806101000a81548160ff021916908360ff160217905550506200014c565b600080fd5b600073ffffffffffffffffffffffffffffffffffffffff82169050919050565b6000620000ce82620000a1565b9050919050565b6000620000e282620000c1565b9050919050565b620000f481620000d5565b81146200010057600080fd5b50565b6000815190506200011481620000e9565b92915050565b6000602082840312156200013357620001326200009c565b5b6000620001438482850162000103565b91505092915050565b6124d9806200015c6000396000f3fe6080604052600436106100dd5760003560e01c806354fd4d501161007f578063eccefff611610059578063eccefff6146102af578063ee91035e146102ec578063f444295814610315578063f4d70e781461033e576100dd565b806354fd4d501461021e578063cff0b64814610249578063d1df306c14610286576100dd565b806322f8bf0c116100bb57806322f8bf0c14610171578063232de7161461019a57806324056867146101d757806335ee5f87146101e1576100dd565b806301e33667146100e257806306eaa68b1461010b5780630eb8d89614610148575b600080fd5b3480156100ee57600080fd5b5061010960048036038101906101049190611806565b61037b565b005b34801561011757600080fd5b50610132600480360381019061012d91906119d5565b61059f565b60405161013f9190611a40565b60405180910390f35b34801561015457600080fd5b5061016f600480360381019061016a9190611a5b565b6105da565b005b34801561017d57600080fd5b5061019860048036038101906101939190611a88565b6107ed565b005b3480156101a657600080fd5b506101c160048036038101906101bc91906119d5565b610a73565b6040516101ce9190611b2e565b60405180910390f35b6101df610aae565b005b3480156101ed57600080fd5b5061020860048036038101906102039190611b49565b610c01565b6040516102159190611ba1565b60405180910390f35b34801561022a57600080fd5b50610233610c29565b6040516102409190611bd8565b60405180910390f35b34801561025557600080fd5b50610270600480360381019061026b9190611b49565b610c3a565b60405161027d9190611a40565b60405180910390f35b34801561029257600080fd5b506102ad60048036038101906102a89190611c31565b610ce6565b005b3480156102bb57600080fd5b506102d660048036038101906102d19190611c71565b610e86565b6040516102e39190611ba1565b60405180910390f35b3480156102f857600080fd5b50610313600480360381019061030e9190611ccd565b610ecc565b005b34801561032157600080fd5b5061033c60048036038101906103379190611ccd565b611109565b005b34801561034a57600080fd5b50610365600480360381019061036091906119d5565b611321565b6040516103729190611ba1565b60405180910390f35b6103aa3360405160200161038f9190611ddb565b6040516020818303038152906040528051906020012061135c565b6103e9576040517f08c379a00000000000000000000000000000000000000000000000000000000081526004016103e090611e5e565b60405180910390fd5b60008103610423576040517f2c5211c600000000000000000000000000000000000000000000000000000000815260040160405180910390fd5b600061042e33611400565b83604051602001610440929190611f54565b6040516020818303038152906040528051906020012090508160026000838152602001908152602001600020546104779190611fab565b600260008381526020019081526020016000208190555060008390508073ffffffffffffffffffffffffffffffffffffffff1663a9059cbb86856040518363ffffffff1660e01b81526004016104ce929190611fdf565b6020604051808303816000875af11580156104ed573d6000803e3d6000fd5b505050506040513d601f19601f820116820180604052508101906105119190612034565b610547576040517fc80f225000000000000000000000000000000000000000000000000000000000815260040160405180910390fd5b8373ffffffffffffffffffffffffffffffffffffffff16827facd47105acf174819374e9d73c4c60bdaee9d4c7939b88a4cebb4dfe0500fbd88542604051610590929190612061565b60405180910390a35050505050565b60006105d283836040516020016105b79291906120ab565b60405160208183030381529060405280519060200120611482565b905092915050565b610609336040516020016105ee9190611ddb565b6040516020818303038152906040528051906020012061135c565b610648576040517f08c379a000000000000000000000000000000000000000000000000000000000815260040161063f90611e5e565b60405180910390fd5b60008103610682576040517f2c5211c600000000000000000000000000000000000000000000000000000000815260040160405180910390fd5b600061068d33611400565b9050816001826040516106a091906120d3565b90815260200160405180910390205410156106e7576040517f786e0a9900000000000000000000000000000000000000000000000000000000815260040160405180910390fd5b816001826040516106f891906120d3565b9081526020016040518091039020546107119190611fab565b60018260405161072191906120d3565b90815260200160405180910390208190555060003390508073ffffffffffffffffffffffffffffffffffffffff1663ffe09241846040518263ffffffff1660e01b81526004016000604051808303818588803b15801561078057600080fd5b505af1158015610794573d6000803e3d6000fd5b5050505050816040516107a791906120d3565b60405180910390207fc30640d38b14ef120484b332852610301813ada038d167d4fe85a5d41887efa284426040516107e0929190612061565b60405180910390a2505050565b61081c336040516020016108019190611ddb565b6040516020818303038152906040528051906020012061135c565b61085b576040517f08c379a000000000000000000000000000000000000000000000000000000000815260040161085290611e5e565b60405180910390fd5b60008103610895576040517f2c5211c600000000000000000000000000000000000000000000000000000000815260040160405180910390fd5b600073ffffffffffffffffffffffffffffffffffffffff166108b684611526565b73ffffffffffffffffffffffffffffffffffffffff1603610903576040517f25a2b7eb00000000000000000000000000000000000000000000000000000000815260040160405180910390fd5b600073ffffffffffffffffffffffffffffffffffffffff1661092483611526565b73ffffffffffffffffffffffffffffffffffffffff1603610971576040517f25a2b7eb00000000000000000000000000000000000000000000000000000000815260040160405180910390fd5b8060018460405161098291906120d3565b90815260200160405180910390205461099b9190611fab565b6001846040516109ab91906120d3565b908152602001604051809103902081905550806001836040516109ce91906120d3565b9081526020016040518091039020546109e791906120ea565b6001836040516109f791906120d3565b90815260200160405180910390208190555081604051610a1791906120d3565b604051809103902083604051610a2d91906120d3565b60405180910390207fd6e125521e844cd26214b4ccbc7030a155a4712027a2eb2eccc9a6733e591aef8342604051610a66929190612061565b60405180910390a3505050565b6000610aa68383604051602001610a8b9291906120ab565b6040516020818303038152906040528051906020012061135c565b905092915050565b610add33604051602001610ac29190611ddb565b6040516020818303038152906040528051906020012061135c565b610b1c576040517f08c379a0000000000000000000000000000000000000000000000000000000008152600401610b1390611e5e565b60405180910390fd5b60003403610b56576040517f2c5211c600000000000000000000000000000000000000000000000000000000815260040160405180910390fd5b6000610b6133611400565b905034600182604051610b7491906120d3565b908152602001604051809103902054610b8d91906120ea565b600182604051610b9d91906120d3565b90815260200160405180910390208190555080604051610bbd91906120d3565b60405180910390207f4f5cc2a5b500c4b3c04b794be427e7ad0925be2d5e96b9e01f897419ab99324c3442604051610bf6929190612061565b60405180910390a250565b6000600182604051610c1391906120d3565b9081526020016040518091039020549050919050565b60008054906101000a900460ff1681565b600080610c6c83604051602001610c51919061218c565b60405160208183030381529060405280519060200120611482565b9050600073ffffffffffffffffffffffffffffffffffffffff168173ffffffffffffffffffffffffffffffffffffffff1603610cdd576040517f08c379a0000000000000000000000000000000000000000000000000000000008152600401610cd4906121fa565b60405180910390fd5b80915050919050565b610d1533604051602001610cfa9190611ddb565b6040516020818303038152906040528051906020012061135c565b610d54576040517f08c379a0000000000000000000000000000000000000000000000000000000008152600401610d4b90611e5e565b60405180910390fd5b6000610d5f33611400565b83604051602001610d71929190612243565b604051602081830303815290604052805190602001209050816002600083815260200190815260200160002054610da89190611fab565b600260008381526020019081526020016000208190555060008390508073ffffffffffffffffffffffffffffffffffffffff166342966c68846040518263ffffffff1660e01b8152600401610dfd9190611ba1565b600060405180830381600087803b158015610e1757600080fd5b505af1158015610e2b573d6000803e3d6000fd5b505050508373ffffffffffffffffffffffffffffffffffffffff16827f85ed341c0b07bd4923f06588bb1b1c46a4637853245129a55ebaf4a0e30bbd4b8542604051610e78929190612061565b60405180910390a350505050565b6000600260008484604051602001610e9f929190611f54565b60405160208183030381529060405280519060200120815260200190815260200160002054905092915050565b610efb33604051602001610ee09190611ddb565b6040516020818303038152906040528051906020012061135c565b610f3a576040517f08c379a0000000000000000000000000000000000000000000000000000000008152600401610f3190611e5e565b60405180910390fd5b60008103610f74576040517f2c5211c600000000000000000000000000000000000000000000000000000000815260040160405180910390fd5b600073ffffffffffffffffffffffffffffffffffffffff16610f9584611526565b73ffffffffffffffffffffffffffffffffffffffff1603610fe2576040517f25a2b7eb00000000000000000000000000000000000000000000000000000000815260040160405180910390fd5b6000610fed33611400565b83604051602001610fff929190611f54565b6040516020818303038152906040528051906020012090506000848460405160200161102c929190611f54565b6040516020818303038152906040528051906020012090508260026000848152602001908152602001600020546110639190611fab565b600260008481526020019081526020016000208190555082600260008381526020019081526020016000205461109991906120ea565b60026000838152602001908152602001600020819055508373ffffffffffffffffffffffffffffffffffffffff1681837f11e32afbaec5786fc0b9e69b002583dedb32cae9499deeade686c878871b8ec086426040516110fa929190612061565b60405180910390a45050505050565b60008103611143576040517f2c5211c600000000000000000000000000000000000000000000000000000000815260040160405180910390fd5b600073ffffffffffffffffffffffffffffffffffffffff1661116484611526565b73ffffffffffffffffffffffffffffffffffffffff16036111b1576040517f25a2b7eb00000000000000000000000000000000000000000000000000000000815260040160405180910390fd5b600083836040516020016111c692919061226b565b6040516020818303038152906040528051906020012090508273ffffffffffffffffffffffffffffffffffffffff166323b872dd3330856040518463ffffffff1660e01b815260040161121b93929190612293565b6020604051808303816000875af115801561123a573d6000803e3d6000fd5b505050506040513d601f19601f8201168201806040525081019061125e9190612034565b611294576040517f045c4b0200000000000000000000000000000000000000000000000000000000815260040160405180910390fd5b8160026000838152602001908152602001600020546112b391906120ea565b60026000838152602001908152602001600020819055508273ffffffffffffffffffffffffffffffffffffffff16817f14c4e7cf1c77c463baf4198cf43a79854a178a5641b6e59a109d7ed539f410aa8442604051611313929190612061565b60405180910390a350505050565b600061135483836040516020016113399291906120ab565b604051602081830303815290604052805190602001206115d2565b905092915050565b60008060019054906101000a900473ffffffffffffffffffffffffffffffffffffffff1673ffffffffffffffffffffffffffffffffffffffff16637ae1cfca836040518263ffffffff1660e01b81526004016113b891906122d9565b602060405180830381865afa1580156113d5573d6000803e3d6000fd5b505050506040513d601f19601f820116820180604052508101906113f99190612034565b9050919050565b60606000611433836040516020016114189190612340565b60405160208183030381529060405280519060200120611676565b90506000815111611479576040517f08c379a0000000000000000000000000000000000000000000000000000000008152600401611470906121fa565b60405180910390fd5b80915050919050565b60008060019054906101000a900473ffffffffffffffffffffffffffffffffffffffff1673ffffffffffffffffffffffffffffffffffffffff166321f8a721836040518263ffffffff1660e01b81526004016114de91906122d9565b602060405180830381865afa1580156114fb573d6000803e3d6000fd5b505050506040513d601f19601f8201168201806040525081019061151f919061237b565b9050919050565b6000806115588360405160200161153d919061218c565b60405160208183030381529060405280519060200120611482565b9050600073ffffffffffffffffffffffffffffffffffffffff168173ffffffffffffffffffffffffffffffffffffffff16036115c9576040517f08c379a00000000000000000000000000000000000000000000000000000000081526004016115c0906121fa565b60405180910390fd5b80915050919050565b60008060019054906101000a900473ffffffffffffffffffffffffffffffffffffffff1673ffffffffffffffffffffffffffffffffffffffff1663bd02d0f5836040518263ffffffff1660e01b815260040161162e91906122d9565b602060405180830381865afa15801561164b573d6000803e3d6000fd5b505050506040513d601f19601f8201168201806040525081019061166f91906123bd565b9050919050565b6060600060019054906101000a900473ffffffffffffffffffffffffffffffffffffffff1673ffffffffffffffffffffffffffffffffffffffff1663986e791a836040518263ffffffff1660e01b81526004016116d391906122d9565b600060405180830381865afa1580156116f0573d6000803e3d6000fd5b505050506040513d6000823e3d601f19601f82011682018060405250810190611719919061245a565b9050919050565b6000604051905090565b600080fd5b600080fd5b600073ffffffffffffffffffffffffffffffffffffffff82169050919050565b600061175f82611734565b9050919050565b61176f81611754565b811461177a57600080fd5b50565b60008135905061178c81611766565b92915050565b600061179d82611754565b9050919050565b6117ad81611792565b81146117b857600080fd5b50565b6000813590506117ca816117a4565b92915050565b6000819050919050565b6117e3816117d0565b81146117ee57600080fd5b50565b600081359050611800816117da565b92915050565b60008060006060848603121561181f5761181e61172a565b5b600061182d8682870161177d565b935050602061183e868287016117bb565b925050604061184f868287016117f1565b9150509250925092565b6000819050919050565b61186c81611859565b811461187757600080fd5b50565b60008135905061188981611863565b92915050565b600080fd5b600080fd5b6000601f19601f8301169050919050565b7f4e487b7100000000000000000000000000000000000000000000000000000000600052604160045260246000fd5b6118e282611899565b810181811067ffffffffffffffff82111715611901576119006118aa565b5b80604052505050565b6000611914611720565b905061192082826118d9565b919050565b600067ffffffffffffffff8211156119405761193f6118aa565b5b61194982611899565b9050602081019050919050565b82818337600083830152505050565b600061197861197384611925565b61190a565b90508281526020810184848401111561199457611993611894565b5b61199f848285611956565b509392505050565b600082601f8301126119bc576119bb61188f565b5b81356119cc848260208601611965565b91505092915050565b600080604083850312156119ec576119eb61172a565b5b60006119fa8582860161187a565b925050602083013567ffffffffffffffff811115611a1b57611a1a61172f565b5b611a27858286016119a7565b9150509250929050565b611a3a81611754565b82525050565b6000602082019050611a556000830184611a31565b92915050565b600060208284031215611a7157611a7061172a565b5b6000611a7f848285016117f1565b91505092915050565b600080600060608486031215611aa157611aa061172a565b5b600084013567ffffffffffffffff811115611abf57611abe61172f565b5b611acb868287016119a7565b935050602084013567ffffffffffffffff811115611aec57611aeb61172f565b5b611af8868287016119a7565b9250506040611b09868287016117f1565b9150509250925092565b60008115159050919050565b611b2881611b13565b82525050565b6000602082019050611b436000830184611b1f565b92915050565b600060208284031215611b5f57611b5e61172a565b5b600082013567ffffffffffffffff811115611b7d57611b7c61172f565b5b611b89848285016119a7565b91505092915050565b611b9b816117d0565b82525050565b6000602082019050611bb66000830184611b92565b92915050565b600060ff82169050919050565b611bd281611bbc565b82525050565b6000602082019050611bed6000830184611bc9565b92915050565b6000611bfe82611754565b9050919050565b611c0e81611bf3565b8114611c1957600080fd5b50565b600081359050611c2b81611c05565b92915050565b60008060408385031215611c4857611c4761172a565b5b6000611c5685828601611c1c565b9250506020611c67858286016117f1565b9150509250929050565b60008060408385031215611c8857611c8761172a565b5b600083013567ffffffffffffffff811115611ca657611ca561172f565b5b611cb2858286016119a7565b9250506020611cc3858286016117bb565b9150509250929050565b600080600060608486031215611ce657611ce561172a565b5b600084013567ffffffffffffffff811115611d0457611d0361172f565b5b611d10868287016119a7565b9350506020611d21868287016117bb565b9250506040611d32868287016117f1565b9150509250925092565b600081905092915050565b7f636f6e74726163742e6578697374730000000000000000000000000000000000600082015250565b6000611d7d600f83611d3c565b9150611d8882611d47565b600f82019050919050565b60008160601b9050919050565b6000611dab82611d93565b9050919050565b6000611dbd82611da0565b9050919050565b611dd5611dd082611754565b611db2565b82525050565b6000611de682611d70565b9150611df28284611dc4565b60148201915081905092915050565b600082825260208201905092915050565b7f496e76616c6964206f72206f7574646174656420636f6e747261637400000000600082015250565b6000611e48601c83611e01565b9150611e5382611e12565b602082019050919050565b60006020820190508181036000830152611e7781611e3b565b9050919050565b600081519050919050565b60005b83811015611ea7578082015181840152602081019050611e8c565b83811115611eb6576000848401525b50505050565b6000611ec782611e7e565b611ed18185611d3c565b9350611ee1818560208601611e89565b80840191505092915050565b6000819050919050565b6000611f12611f0d611f0884611734565b611eed565b611734565b9050919050565b6000611f2482611ef7565b9050919050565b6000611f3682611f19565b9050919050565b611f4e611f4982611f2b565b611db2565b82525050565b6000611f608285611ebc565b9150611f6c8284611f3d565b6014820191508190509392505050565b7f4e487b7100000000000000000000000000000000000000000000000000000000600052601160045260246000fd5b6000611fb6826117d0565b9150611fc1836117d0565b925082821015611fd457611fd3611f7c565b5b828203905092915050565b6000604082019050611ff46000830185611a31565b6120016020830184611b92565b9392505050565b61201181611b13565b811461201c57600080fd5b50565b60008151905061202e81612008565b92915050565b60006020828403121561204a5761204961172a565b5b60006120588482850161201f565b91505092915050565b60006040820190506120766000830185611b92565b6120836020830184611b92565b9392505050565b6000819050919050565b6120a56120a082611859565b61208a565b82525050565b60006120b78285612094565b6020820191506120c78284611ebc565b91508190509392505050565b60006120df8284611ebc565b915081905092915050565b60006120f5826117d0565b9150612100836117d0565b9250827fffffffffffffffffffffffffffffffffffffffffffffffffffffffffffffffff0382111561213557612134611f7c565b5b828201905092915050565b7f636f6e74726163742e6164647265737300000000000000000000000000000000600082015250565b6000612176601083611d3c565b915061218182612140565b601082019050919050565b600061219782612169565b91506121a38284611ebc565b915081905092915050565b7f436f6e7472616374206e6f7420666f756e640000000000000000000000000000600082015250565b60006121e4601283611e01565b91506121ef826121ae565b602082019050919050565b60006020820190508181036000830152612213816121d7565b9050919050565b600061222582611f19565b9050919050565b61223d6122388261221a565b611db2565b82525050565b600061224f8285611ebc565b915061225b828461222c565b6014820191508190509392505050565b60006122778285611ebc565b91506122838284611dc4565b6014820191508190509392505050565b60006060820190506122a86000830186611a31565b6122b56020830185611a31565b6122c26040830184611b92565b949350505050565b6122d381611859565b82525050565b60006020820190506122ee60008301846122ca565b92915050565b7f636f6e74726163742e6e616d6500000000000000000000000000000000000000600082015250565b600061232a600d83611d3c565b9150612335826122f4565b600d82019050919050565b600061234b8261231d565b91506123578284611dc4565b60148201915081905092915050565b60008151905061237581611766565b92915050565b6000602082840312156123915761239061172a565b5b600061239f84828501612366565b91505092915050565b6000815190506123b7816117da565b92915050565b6000602082840312156123d3576123d261172a565b5b60006123e1848285016123a8565b91505092915050565b60006123fd6123f884611925565b61190a565b90508281526020810184848401111561241957612418611894565b5b612424848285611e89565b509392505050565b600082601f8301126124415761244061188f565b5b81516124518482602086016123ea565b91505092915050565b6000602082840312156124705761246f61172a565b5b600082015167ffffffffffffffff81111561248e5761248d61172f565b5b61249a8482850161242c565b9150509291505056fea2646970667358221220e54e4f982ed9c5393ed5e3380c0922f73a860a2711ed6ff3497b2e27d439859164736f6c634300080d0033",
  "linkReferences": {},
  "deployedLinkReferences": {}
}