{
  "_format": "hh-sol-artifact-1",
  "contractName": "Vault",
  "sourceName": "contracts/contract/Vault.sol",
  "abi": [
    {
      "inputs": [
        {
          "internalType": "contract Storage",
          "name": "storageAddress",
          "type": "address"
        }
      ],
      "stateMutability": "nonpayable",
      "type": "constructor"
    },
    {
      "inputs": [],
      "name": "InsufficientContractBalance",
      "type": "error"
    },
    {
      "inputs": [],
      "name": "InvalidAmount",
      "type": "error"
    },
    {
      "inputs": [],
      "name": "InvalidNetworkContract",
      "type": "error"
    },
    {
      "inputs": [],
      "name": "TokenTransferFailed",
      "type": "error"
    },
    {
      "inputs": [],
      "name": "VaultTokenWithdrawalFailed",
      "type": "error"
    },
    {
      "anonymous": false,
      "inputs": [
        {
          "indexed": true,
          "internalType": "string",
          "name": "by",
          "type": "string"
        },
        {
          "indexed": false,
          "internalType": "uint256",
          "name": "amount",
          "type": "uint256"
        },
        {
          "indexed": false,
          "internalType": "uint256",
          "name": "time",
          "type": "uint256"
        }
      ],
      "name": "AvaxDeposited",
      "type": "event"
    },
    {
      "anonymous": false,
      "inputs": [
        {
          "indexed": true,
          "internalType": "string",
          "name": "from",
          "type": "string"
        },
        {
          "indexed": true,
          "internalType": "string",
          "name": "to",
          "type": "string"
        },
        {
          "indexed": false,
          "internalType": "uint256",
          "name": "amount",
          "type": "uint256"
        },
        {
          "indexed": false,
          "internalType": "uint256",
          "name": "time",
          "type": "uint256"
        }
      ],
      "name": "AvaxTransfer",
      "type": "event"
    },
    {
      "anonymous": false,
      "inputs": [
        {
          "indexed": true,
          "internalType": "string",
          "name": "by",
          "type": "string"
        },
        {
          "indexed": false,
          "internalType": "uint256",
          "name": "amount",
          "type": "uint256"
        },
        {
          "indexed": false,
          "internalType": "uint256",
          "name": "time",
          "type": "uint256"
        }
      ],
      "name": "AvaxWithdrawn",
      "type": "event"
    },
    {
      "anonymous": false,
      "inputs": [
        {
          "indexed": true,
          "internalType": "bytes32",
          "name": "by",
          "type": "bytes32"
        },
        {
          "indexed": true,
          "internalType": "address",
          "name": "tokenAddress",
          "type": "address"
        },
        {
          "indexed": false,
          "internalType": "uint256",
          "name": "amount",
          "type": "uint256"
        },
        {
          "indexed": false,
          "internalType": "uint256",
          "name": "time",
          "type": "uint256"
        }
      ],
      "name": "TokenBurned",
      "type": "event"
    },
    {
      "anonymous": false,
      "inputs": [
        {
          "indexed": true,
          "internalType": "bytes32",
          "name": "by",
          "type": "bytes32"
        },
        {
          "indexed": true,
          "internalType": "address",
          "name": "tokenAddress",
          "type": "address"
        },
        {
          "indexed": false,
          "internalType": "uint256",
          "name": "amount",
          "type": "uint256"
        },
        {
          "indexed": false,
          "internalType": "uint256",
          "name": "time",
          "type": "uint256"
        }
      ],
      "name": "TokenDeposited",
      "type": "event"
    },
    {
      "anonymous": false,
      "inputs": [
        {
          "indexed": true,
          "internalType": "bytes32",
          "name": "by",
          "type": "bytes32"
        },
        {
          "indexed": true,
          "internalType": "bytes32",
          "name": "to",
          "type": "bytes32"
        },
        {
          "indexed": true,
          "internalType": "address",
          "name": "tokenAddress",
          "type": "address"
        },
        {
          "indexed": false,
          "internalType": "uint256",
          "name": "amount",
          "type": "uint256"
        },
        {
          "indexed": false,
          "internalType": "uint256",
          "name": "time",
          "type": "uint256"
        }
      ],
      "name": "TokenTransfer",
      "type": "event"
    },
    {
      "anonymous": false,
      "inputs": [
        {
          "indexed": true,
          "internalType": "bytes32",
          "name": "by",
          "type": "bytes32"
        },
        {
          "indexed": true,
          "internalType": "address",
          "name": "tokenAddress",
          "type": "address"
        },
        {
          "indexed": false,
          "internalType": "uint256",
          "name": "amount",
          "type": "uint256"
        },
        {
          "indexed": false,
          "internalType": "uint256",
          "name": "time",
          "type": "uint256"
        }
      ],
      "name": "TokenWithdrawn",
      "type": "event"
    },
    {
      "inputs": [
        {
          "internalType": "string",
          "name": "_networkContractName",
          "type": "string"
        }
      ],
      "name": "balanceOf",
      "outputs": [
        {
          "internalType": "uint256",
          "name": "",
          "type": "uint256"
        }
      ],
      "stateMutability": "view",
      "type": "function"
    },
    {
      "inputs": [
        {
          "internalType": "string",
          "name": "_networkContractName",
          "type": "string"
        },
        {
          "internalType": "contract ERC20",
          "name": "_tokenAddress",
          "type": "address"
        }
      ],
      "name": "balanceOfToken",
      "outputs": [
        {
          "internalType": "uint256",
          "name": "",
          "type": "uint256"
        }
      ],
      "stateMutability": "view",
      "type": "function"
    },
    {
      "inputs": [
        {
          "internalType": "contract ERC20Burnable",
          "name": "_tokenAddress",
          "type": "address"
        },
        {
          "internalType": "uint256",
          "name": "_amount",
          "type": "uint256"
        }
      ],
      "name": "burnToken",
      "outputs": [],
      "stateMutability": "nonpayable",
      "type": "function"
    },
    {
      "inputs": [],
      "name": "depositAvax",
      "outputs": [],
      "stateMutability": "payable",
      "type": "function"
    },
    {
      "inputs": [
        {
          "internalType": "string",
          "name": "_networkContractName",
          "type": "string"
        },
        {
          "internalType": "contract ERC20",
          "name": "_tokenContract",
          "type": "address"
        },
        {
          "internalType": "uint256",
          "name": "_amount",
          "type": "uint256"
        }
      ],
      "name": "depositToken",
      "outputs": [],
      "stateMutability": "nonpayable",
      "type": "function"
    },
    {
      "inputs": [
        {
          "internalType": "string",
          "name": "_contractName",
          "type": "string"
        }
      ],
      "name": "getPublicContractAddress",
      "outputs": [
        {
          "internalType": "address",
          "name": "",
          "type": "address"
        }
      ],
      "stateMutability": "view",
      "type": "function"
    },
    {
      "inputs": [
        {
          "internalType": "bytes32",
          "name": "settingNameSpace",
          "type": "bytes32"
        },
        {
          "internalType": "string",
          "name": "_settingPath",
          "type": "string"
        }
      ],
      "name": "getSettingAddress",
      "outputs": [
        {
          "internalType": "address",
          "name": "",
          "type": "address"
        }
      ],
      "stateMutability": "view",
      "type": "function"
    },
    {
      "inputs": [
        {
          "internalType": "bytes32",
          "name": "settingNameSpace",
          "type": "bytes32"
        },
        {
          "internalType": "string",
          "name": "_settingPath",
          "type": "string"
        }
      ],
      "name": "getSettingBool",
      "outputs": [
        {
          "internalType": "bool",
          "name": "",
          "type": "bool"
        }
      ],
      "stateMutability": "view",
      "type": "function"
    },
    {
      "inputs": [
        {
          "internalType": "bytes32",
          "name": "settingNameSpace",
          "type": "bytes32"
        },
        {
          "internalType": "string",
          "name": "_settingPath",
          "type": "string"
        }
      ],
      "name": "getSettingUint",
      "outputs": [
        {
          "internalType": "uint256",
          "name": "",
          "type": "uint256"
        }
      ],
      "stateMutability": "view",
      "type": "function"
    },
    {
      "inputs": [
        {
          "internalType": "string",
          "name": "fromContractName",
          "type": "string"
        },
        {
          "internalType": "string",
          "name": "toContractName",
          "type": "string"
        },
        {
          "internalType": "uint256",
          "name": "amount",
          "type": "uint256"
        }
      ],
      "name": "transferAvax",
      "outputs": [],
      "stateMutability": "nonpayable",
      "type": "function"
    },
    {
      "inputs": [
        {
          "internalType": "string",
          "name": "_networkContractName",
          "type": "string"
        },
        {
          "internalType": "contract ERC20",
          "name": "_tokenAddress",
          "type": "address"
        },
        {
          "internalType": "uint256",
          "name": "_amount",
          "type": "uint256"
        }
      ],
      "name": "transferToken",
      "outputs": [],
      "stateMutability": "nonpayable",
      "type": "function"
    },
    {
      "inputs": [],
      "name": "version",
      "outputs": [
        {
          "internalType": "uint8",
          "name": "",
          "type": "uint8"
        }
      ],
      "stateMutability": "view",
      "type": "function"
    },
    {
      "inputs": [
        {
          "internalType": "uint256",
          "name": "_amount",
          "type": "uint256"
        }
      ],
      "name": "withdrawAvax",
      "outputs": [],
      "stateMutability": "nonpayable",
      "type": "function"
    },
    {
      "inputs": [
        {
          "internalType": "address",
          "name": "_withdrawalAddress",
          "type": "address"
        },
        {
          "internalType": "contract ERC20",
          "name": "_tokenAddress",
          "type": "address"
        },
        {
          "internalType": "uint256",
          "name": "_amount",
          "type": "uint256"
        }
      ],
      "name": "withdrawToken",
      "outputs": [],
      "stateMutability": "nonpayable",
      "type": "function"
    }
  ],
  "bytecode": "0x608060405234801561001057600080fd5b5060405161170738038061170783398101604081905261002f91610063565b6000805460ff196001600160a01b0390931661010002929092166001600160a81b0319909216919091176001179055610093565b60006020828403121561007557600080fd5b81516001600160a01b038116811461008c57600080fd5b9392505050565b611665806100a26000396000f3fe6080604052600436106100dd5760003560e01c806354fd4d501161007f578063eccefff611610059578063eccefff614610253578063ee91035e14610273578063f444295814610293578063f4d70e78146102b357600080fd5b806354fd4d50146101e7578063cff0b64814610213578063d1df306c1461023357600080fd5b806322f8bf0c116100bb57806322f8bf0c14610161578063232de7161461018157806324056867146101b157806335ee5f87146101b957600080fd5b806301e33667146100e257806306eaa68b146101045780630eb8d89614610141575b600080fd5b3480156100ee57600080fd5b506101026100fd366004611101565b6102d3565b005b34801561011057600080fd5b5061012461011f366004611207565b610489565b6040516001600160a01b0390911681526020015b60405180910390f35b34801561014d57600080fd5b5061010261015c36600461124e565b6104c3565b34801561016d57600080fd5b5061010261017c366004611267565b610657565b34801561018d57600080fd5b506101a161019c366004611207565b61080a565b6040519015158152602001610138565b610102610822565b3480156101c557600080fd5b506101d96101d43660046112d4565b61091a565b604051908152602001610138565b3480156101f357600080fd5b506000546102019060ff1681565b60405160ff9091168152602001610138565b34801561021f57600080fd5b5061012461022e3660046112d4565b610942565b34801561023f57600080fd5b5061010261024e366004611311565b6109ac565b34801561025f57600080fd5b506101d961026e36600461133d565b610ae6565b34801561027f57600080fd5b5061010261028e36600461138f565b610b2c565b34801561029f57600080fd5b506101026102ae36600461138f565b610cbb565b3480156102bf57600080fd5b506101d96102ce366004611207565b610e45565b610302336040516020016102e791906113d8565b60405160208183030381529060405280519060200120610e78565b6103275760405162461bcd60e51b815260040161031e90611408565b60405180910390fd5b806000036103485760405163162908e360e11b815260040160405180910390fd5b600061035333610eea565b8360405160200161036592919061146f565b60408051601f198184030181529181528151602092830120600081815260029093529120549091506103989083906114b7565b60008281526002602052604090819020919091555163a9059cbb60e01b81526001600160a01b0385811660048301526024820184905284919082169063a9059cbb906044016020604051808303816000875af11580156103fc573d6000803e3d6000fd5b505050506040513d601f19601f8201168201806040525081019061042091906114ce565b61043d57604051630c80f22560e41b815260040160405180910390fd5b604080518481524260208201526001600160a01b0386169184917facd47105acf174819374e9d73c4c60bdaee9d4c7939b88a4cebb4dfe0500fbd8910160405180910390a35050505050565b60006104bc83836040516020016104a19291906114f0565b60405160208183030381529060405280519060200120610f8e565b9392505050565b6104d7336040516020016102e791906113d8565b6104f35760405162461bcd60e51b815260040161031e90611408565b806000036105145760405163162908e360e11b815260040160405180910390fd5b600061051f33610eea565b9050816001826040516105329190611516565b90815260200160405180910390205410156105605760405163786e0a9960e01b815260040160405180910390fd5b816001826040516105719190611516565b90815260200160405180910390205461058a91906114b7565b60018260405161059a9190611516565b9081526020016040518091039020819055506000339050806001600160a01b031663ffe09241846040518263ffffffff1660e01b81526004016000604051808303818588803b1580156105ec57600080fd5b505af1158015610600573d6000803e3d6000fd5b5050505050816040516106139190611516565b60408051918290038220858352426020840152917fc30640d38b14ef120484b332852610301813ada038d167d4fe85a5d41887efa2910160405180910390a2505050565b61066b336040516020016102e791906113d8565b6106875760405162461bcd60e51b815260040161031e90611408565b806000036106a85760405163162908e360e11b815260040160405180910390fd5b60006106b384610942565b6001600160a01b0316036106da576040516325a2b7eb60e01b815260040160405180910390fd5b60006106e583610942565b6001600160a01b03160361070c576040516325a2b7eb60e01b815260040160405180910390fd5b8060018460405161071d9190611516565b90815260200160405180910390205461073691906114b7565b6001846040516107469190611516565b908152602001604051809103902081905550806001836040516107699190611516565b9081526020016040518091039020546107829190611532565b6001836040516107929190611516565b908152604051908190036020018120919091556107b0908390611516565b6040518091039020836040516107c69190611516565b60408051918290038220848352426020840152917fd6e125521e844cd26214b4ccbc7030a155a4712027a2eb2eccc9a6733e591aef910160405180910390a3505050565b60006104bc83836040516020016102e79291906114f0565b610836336040516020016102e791906113d8565b6108525760405162461bcd60e51b815260040161031e90611408565b346000036108735760405163162908e360e11b815260040160405180910390fd5b600061087e33610eea565b9050346001826040516108919190611516565b9081526020016040518091039020546108aa9190611532565b6001826040516108ba9190611516565b908152604051908190036020018120919091556108d8908290611516565b60408051918290038220348352426020840152917f4f5cc2a5b500c4b3c04b794be427e7ad0925be2d5e96b9e01f897419ab99324c910160405180910390a250565b600060018260405161092c9190611516565b9081526020016040518091039020549050919050565b600080610959836040516020016104a1919061154a565b90506001600160a01b0381166109a65760405162461bcd60e51b815260206004820152601260248201527110dbdb9d1c9858dd081b9bdd08199bdd5b9960721b604482015260640161031e565b92915050565b6109c0336040516020016102e791906113d8565b6109dc5760405162461bcd60e51b815260040161031e90611408565b60006109e733610eea565b836040516020016109f992919061146f565b60408051601f19818403018152918152815160209283012060008181526002909352912054909150610a2c9083906114b7565b600082815260026020526040908190209190915551630852cd8d60e31b81526004810183905283906001600160a01b038216906342966c6890602401600060405180830381600087803b158015610a8257600080fd5b505af1158015610a96573d6000803e3d6000fd5b5050604080518681524260208201526001600160a01b03881693508592507f85ed341c0b07bd4923f06588bb1b1c46a4637853245129a55ebaf4a0e30bbd4b91015b60405180910390a350505050565b6000600260008484604051602001610aff92919061146f565b60405160208183030381529060405280519060200120815260200190815260200160002054905092915050565b610b40336040516020016102e791906113d8565b610b5c5760405162461bcd60e51b815260040161031e90611408565b80600003610b7d5760405163162908e360e11b815260040160405180910390fd5b6000610b8884610942565b6001600160a01b031603610baf576040516325a2b7eb60e01b815260040160405180910390fd5b6000610bba33610eea565b83604051602001610bcc92919061146f565b60405160208183030381529060405280519060200120905060008484604051602001610bf992919061146f565b60408051601f19818403018152918152815160209283012060008581526002909352912054909150610c2c9084906114b7565b600083815260026020526040808220929092558281522054610c4f908490611532565b6002600083815260200190815260200160002081905550836001600160a01b031681837f11e32afbaec5786fc0b9e69b002583dedb32cae9499deeade686c878871b8ec08642604051610cac929190918252602082015260400190565b60405180910390a45050505050565b80600003610cdc5760405163162908e360e11b815260040160405180910390fd5b6000610ce784610942565b6001600160a01b031603610d0e576040516325a2b7eb60e01b815260040160405180910390fd5b60008383604051602001610d2392919061146f565b60408051808303601f190181529082905280516020909101206323b872dd60e01b82523360048301523060248301526044820184905291506001600160a01b038416906323b872dd906064016020604051808303816000875af1158015610d8e573d6000803e3d6000fd5b505050506040513d601f19601f82011682018060405250810190610db291906114ce565b610dcf5760405163022e258160e11b815260040160405180910390fd5b600081815260026020526040902054610de9908390611532565b6002600083815260200190815260200160002081905550826001600160a01b0316817f14c4e7cf1c77c463baf4198cf43a79854a178a5641b6e59a109d7ed539f410aa8442604051610ad8929190918252602082015260400190565b60006104bc8383604051602001610e5d9291906114f0565b60405160208183030381529060405280519060200120611000565b60008054604051633d70e7e560e11b8152600481018490526101009091046001600160a01b031690637ae1cfca90602401602060405180830381865afa158015610ec6573d6000803e3d6000fd5b505050506040513d601f19601f820116820180604052508101906109a691906114ce565b60606000610f4683604051602001610f2b91906c636f6e74726163742e6e616d6560981b815260609190911b6001600160601b031916600d82015260210190565b60405160208183030381529060405280519060200120611072565b905060008151116109a65760405162461bcd60e51b815260206004820152601260248201527110dbdb9d1c9858dd081b9bdd08199bdd5b9960721b604482015260640161031e565b600080546040516321f8a72160e01b8152600481018490526101009091046001600160a01b0316906321f8a72190602401602060405180830381865afa158015610fdc573d6000803e3d6000fd5b505050506040513d601f19601f820116820180604052508101906109a69190611582565b6000805460405163bd02d0f560e01b8152600481018490526101009091046001600160a01b03169063bd02d0f590602401602060405180830381865afa15801561104e573d6000803e3d6000fd5b505050506040513d601f19601f820116820180604052508101906109a6919061159f565b600054604051634c373c8d60e11b81526004810183905260609161010090046001600160a01b03169063986e791a90602401600060405180830381865afa1580156110c1573d6000803e3d6000fd5b505050506040513d6000823e601f3d908101601f191682016040526109a691908101906115b8565b6001600160a01b03811681146110fe57600080fd5b50565b60008060006060848603121561111657600080fd5b8335611121816110e9565b92506020840135611131816110e9565b929592945050506040919091013590565b634e487b7160e01b600052604160045260246000fd5b604051601f8201601f1916810167ffffffffffffffff8111828210171561118157611181611142565b604052919050565b600067ffffffffffffffff8211156111a3576111a3611142565b50601f01601f191660200190565b600082601f8301126111c257600080fd5b81356111d56111d082611189565b611158565b8181528460208386010111156111ea57600080fd5b816020850160208301376000918101602001919091529392505050565b6000806040838503121561121a57600080fd5b82359150602083013567ffffffffffffffff81111561123857600080fd5b611244858286016111b1565b9150509250929050565b60006020828403121561126057600080fd5b5035919050565b60008060006060848603121561127c57600080fd5b833567ffffffffffffffff8082111561129457600080fd5b6112a0878388016111b1565b945060208601359150808211156112b657600080fd5b506112c3868287016111b1565b925050604084013590509250925092565b6000602082840312156112e657600080fd5b813567ffffffffffffffff8111156112fd57600080fd5b611309848285016111b1565b949350505050565b6000806040838503121561132457600080fd5b823561132f816110e9565b946020939093013593505050565b6000806040838503121561135057600080fd5b823567ffffffffffffffff81111561136757600080fd5b611373858286016111b1565b9250506020830135611384816110e9565b809150509250929050565b6000806000606084860312156113a457600080fd5b833567ffffffffffffffff8111156113bb57600080fd5b6113c7868287016111b1565b9350506020840135611131816110e9565b6e636f6e74726163742e65786973747360881b815260609190911b6001600160601b031916600f82015260230190565b6020808252601c908201527f496e76616c6964206f72206f7574646174656420636f6e747261637400000000604082015260600190565b60005b8381101561145a578181015183820152602001611442565b83811115611469576000848401525b50505050565b6000835161148181846020880161143f565b60609390931b6001600160601b0319169190920190815260140192915050565b634e487b7160e01b600052601160045260246000fd5b6000828210156114c9576114c96114a1565b500390565b6000602082840312156114e057600080fd5b815180151581146104bc57600080fd5b8281526000825161150881602085016020870161143f565b919091016020019392505050565b6000825161152881846020870161143f565b9190910192915050565b60008219821115611545576115456114a1565b500190565b6f636f6e74726163742e6164647265737360801b81526000825161157581601085016020870161143f565b9190910160100192915050565b60006020828403121561159457600080fd5b81516104bc816110e9565b6000602082840312156115b157600080fd5b5051919050565b6000602082840312156115ca57600080fd5b815167ffffffffffffffff8111156115e157600080fd5b8201601f810184136115f257600080fd5b80516116006111d082611189565b81815285602083850101111561161557600080fd5b61162682602083016020860161143f565b9594505050505056fea2646970667358221220c7ed5f1efd3474297c3352d25caaaccd85000af019f1fe466490c3f7f8b371c764736f6c634300080d0033",
  "linkReferences": {},
  "deployedLinkReferences": {}
}