{
  "_format": "hh-sol-artifact-1",
  "contractName": "TokenggAVAX",
  "sourceName": "contracts/contract/tokens/TokenggAVAX.sol",
  "abi": [
    {
      "inputs": [
        {
          "internalType": "contract Storage",
          "name": "storageAddress",
          "type": "address"
        },
        {
          "internalType": "contract ERC20",
          "name": "asset",
          "type": "address"
        }
      ],
      "stateMutability": "nonpayable",
      "type": "constructor"
    },
    {
      "inputs": [],
      "name": "SyncError",
      "type": "error"
    },
    {
      "inputs": [],
      "name": "TodoBetterMsg",
      "type": "error"
    },
    {
      "inputs": [],
      "name": "WithdrawAmountTooLarge",
      "type": "error"
    },
    {
      "inputs": [],
      "name": "ZeroShares",
      "type": "error"
    },
    {
      "anonymous": false,
      "inputs": [
        {
          "indexed": true,
          "internalType": "address",
          "name": "owner",
          "type": "address"
        },
        {
          "indexed": true,
          "internalType": "address",
          "name": "spender",
          "type": "address"
        },
        {
          "indexed": false,
          "internalType": "uint256",
          "name": "amount",
          "type": "uint256"
        }
      ],
      "name": "Approval",
      "type": "event"
    },
    {
      "anonymous": false,
      "inputs": [
        {
          "indexed": true,
          "internalType": "address",
          "name": "caller",
          "type": "address"
        },
        {
          "indexed": true,
          "internalType": "address",
          "name": "owner",
          "type": "address"
        },
        {
          "indexed": false,
          "internalType": "uint256",
          "name": "assets",
          "type": "uint256"
        },
        {
          "indexed": false,
          "internalType": "uint256",
          "name": "shares",
          "type": "uint256"
        }
      ],
      "name": "Deposit",
      "type": "event"
    },
    {
      "anonymous": false,
      "inputs": [
        {
          "indexed": true,
          "internalType": "address",
          "name": "caller",
          "type": "address"
        },
        {
          "indexed": false,
          "internalType": "uint256",
          "name": "baseAmt",
          "type": "uint256"
        },
        {
          "indexed": false,
          "internalType": "uint256",
          "name": "rewardAmt",
          "type": "uint256"
        }
      ],
      "name": "DepositFromStaking",
      "type": "event"
    },
    {
      "anonymous": false,
      "inputs": [
        {
          "indexed": true,
          "internalType": "uint32",
          "name": "cycleEnd",
          "type": "uint32"
        },
        {
          "indexed": false,
          "internalType": "uint256",
          "name": "rewardAmount",
          "type": "uint256"
        }
      ],
      "name": "NewRewardsCycle",
      "type": "event"
    },
    {
      "anonymous": false,
      "inputs": [
        {
          "indexed": true,
          "internalType": "address",
          "name": "user",
          "type": "address"
        },
        {
          "indexed": false,
          "internalType": "uint256",
          "name": "newTargetFloatPercent",
          "type": "uint256"
        }
      ],
      "name": "TargetFloatPercentUpdated",
      "type": "event"
    },
    {
      "anonymous": false,
      "inputs": [
        {
          "indexed": true,
          "internalType": "address",
          "name": "from",
          "type": "address"
        },
        {
          "indexed": true,
          "internalType": "address",
          "name": "to",
          "type": "address"
        },
        {
          "indexed": false,
          "internalType": "uint256",
          "name": "amount",
          "type": "uint256"
        }
      ],
      "name": "Transfer",
      "type": "event"
    },
    {
      "anonymous": false,
      "inputs": [
        {
          "indexed": true,
          "internalType": "address",
          "name": "caller",
          "type": "address"
        },
        {
          "indexed": true,
          "internalType": "address",
          "name": "receiver",
          "type": "address"
        },
        {
          "indexed": true,
          "internalType": "address",
          "name": "owner",
          "type": "address"
        },
        {
          "indexed": false,
          "internalType": "uint256",
          "name": "assets",
          "type": "uint256"
        },
        {
          "indexed": false,
          "internalType": "uint256",
          "name": "shares",
          "type": "uint256"
        }
      ],
      "name": "Withdraw",
      "type": "event"
    },
    {
      "anonymous": false,
      "inputs": [
        {
          "indexed": true,
          "internalType": "address",
          "name": "caller",
          "type": "address"
        },
        {
          "indexed": false,
          "internalType": "uint256",
          "name": "assets",
          "type": "uint256"
        }
      ],
      "name": "WithdrawForStaking",
      "type": "event"
    },
    {
      "inputs": [],
      "name": "DOMAIN_SEPARATOR",
      "outputs": [
        {
          "internalType": "bytes32",
          "name": "",
          "type": "bytes32"
        }
      ],
      "stateMutability": "view",
      "type": "function"
    },
    {
      "inputs": [
        {
          "internalType": "address",
          "name": "",
          "type": "address"
        },
        {
          "internalType": "address",
          "name": "",
          "type": "address"
        }
      ],
      "name": "allowance",
      "outputs": [
        {
          "internalType": "uint256",
          "name": "",
          "type": "uint256"
        }
      ],
      "stateMutability": "view",
      "type": "function"
    },
    {
      "inputs": [],
      "name": "amountAvailableForStaking",
      "outputs": [
        {
          "internalType": "uint256",
          "name": "",
          "type": "uint256"
        }
      ],
      "stateMutability": "view",
      "type": "function"
    },
    {
      "inputs": [
        {
          "internalType": "address",
          "name": "spender",
          "type": "address"
        },
        {
          "internalType": "uint256",
          "name": "amount",
          "type": "uint256"
        }
      ],
      "name": "approve",
      "outputs": [
        {
          "internalType": "bool",
          "name": "",
          "type": "bool"
        }
      ],
      "stateMutability": "nonpayable",
      "type": "function"
    },
    {
      "inputs": [],
      "name": "asset",
      "outputs": [
        {
          "internalType": "contract ERC20",
          "name": "",
          "type": "address"
        }
      ],
      "stateMutability": "view",
      "type": "function"
    },
    {
      "inputs": [
        {
          "internalType": "address",
          "name": "",
          "type": "address"
        }
      ],
      "name": "balanceOf",
      "outputs": [
        {
          "internalType": "uint256",
          "name": "",
          "type": "uint256"
        }
      ],
      "stateMutability": "view",
      "type": "function"
    },
    {
      "inputs": [
        {
          "internalType": "uint256",
          "name": "shares",
          "type": "uint256"
        }
      ],
      "name": "convertToAssets",
      "outputs": [
        {
          "internalType": "uint256",
          "name": "",
          "type": "uint256"
        }
      ],
      "stateMutability": "view",
      "type": "function"
    },
    {
      "inputs": [
        {
          "internalType": "uint256",
          "name": "assets",
          "type": "uint256"
        }
      ],
      "name": "convertToShares",
      "outputs": [
        {
          "internalType": "uint256",
          "name": "",
          "type": "uint256"
        }
      ],
      "stateMutability": "view",
      "type": "function"
    },
    {
      "inputs": [],
      "name": "decimals",
      "outputs": [
        {
          "internalType": "uint8",
          "name": "",
          "type": "uint8"
        }
      ],
      "stateMutability": "view",
      "type": "function"
    },
    {
      "inputs": [
        {
          "internalType": "uint256",
          "name": "assets",
          "type": "uint256"
        },
        {
          "internalType": "address",
          "name": "receiver",
          "type": "address"
        }
      ],
      "name": "deposit",
      "outputs": [
        {
          "internalType": "uint256",
          "name": "shares",
          "type": "uint256"
        }
      ],
      "stateMutability": "nonpayable",
      "type": "function"
    },
    {
      "inputs": [],
      "name": "depositAVAX",
      "outputs": [
        {
          "internalType": "uint256",
          "name": "shares",
          "type": "uint256"
        }
      ],
      "stateMutability": "payable",
      "type": "function"
    },
    {
      "inputs": [
        {
          "internalType": "uint256",
          "name": "baseAmt",
          "type": "uint256"
        },
        {
          "internalType": "uint256",
          "name": "rewardAmt",
          "type": "uint256"
        }
      ],
      "name": "depositFromStaking",
      "outputs": [],
      "stateMutability": "payable",
      "type": "function"
    },
    {
      "inputs": [
        {
          "internalType": "string",
          "name": "_contractName",
          "type": "string"
        }
      ],
      "name": "getPublicContractAddress",
      "outputs": [
        {
          "internalType": "address",
          "name": "",
          "type": "address"
        }
      ],
      "stateMutability": "view",
      "type": "function"
    },
    {
      "inputs": [
        {
          "internalType": "bytes32",
          "name": "settingNameSpace",
          "type": "bytes32"
        },
        {
          "internalType": "string",
          "name": "_settingPath",
          "type": "string"
        }
      ],
      "name": "getSettingAddress",
      "outputs": [
        {
          "internalType": "address",
          "name": "",
          "type": "address"
        }
      ],
      "stateMutability": "view",
      "type": "function"
    },
    {
      "inputs": [
        {
          "internalType": "bytes32",
          "name": "settingNameSpace",
          "type": "bytes32"
        },
        {
          "internalType": "string",
          "name": "_settingPath",
          "type": "string"
        }
      ],
      "name": "getSettingBool",
      "outputs": [
        {
          "internalType": "bool",
          "name": "",
          "type": "bool"
        }
      ],
      "stateMutability": "view",
      "type": "function"
    },
    {
      "inputs": [
        {
          "internalType": "bytes32",
          "name": "settingNameSpace",
          "type": "bytes32"
        },
        {
          "internalType": "string",
          "name": "_settingPath",
          "type": "string"
        }
      ],
      "name": "getSettingUint",
      "outputs": [
        {
          "internalType": "uint256",
          "name": "",
          "type": "uint256"
        }
      ],
      "stateMutability": "view",
      "type": "function"
    },
    {
      "inputs": [],
      "name": "lastRewardAmount",
      "outputs": [
        {
          "internalType": "uint192",
          "name": "",
          "type": "uint192"
        }
      ],
      "stateMutability": "view",
      "type": "function"
    },
    {
      "inputs": [],
      "name": "lastSync",
      "outputs": [
        {
          "internalType": "uint32",
          "name": "",
          "type": "uint32"
        }
      ],
      "stateMutability": "view",
      "type": "function"
    },
    {
      "inputs": [
        {
          "internalType": "address",
          "name": "",
          "type": "address"
        }
      ],
      "name": "maxDeposit",
      "outputs": [
        {
          "internalType": "uint256",
          "name": "",
          "type": "uint256"
        }
      ],
      "stateMutability": "view",
      "type": "function"
    },
    {
      "inputs": [
        {
          "internalType": "address",
          "name": "",
          "type": "address"
        }
      ],
      "name": "maxMint",
      "outputs": [
        {
          "internalType": "uint256",
          "name": "",
          "type": "uint256"
        }
      ],
      "stateMutability": "view",
      "type": "function"
    },
    {
      "inputs": [
        {
          "internalType": "address",
          "name": "owner",
          "type": "address"
        }
      ],
      "name": "maxRedeem",
      "outputs": [
        {
          "internalType": "uint256",
          "name": "",
          "type": "uint256"
        }
      ],
      "stateMutability": "view",
      "type": "function"
    },
    {
      "inputs": [
        {
          "internalType": "address",
          "name": "owner",
          "type": "address"
        }
      ],
      "name": "maxWithdraw",
      "outputs": [
        {
          "internalType": "uint256",
          "name": "",
          "type": "uint256"
        }
      ],
      "stateMutability": "view",
      "type": "function"
    },
    {
      "inputs": [
        {
          "internalType": "uint256",
          "name": "shares",
          "type": "uint256"
        },
        {
          "internalType": "address",
          "name": "receiver",
          "type": "address"
        }
      ],
      "name": "mint",
      "outputs": [
        {
          "internalType": "uint256",
          "name": "assets",
          "type": "uint256"
        }
      ],
      "stateMutability": "nonpayable",
      "type": "function"
    },
    {
      "inputs": [],
      "name": "name",
      "outputs": [
        {
          "internalType": "string",
          "name": "",
          "type": "string"
        }
      ],
      "stateMutability": "view",
      "type": "function"
    },
    {
      "inputs": [
        {
          "internalType": "address",
          "name": "",
          "type": "address"
        }
      ],
      "name": "nonces",
      "outputs": [
        {
          "internalType": "uint256",
          "name": "",
          "type": "uint256"
        }
      ],
      "stateMutability": "view",
      "type": "function"
    },
    {
      "inputs": [
        {
          "internalType": "address",
          "name": "owner",
          "type": "address"
        },
        {
          "internalType": "address",
          "name": "spender",
          "type": "address"
        },
        {
          "internalType": "uint256",
          "name": "value",
          "type": "uint256"
        },
        {
          "internalType": "uint256",
          "name": "deadline",
          "type": "uint256"
        },
        {
          "internalType": "uint8",
          "name": "v",
          "type": "uint8"
        },
        {
          "internalType": "bytes32",
          "name": "r",
          "type": "bytes32"
        },
        {
          "internalType": "bytes32",
          "name": "s",
          "type": "bytes32"
        }
      ],
      "name": "permit",
      "outputs": [],
      "stateMutability": "nonpayable",
      "type": "function"
    },
    {
      "inputs": [
        {
          "internalType": "uint256",
          "name": "assets",
          "type": "uint256"
        }
      ],
      "name": "previewDeposit",
      "outputs": [
        {
          "internalType": "uint256",
          "name": "",
          "type": "uint256"
        }
      ],
      "stateMutability": "view",
      "type": "function"
    },
    {
      "inputs": [
        {
          "internalType": "uint256",
          "name": "shares",
          "type": "uint256"
        }
      ],
      "name": "previewMint",
      "outputs": [
        {
          "internalType": "uint256",
          "name": "",
          "type": "uint256"
        }
      ],
      "stateMutability": "view",
      "type": "function"
    },
    {
      "inputs": [
        {
          "internalType": "uint256",
          "name": "shares",
          "type": "uint256"
        }
      ],
      "name": "previewRedeem",
      "outputs": [
        {
          "internalType": "uint256",
          "name": "",
          "type": "uint256"
        }
      ],
      "stateMutability": "view",
      "type": "function"
    },
    {
      "inputs": [
        {
          "internalType": "uint256",
          "name": "assets",
          "type": "uint256"
        }
      ],
      "name": "previewWithdraw",
      "outputs": [
        {
          "internalType": "uint256",
          "name": "",
          "type": "uint256"
        }
      ],
      "stateMutability": "view",
      "type": "function"
    },
    {
      "inputs": [
        {
          "internalType": "uint256",
          "name": "shares",
          "type": "uint256"
        },
        {
          "internalType": "address",
          "name": "receiver",
          "type": "address"
        },
        {
          "internalType": "address",
          "name": "owner",
          "type": "address"
        }
      ],
      "name": "redeem",
      "outputs": [
        {
          "internalType": "uint256",
          "name": "assets",
          "type": "uint256"
        }
      ],
      "stateMutability": "nonpayable",
      "type": "function"
    },
    {
      "inputs": [
        {
          "internalType": "uint256",
          "name": "shares",
          "type": "uint256"
        }
      ],
      "name": "redeemAVAX",
      "outputs": [
        {
          "internalType": "uint256",
          "name": "assets",
          "type": "uint256"
        }
      ],
      "stateMutability": "nonpayable",
      "type": "function"
    },
    {
      "inputs": [],
      "name": "rewardsCycleEnd",
      "outputs": [
        {
          "internalType": "uint32",
          "name": "",
          "type": "uint32"
        }
      ],
      "stateMutability": "view",
      "type": "function"
    },
    {
      "inputs": [],
      "name": "rewardsCycleLength",
      "outputs": [
        {
          "internalType": "uint32",
          "name": "",
          "type": "uint32"
        }
      ],
      "stateMutability": "view",
      "type": "function"
    },
    {
      "inputs": [
        {
          "internalType": "uint256",
          "name": "newTargetFloatPercent",
          "type": "uint256"
        }
      ],
      "name": "setTargetFloatPercent",
      "outputs": [],
      "stateMutability": "nonpayable",
      "type": "function"
    },
    {
      "inputs": [],
      "name": "stakingTotalAssets",
      "outputs": [
        {
          "internalType": "uint256",
          "name": "",
          "type": "uint256"
        }
      ],
      "stateMutability": "view",
      "type": "function"
    },
    {
      "inputs": [],
      "name": "symbol",
      "outputs": [
        {
          "internalType": "string",
          "name": "",
          "type": "string"
        }
      ],
      "stateMutability": "view",
      "type": "function"
    },
    {
      "inputs": [],
      "name": "syncRewards",
      "outputs": [],
      "stateMutability": "nonpayable",
      "type": "function"
    },
    {
      "inputs": [],
      "name": "targetFloatPercent",
      "outputs": [
        {
          "internalType": "uint256",
          "name": "",
          "type": "uint256"
        }
      ],
      "stateMutability": "view",
      "type": "function"
    },
    {
      "inputs": [],
      "name": "totalAssets",
      "outputs": [
        {
          "internalType": "uint256",
          "name": "",
          "type": "uint256"
        }
      ],
      "stateMutability": "view",
      "type": "function"
    },
    {
      "inputs": [],
      "name": "totalFloat",
      "outputs": [
        {
          "internalType": "uint256",
          "name": "",
          "type": "uint256"
        }
      ],
      "stateMutability": "view",
      "type": "function"
    },
    {
      "inputs": [],
      "name": "totalReleasedAssets",
      "outputs": [
        {
          "internalType": "uint256",
          "name": "",
          "type": "uint256"
        }
      ],
      "stateMutability": "view",
      "type": "function"
    },
    {
      "inputs": [],
      "name": "totalSupply",
      "outputs": [
        {
          "internalType": "uint256",
          "name": "",
          "type": "uint256"
        }
      ],
      "stateMutability": "view",
      "type": "function"
    },
    {
      "inputs": [
        {
          "internalType": "address",
          "name": "to",
          "type": "address"
        },
        {
          "internalType": "uint256",
          "name": "amount",
          "type": "uint256"
        }
      ],
      "name": "transfer",
      "outputs": [
        {
          "internalType": "bool",
          "name": "",
          "type": "bool"
        }
      ],
      "stateMutability": "nonpayable",
      "type": "function"
    },
    {
      "inputs": [
        {
          "internalType": "address",
          "name": "from",
          "type": "address"
        },
        {
          "internalType": "address",
          "name": "to",
          "type": "address"
        },
        {
          "internalType": "uint256",
          "name": "amount",
          "type": "uint256"
        }
      ],
      "name": "transferFrom",
      "outputs": [
        {
          "internalType": "bool",
          "name": "",
          "type": "bool"
        }
      ],
      "stateMutability": "nonpayable",
      "type": "function"
    },
    {
      "inputs": [],
      "name": "version",
      "outputs": [
        {
          "internalType": "uint8",
          "name": "",
          "type": "uint8"
        }
      ],
      "stateMutability": "view",
      "type": "function"
    },
    {
      "inputs": [
        {
          "internalType": "uint256",
          "name": "assets",
          "type": "uint256"
        },
        {
          "internalType": "address",
          "name": "receiver",
          "type": "address"
        },
        {
          "internalType": "address",
          "name": "owner",
          "type": "address"
        }
      ],
      "name": "withdraw",
      "outputs": [
        {
          "internalType": "uint256",
          "name": "shares",
          "type": "uint256"
        }
      ],
      "stateMutability": "nonpayable",
      "type": "function"
    },
    {
      "inputs": [
        {
          "internalType": "uint256",
          "name": "assets",
          "type": "uint256"
        }
      ],
      "name": "withdrawAVAX",
      "outputs": [
        {
          "internalType": "uint256",
          "name": "shares",
          "type": "uint256"
        }
      ],
      "stateMutability": "nonpayable",
      "type": "function"
    },
    {
      "inputs": [
        {
          "internalType": "uint256",
          "name": "assets",
          "type": "uint256"
        }
      ],
      "name": "withdrawForStaking",
      "outputs": [],
      "stateMutability": "nonpayable",
      "type": "function"
    },
    {
      "stateMutability": "payable",
      "type": "receive"
    }
  ],
  "bytecode": "0x6101006040523480156200001257600080fd5b506040516200508e3803806200508e8339818101604052810190620000389190620004de565b806040518060400160405280601d81526020017f476f476f506f6f6c204c6971756964205374616b696e6720546f6b656e0000008152506040518060400160405280600681526020017f676741564158000000000000000000000000000000000000000000000000000081525081818473ffffffffffffffffffffffffffffffffffffffff1663313ce5676040518163ffffffff1660e01b8152600401602060405180830381865afa158015620000f3573d6000803e3d6000fd5b505050506040513d601f19601f8201168201806040525081019062000119919062000563565b8780600060016101000a81548173ffffffffffffffffffffffffffffffffffffffff021916908373ffffffffffffffffffffffffffffffffffffffff160217905550508260019080519060200190620001749291906200036b565b5081600290805190602001906200018d9291906200036b565b508060ff1660808160ff16815250504660a08181525050620001b4620002bf60201b60201c565b60c081815250505050508273ffffffffffffffffffffffffffffffffffffffff1660e08173ffffffffffffffffffffffffffffffffffffffff168152505050505060016000806101000a81548160ff021916908360ff16021790555062127500600760006101000a81548163ffffffff021916908363ffffffff160217905550600760009054906101000a900463ffffffff16600760009054906101000a900463ffffffff1662000270426200034f60201b62002da81760201c565b6200027c919062000603565b6200028891906200063b565b600760086101000a81548163ffffffff021916908363ffffffff16021790555067016345785d8a0000600b8190555050506200084c565b60007f8b73c3c69bb8fe3d512ecc4cf759cc79239f7b179b0ffacaa9a75d522b39400f6001604051620002f391906200078f565b60405180910390207fc89efdaa54c0f20c7adf612882df0950f5a951637e0307cdcb4c672f298b8bc6463060405160200162000334959493929190620007ef565b60405160208183030381529060405280519060200120905090565b600064010000000082106200036357600080fd5b819050919050565b8280546200037990620006af565b90600052602060002090601f0160209004810192826200039d5760008555620003e9565b82601f10620003b857805160ff1916838001178555620003e9565b82800160010185558215620003e9579182015b82811115620003e8578251825591602001919060010190620003cb565b5b509050620003f89190620003fc565b5090565b5b8082111562000417576000816000905550600101620003fd565b5090565b600080fd5b600073ffffffffffffffffffffffffffffffffffffffff82169050919050565b60006200044d8262000420565b9050919050565b6000620004618262000440565b9050919050565b620004738162000454565b81146200047f57600080fd5b50565b600081519050620004938162000468565b92915050565b6000620004a68262000440565b9050919050565b620004b88162000499565b8114620004c457600080fd5b50565b600081519050620004d881620004ad565b92915050565b60008060408385031215620004f857620004f76200041b565b5b6000620005088582860162000482565b92505060206200051b85828601620004c7565b9150509250929050565b600060ff82169050919050565b6200053d8162000525565b81146200054957600080fd5b50565b6000815190506200055d8162000532565b92915050565b6000602082840312156200057c576200057b6200041b565b5b60006200058c848285016200054c565b91505092915050565b600063ffffffff82169050919050565b7f4e487b7100000000000000000000000000000000000000000000000000000000600052601260045260246000fd5b7f4e487b7100000000000000000000000000000000000000000000000000000000600052601160045260246000fd5b6000620006108262000595565b91506200061d8362000595565b92508262000630576200062f620005a5565b5b828204905092915050565b6000620006488262000595565b9150620006558362000595565b92508163ffffffff0483118215151615620006755762000674620005d4565b5b828202905092915050565b7f4e487b7100000000000000000000000000000000000000000000000000000000600052602260045260246000fd5b60006002820490506001821680620006c857607f821691505b602082108103620006de57620006dd62000680565b5b50919050565b600081905092915050565b60008190508160005260206000209050919050565b600081546200071381620006af565b6200071f8186620006e4565b945060018216600081146200073d57600181146200074f5762000786565b60ff1983168652818601935062000786565b6200075a85620006ef565b60005b838110156200077e578154818901526001820191506020810190506200075d565b838801955050505b50505092915050565b60006200079d828462000704565b915081905092915050565b6000819050919050565b620007bd81620007a8565b82525050565b6000819050919050565b620007d881620007c3565b82525050565b620007e98162000440565b82525050565b600060a082019050620008066000830188620007b2565b620008156020830187620007b2565b620008246040830186620007b2565b620008336060830185620007cd565b620008426080830184620007de565b9695505050505050565b60805160a05160c05160e0516147bb620008d3600039600081816102b9015281816111140152818161154f0152818161162501528181611707015281816118ba01528181611ad501528181611c7601528181611f290152818161222b015281816124c90152612c7a015260006114b8015260006114840152600061145e01526147bb6000f3fe6080604052600436106102b25760003560e01c80637ecebe0011610175578063be13733c116100dc578063d505accf11610095578063e7ff69f11161006f578063e7ff69f114610c25578063ef8b30f714610c50578063efe441d914610c8d578063f4d70e7814610cb657610315565b8063d505accf14610b82578063d905777e14610bab578063dd62ed3e14610be857610315565b8063be13733c14610a38578063beff2bb514610a63578063c63d75b614610a8e578063c6e6f59214610acb578063ce96cb7714610b08578063cff0b64814610b4557610315565b8063aeb5cd5e1161012e578063aeb5cd5e146108f0578063b3d7f6b91461092d578063b460af941461096a578063ba087652146109a7578063bafedcaa146109e4578063bd662f8814610a0f57610315565b80637ecebe00146107c5578063841219e51461080257806394bf804d1461082d57806395d89b411461086a578063a0d065c314610895578063a9059cbb146108b357610315565b80633644e5151161021957806354fd4d50116101d257806354fd4d50146106b35780636917516b146106de5780636e553f65146107095780636fcf5e5f1461074657806370a082311461077157806372c0c211146107ae57610315565b80633644e5151461059c578063383dcbc4146105c757806338d52e0f146105e3578063402d267d1461060e5780634cdad5061461064b5780634ff8a0811461068857610315565b80631685a0891161026b5780631685a0891461046457806318160ddd146104a15780631c693478146104cc578063232de716146104f757806323b872dd14610534578063313ce5671461057157610315565b806301e1d1141461031a57806306eaa68b1461034557806306fdde031461038257806307a2d13a146103ad578063095ea7b3146103ea5780630a28a4771461042757610315565b36610315577f000000000000000000000000000000000000000000000000000000000000000073ffffffffffffffffffffffffffffffffffffffff163373ffffffffffffffffffffffffffffffffffffffff1614610313576103126134f0565b5b005b600080fd5b34801561032657600080fd5b5061032f610cf3565b60405161033c9190613538565b60405180910390f35b34801561035157600080fd5b5061036c600480360381019061036791906136e3565b610e00565b6040516103799190613780565b60405180910390f35b34801561038e57600080fd5b50610397610e3b565b6040516103a49190613823565b60405180910390f35b3480156103b957600080fd5b506103d460048036038101906103cf9190613871565b610ec9565b6040516103e19190613538565b60405180910390f35b3480156103f657600080fd5b50610411600480360381019061040c91906138ca565b610f04565b60405161041e9190613925565b60405180910390f35b34801561043357600080fd5b5061044e60048036038101906104499190613871565b610ff6565b60405161045b9190613538565b60405180910390f35b34801561047057600080fd5b5061048b60048036038101906104869190613871565b611031565b6040516104989190613538565b60405180910390f35b3480156104ad57600080fd5b506104b66111cb565b6040516104c39190613538565b60405180910390f35b3480156104d857600080fd5b506104e16111d1565b6040516104ee9190613538565b60405180910390f35b34801561050357600080fd5b5061051e600480360381019061051991906136e3565b6111d7565b60405161052b9190613925565b60405180910390f35b34801561054057600080fd5b5061055b60048036038101906105569190613940565b611212565b6040516105689190613925565b60405180910390f35b34801561057d57600080fd5b5061058661145c565b60405161059391906139af565b60405180910390f35b3480156105a857600080fd5b506105b1611480565b6040516105be91906139d9565b60405180910390f35b6105e160048036038101906105dc91906139f4565b6114dd565b005b3480156105ef57600080fd5b506105f8611623565b6040516106059190613a93565b60405180910390f35b34801561061a57600080fd5b5061063560048036038101906106309190613aae565b611647565b6040516106429190613538565b60405180910390f35b34801561065757600080fd5b50610672600480360381019061066d9190613871565b611671565b60405161067f9190613538565b60405180910390f35b34801561069457600080fd5b5061069d611683565b6040516106aa9190613538565b60405180910390f35b3480156106bf57600080fd5b506106c8611689565b6040516106d591906139af565b60405180910390f35b3480156106ea57600080fd5b506106f361169a565b6040516107009190613afa565b60405180910390f35b34801561071557600080fd5b50610730600480360381019061072b9190613b15565b6116b0565b60405161073d9190613538565b60405180910390f35b34801561075257600080fd5b5061075b6117cd565b6040516107689190613afa565b60405180910390f35b34801561077d57600080fd5b5061079860048036038101906107939190613aae565b6117e3565b6040516107a59190613538565b60405180910390f35b3480156107ba57600080fd5b506107c36117fb565b005b3480156107d157600080fd5b506107ec60048036038101906107e79190613aae565b611a99565b6040516107f99190613538565b60405180910390f35b34801561080e57600080fd5b50610817611ab1565b6040516108249190613538565b60405180910390f35b34801561083957600080fd5b50610854600480360381019061084f9190613b15565b611ac0565b6040516108619190613538565b60405180910390f35b34801561087657600080fd5b5061087f611b9b565b60405161088c9190613823565b60405180910390f35b61089d611c29565b6040516108aa9190613538565b60405180910390f35b3480156108bf57600080fd5b506108da60048036038101906108d591906138ca565b611d74565b6040516108e79190613925565b60405180910390f35b3480156108fc57600080fd5b5061091760048036038101906109129190613871565b611e88565b6040516109249190613538565b60405180910390f35b34801561093957600080fd5b50610954600480360381019061094f9190613871565b611fe0565b6040516109619190613538565b60405180910390f35b34801561097657600080fd5b50610991600480360381019061098c9190613b55565b61201b565b60405161099e9190613538565b60405180910390f35b3480156109b357600080fd5b506109ce60048036038101906109c99190613b55565b612276565b6040516109db9190613538565b60405180910390f35b3480156109f057600080fd5b506109f9612514565b604051610a069190613bdb565b60405180910390f35b348015610a1b57600080fd5b50610a366004803603810190610a319190613871565b61253e565b005b348015610a4457600080fd5b50610a4d6125e1565b604051610a5a9190613538565b60405180910390f35b348015610a6f57600080fd5b50610a786126d9565b604051610a859190613538565b60405180910390f35b348015610a9a57600080fd5b50610ab56004803603810190610ab09190613aae565b6126df565b604051610ac29190613538565b60405180910390f35b348015610ad757600080fd5b50610af26004803603810190610aed9190613871565b612709565b604051610aff9190613538565b60405180910390f35b348015610b1457600080fd5b50610b2f6004803603810190610b2a9190613aae565b612744565b604051610b3c9190613538565b60405180910390f35b348015610b5157600080fd5b50610b6c6004803603810190610b679190613bf6565b612795565b604051610b799190613780565b60405180910390f35b348015610b8e57600080fd5b50610ba96004803603810190610ba49190613c6b565b612841565b005b348015610bb757600080fd5b50610bd26004803603810190610bcd9190613aae565b612b3a565b604051610bdf9190613538565b60405180910390f35b348015610bf457600080fd5b50610c0f6004803603810190610c0a9190613d0d565b612b83565b604051610c1c9190613538565b60405180910390f35b348015610c3157600080fd5b50610c3a612ba8565b604051610c479190613afa565b60405180910390f35b348015610c5c57600080fd5b50610c776004803603810190610c729190613871565b612bbe565b604051610c849190613538565b60405180910390f35b348015610c9957600080fd5b50610cb46004803603810190610caf9190613871565b612bd0565b005b348015610cc257600080fd5b50610cdd6004803603810190610cd891906136e3565b612d6d565b604051610cea9190613538565b60405180910390f35b60008060095490506000600860009054906101000a900477ffffffffffffffffffffffffffffffffffffffffffffffff1690506000600760089054906101000a900463ffffffff1690506000600760049054906101000a900463ffffffff1690508163ffffffff164210610d92578277ffffffffffffffffffffffffffffffffffffffffffffffff1684610d879190613d7c565b945050505050610dfd565b60008183610da09190613dd2565b63ffffffff168263ffffffff1642610db89190613e06565b8577ffffffffffffffffffffffffffffffffffffffffffffffff16610ddd9190613e3a565b610de79190613ec3565b90508085610df59190613d7c565b955050505050505b90565b6000610e338383604051602001610e18929190613f51565b60405160208183030381529060405280519060200120612dc3565b905092915050565b60018054610e4890613fa8565b80601f0160208091040260200160405190810160405280929190818152602001828054610e7490613fa8565b8015610ec15780601f10610e9657610100808354040283529160200191610ec1565b820191906000526020600020905b815481529060010190602001808311610ea457829003601f168201915b505050505081565b600080600354905060008114610efa57610ef5610ee4610cf3565b8285612e679092919063ffffffff16565b610efc565b825b915050919050565b600081600560003373ffffffffffffffffffffffffffffffffffffffff1673ffffffffffffffffffffffffffffffffffffffff16815260200190815260200160002060008573ffffffffffffffffffffffffffffffffffffffff1673ffffffffffffffffffffffffffffffffffffffff168152602001908152602001600020819055508273ffffffffffffffffffffffffffffffffffffffff163373ffffffffffffffffffffffffffffffffffffffff167f8c5be1e5ebec7d5bd14f71427d1e84f3dd0314c0f7b2291e5b200ac8c7c3b92584604051610fe49190613538565b60405180910390a36001905092915050565b6000806003549050600081146110275761102281611012610cf3565b85612e8f9092919063ffffffff16565b611029565b825b915050919050565b60008061103d83611671565b91508103611080576040517f08c379a000000000000000000000000000000000000000000000000000000000815260040161107790614025565b60405180910390fd5b61108a8183612ec1565b6110943383612ee8565b3373ffffffffffffffffffffffffffffffffffffffff163373ffffffffffffffffffffffffffffffffffffffff163373ffffffffffffffffffffffffffffffffffffffff167ffbde797d201c681b91056529119e0b02407c7bb96a4a2c75c01fc9667232c8db848660405161110a929190614045565b60405180910390a47f000000000000000000000000000000000000000000000000000000000000000073ffffffffffffffffffffffffffffffffffffffff16632e1a7d4d826040518263ffffffff1660e01b815260040161116b9190613538565b600060405180830381600087803b15801561118557600080fd5b505af1158015611199573d6000803e3d6000fd5b505050506111c6813373ffffffffffffffffffffffffffffffffffffffff16612fb890919063ffffffff16565b919050565b60035481565b600b5481565b600061120a83836040516020016111ef929190613f51565b6040516020818303038152906040528051906020012061300b565b905092915050565b600080600560008673ffffffffffffffffffffffffffffffffffffffff1673ffffffffffffffffffffffffffffffffffffffff16815260200190815260200160002060003373ffffffffffffffffffffffffffffffffffffffff1673ffffffffffffffffffffffffffffffffffffffff1681526020019081526020016000205490507fffffffffffffffffffffffffffffffffffffffffffffffffffffffffffffffff81146113485782816112c79190613e06565b600560008773ffffffffffffffffffffffffffffffffffffffff1673ffffffffffffffffffffffffffffffffffffffff16815260200190815260200160002060003373ffffffffffffffffffffffffffffffffffffffff1673ffffffffffffffffffffffffffffffffffffffff168152602001908152602001600020819055505b82600460008773ffffffffffffffffffffffffffffffffffffffff1673ffffffffffffffffffffffffffffffffffffffff16815260200190815260200160002060008282546113979190613e06565b9250508190555082600460008673ffffffffffffffffffffffffffffffffffffffff1673ffffffffffffffffffffffffffffffffffffffff168152602001908152602001600020600082825401925050819055508373ffffffffffffffffffffffffffffffffffffffff168573ffffffffffffffffffffffffffffffffffffffff167fddf252ad1be2c89b69c2b068fc378daa952ba7f163c4a11628f55a4df523b3ef856040516114489190613538565b60405180910390a360019150509392505050565b7f000000000000000000000000000000000000000000000000000000000000000081565b60007f000000000000000000000000000000000000000000000000000000000000000046146114b6576114b16130af565b6114d8565b7f00000000000000000000000000000000000000000000000000000000000000005b905090565b600034905081836114ee9190613d7c565b811415806114fd5750600a5483115b15611534576040517fcd1738ed00000000000000000000000000000000000000000000000000000000815260040160405180910390fd5b82600a60008282546115469190613e06565b925050819055507f000000000000000000000000000000000000000000000000000000000000000073ffffffffffffffffffffffffffffffffffffffff1663d0e30db0826040518263ffffffff1660e01b81526004016000604051808303818588803b1580156115b557600080fd5b505af11580156115c9573d6000803e3d6000fd5b50505050503373ffffffffffffffffffffffffffffffffffffffff167f20277ab4ddef2939170aab69c4e3bd7132b4eff8e276e9cebe259bd0c1618bc08484604051611616929190614045565b60405180910390a2505050565b7f000000000000000000000000000000000000000000000000000000000000000081565b60007fffffffffffffffffffffffffffffffffffffffffffffffffffffffffffffffff9050919050565b600061167c82610ec9565b9050919050565b600a5481565b60008054906101000a900460ff1681565b600760049054906101000a900463ffffffff1681565b6000806116bc84612bbe565b915081036116ff576040517f08c379a00000000000000000000000000000000000000000000000000000000081526004016116f6906140ba565b60405180910390fd5b61174c3330857f000000000000000000000000000000000000000000000000000000000000000073ffffffffffffffffffffffffffffffffffffffff1661313b909392919063ffffffff16565b61175682826131da565b8173ffffffffffffffffffffffffffffffffffffffff163373ffffffffffffffffffffffffffffffffffffffff167fdcbc1c05240f31ff3ad067ef1ee35ce4997762752e3a095284754544f4c709d785846040516117b5929190614045565b60405180910390a36117c783826132aa565b92915050565b600760009054906101000a900463ffffffff1681565b60046020528060005260406000206000915090505481565b6000600860009054906101000a900477ffffffffffffffffffffffffffffffffffffffffffffffff169050600061183142612da8565b9050600760089054906101000a900463ffffffff1663ffffffff168163ffffffff16101561188b576040517f49f4cf9c00000000000000000000000000000000000000000000000000000000815260040160405180910390fd5b600060095490506000600a54905060008477ffffffffffffffffffffffffffffffffffffffffffffffff1683837f000000000000000000000000000000000000000000000000000000000000000073ffffffffffffffffffffffffffffffffffffffff166370a08231306040518263ffffffff1660e01b81526004016119119190613780565b602060405180830381865afa15801561192e573d6000803e3d6000fd5b505050506040513d601f19601f8201168201806040525081019061195291906140ef565b61195c9190613d7c565b6119669190613e06565b6119709190613e06565b90508477ffffffffffffffffffffffffffffffffffffffffffffffff16836119989190613d7c565b6009819055506000600760009054906101000a900463ffffffff16856119be919061411c565b90506119c9826132d1565b600860006101000a81548177ffffffffffffffffffffffffffffffffffffffffffffffff021916908377ffffffffffffffffffffffffffffffffffffffffffffffff16021790555084600760046101000a81548163ffffffff021916908363ffffffff16021790555080600760086101000a81548163ffffffff021916908363ffffffff1602179055508063ffffffff167f2fa39aac60d1c94cda4ab0e86ae9c0ffab5b926e5b827a4ccba1d9b5b2ef596e83604051611a899190613538565b60405180910390a2505050505050565b60066020528060005260406000206000915090505481565b6000611abb6125e1565b905090565b6000611acb83611fe0565b9050611b1a3330837f000000000000000000000000000000000000000000000000000000000000000073ffffffffffffffffffffffffffffffffffffffff1661313b909392919063ffffffff16565b611b2482846131da565b8173ffffffffffffffffffffffffffffffffffffffff163373ffffffffffffffffffffffffffffffffffffffff167fdcbc1c05240f31ff3ad067ef1ee35ce4997762752e3a095284754544f4c709d78386604051611b83929190614045565b60405180910390a3611b9581846132aa565b92915050565b60028054611ba890613fa8565b80601f0160208091040260200160405190810160405280929190818152602001828054611bd490613fa8565b8015611c215780601f10611bf657610100808354040283529160200191611c21565b820191906000526020600020905b815481529060010190602001808311611c0457829003601f168201915b505050505081565b6000803490506000611c3a82612bbe565b92508203611c74576040517f9811e0c700000000000000000000000000000000000000000000000000000000815260040160405180910390fd5b7f000000000000000000000000000000000000000000000000000000000000000073ffffffffffffffffffffffffffffffffffffffff1663d0e30db0826040518263ffffffff1660e01b81526004016000604051808303818588803b158015611cdc57600080fd5b505af1158015611cf0573d6000803e3d6000fd5b5050505050611cff33836131da565b3373ffffffffffffffffffffffffffffffffffffffff163373ffffffffffffffffffffffffffffffffffffffff167fdcbc1c05240f31ff3ad067ef1ee35ce4997762752e3a095284754544f4c709d78385604051611d5e929190614045565b60405180910390a3611d7081836132aa565b5090565b600081600460003373ffffffffffffffffffffffffffffffffffffffff1673ffffffffffffffffffffffffffffffffffffffff1681526020019081526020016000206000828254611dc59190613e06565b9250508190555081600460008573ffffffffffffffffffffffffffffffffffffffff1673ffffffffffffffffffffffffffffffffffffffff168152602001908152602001600020600082825401925050819055508273ffffffffffffffffffffffffffffffffffffffff163373ffffffffffffffffffffffffffffffffffffffff167fddf252ad1be2c89b69c2b068fc378daa952ba7f163c4a11628f55a4df523b3ef84604051611e769190613538565b60405180910390a36001905092915050565b6000611e9382610ff6565b9050611e9f8282612ec1565b611ea93382612ee8565b3373ffffffffffffffffffffffffffffffffffffffff163373ffffffffffffffffffffffffffffffffffffffff163373ffffffffffffffffffffffffffffffffffffffff167ffbde797d201c681b91056529119e0b02407c7bb96a4a2c75c01fc9667232c8db8585604051611f1f929190614045565b60405180910390a47f000000000000000000000000000000000000000000000000000000000000000073ffffffffffffffffffffffffffffffffffffffff16632e1a7d4d836040518263ffffffff1660e01b8152600401611f809190613538565b600060405180830381600087803b158015611f9a57600080fd5b505af1158015611fae573d6000803e3d6000fd5b50505050611fdb823373ffffffffffffffffffffffffffffffffffffffff16612fb890919063ffffffff16565b919050565b6000806003549050600081146120115761200c611ffb610cf3565b8285612e8f9092919063ffffffff16565b612013565b825b915050919050565b600061202684610ff6565b90508173ffffffffffffffffffffffffffffffffffffffff163373ffffffffffffffffffffffffffffffffffffffff1614612192576000600560008473ffffffffffffffffffffffffffffffffffffffff1673ffffffffffffffffffffffffffffffffffffffff16815260200190815260200160002060003373ffffffffffffffffffffffffffffffffffffffff1673ffffffffffffffffffffffffffffffffffffffff1681526020019081526020016000205490507fffffffffffffffffffffffffffffffffffffffffffffffffffffffffffffffff811461219057818161210f9190613e06565b600560008573ffffffffffffffffffffffffffffffffffffffff1673ffffffffffffffffffffffffffffffffffffffff16815260200190815260200160002060003373ffffffffffffffffffffffffffffffffffffffff1673ffffffffffffffffffffffffffffffffffffffff168152602001908152602001600020819055505b505b61219c8482612ec1565b6121a68282612ee8565b8173ffffffffffffffffffffffffffffffffffffffff168373ffffffffffffffffffffffffffffffffffffffff163373ffffffffffffffffffffffffffffffffffffffff167ffbde797d201c681b91056529119e0b02407c7bb96a4a2c75c01fc9667232c8db878560405161221c929190614045565b60405180910390a461226f83857f000000000000000000000000000000000000000000000000000000000000000073ffffffffffffffffffffffffffffffffffffffff166133009092919063ffffffff16565b9392505050565b60008173ffffffffffffffffffffffffffffffffffffffff163373ffffffffffffffffffffffffffffffffffffffff16146123e2576000600560008473ffffffffffffffffffffffffffffffffffffffff1673ffffffffffffffffffffffffffffffffffffffff16815260200190815260200160002060003373ffffffffffffffffffffffffffffffffffffffff1673ffffffffffffffffffffffffffffffffffffffff1681526020019081526020016000205490507fffffffffffffffffffffffffffffffffffffffffffffffffffffffffffffffff81146123e057848161235f9190613e06565b600560008573ffffffffffffffffffffffffffffffffffffffff1673ffffffffffffffffffffffffffffffffffffffff16815260200190815260200160002060003373ffffffffffffffffffffffffffffffffffffffff1673ffffffffffffffffffffffffffffffffffffffff168152602001908152602001600020819055505b505b60006123ed85611671565b91508103612430576040517f08c379a000000000000000000000000000000000000000000000000000000000815260040161242790614025565b60405180910390fd5b61243a8185612ec1565b6124448285612ee8565b8173ffffffffffffffffffffffffffffffffffffffff168373ffffffffffffffffffffffffffffffffffffffff163373ffffffffffffffffffffffffffffffffffffffff167ffbde797d201c681b91056529119e0b02407c7bb96a4a2c75c01fc9667232c8db84886040516124ba929190614045565b60405180910390a461250d83827f000000000000000000000000000000000000000000000000000000000000000073ffffffffffffffffffffffffffffffffffffffff166133009092919063ffffffff16565b9392505050565b600860009054906101000a900477ffffffffffffffffffffffffffffffffffffffffffffffff1681565b670de0b6b3a7640000811115612589576040517f08c379a0000000000000000000000000000000000000000000000000000000008152600401612580906141a2565b60405180910390fd5b80600b819055503373ffffffffffffffffffffffffffffffffffffffff167f95bc4480b51f4860106d42850bcae222cf3303fb2b7d433e896205e0ebefe369826040516125d69190613538565b60405180910390a250565b6000806126226040518060400160405280600b81526020017f50726f746f636f6c44414f000000000000000000000000000000000000000000815250613398565b905060008173ffffffffffffffffffffffffffffffffffffffff1663a24f4aa26040518163ffffffff1660e01b8152600401602060405180830381865afa158015612671573d6000803e3d6000fd5b505050506040513d601f19601f8201168201806040525081019061269591906140ef565b905060006126a1610cf3565b905060006126c283670de0b6b3a764000084612e679092919063ffffffff16565b905080826126d09190613e06565b94505050505090565b60095481565b60007fffffffffffffffffffffffffffffffffffffffffffffffffffffffffffffffff9050919050565b60008060035490506000811461273a5761273581612725610cf3565b85612e679092919063ffffffff16565b61273c565b825b915050919050565b600061278e600460008473ffffffffffffffffffffffffffffffffffffffff1673ffffffffffffffffffffffffffffffffffffffff16815260200190815260200160002054610ec9565b9050919050565b6000806127c7836040516020016127ac919061420e565b60405160208183030381529060405280519060200120612dc3565b9050600073ffffffffffffffffffffffffffffffffffffffff168173ffffffffffffffffffffffffffffffffffffffff1603612838576040517f08c379a000000000000000000000000000000000000000000000000000000000815260040161282f9061427c565b60405180910390fd5b80915050919050565b42841015612884576040517f08c379a000000000000000000000000000000000000000000000000000000000815260040161287b906142e8565b60405180910390fd5b60006001612890611480565b7f6e71edae12b1b97f4d1f60370fef10105fa2faae0126114a169c64845d6126c98a8a8a600660008f73ffffffffffffffffffffffffffffffffffffffff1673ffffffffffffffffffffffffffffffffffffffff1681526020019081526020016000206000815480929190600101919050558b60405160200161291896959493929190614308565b6040516020818303038152906040528051906020012060405160200161293f9291906143b5565b604051602081830303815290604052805190602001208585856040516000815260200160405260405161297594939291906143ec565b6020604051602081039080840390855afa158015612997573d6000803e3d6000fd5b505050602060405103519050600073ffffffffffffffffffffffffffffffffffffffff168173ffffffffffffffffffffffffffffffffffffffff1614158015612a0b57508773ffffffffffffffffffffffffffffffffffffffff168173ffffffffffffffffffffffffffffffffffffffff16145b612a4a576040517f08c379a0000000000000000000000000000000000000000000000000000000008152600401612a419061447d565b60405180910390fd5b85600560008373ffffffffffffffffffffffffffffffffffffffff1673ffffffffffffffffffffffffffffffffffffffff16815260200190815260200160002060008973ffffffffffffffffffffffffffffffffffffffff1673ffffffffffffffffffffffffffffffffffffffff16815260200190815260200160002081905550508573ffffffffffffffffffffffffffffffffffffffff168773ffffffffffffffffffffffffffffffffffffffff167f8c5be1e5ebec7d5bd14f71427d1e84f3dd0314c0f7b2291e5b200ac8c7c3b92587604051612b299190613538565b60405180910390a350505050505050565b6000600460008373ffffffffffffffffffffffffffffffffffffffff1673ffffffffffffffffffffffffffffffffffffffff168152602001908152602001600020549050919050565b6005602052816000526040600020602052806000526040600020600091509150505481565b600760089054906101000a900463ffffffff1681565b6000612bc982612709565b9050919050565b612bd86125e1565b811115612c11576040517fcd4f992200000000000000000000000000000000000000000000000000000000815260040160405180910390fd5b80600a6000828254612c239190613d7c565b925050819055503373ffffffffffffffffffffffffffffffffffffffff167fe08c86221c085c9dac4aa33459f344d0a1e7066a05a972ad91a3ac22e9d2c70c82604051612c709190613538565b60405180910390a27f000000000000000000000000000000000000000000000000000000000000000073ffffffffffffffffffffffffffffffffffffffff16632e1a7d4d826040518263ffffffff1660e01b8152600401612cd19190613538565b600060405180830381600087803b158015612ceb57600080fd5b505af1158015612cff573d6000803e3d6000fd5b5050505060003390508073ffffffffffffffffffffffffffffffffffffffff1663ffe09241836040518263ffffffff1660e01b81526004016000604051808303818588803b158015612d5057600080fd5b505af1158015612d64573d6000803e3d6000fd5b50505050505050565b6000612da08383604051602001612d85929190613f51565b60405160208183030381529060405280519060200120613444565b905092915050565b60006401000000008210612dbb57600080fd5b819050919050565b60008060019054906101000a900473ffffffffffffffffffffffffffffffffffffffff1673ffffffffffffffffffffffffffffffffffffffff166321f8a721836040518263ffffffff1660e01b8152600401612e1f91906139d9565b602060405180830381865afa158015612e3c573d6000803e3d6000fd5b505050506040513d601f19601f82011682018060405250810190612e6091906144b2565b9050919050565b60008284029050828482041484151782151516612e8357600080fd5b81810490509392505050565b60008284029050828482041484151782151516612eab57600080fd5b6001826001830304018115150290509392505050565b612ecb82826134e8565b8160096000828254612edd9190613e06565b925050819055505050565b80600460008473ffffffffffffffffffffffffffffffffffffffff1673ffffffffffffffffffffffffffffffffffffffff1681526020019081526020016000206000828254612f379190613e06565b9250508190555080600360008282540392505081905550600073ffffffffffffffffffffffffffffffffffffffff168273ffffffffffffffffffffffffffffffffffffffff167fddf252ad1be2c89b69c2b068fc378daa952ba7f163c4a11628f55a4df523b3ef83604051612fac9190613538565b60405180910390a35050565b600080600080600085875af1905080613006576040517f08c379a0000000000000000000000000000000000000000000000000000000008152600401612ffd9061452b565b60405180910390fd5b505050565b60008060019054906101000a900473ffffffffffffffffffffffffffffffffffffffff1673ffffffffffffffffffffffffffffffffffffffff16637ae1cfca836040518263ffffffff1660e01b815260040161306791906139d9565b602060405180830381865afa158015613084573d6000803e3d6000fd5b505050506040513d601f19601f820116820180604052508101906130a89190614577565b9050919050565b60007f8b73c3c69bb8fe3d512ecc4cf759cc79239f7b179b0ffacaa9a75d522b39400f60016040516130e19190614643565b60405180910390207fc89efdaa54c0f20c7adf612882df0950f5a951637e0307cdcb4c672f298b8bc6463060405160200161312095949392919061465a565b60405160208183030381529060405280519060200120905090565b60006040517f23b872dd0000000000000000000000000000000000000000000000000000000081528460048201528360248201528260448201526020600060648360008a5af13d15601f3d11600160005114161716915050806131d3576040517f08c379a00000000000000000000000000000000000000000000000000000000081526004016131ca906146f9565b60405180910390fd5b5050505050565b80600360008282546131ec9190613d7c565b9250508190555080600460008473ffffffffffffffffffffffffffffffffffffffff1673ffffffffffffffffffffffffffffffffffffffff168152602001908152602001600020600082825401925050819055508173ffffffffffffffffffffffffffffffffffffffff16600073ffffffffffffffffffffffffffffffffffffffff167fddf252ad1be2c89b69c2b068fc378daa952ba7f163c4a11628f55a4df523b3ef8360405161329e9190613538565b60405180910390a35050565b81600960008282546132bc9190613d7c565b925050819055506132cd82826134ec565b5050565b6000780100000000000000000000000000000000000000000000000082106132f857600080fd5b819050919050565b60006040517fa9059cbb000000000000000000000000000000000000000000000000000000008152836004820152826024820152602060006044836000895af13d15601f3d1160016000511416171691505080613392576040517f08c379a000000000000000000000000000000000000000000000000000000000815260040161338990614765565b60405180910390fd5b50505050565b6000806133ca836040516020016133af919061420e565b60405160208183030381529060405280519060200120612dc3565b9050600073ffffffffffffffffffffffffffffffffffffffff168173ffffffffffffffffffffffffffffffffffffffff160361343b576040517f08c379a00000000000000000000000000000000000000000000000000000000081526004016134329061427c565b60405180910390fd5b80915050919050565b60008060019054906101000a900473ffffffffffffffffffffffffffffffffffffffff1673ffffffffffffffffffffffffffffffffffffffff1663bd02d0f5836040518263ffffffff1660e01b81526004016134a091906139d9565b602060405180830381865afa1580156134bd573d6000803e3d6000fd5b505050506040513d601f19601f820116820180604052508101906134e191906140ef565b9050919050565b5050565b5050565b7f4e487b7100000000000000000000000000000000000000000000000000000000600052600160045260246000fd5b6000819050919050565b6135328161351f565b82525050565b600060208201905061354d6000830184613529565b92915050565b6000604051905090565b600080fd5b600080fd5b6000819050919050565b61357a81613567565b811461358557600080fd5b50565b60008135905061359781613571565b92915050565b600080fd5b600080fd5b6000601f19601f8301169050919050565b7f4e487b7100000000000000000000000000000000000000000000000000000000600052604160045260246000fd5b6135f0826135a7565b810181811067ffffffffffffffff8211171561360f5761360e6135b8565b5b80604052505050565b6000613622613553565b905061362e82826135e7565b919050565b600067ffffffffffffffff82111561364e5761364d6135b8565b5b613657826135a7565b9050602081019050919050565b82818337600083830152505050565b600061368661368184613633565b613618565b9050828152602081018484840111156136a2576136a16135a2565b5b6136ad848285613664565b509392505050565b600082601f8301126136ca576136c961359d565b5b81356136da848260208601613673565b91505092915050565b600080604083850312156136fa576136f961355d565b5b600061370885828601613588565b925050602083013567ffffffffffffffff81111561372957613728613562565b5b613735858286016136b5565b9150509250929050565b600073ffffffffffffffffffffffffffffffffffffffff82169050919050565b600061376a8261373f565b9050919050565b61377a8161375f565b82525050565b60006020820190506137956000830184613771565b92915050565b600081519050919050565b600082825260208201905092915050565b60005b838110156137d55780820151818401526020810190506137ba565b838111156137e4576000848401525b50505050565b60006137f58261379b565b6137ff81856137a6565b935061380f8185602086016137b7565b613818816135a7565b840191505092915050565b6000602082019050818103600083015261383d81846137ea565b905092915050565b61384e8161351f565b811461385957600080fd5b50565b60008135905061386b81613845565b92915050565b6000602082840312156138875761388661355d565b5b60006138958482850161385c565b91505092915050565b6138a78161375f565b81146138b257600080fd5b50565b6000813590506138c48161389e565b92915050565b600080604083850312156138e1576138e061355d565b5b60006138ef858286016138b5565b92505060206139008582860161385c565b9150509250929050565b60008115159050919050565b61391f8161390a565b82525050565b600060208201905061393a6000830184613916565b92915050565b6000806000606084860312156139595761395861355d565b5b6000613967868287016138b5565b9350506020613978868287016138b5565b92505060406139898682870161385c565b9150509250925092565b600060ff82169050919050565b6139a981613993565b82525050565b60006020820190506139c460008301846139a0565b92915050565b6139d381613567565b82525050565b60006020820190506139ee60008301846139ca565b92915050565b60008060408385031215613a0b57613a0a61355d565b5b6000613a198582860161385c565b9250506020613a2a8582860161385c565b9150509250929050565b6000819050919050565b6000613a59613a54613a4f8461373f565b613a34565b61373f565b9050919050565b6000613a6b82613a3e565b9050919050565b6000613a7d82613a60565b9050919050565b613a8d81613a72565b82525050565b6000602082019050613aa86000830184613a84565b92915050565b600060208284031215613ac457613ac361355d565b5b6000613ad2848285016138b5565b91505092915050565b600063ffffffff82169050919050565b613af481613adb565b82525050565b6000602082019050613b0f6000830184613aeb565b92915050565b60008060408385031215613b2c57613b2b61355d565b5b6000613b3a8582860161385c565b9250506020613b4b858286016138b5565b9150509250929050565b600080600060608486031215613b6e57613b6d61355d565b5b6000613b7c8682870161385c565b9350506020613b8d868287016138b5565b9250506040613b9e868287016138b5565b9150509250925092565b600077ffffffffffffffffffffffffffffffffffffffffffffffff82169050919050565b613bd581613ba8565b82525050565b6000602082019050613bf06000830184613bcc565b92915050565b600060208284031215613c0c57613c0b61355d565b5b600082013567ffffffffffffffff811115613c2a57613c29613562565b5b613c36848285016136b5565b91505092915050565b613c4881613993565b8114613c5357600080fd5b50565b600081359050613c6581613c3f565b92915050565b600080600080600080600060e0888a031215613c8a57613c8961355d565b5b6000613c988a828b016138b5565b9750506020613ca98a828b016138b5565b9650506040613cba8a828b0161385c565b9550506060613ccb8a828b0161385c565b9450506080613cdc8a828b01613c56565b93505060a0613ced8a828b01613588565b92505060c0613cfe8a828b01613588565b91505092959891949750929550565b60008060408385031215613d2457613d2361355d565b5b6000613d32858286016138b5565b9250506020613d43858286016138b5565b9150509250929050565b7f4e487b7100000000000000000000000000000000000000000000000000000000600052601160045260246000fd5b6000613d878261351f565b9150613d928361351f565b9250827fffffffffffffffffffffffffffffffffffffffffffffffffffffffffffffffff03821115613dc757613dc6613d4d565b5b828201905092915050565b6000613ddd82613adb565b9150613de883613adb565b925082821015613dfb57613dfa613d4d565b5b828203905092915050565b6000613e118261351f565b9150613e1c8361351f565b925082821015613e2f57613e2e613d4d565b5b828203905092915050565b6000613e458261351f565b9150613e508361351f565b9250817fffffffffffffffffffffffffffffffffffffffffffffffffffffffffffffffff0483118215151615613e8957613e88613d4d565b5b828202905092915050565b7f4e487b7100000000000000000000000000000000000000000000000000000000600052601260045260246000fd5b6000613ece8261351f565b9150613ed98361351f565b925082613ee957613ee8613e94565b5b828204905092915050565b6000819050919050565b613f0f613f0a82613567565b613ef4565b82525050565b600081905092915050565b6000613f2b8261379b565b613f358185613f15565b9350613f458185602086016137b7565b80840191505092915050565b6000613f5d8285613efe565b602082019150613f6d8284613f20565b91508190509392505050565b7f4e487b7100000000000000000000000000000000000000000000000000000000600052602260045260246000fd5b60006002820490506001821680613fc057607f821691505b602082108103613fd357613fd2613f79565b5b50919050565b7f5a45524f5f415353455453000000000000000000000000000000000000000000600082015250565b600061400f600b836137a6565b915061401a82613fd9565b602082019050919050565b6000602082019050818103600083015261403e81614002565b9050919050565b600060408201905061405a6000830185613529565b6140676020830184613529565b9392505050565b7f5a45524f5f534841524553000000000000000000000000000000000000000000600082015250565b60006140a4600b836137a6565b91506140af8261406e565b602082019050919050565b600060208201905081810360008301526140d381614097565b9050919050565b6000815190506140e981613845565b92915050565b6000602082840312156141055761410461355d565b5b6000614113848285016140da565b91505092915050565b600061412782613adb565b915061413283613adb565b92508263ffffffff0382111561414b5761414a613d4d565b5b828201905092915050565b7f5441524745545f544f4f5f484947480000000000000000000000000000000000600082015250565b600061418c600f836137a6565b915061419782614156565b602082019050919050565b600060208201905081810360008301526141bb8161417f565b9050919050565b7f636f6e74726163742e6164647265737300000000000000000000000000000000600082015250565b60006141f8601083613f15565b9150614203826141c2565b601082019050919050565b6000614219826141eb565b91506142258284613f20565b915081905092915050565b7f436f6e7472616374206e6f7420666f756e640000000000000000000000000000600082015250565b60006142666012836137a6565b915061427182614230565b602082019050919050565b6000602082019050818103600083015261429581614259565b9050919050565b7f5045524d49545f444541444c494e455f45585049524544000000000000000000600082015250565b60006142d26017836137a6565b91506142dd8261429c565b602082019050919050565b60006020820190508181036000830152614301816142c5565b9050919050565b600060c08201905061431d60008301896139ca565b61432a6020830188613771565b6143376040830187613771565b6143446060830186613529565b6143516080830185613529565b61435e60a0830184613529565b979650505050505050565b7f1901000000000000000000000000000000000000000000000000000000000000600082015250565b600061439f600283613f15565b91506143aa82614369565b600282019050919050565b60006143c082614392565b91506143cc8285613efe565b6020820191506143dc8284613efe565b6020820191508190509392505050565b600060808201905061440160008301876139ca565b61440e60208301866139a0565b61441b60408301856139ca565b61442860608301846139ca565b95945050505050565b7f494e56414c49445f5349474e4552000000000000000000000000000000000000600082015250565b6000614467600e836137a6565b915061447282614431565b602082019050919050565b600060208201905081810360008301526144968161445a565b9050919050565b6000815190506144ac8161389e565b92915050565b6000602082840312156144c8576144c761355d565b5b60006144d68482850161449d565b91505092915050565b7f4554485f5452414e534645525f4641494c454400000000000000000000000000600082015250565b60006145156013836137a6565b9150614520826144df565b602082019050919050565b6000602082019050818103600083015261454481614508565b9050919050565b6145548161390a565b811461455f57600080fd5b50565b6000815190506145718161454b565b92915050565b60006020828403121561458d5761458c61355d565b5b600061459b84828501614562565b91505092915050565b600081905092915050565b60008190508160005260206000209050919050565b600081546145d181613fa8565b6145db81866145a4565b945060018216600081146145f657600181146146075761463a565b60ff1983168652818601935061463a565b614610856145af565b60005b8381101561463257815481890152600182019150602081019050614613565b838801955050505b50505092915050565b600061464f82846145c4565b915081905092915050565b600060a08201905061466f60008301886139ca565b61467c60208301876139ca565b61468960408301866139ca565b6146966060830185613529565b6146a36080830184613771565b9695505050505050565b7f5452414e534645525f46524f4d5f4641494c4544000000000000000000000000600082015250565b60006146e36014836137a6565b91506146ee826146ad565b602082019050919050565b60006020820190508181036000830152614712816146d6565b9050919050565b7f5452414e534645525f4641494c45440000000000000000000000000000000000600082015250565b600061474f600f836137a6565b915061475a82614719565b602082019050919050565b6000602082019050818103600083015261477e81614742565b905091905056fea26469706673582212200e520f84ccd1034097fc67f0b202d0e03ddaefa2477cde9837a8988f77b2fe1364736f6c634300080d0033",
  "linkReferences": {},
  "deployedLinkReferences": {}
}