{
  "_format": "hh-sol-artifact-1",
  "contractName": "DelegationManager",
  "sourceName": "contracts/contract/DelegationManager.sol",
  "abi": [
    {
      "inputs": [
        {
          "internalType": "contract IStorage",
          "name": "storageAddress",
          "type": "address"
        },
        {
          "internalType": "contract ERC20",
          "name": "ggp_",
          "type": "address"
        }
      ],
      "stateMutability": "nonpayable",
      "type": "constructor"
    },
    {
      "inputs": [],
      "name": "InvalidAvaxAmt",
      "type": "error"
    },
    {
      "inputs": [],
      "name": "InvalidDelegationFee",
      "type": "error"
    },
    {
      "inputs": [],
      "name": "InvalidDuration",
      "type": "error"
    },
    {
      "inputs": [],
      "name": "InvalidGGPBondAmt",
      "type": "error"
    },
    {
      "inputs": [],
      "name": "InvalidNodeId",
      "type": "error"
    },
    {
      "inputs": [],
      "name": "InvalidTimeZone",
      "type": "error"
    },
    {
      "anonymous": false,
      "inputs": [
        {
          "indexed": true,
          "internalType": "address",
          "name": "nodeID",
          "type": "address"
        }
      ],
      "name": "NodeRegistered",
      "type": "event"
    },
    {
      "inputs": [
        {
          "internalType": "address",
          "name": "nodeID",
          "type": "address"
        }
      ],
      "name": "getIndexOf",
      "outputs": [
        {
          "internalType": "int256",
          "name": "",
          "type": "int256"
        }
      ],
      "stateMutability": "view",
      "type": "function"
    },
    {
      "inputs": [
        {
          "internalType": "string",
          "name": "_contractName",
          "type": "string"
        }
      ],
      "name": "getPublicContractAddress",
      "outputs": [
        {
          "internalType": "address",
          "name": "",
          "type": "address"
        }
      ],
      "stateMutability": "view",
      "type": "function"
    },
    {
      "inputs": [
        {
          "internalType": "bytes32",
          "name": "settingNameSpace",
          "type": "bytes32"
        },
        {
          "internalType": "string",
          "name": "_settingPath",
          "type": "string"
        }
      ],
      "name": "getSettingAddress",
      "outputs": [
        {
          "internalType": "address",
          "name": "",
          "type": "address"
        }
      ],
      "stateMutability": "view",
      "type": "function"
    },
    {
      "inputs": [
        {
          "internalType": "bytes32",
          "name": "settingNameSpace",
          "type": "bytes32"
        },
        {
          "internalType": "string",
          "name": "_settingPath",
          "type": "string"
        }
      ],
      "name": "getSettingBool",
      "outputs": [
        {
          "internalType": "bool",
          "name": "",
          "type": "bool"
        }
      ],
      "stateMutability": "view",
      "type": "function"
    },
    {
      "inputs": [
        {
          "internalType": "bytes32",
          "name": "settingNameSpace",
          "type": "bytes32"
        },
        {
          "internalType": "string",
          "name": "_settingPath",
          "type": "string"
        }
      ],
      "name": "getSettingUint",
      "outputs": [
        {
          "internalType": "uint256",
          "name": "",
          "type": "uint256"
        }
      ],
      "stateMutability": "view",
      "type": "function"
    },
    {
      "inputs": [],
      "name": "ggp",
      "outputs": [
        {
          "internalType": "contract ERC20",
          "name": "",
          "type": "address"
        }
      ],
      "stateMutability": "view",
      "type": "function"
    },
    {
      "inputs": [
        {
          "internalType": "address",
          "name": "nodeID",
          "type": "address"
        },
        {
          "internalType": "bytes32",
          "name": "timeZone",
          "type": "bytes32"
        },
        {
          "internalType": "uint256",
          "name": "startTime",
          "type": "uint256"
        },
        {
          "internalType": "uint256",
          "name": "endTime",
          "type": "uint256"
        },
        {
          "internalType": "uint256",
          "name": "avaxAmt",
          "type": "uint256"
        },
        {
          "internalType": "uint256",
          "name": "delegationFee",
          "type": "uint256"
        },
        {
          "internalType": "uint256",
          "name": "ggpBondAmt",
          "type": "uint256"
        }
      ],
      "name": "registerNode",
      "outputs": [
        {
          "internalType": "bool",
          "name": "successfulRegistration",
          "type": "bool"
        }
      ],
      "stateMutability": "payable",
      "type": "function"
    },
    {
      "inputs": [
        {
          "internalType": "uint256",
          "name": "avaxAmt",
          "type": "uint256"
        }
      ],
      "name": "requireAvaxAmt",
      "outputs": [],
      "stateMutability": "pure",
      "type": "function"
    },
    {
      "inputs": [
        {
          "internalType": "uint256",
          "name": "delegationFee",
          "type": "uint256"
        }
      ],
      "name": "requireDelegationFee",
      "outputs": [],
      "stateMutability": "pure",
      "type": "function"
    },
    {
      "inputs": [
        {
          "internalType": "uint256",
          "name": "duration",
          "type": "uint256"
        }
      ],
      "name": "requireDuration",
      "outputs": [],
      "stateMutability": "pure",
      "type": "function"
    },
    {
      "inputs": [
        {
          "internalType": "uint256",
          "name": "ggpBondAmt",
          "type": "uint256"
        }
      ],
      "name": "requireGGPBondAmt",
      "outputs": [],
      "stateMutability": "pure",
      "type": "function"
    },
    {
      "inputs": [],
      "name": "version",
      "outputs": [
        {
          "internalType": "uint8",
          "name": "",
          "type": "uint8"
        }
      ],
      "stateMutability": "view",
      "type": "function"
    }
  ],
  "bytecode": "0x60a06040523480156200001157600080fd5b506040516200237438038062002374833981810160405281019062000037919062000194565b8180600060016101000a81548173ffffffffffffffffffffffffffffffffffffffff021916908373ffffffffffffffffffffffffffffffffffffffff1602179055505060016000806101000a81548160ff021916908360ff1602179055508073ffffffffffffffffffffffffffffffffffffffff1660808173ffffffffffffffffffffffffffffffffffffffff16815250505050620001db565b600080fd5b600073ffffffffffffffffffffffffffffffffffffffff82169050919050565b60006200010382620000d6565b9050919050565b60006200011782620000f6565b9050919050565b62000129816200010a565b81146200013557600080fd5b50565b60008151905062000149816200011e565b92915050565b60006200015c82620000f6565b9050919050565b6200016e816200014f565b81146200017a57600080fd5b50565b6000815190506200018e8162000163565b92915050565b60008060408385031215620001ae57620001ad620000d1565b5b6000620001be8582860162000138565b9250506020620001d1858286016200017d565b9150509250929050565b6080516121686200020c6000396000818161048101528181610560015281816106590152610b8201526121686000f3fe6080604052600436106100a75760003560e01c80636865356c116100645780636865356c146101e75780638d2cf9d514610210578063b4509dad14610239578063cff0b64814610262578063f321df491461029f578063f4d70e78146102ca576100a7565b8063017df522146100ac57806306eaa68b146100e9578063232de716146101265780632fe82e6114610163578063492c1da41461019357806354fd4d50146101bc575b600080fd5b3480156100b857600080fd5b506100d360048036038101906100ce9190611135565b610307565b6040516100e0919061117b565b60405180910390f35b3480156100f557600080fd5b50610110600480360381019061010b9190611312565b61034b565b60405161011d919061137d565b60405180910390f35b34801561013257600080fd5b5061014d60048036038101906101489190611312565b610386565b60405161015a91906113b3565b60405180910390f35b61017d60048036038101906101789190611404565b6103c1565b60405161018a91906113b3565b60405180910390f35b34801561019f57600080fd5b506101ba60048036038101906101b591906114a6565b6109dd565b005b3480156101c857600080fd5b506101d1610a29565b6040516101de91906114ef565b60405180910390f35b3480156101f357600080fd5b5061020e600480360381019061020991906114a6565b610a3a565b005b34801561021c57600080fd5b50610237600480360381019061023291906114a6565b610a3d565b005b34801561024557600080fd5b50610260600480360381019061025b91906114a6565b610a86565b005b34801561026e57600080fd5b506102896004803603810190610284919061150a565b610ad4565b604051610296919061137d565b60405180910390f35b3480156102ab57600080fd5b506102b4610b80565b6040516102c191906115b2565b60405180910390f35b3480156102d657600080fd5b506102f160048036038101906102ec9190611312565b610ba4565b6040516102fe91906115dc565b60405180910390f35b6000600161033a8360405160200161031f9190611696565b60405160208183030381529060405280519060200120610bdf565b61034491906116eb565b9050919050565b600061037e838360405160200161036392919061180f565b60405160208183030381529060405280519060200120610c83565b905092915050565b60006103b9838360405160200161039e92919061180f565b60405160208183030381529060405280519060200120610d27565b905092915050565b60008086866103d09190611837565b90506004602060ff1610610410576040517fd3cebaf800000000000000000000000000000000000000000000000000000000815260040160405180910390fd5b61041981610a86565b610422856109dd565b61042b84610a3d565b61043483610a3a565b60006104746040518060400160405280600581526020017f5661756c74000000000000000000000000000000000000000000000000000000815250610dcb565b905060008411156106c9577f000000000000000000000000000000000000000000000000000000000000000073ffffffffffffffffffffffffffffffffffffffff166323b872dd3330876040518463ffffffff1660e01b81526004016104dc9392919061186b565b6020604051808303816000875af11580156104fb573d6000803e3d6000fd5b505050506040513d601f19601f8201168201806040525081019061051f91906118ce565b61055e576040517f08c379a00000000000000000000000000000000000000000000000000000000081526004016105559061197e565b60405180910390fd5b7f000000000000000000000000000000000000000000000000000000000000000073ffffffffffffffffffffffffffffffffffffffff1663095ea7b382866040518363ffffffff1660e01b81526004016105b992919061199e565b6020604051808303816000875af11580156105d8573d6000803e3d6000fd5b505050506040513d601f19601f820116820180604052508101906105fc91906118ce565b61063b576040517f08c379a000000000000000000000000000000000000000000000000000000000815260040161063290611a39565b60405180910390fd5b8073ffffffffffffffffffffffffffffffffffffffff1663f44429587f0000000000000000000000000000000000000000000000000000000000000000866040518363ffffffff1660e01b8152600401610696929190611aa5565b600060405180830381600087803b1580156106b057600080fd5b505af11580156106c4573d6000803e3d6000fd5b505050505b6000806106d58c610307565b90507fffffffffffffffffffffffffffffffffffffffffffffffffffffffffffffffff8114610730576040517f52793b0b00000000000000000000000000000000000000000000000000000000815260040160405180910390fd5b6107597fadf7075fc912fd6d2317691f88ee6dbf3b1ad95ef3a7f4e3135e3d972d103adc610bdf565b915061078c8260405160200161076f9190611b9a565b604051602081830303815290604052805190602001206001610e77565b6107bc826040516020016107a09190611c17565b604051602081830303815290604052805190602001208d610f0a565b6107ec826040516020016107d09190611c94565b604051602081830303815290604052805190602001208c610f9d565b61081c826040516020016108009190611d11565b6040516020818303038152906040528051906020012085611030565b61084c826040516020016108309190611d8e565b6040516020818303038152906040528051906020012089611030565b61087c826040516020016108609190611e0b565b6040516020818303038152906040528051906020012088611030565b6108ac826040516020016108909190611e88565b6040516020818303038152906040528051906020012087611030565b60006108ec6040518060400160405280600981526020017f4261736551756575650000000000000000000000000000000000000000000000815250610dcb565b90508073ffffffffffffffffffffffffffffffffffffffff16637c906ef98e6040518263ffffffff1660e01b81526004016109279190611edf565b600060405180830381600087803b15801561094157600080fd5b505af1158015610955573d6000803e3d6000fd5b505050506109888360405160200161096d9190611b9a565b60405160208183030381529060405280519060200120610d27565b95508c73ffffffffffffffffffffffffffffffffffffffff167f564728e6a7c8edd446557d94e0339d5e6ca2e05f42188914efdbdc87bcbbabf660405160405180910390a25050505050979650505050505050565b6103e88110806109ef5750622dc6c081115b15610a26576040517fd3cebaf800000000000000000000000000000000000000000000000000000000815260040160405180910390fd5b50565b60008054906101000a900460ff1681565b50565b6002811080610a4c5750601481115b15610a83576040517fc98d73a700000000000000000000000000000000000000000000000000000000815260040160405180910390fd5b50565b62127500811080610a9a57506301e1338081115b15610ad1576040517f7616640100000000000000000000000000000000000000000000000000000000815260040160405180910390fd5b50565b600080610b0683604051602001610aeb9190611f52565b60405160208183030381529060405280519060200120610c83565b9050600073ffffffffffffffffffffffffffffffffffffffff168173ffffffffffffffffffffffffffffffffffffffff1603610b77576040517f08c379a0000000000000000000000000000000000000000000000000000000008152600401610b6e90611fc0565b60405180910390fd5b80915050919050565b7f000000000000000000000000000000000000000000000000000000000000000081565b6000610bd78383604051602001610bbc92919061180f565b60405160208183030381529060405280519060200120610bdf565b905092915050565b60008060019054906101000a900473ffffffffffffffffffffffffffffffffffffffff1673ffffffffffffffffffffffffffffffffffffffff1663bd02d0f5836040518263ffffffff1660e01b8152600401610c3b9190611fef565b602060405180830381865afa158015610c58573d6000803e3d6000fd5b505050506040513d601f19601f82011682018060405250810190610c7c919061201f565b9050919050565b60008060019054906101000a900473ffffffffffffffffffffffffffffffffffffffff1673ffffffffffffffffffffffffffffffffffffffff166321f8a721836040518263ffffffff1660e01b8152600401610cdf9190611fef565b602060405180830381865afa158015610cfc573d6000803e3d6000fd5b505050506040513d601f19601f82011682018060405250810190610d209190612061565b9050919050565b60008060019054906101000a900473ffffffffffffffffffffffffffffffffffffffff1673ffffffffffffffffffffffffffffffffffffffff16637ae1cfca836040518263ffffffff1660e01b8152600401610d839190611fef565b602060405180830381865afa158015610da0573d6000803e3d6000fd5b505050506040513d601f19601f82011682018060405250810190610dc491906118ce565b9050919050565b600080610dfd83604051602001610de29190611f52565b60405160208183030381529060405280519060200120610c83565b9050600073ffffffffffffffffffffffffffffffffffffffff168173ffffffffffffffffffffffffffffffffffffffff1603610e6e576040517f08c379a0000000000000000000000000000000000000000000000000000000008152600401610e6590611fc0565b60405180910390fd5b80915050919050565b600060019054906101000a900473ffffffffffffffffffffffffffffffffffffffff1673ffffffffffffffffffffffffffffffffffffffff1663abfdcced83836040518363ffffffff1660e01b8152600401610ed492919061208e565b600060405180830381600087803b158015610eee57600080fd5b505af1158015610f02573d6000803e3d6000fd5b505050505050565b600060019054906101000a900473ffffffffffffffffffffffffffffffffffffffff1673ffffffffffffffffffffffffffffffffffffffff1663ca446dd983836040518363ffffffff1660e01b8152600401610f679291906120b7565b600060405180830381600087803b158015610f8157600080fd5b505af1158015610f95573d6000803e3d6000fd5b505050505050565b600060019054906101000a900473ffffffffffffffffffffffffffffffffffffffff1673ffffffffffffffffffffffffffffffffffffffff16634e91db0883836040518363ffffffff1660e01b8152600401610ffa9291906120e0565b600060405180830381600087803b15801561101457600080fd5b505af1158015611028573d6000803e3d6000fd5b505050505050565b600060019054906101000a900473ffffffffffffffffffffffffffffffffffffffff1673ffffffffffffffffffffffffffffffffffffffff1663e2a4853a83836040518363ffffffff1660e01b815260040161108d929190612109565b600060405180830381600087803b1580156110a757600080fd5b505af11580156110bb573d6000803e3d6000fd5b505050505050565b6000604051905090565b600080fd5b600080fd5b600073ffffffffffffffffffffffffffffffffffffffff82169050919050565b6000611102826110d7565b9050919050565b611112816110f7565b811461111d57600080fd5b50565b60008135905061112f81611109565b92915050565b60006020828403121561114b5761114a6110cd565b5b600061115984828501611120565b91505092915050565b6000819050919050565b61117581611162565b82525050565b6000602082019050611190600083018461116c565b92915050565b6000819050919050565b6111a981611196565b81146111b457600080fd5b50565b6000813590506111c6816111a0565b92915050565b600080fd5b600080fd5b6000601f19601f8301169050919050565b7f4e487b7100000000000000000000000000000000000000000000000000000000600052604160045260246000fd5b61121f826111d6565b810181811067ffffffffffffffff8211171561123e5761123d6111e7565b5b80604052505050565b60006112516110c3565b905061125d8282611216565b919050565b600067ffffffffffffffff82111561127d5761127c6111e7565b5b611286826111d6565b9050602081019050919050565b82818337600083830152505050565b60006112b56112b084611262565b611247565b9050828152602081018484840111156112d1576112d06111d1565b5b6112dc848285611293565b509392505050565b600082601f8301126112f9576112f86111cc565b5b81356113098482602086016112a2565b91505092915050565b60008060408385031215611329576113286110cd565b5b6000611337858286016111b7565b925050602083013567ffffffffffffffff811115611358576113576110d2565b5b611364858286016112e4565b9150509250929050565b611377816110f7565b82525050565b6000602082019050611392600083018461136e565b92915050565b60008115159050919050565b6113ad81611398565b82525050565b60006020820190506113c860008301846113a4565b92915050565b6000819050919050565b6113e1816113ce565b81146113ec57600080fd5b50565b6000813590506113fe816113d8565b92915050565b600080600080600080600060e0888a031215611423576114226110cd565b5b60006114318a828b01611120565b97505060206114428a828b016111b7565b96505060406114538a828b016113ef565b95505060606114648a828b016113ef565b94505060806114758a828b016113ef565b93505060a06114868a828b016113ef565b92505060c06114978a828b016113ef565b91505092959891949750929550565b6000602082840312156114bc576114bb6110cd565b5b60006114ca848285016113ef565b91505092915050565b600060ff82169050919050565b6114e9816114d3565b82525050565b600060208201905061150460008301846114e0565b92915050565b6000602082840312156115205761151f6110cd565b5b600082013567ffffffffffffffff81111561153e5761153d6110d2565b5b61154a848285016112e4565b91505092915050565b6000819050919050565b600061157861157361156e846110d7565b611553565b6110d7565b9050919050565b600061158a8261155d565b9050919050565b600061159c8261157f565b9050919050565b6115ac81611591565b82525050565b60006020820190506115c760008301846115a3565b92915050565b6115d6816113ce565b82525050565b60006020820190506115f160008301846115cd565b92915050565b600081905092915050565b7f6e6f64654f70657261746f722e696e6465780000000000000000000000000000600082015250565b60006116386012836115f7565b915061164382611602565b601282019050919050565b60008160601b9050919050565b60006116668261164e565b9050919050565b60006116788261165b565b9050919050565b61169061168b826110f7565b61166d565b82525050565b60006116a18261162b565b91506116ad828461167f565b60148201915081905092915050565b7f4e487b7100000000000000000000000000000000000000000000000000000000600052601160045260246000fd5b60006116f682611162565b915061170183611162565b9250827f80000000000000000000000000000000000000000000000000000000000000000182126000841215161561173c5761173b6116bc565b5b827f7fffffffffffffffffffffffffffffffffffffffffffffffffffffffffffffff018213600084121615611774576117736116bc565b5b828203905092915050565b6000819050919050565b61179a61179582611196565b61177f565b82525050565b600081519050919050565b60005b838110156117c95780820151818401526020810190506117ae565b838111156117d8576000848401525b50505050565b60006117e9826117a0565b6117f381856115f7565b93506118038185602086016117ab565b80840191505092915050565b600061181b8285611789565b60208201915061182b82846117de565b91508190509392505050565b6000611842826113ce565b915061184d836113ce565b9250828210156118605761185f6116bc565b5b828203905092915050565b6000606082019050611880600083018661136e565b61188d602083018561136e565b61189a60408301846115cd565b949350505050565b6118ab81611398565b81146118b657600080fd5b50565b6000815190506118c8816118a2565b92915050565b6000602082840312156118e4576118e36110cd565b5b60006118f2848285016118b9565b91505092915050565b600082825260208201905092915050565b7f436f756c64206e6f74207472616e736665722047475020746f2044656c65676160008201527f74696f6e20636f6e747261637400000000000000000000000000000000000000602082015250565b6000611968602d836118fb565b91506119738261190c565b604082019050919050565b600060208201905081810360008301526119978161195b565b9050919050565b60006040820190506119b3600083018561136e565b6119c060208301846115cd565b9392505050565b7f436f756c64206e6f7420617070726f7665207661756c7420474750206465706f60008201527f7369740000000000000000000000000000000000000000000000000000000000602082015250565b6000611a236023836118fb565b9150611a2e826119c7565b604082019050919050565b60006020820190508181036000830152611a5281611a16565b9050919050565b7f44656c65676174696f6e4d616e61676572000000000000000000000000000000600082015250565b6000611a8f6011836118fb565b9150611a9a82611a59565b602082019050919050565b60006060820190508181036000830152611abe81611a82565b9050611acd60208301856115a3565b611ada60408301846115cd565b9392505050565b7f6e6f64654f70657261746f722e6974656d000000000000000000000000000000600082015250565b6000611b176011836115f7565b9150611b2282611ae1565b601182019050919050565b6000819050919050565b611b48611b43826113ce565b611b2d565b82525050565b7f2e65786973747300000000000000000000000000000000000000000000000000600082015250565b6000611b846007836115f7565b9150611b8f82611b4e565b600782019050919050565b6000611ba582611b0a565b9150611bb18284611b37565b602082019150611bc082611b77565b915081905092915050565b7f2e6e6f6465494400000000000000000000000000000000000000000000000000600082015250565b6000611c016007836115f7565b9150611c0c82611bcb565b600782019050919050565b6000611c2282611b0a565b9150611c2e8284611b37565b602082019150611c3d82611bf4565b915081905092915050565b7f2e74696d655a6f6e650000000000000000000000000000000000000000000000600082015250565b6000611c7e6009836115f7565b9150611c8982611c48565b600982019050919050565b6000611c9f82611b0a565b9150611cab8284611b37565b602082019150611cba82611c71565b915081905092915050565b7f2e6475726174696f6e0000000000000000000000000000000000000000000000600082015250565b6000611cfb6009836115f7565b9150611d0682611cc5565b600982019050919050565b6000611d1c82611b0a565b9150611d288284611b37565b602082019150611d3782611cee565b915081905092915050565b7f2e61766178416d74000000000000000000000000000000000000000000000000600082015250565b6000611d786008836115f7565b9150611d8382611d42565b600882019050919050565b6000611d9982611b0a565b9150611da58284611b37565b602082019150611db482611d6b565b915081905092915050565b7f2e64656c65676174696f6e466565000000000000000000000000000000000000600082015250565b6000611df5600e836115f7565b9150611e0082611dbf565b600e82019050919050565b6000611e1682611b0a565b9150611e228284611b37565b602082019150611e3182611de8565b915081905092915050565b7f2e676770426f6e64416d74000000000000000000000000000000000000000000600082015250565b6000611e72600b836115f7565b9150611e7d82611e3c565b600b82019050919050565b6000611e9382611b0a565b9150611e9f8284611b37565b602082019150611eae82611e65565b915081905092915050565b7f64656c65676174696f6e51756575650000000000000000000000000000000000815250565b6000604082019050611ef360008301611eb9565b611f00602083018461136e565b92915050565b7f636f6e74726163742e6164647265737300000000000000000000000000000000600082015250565b6000611f3c6010836115f7565b9150611f4782611f06565b601082019050919050565b6000611f5d82611f2f565b9150611f6982846117de565b915081905092915050565b7f436f6e7472616374206e6f7420666f756e640000000000000000000000000000600082015250565b6000611faa6012836118fb565b9150611fb582611f74565b602082019050919050565b60006020820190508181036000830152611fd981611f9d565b9050919050565b611fe981611196565b82525050565b60006020820190506120046000830184611fe0565b92915050565b600081519050612019816113d8565b92915050565b600060208284031215612035576120346110cd565b5b60006120438482850161200a565b91505092915050565b60008151905061205b81611109565b92915050565b600060208284031215612077576120766110cd565b5b60006120858482850161204c565b91505092915050565b60006040820190506120a36000830185611fe0565b6120b060208301846113a4565b9392505050565b60006040820190506120cc6000830185611fe0565b6120d9602083018461136e565b9392505050565b60006040820190506120f56000830185611fe0565b6121026020830184611fe0565b9392505050565b600060408201905061211e6000830185611fe0565b61212b60208301846115cd565b939250505056fea2646970667358221220f78b4dcadc863207cfbf06638e86d2507ae998b762ecd996ac2a724f8650400f64736f6c634300080d0033",
  "linkReferences": {},
  "deployedLinkReferences": {}
}