{
  "_format": "hh-sol-artifact-1",
  "contractName": "DelegationManager",
  "sourceName": "contracts/contract/DelegationManager.sol",
  "abi": [
    {
      "inputs": [
        {
          "internalType": "contract Storage",
          "name": "storageAddress",
          "type": "address"
        },
        {
          "internalType": "contract ERC20",
          "name": "ggp_",
          "type": "address"
        },
        {
          "internalType": "contract TokenggAVAX",
          "name": "ggAVAX_",
          "type": "address"
        }
      ],
      "stateMutability": "nonpayable",
      "type": "constructor"
    },
    {
      "inputs": [],
      "name": "DelegationNodeNotFound",
      "type": "error"
    },
    {
      "inputs": [],
      "name": "ErrorSendingAvax",
      "type": "error"
    },
    {
      "inputs": [],
      "name": "InvalidDuration",
      "type": "error"
    },
    {
      "inputs": [],
      "name": "InvalidEndTime",
      "type": "error"
    },
    {
      "inputs": [],
      "name": "InvalidEndingDelegationAmount",
      "type": "error"
    },
    {
      "inputs": [],
      "name": "InvalidGGPBondAmt",
      "type": "error"
    },
    {
      "inputs": [],
      "name": "InvalidMultisigAddress",
      "type": "error"
    },
    {
      "inputs": [],
      "name": "InvalidNodeId",
      "type": "error"
    },
    {
      "inputs": [],
      "name": "InvalidRequestedDelegationAmt",
      "type": "error"
    },
    {
      "inputs": [],
      "name": "InvalidStateTransition",
      "type": "error"
    },
    {
      "inputs": [],
      "name": "OnlyOwnerCanCancel",
      "type": "error"
    },
    {
      "inputs": [],
      "name": "OnlyOwnerCanWithdraw",
      "type": "error"
    },
    {
      "anonymous": false,
      "inputs": [
        {
          "indexed": true,
          "internalType": "address",
          "name": "nodeID",
          "type": "address"
        },
        {
          "indexed": true,
          "internalType": "enum DelegationNodeStatus",
          "name": "status",
          "type": "uint8"
        }
      ],
      "name": "DelegationNodeStatusChanged",
      "type": "event"
    },
    {
      "inputs": [],
      "name": "MAX_NODE_AMT",
      "outputs": [
        {
          "internalType": "uint256",
          "name": "",
          "type": "uint256"
        }
      ],
      "stateMutability": "view",
      "type": "function"
    },
    {
      "inputs": [],
      "name": "MIN_DELEGATION_AMT",
      "outputs": [
        {
          "internalType": "uint256",
          "name": "",
          "type": "uint256"
        }
      ],
      "stateMutability": "view",
      "type": "function"
    },
    {
      "inputs": [],
      "name": "MIN_STAKING_AMT",
      "outputs": [
        {
          "internalType": "uint256",
          "name": "",
          "type": "uint256"
        }
      ],
      "stateMutability": "view",
      "type": "function"
    },
    {
      "inputs": [
        {
          "internalType": "uint256",
          "name": "avaxRewardAmt",
          "type": "uint256"
        }
      ],
      "name": "calculateSlashAmt",
      "outputs": [
        {
          "internalType": "uint256",
          "name": "",
          "type": "uint256"
        }
      ],
      "stateMutability": "view",
      "type": "function"
    },
    {
      "inputs": [
        {
          "internalType": "address",
          "name": "nodeID",
          "type": "address"
        }
      ],
      "name": "canClaimAndInitiateDelegation",
      "outputs": [
        {
          "internalType": "bool",
          "name": "",
          "type": "bool"
        }
      ],
      "stateMutability": "view",
      "type": "function"
    },
    {
      "inputs": [
        {
          "internalType": "address",
          "name": "nodeID",
          "type": "address"
        }
      ],
      "name": "cancelDelegation",
      "outputs": [],
      "stateMutability": "nonpayable",
      "type": "function"
    },
    {
      "inputs": [
        {
          "internalType": "address",
          "name": "nodeID",
          "type": "address"
        }
      ],
      "name": "checkIfIsMinipool",
      "outputs": [
        {
          "internalType": "bool",
          "name": "",
          "type": "bool"
        }
      ],
      "stateMutability": "view",
      "type": "function"
    },
    {
      "inputs": [
        {
          "internalType": "address",
          "name": "nodeID",
          "type": "address"
        }
      ],
      "name": "claimAndInitiateDelegation",
      "outputs": [],
      "stateMutability": "nonpayable",
      "type": "function"
    },
    {
      "inputs": [
        {
          "internalType": "uint256",
          "name": "duration",
          "type": "uint256"
        },
        {
          "internalType": "uint256",
          "name": "avaxAmt",
          "type": "uint256"
        }
      ],
      "name": "expectedRewardAmt",
      "outputs": [
        {
          "internalType": "uint256",
          "name": "",
          "type": "uint256"
        }
      ],
      "stateMutability": "view",
      "type": "function"
    },
    {
      "inputs": [
        {
          "internalType": "int256",
          "name": "index",
          "type": "int256"
        }
      ],
      "name": "getDelegationNode",
      "outputs": [
        {
          "components": [
            {
              "internalType": "address",
              "name": "nodeID",
              "type": "address"
            },
            {
              "internalType": "uint256",
              "name": "status",
              "type": "uint256"
            },
            {
              "internalType": "uint256",
              "name": "ggpBondAmt",
              "type": "uint256"
            },
            {
              "internalType": "uint256",
              "name": "requestedDelegationAmt",
              "type": "uint256"
            },
            {
              "internalType": "bool",
              "name": "isMinipool",
              "type": "bool"
            },
            {
              "internalType": "uint256",
              "name": "startTime",
              "type": "uint256"
            },
            {
              "internalType": "uint256",
              "name": "endTime",
              "type": "uint256"
            },
            {
              "internalType": "uint256",
              "name": "duration",
              "type": "uint256"
            },
            {
              "internalType": "uint256",
              "name": "avaxDelegatorRewardAmt",
              "type": "uint256"
            },
            {
              "internalType": "uint256",
              "name": "avaxValidatorRewardAmt",
              "type": "uint256"
            },
            {
              "internalType": "address",
              "name": "owner",
              "type": "address"
            },
            {
              "internalType": "address",
              "name": "multisigAddr",
              "type": "address"
            },
            {
              "internalType": "uint256",
              "name": "ggpSlashAmt",
              "type": "uint256"
            }
          ],
          "internalType": "struct DelegationManager.DelegationNode",
          "name": "dn",
          "type": "tuple"
        }
      ],
      "stateMutability": "view",
      "type": "function"
    },
    {
      "inputs": [
        {
          "internalType": "uint256",
          "name": "offset",
          "type": "uint256"
        },
        {
          "internalType": "uint256",
          "name": "limit",
          "type": "uint256"
        }
      ],
      "name": "getDelegationNodeCountPerStatus",
      "outputs": [
        {
          "internalType": "uint256",
          "name": "prelaunchCount",
          "type": "uint256"
        },
        {
          "internalType": "uint256",
          "name": "launchedCount",
          "type": "uint256"
        },
        {
          "internalType": "uint256",
          "name": "delegatedCount",
          "type": "uint256"
        },
        {
          "internalType": "uint256",
          "name": "withdrawableCount",
          "type": "uint256"
        },
        {
          "internalType": "uint256",
          "name": "finishedCount",
          "type": "uint256"
        },
        {
          "internalType": "uint256",
          "name": "canceledCount",
          "type": "uint256"
        }
      ],
      "stateMutability": "view",
      "type": "function"
    },
    {
      "inputs": [
        {
          "internalType": "enum DelegationNodeStatus",
          "name": "status",
          "type": "uint8"
        },
        {
          "internalType": "uint256",
          "name": "offset",
          "type": "uint256"
        },
        {
          "internalType": "uint256",
          "name": "limit",
          "type": "uint256"
        }
      ],
      "name": "getDelegationNodes",
      "outputs": [
        {
          "components": [
            {
              "internalType": "address",
              "name": "nodeID",
              "type": "address"
            },
            {
              "internalType": "uint256",
              "name": "status",
              "type": "uint256"
            },
            {
              "internalType": "uint256",
              "name": "ggpBondAmt",
              "type": "uint256"
            },
            {
              "internalType": "uint256",
              "name": "requestedDelegationAmt",
              "type": "uint256"
            },
            {
              "internalType": "bool",
              "name": "isMinipool",
              "type": "bool"
            },
            {
              "internalType": "uint256",
              "name": "startTime",
              "type": "uint256"
            },
            {
              "internalType": "uint256",
              "name": "endTime",
              "type": "uint256"
            },
            {
              "internalType": "uint256",
              "name": "duration",
              "type": "uint256"
            },
            {
              "internalType": "uint256",
              "name": "avaxDelegatorRewardAmt",
              "type": "uint256"
            },
            {
              "internalType": "uint256",
              "name": "avaxValidatorRewardAmt",
              "type": "uint256"
            },
            {
              "internalType": "address",
              "name": "owner",
              "type": "address"
            },
            {
              "internalType": "address",
              "name": "multisigAddr",
              "type": "address"
            },
            {
              "internalType": "uint256",
              "name": "ggpSlashAmt",
              "type": "uint256"
            }
          ],
          "internalType": "struct DelegationManager.DelegationNode[]",
          "name": "nodes",
          "type": "tuple[]"
        }
      ],
      "stateMutability": "view",
      "type": "function"
    },
    {
      "inputs": [],
      "name": "getDelegationNodesCount",
      "outputs": [
        {
          "internalType": "uint256",
          "name": "",
          "type": "uint256"
        }
      ],
      "stateMutability": "view",
      "type": "function"
    },
    {
      "inputs": [
        {
          "internalType": "address",
          "name": "nodeID",
          "type": "address"
        }
      ],
      "name": "getIndexOf",
      "outputs": [
        {
          "internalType": "int256",
          "name": "",
          "type": "int256"
        }
      ],
      "stateMutability": "view",
      "type": "function"
    },
    {
      "inputs": [
        {
          "internalType": "string",
          "name": "_contractName",
          "type": "string"
        }
      ],
      "name": "getPublicContractAddress",
      "outputs": [
        {
          "internalType": "address",
          "name": "",
          "type": "address"
        }
      ],
      "stateMutability": "view",
      "type": "function"
    },
    {
      "inputs": [
        {
          "internalType": "bytes32",
          "name": "settingNameSpace",
          "type": "bytes32"
        },
        {
          "internalType": "string",
          "name": "_settingPath",
          "type": "string"
        }
      ],
      "name": "getSettingAddress",
      "outputs": [
        {
          "internalType": "address",
          "name": "",
          "type": "address"
        }
      ],
      "stateMutability": "view",
      "type": "function"
    },
    {
      "inputs": [
        {
          "internalType": "bytes32",
          "name": "settingNameSpace",
          "type": "bytes32"
        },
        {
          "internalType": "string",
          "name": "_settingPath",
          "type": "string"
        }
      ],
      "name": "getSettingBool",
      "outputs": [
        {
          "internalType": "bool",
          "name": "",
          "type": "bool"
        }
      ],
      "stateMutability": "view",
      "type": "function"
    },
    {
      "inputs": [
        {
          "internalType": "bytes32",
          "name": "settingNameSpace",
          "type": "bytes32"
        },
        {
          "internalType": "string",
          "name": "_settingPath",
          "type": "string"
        }
      ],
      "name": "getSettingUint",
      "outputs": [
        {
          "internalType": "uint256",
          "name": "",
          "type": "uint256"
        }
      ],
      "stateMutability": "view",
      "type": "function"
    },
    {
      "inputs": [],
      "name": "ggAVAX",
      "outputs": [
        {
          "internalType": "contract TokenggAVAX",
          "name": "",
          "type": "address"
        }
      ],
      "stateMutability": "view",
      "type": "function"
    },
    {
      "inputs": [],
      "name": "ggp",
      "outputs": [
        {
          "internalType": "contract ERC20",
          "name": "",
          "type": "address"
        }
      ],
      "stateMutability": "view",
      "type": "function"
    },
    {
      "inputs": [],
      "name": "receiveWithdrawalAVAX",
      "outputs": [],
      "stateMutability": "payable",
      "type": "function"
    },
    {
      "inputs": [
        {
          "internalType": "address",
          "name": "nodeID",
          "type": "address"
        },
        {
          "internalType": "uint256",
          "name": "endTime",
          "type": "uint256"
        },
        {
          "internalType": "uint256",
          "name": "avaxDelegatorRewardAmt",
          "type": "uint256"
        },
        {
          "internalType": "uint256",
          "name": "avaxValidatorRewardAmt",
          "type": "uint256"
        }
      ],
      "name": "recordDelegationEnd",
      "outputs": [],
      "stateMutability": "payable",
      "type": "function"
    },
    {
      "inputs": [
        {
          "internalType": "address",
          "name": "nodeID",
          "type": "address"
        },
        {
          "internalType": "uint256",
          "name": "startTime",
          "type": "uint256"
        }
      ],
      "name": "recordDelegationStart",
      "outputs": [],
      "stateMutability": "nonpayable",
      "type": "function"
    },
    {
      "inputs": [
        {
          "internalType": "address",
          "name": "nodeID",
          "type": "address"
        },
        {
          "internalType": "uint256",
          "name": "requestedDelegationAmt",
          "type": "uint256"
        },
        {
          "internalType": "uint256",
          "name": "ggpBondAmt",
          "type": "uint256"
        },
        {
          "internalType": "uint256",
          "name": "duration",
          "type": "uint256"
        }
      ],
      "name": "registerNode",
      "outputs": [],
      "stateMutability": "payable",
      "type": "function"
    },
    {
      "inputs": [
        {
          "internalType": "address",
          "name": "nodeID",
          "type": "address"
        },
        {
          "internalType": "enum DelegationNodeStatus",
          "name": "status",
          "type": "uint8"
        }
      ],
      "name": "updateDelegationNodeStatus",
      "outputs": [],
      "stateMutability": "nonpayable",
      "type": "function"
    },
    {
      "inputs": [],
      "name": "version",
      "outputs": [
        {
          "internalType": "uint8",
          "name": "",
          "type": "uint8"
        }
      ],
      "stateMutability": "view",
      "type": "function"
    },
    {
      "inputs": [
        {
          "internalType": "address",
          "name": "nodeID",
          "type": "address"
        }
      ],
      "name": "withdrawRewardAndBondFunds",
      "outputs": [],
      "stateMutability": "nonpayable",
      "type": "function"
    }
  ],
  "bytecode": "0x610120604052601960c052686c6b935b8bbd40000060e0526a027b46536c66c8e3000000610100523480156200003457600080fd5b50604051620032e2380380620032e28339810160408190526200005791620000a9565b6000805460ff196001600160a01b0395861661010002166001600160a81b03199091161760011790559082166080521660a052620000fd565b6001600160a01b0381168114620000a657600080fd5b50565b600080600060608486031215620000bf57600080fd5b8351620000cc8162000090565b6020850151909350620000df8162000090565b6040850151909250620000f28162000090565b809150509250925092565b60805160a05160c05160e0516101005161314c620001966000396000610412015260006104fa0152600081816104660152818161112401528181611e55015261225a0152600081816103de01528181611179015281816117c30152818161183a0152611e9601526000818161052e0152818161088501528181610a9701528181610b9901528181610c9d01526125d6015261314c6000f3fe60806040526004361061019c5760003560e01c80637fa2bd38116100ec578063e04838b01161008a578063f4812b8811610064578063f4812b8814610550578063f4d70e7814610570578063fc26d2b914610590578063ffe092411461025957600080fd5b8063e04838b0146104c8578063e49e49bf146104e8578063f321df491461051c57600080fd5b8063ba52b086116100c6578063ba52b08614610434578063c49369dd14610454578063cff0b64814610488578063de5a61e3146104a857600080fd5b80637fa2bd38146103ac578063abd149dc146103cc578063b97831de1461040057600080fd5b806329eefbb11161015957806355b2e3f81161013357806355b2e3f81461030a5780635de340d41461033757806367507e551461034a5780636cd772b41461035f57600080fd5b806329eefbb11461029e5780633ec9dfec146102be57806354fd4d50146102de57600080fd5b8063017df522146101a157806305b2eb3f146101d457806306eaa68b1461020157806316daf375146102395780631c0963391461025b578063232de7161461026e575b600080fd5b3480156101ad57600080fd5b506101c16101bc366004612707565b6105b0565b6040519081526020015b60405180910390f35b3480156101e057600080fd5b506101f46101ef366004612738565b6105f3565b6040516101cb919061281d565b34801561020d57600080fd5b5061022161021c366004612939565b610712565b6040516001600160a01b0390911681526020016101cb565b34801561024557600080fd5b50610259610254366004612707565b61074c565b005b610259610269366004612980565b610a29565b34801561027a57600080fd5b5061028e610289366004612939565b6110da565b60405190151581526020016101cb565b3480156102aa57600080fd5b506102596102b9366004612707565b6110f2565b3480156102ca57600080fd5b5061028e6102d9366004612707565b611243565b3480156102ea57600080fd5b506000546102f89060ff1681565b60405160ff90911681526020016101cb565b34801561031657600080fd5b5061032a6103253660046129bb565b61141d565b6040516101cb91906129d4565b610259610345366004612980565b6115a0565b34801561035657600080fd5b506101c161194d565b34801561036b57600080fd5b5061037f61037a3660046129e3565b61196b565b604080519687526020870195909552938501929092526060840152608083015260a082015260c0016101cb565b3480156103b857600080fd5b506102596103c7366004612a05565b611a96565b3480156103d857600080fd5b506102217f000000000000000000000000000000000000000000000000000000000000000081565b34801561040c57600080fd5b506101c17f000000000000000000000000000000000000000000000000000000000000000081565b34801561044057600080fd5b5061025961044f366004612a3a565b611afe565b34801561046057600080fd5b506101c17f000000000000000000000000000000000000000000000000000000000000000081565b34801561049457600080fd5b506102216104a3366004612a66565b611ba2565b3480156104b457600080fd5b506101c16104c33660046129e3565b611c06565b3480156104d457600080fd5b506102596104e3366004612707565b611cdc565b3480156104f457600080fd5b506101c17f000000000000000000000000000000000000000000000000000000000000000081565b34801561052857600080fd5b506102217f000000000000000000000000000000000000000000000000000000000000000081565b34801561055c57600080fd5b506101c161056b3660046129bb565b611d53565b34801561057c57600080fd5b506101c161058b366004612939565b611e0a565b34801561059c57600080fd5b5061028e6105ab366004612707565b611e22565b600060016105e3836040516020016105c89190612a9b565b60405160208183030381529060405280519060200120611f31565b6105ed9190612aeb565b92915050565b6060600061060e6000805160206130d7833981519152611f31565b9050600061061c8486612b2a565b90508181118061062a575083155b156106325750805b61063c8582612b42565b67ffffffffffffffff8111156106545761065461286c565b60405190808252806020026020018201604052801561068d57816020015b61067a61266d565b8152602001906001900390816106725790505b5092506000855b828110156107055760006106a78261141d565b90508860068111156106bb576106bb612b59565b8160200151036106f257808684815181106106d8576106d8612b6f565b602002602001018190525082806106ee90612b85565b9350505b50806106fd81612b85565b915050610694565b5083525090949350505050565b6000610745838360405160200161072a929190612bd9565b60405160208183030381529060405280519060200120611fa3565b9392505050565b6000610757826105b0565b9050801961077857604051634c26709f60e01b815260040160405180910390fd5b600061078e8260405160200161072a9190612beb565b9050336001600160a01b038216146107b9576040516347418db160e01b815260040160405180910390fd5b6107c4826004612015565b6107f8826040516020016107d89190612c19565b60408051601f19818403018152919052805160209091012060045b612178565b60006108206040518060400160405280600581526020016415985d5b1d60da1b815250611ba2565b90506000610838846040516020016105c89190612c48565b90506000610850856040516020016105c89190612c7b565b9050600061085e8284612b42565b905080156108f1576040516301e3366760e01b81526001600160a01b0386811660048301527f000000000000000000000000000000000000000000000000000000000000000081166024830152604482018390528516906301e3366790606401600060405180830381600087803b1580156108d857600080fd5b505af11580156108ec573d6000803e3d6000fd5b505050505b6000610922876040516020016109079190612caf565b604051602081830303815290604052805190602001206121e6565b9050600061093a886040516020016105c89190612ce2565b90508180156109495750600081115b15610a1e5760405163075c6c4b60e11b8152600481018290526001600160a01b03871690630eb8d89690602401600060405180830381600087803b15801561099057600080fd5b505af11580156109a4573d6000803e3d6000fd5b505050506000876001600160a01b03168260405160006040518083038185875af1925050503d80600081146109f5576040519150601f19603f3d011682016040523d82523d6000602084013e6109fa565b606091505b5050905080610a1c57604051639d60fd7560e01b815260040160405180910390fd5b505b505050505050505050565b610a3283612258565b610a3c828461229c565b610a45816122d7565b6000610a6d6040518060400160405280600581526020016415985d5b1d60da1b815250611ba2565b90508215610d09576040516323b872dd60e01b8152336004820152306024820152604481018490527f00000000000000000000000000000000000000000000000000000000000000006001600160a01b0316906323b872dd906064016020604051808303816000875af1158015610ae8573d6000803e3d6000fd5b505050506040513d601f19601f82011682018060405250810190610b0c9190612d27565b610b735760405162461bcd60e51b815260206004820152602d60248201527f436f756c64206e6f74207472616e736665722047475020746f2044656c65676160448201526c1d1a5bdb8818dbdb9d1c9858dd609a1b60648201526084015b60405180910390fd5b60405163095ea7b360e01b81526001600160a01b038281166004830152602482018590527f0000000000000000000000000000000000000000000000000000000000000000169063095ea7b3906044016020604051808303816000875af1158015610be2573d6000803e3d6000fd5b505050506040513d601f19601f82011682018060405250810190610c069190612d27565b610c5e5760405162461bcd60e51b815260206004820152602360248201527f436f756c64206e6f7420617070726f7665207661756c7420474750206465706f6044820152621cda5d60ea1b6064820152608401610b6a565b604051631e88852b60e31b81526060600482015260116064820152702232b632b3b0ba34b7b726b0b730b3b2b960791b60848201526001600160a01b037f0000000000000000000000000000000000000000000000000000000000000000811660248301526044820185905282169063f44429589060a401600060405180830381600087803b158015610cf057600080fd5b505af1158015610d04573d6000803e3d6000fd5b505050505b6000610d14866105b0565b90508060001914610def57610d2a816000612015565b610d5b81604051602001610d3e9190612d49565b604051602081830303815290604052805190602001206000612178565b610d6f81604051602001610d3e9190612d7b565b6040516000805160206130b78339815191526020820152603381018290526b0b985d985e155cd95c905b5d60a21b6053820152610dae90605f01610d3e565b610dc281604051602001610d3e9190612dab565b610dd681604051602001610d3e9190612ce2565b610dea81604051602001610d3e9190612c7b565b610e09565b610e066000805160206130d7833981519152611f31565b90505b6000610e3b6040518060400160405280600f81526020016e26bab63a34b9b4b3a6b0b730b3b2b960891b815250611ba2565b90506000816001600160a01b031663867533e66040518163ffffffff1660e01b8152600401602060405180830381865afa158015610e7d573d6000803e3d6000fd5b505050506040513d601f19601f82011682018060405250810190610ea19190612dfb565b90506001600160a01b038116610eca5760405163c2bd570760e01b815260040160405180910390fd5b610efa83604051602001610ede9190612e18565b604051602081830303815290604052805190602001208961239b565b610f2d83604051602001610f0e9190612c19565b60408051601f1981840301815291905280516020909101206000612178565b610f5d83604051602001610f419190612e47565b6040516020818303038152906040528051906020012086612178565b610f8d83604051602001610f719190612e78565b6040516020818303038152906040528051906020012088612178565b610fbd83604051602001610fa19190612ebd565b604051602081830303815290604052805190602001208261239b565b610fed83604051602001610fd19190612beb565b604051602081830303815290604052805190602001203361239b565b61101d836040516020016110019190612c48565b6040516020818303038152906040528051906020012087612178565b600061102889611243565b905061105a8460405160200161103e9190612caf565b60405160208183030381529060405280519060200120826123da565b6110918960405160200161106e9190612a9b565b604051602081830303815290604052805190602001208560016107f39190612ef2565b6110aa6000805160206130d78339815191526001612417565b60005b6040516001600160a01b038b16906000805160206130f783398151915290600090a3505050505050505050565b60006107458383604051602001610907929190612bd9565b60006110fd82612453565b905061110a816001612015565b6000611120826040516020016105c89190612e78565b90507f000000000000000000000000000000000000000000000000000000000000000081101561116357604051633e2f7bc160e01b815260040160405180910390fd5b60405163efe441d960e01b8152600481018290527f00000000000000000000000000000000000000000000000000000000000000006001600160a01b03169063efe441d990602401600060405180830381600087803b1580156111c557600080fd5b505af11580156111d9573d6000803e3d6000fd5b50505050611210826040516020016111f19190612c19565b60408051601f1981840301815291905280516020909101206001612178565b60016040516001600160a01b038516906000805160206130f783398151915290600090a361123e33826124c8565b505050565b6000806112766040518060400160405280600f81526020016e26b4b734b837b7b626b0b730b3b2b960891b815250611ba2565b60405162befa9160e11b81526001600160a01b03858116600483015291925060009183169063017df52290602401602060405180830381865afa1580156112c1573d6000803e3d6000fd5b505050506040513d601f19601f820116820180604052508101906112e59190612f33565b905080600019146114135761138e60405180610200016040528060006001600160a01b0316815260200160008152602001600081526020016000815260200160008152602001600081526020016000815260200160008152602001600081526020016000815260200160008152602001600081526020016000815260200160006001600160a01b0316815260200160006001600160a01b03168152602001600080191681525090565b60405163363385bd60e21b8152600481018390526001600160a01b0384169063d8ce16f49060240161020060405180830381865afa1580156113d4573d6000803e3d6000fd5b505050506040513d601f19601f820116820180604052508101906113f89190612f4c565b9050600281602001510361141157506001949350505050565b505b5060009392505050565b61142561266d565b6114398260405160200161072a9190612e18565b6001600160a01b03168152604051611459906105c8908490602001612c19565b816020018181525050611476826040516020016109079190612caf565b15156080820152604051611492906105c8908490602001612e47565b60e08201526040516114ac906105c8908490602001612d49565b60a08201526040516114c6906105c8908490602001612d7b565b60c08201526040516114e0906105c8908490602001612c48565b8160400181815250506114fd826040516020016105c89190612e78565b6060820152604051611517906105c8908490602001612ce2565b610120820152604051611532906105c8908490602001612dab565b61010082015260405161154d9061072a908490602001612ebd565b6001600160a01b03166101608201526040516115719061072a908490602001612beb565b6001600160a01b0316610140820152604051611595906105c8908490602001612c7b565b610180820152919050565b60006115ab85612453565b90506115b8816003612015565b60006115ce826040516020016105c89190612d49565b905060006115e6836040516020016105c89190612e47565b905081861115806115f657504286115b806116095750806116078388612b42565b105b15611627576040516338af65f760e01b815260040160405180910390fd5b600061163d846040516020016105c89190612e78565b90506000611655856040516020016109079190612caf565b9050801561169657856116688884612b2a565b6116729190612b2a565b341461169157604051632c17018960e21b815260040160405180910390fd5b6116bf565b6116a08783612b2a565b34146116bf57604051632c17018960e21b815260040160405180910390fd5b6116f2856040516020016116d39190612c19565b60408051601f1981840301815291905280516020909101206003612178565b611722856040516020016117069190612d7b565b6040516020818303038152906040528051906020012089612178565b61173685604051602001610f719190612dab565b61174a856040516020016110019190612ce2565b6117548688612b2a565b6000036118305760006117678484611c06565b9050600061177482611d53565b90506117a68760405160200161178a9190612c7b565b6040516020818303038152906040528051906020012082612178565b604051630e0f72f160e21b815260048101859052600060248201527f00000000000000000000000000000000000000000000000000000000000000006001600160a01b03169063383dcbc49086906044016000604051808303818588803b15801561181057600080fd5b505af1158015611824573d6000803e3d6000fd5b50505050505050611946565b6001600160a01b037f00000000000000000000000000000000000000000000000000000000000000001663383dcbc46118698985612b2a565b6040516001600160e01b031960e084901b16815260048101869052602481018b90526044016000604051808303818588803b1580156118a757600080fd5b505af11580156118bb573d6000803e3d6000fd5b505050505080156119465760006118ee6040518060400160405280600581526020016415985d5b1d60da1b815250611ba2565b9050806001600160a01b03166324056867886040518263ffffffff1660e01b81526004016000604051808303818588803b15801561192b57600080fd5b505af115801561193f573d6000803e3d6000fd5b5050505050505b60036110ad565b60006119666000805160206130d7833981519152611f31565b905090565b600080600080600080600061198d6000805160206130d7833981519152611f31565b9050600061199b898b612b2a565b9050818111806119a9575088155b156119b15750805b895b81811015611a895760006119c68261141d565b60208101519091506119e457896119dc81612b85565b9a5050611a76565b6001816020015103611a0257886119fa81612b85565b995050611a76565b6002816020015103611a205787611a1881612b85565b985050611a76565b6003816020015103611a3e5786611a3681612b85565b975050611a76565b6004816020015103611a5c5785611a5481612b85565b965050611a76565b6005816020015103611a765784611a7281612b85565b9550505b5080611a8181612b85565b9150506119b3565b5050509295509295509295565b6000611aa1836105b0565b90508019611ac257604051634c26709f60e01b815260040160405180910390fd5b61123e81604051602001611ad69190612c19565b604051602081830303815290604052805190602001208360068111156107f3576107f3612b59565b6000611b0983612453565b9050611b16816002612015565b611b4981604051602001611b2a9190612c19565b60408051601f1981840301815291905280516020909101206002612178565b611b7981604051602001611b5d9190612d49565b6040516020818303038152906040528051906020012083612178565b60026040516001600160a01b038516906000805160206130f783398151915290600090a3505050565b600080611bb98360405160200161072a919061302c565b90506001600160a01b0381166105ed5760405162461bcd60e51b815260206004820152601260248201527110dbdb9d1c9858dd081b9bdd08199bdd5b9960721b6044820152606401610b6a565b600080611c356040518060400160405280600b81526020016a50726f746f636f6c44414f60a81b815250611ba2565b90506000816001600160a01b0316634712a1436040518163ffffffff1660e01b8152600401602060405180830381865afa158015611c77573d6000803e3d6000fd5b505050506040513d601f19601f82011682018060405250810190611c9b9190612f33565b9050670de0b6b3a76400006301e13380611cb58388613051565b611cbf9190613070565b611cc99086613051565b611cd39190613070565b95945050505050565b6000611ce7826105b0565b90508019611d0857604051634c26709f60e01b815260040160405180910390fd5b6000611d1e8260405160200161072a9190612beb565b9050336001600160a01b03821614611d495760405163112dcfdd60e31b815260040160405180910390fd5b61123e8383612519565b600080611d7d604051806040016040528060068152602001654f7261636c6560d01b815250611ba2565b90506000816001600160a01b031663bece349b6040518163ffffffff1660e01b81526004016040805180830381865afa158015611dbe573d6000803e3d6000fd5b505050506040513d601f19601f82011682018060405250810190611de29190613092565b50905080611df885670de0b6b3a7640000613051565b611e029190613070565b949350505050565b600061074583836040516020016105c8929190612bd9565b600080611e2e83612453565b9050611e3b816001612015565b6000611e51826040516020016105c89190612e78565b90507f0000000000000000000000000000000000000000000000000000000000000000811015611e9457604051633e2f7bc160e01b815260040160405180910390fd5b7f00000000000000000000000000000000000000000000000000000000000000006001600160a01b031663be13733c6040518163ffffffff1660e01b8152600401602060405180830381865afa158015611ef2573d6000803e3d6000fd5b505050506040513d601f19601f82011682018060405250810190611f169190612f33565b811115611f27575060009392505050565b5060019392505050565b6000805460405163bd02d0f560e01b8152600481018490526101009091046001600160a01b03169063bd02d0f590602401602060405180830381865afa158015611f7f573d6000803e3d6000fd5b505050506040513d601f19601f820116820180604052508101906105ed9190612f33565b600080546040516321f8a72160e01b8152600481018490526101009091046001600160a01b0316906321f8a72190602401602060405180830381865afa158015611ff1573d6000803e3d6000fd5b505050506040513d601f19601f820116820180604052508101906105ed9190612dfb565b6000826040516020016120289190612c19565b604051602081830303815290604052805190602001209050600061204b82611f31565b600681111561205c5761205c612b59565b905060008082600681111561207357612073612b59565b036120b25760015b84600681111561208d5761208d612b59565b14806120ab575060055b8460068111156120a9576120a9612b59565b145b9050612153565b60018260068111156120c6576120c6612b59565b036120d257600261207b565b60028260068111156120e6576120e6612b59565b036120f2576003612097565b600382600681111561210657612106612b59565b03612112576004612097565b600482600681111561212657612126612b59565b14806121435750600582600681111561214157612141612b59565b145b1561214f576000612097565b5060005b80612171576040516323e69e0360e21b815260040160405180910390fd5b5050505050565b600054604051637152429d60e11b815260048101849052602481018390526101009091046001600160a01b03169063e2a4853a906044015b600060405180830381600087803b1580156121ca57600080fd5b505af11580156121de573d6000803e3d6000fd5b505050505050565b60008054604051633d70e7e560e11b8152600481018490526101009091046001600160a01b031690637ae1cfca90602401602060405180830381865afa158015612234573d6000803e3d6000fd5b505050506040513d601f19601f820116820180604052508101906105ed9190612d27565b7f000000000000000000000000000000000000000000000000000000000000000081101561229957604051633e2f7bc160e01b815260040160405180910390fd5b50565b60646122a982600a613051565b6122b39190613070565b8210156122d35760405163378d8c5d60e11b815260040160405180910390fd5b5050565b60006123056040518060400160405280600b81526020016a50726f746f636f6c44414f60a81b815250611ba2565b90506000816001600160a01b0316632323f7386040518163ffffffff1660e01b8152600401602060405180830381865afa158015612347573d6000803e3d6000fd5b505050506040513d601f19601f8201168201806040525081019061236b9190612f33565b90506212750083108061237d57508083115b1561123e57604051637616640160e01b815260040160405180910390fd5b60005460405163ca446dd960e01b8152600481018490526001600160a01b0383811660248301526101009092049091169063ca446dd9906044016121b0565b60005460405163abfdcced60e01b81526004810184905282151560248201526101009091046001600160a01b03169063abfdcced906044016121b0565b600054604051632b6cd4f760e21b815260048101849052602481018390526101009091046001600160a01b03169063adb353dc906044016121b0565b60008061245f836105b0565b9050801961248057604051634c26709f60e01b815260040160405180910390fd5b60006124968260405160200161072a9190612ebd565b9050336001600160a01b038216146124c15760405163c2bd570760e01b815260040160405180910390fd5b5092915050565b600080600080600085875af190508061123e5760405162461bcd60e51b815260206004820152601360248201527211551217d514905394d1915497d19052531151606a1b6044820152606401610b6a565b612524816005612015565b612557816040516020016125389190612c19565b60408051601f1981840301815291905280516020909101206005612178565b600061257f6040518060400160405280600581526020016415985d5b1d60da1b815250611ba2565b905060006125978360405160200161072a9190612beb565b905060006125af846040516020016105c89190612c48565b90508015612642576040516301e3366760e01b81526001600160a01b0383811660048301527f000000000000000000000000000000000000000000000000000000000000000081166024830152604482018390528416906301e3366790606401600060405180830381600087803b15801561262957600080fd5b505af115801561263d573d6000803e3d6000fd5b505050505b60056040516001600160a01b038716906000805160206130f783398151915290600090a35050505050565b604051806101a0016040528060006001600160a01b03168152602001600081526020016000815260200160008152602001600015158152602001600081526020016000815260200160008152602001600081526020016000815260200160006001600160a01b0316815260200160006001600160a01b03168152602001600081525090565b6001600160a01b038116811461229957600080fd5b60006020828403121561271957600080fd5b8135610745816126f2565b80356007811061273357600080fd5b919050565b60008060006060848603121561274d57600080fd5b61275684612724565b95602085013595506040909401359392505050565b80516001600160a01b0316825260208101516020830152604081015160408301526060810151606083015260808101516127a9608084018215159052565b5060a081015160a083015260c081015160c083015260e081015160e0830152610100808201518184015250610120808201518184015250610140808201516127fb828501826001600160a01b03169052565b5050610160818101516001600160a01b03169083015261018090810151910152565b6020808252825182820181905260009190848201906040850190845b818110156128605761284c83855161276b565b928401926101a09290920191600101612839565b50909695505050505050565b634e487b7160e01b600052604160045260246000fd5b604051610200810167ffffffffffffffff811182821017156128a6576128a661286c565b60405290565b600082601f8301126128bd57600080fd5b813567ffffffffffffffff808211156128d8576128d861286c565b604051601f8301601f19908116603f011681019082821181831017156129005761290061286c565b8160405283815286602085880101111561291957600080fd5b836020870160208301376000602085830101528094505050505092915050565b6000806040838503121561294c57600080fd5b82359150602083013567ffffffffffffffff81111561296a57600080fd5b612976858286016128ac565b9150509250929050565b6000806000806080858703121561299657600080fd5b84356129a1816126f2565b966020860135965060408601359560600135945092505050565b6000602082840312156129cd57600080fd5b5035919050565b6101a081016105ed828461276b565b600080604083850312156129f657600080fd5b50508035926020909101359150565b60008060408385031215612a1857600080fd5b8235612a23816126f2565b9150612a3160208401612724565b90509250929050565b60008060408385031215612a4d57600080fd5b8235612a58816126f2565b946020939093013593505050565b600060208284031215612a7857600080fd5b813567ffffffffffffffff811115612a8f57600080fd5b611e02848285016128ac565b730c8cad8cacec2e8d2dedc9cdec8ca5cd2dcc8caf60631b815260609190911b6bffffffffffffffffffffffff1916601482015260280190565b634e487b7160e01b600052601160045260246000fd5b60008083128015600160ff1b850184121615612b0957612b09612ad5565b6001600160ff1b0384018313811615612b2457612b24612ad5565b50500390565b60008219821115612b3d57612b3d612ad5565b500190565b600082821015612b5457612b54612ad5565b500390565b634e487b7160e01b600052602160045260246000fd5b634e487b7160e01b600052603260045260246000fd5b600060018201612b9757612b97612ad5565b5060010190565b6000815160005b81811015612bbf5760208185018101518683015201612ba5565b81811115612bce576000828601525b509290920192915050565b8281526000611e026020830184612b9e565b6000805160206130b783398151915281526013810191909152651737bbb732b960d11b603382015260390190565b6000805160206130b783398151915281526013810191909152662e73746174757360c81b6033820152603a0190565b6000805160206130b7833981519152815260138101919091526a0b99d9dc109bdb99105b5d60aa1b6033820152603e0190565b6000805160206130b7833981519152815260138101919091526b0b99d9dc14db185cda105b5d60a21b6033820152603f0190565b6000805160206130b7833981519152815260138101919091526a0b9a5cd35a5b9a5c1bdbdb60aa1b6033820152603e0190565b6000805160206130b7833981519152815260138101919091527f2e6176617856616c696461746f72526577617264416d740000000000000000006033820152604a0190565b600060208284031215612d3957600080fd5b8151801515811461074557600080fd5b6000805160206130b783398151915281526013810191909152692e737461727454696d6560b01b6033820152603d0190565b6000805160206130b783398151915281526013810191909152672e656e6454696d6560c01b6033820152603b0190565b6000805160206130b7833981519152815260138101919091527f2e6176617844656c656761746f72526577617264416d740000000000000000006033820152604a0190565b8051612733816126f2565b600060208284031215612e0d57600080fd5b8151610745816126f2565b6000805160206130b783398151915281526013810191909152660b9b9bd919525160ca1b6033820152603a0190565b6000805160206130b7833981519152815260138101919091526817323ab930ba34b7b760b91b6033820152603c0190565b6000805160206130b7833981519152815260138101919091527f2e72657175657374656444656c65676174696f6e416d740000000000000000006033820152604a0190565b6000805160206130b7833981519152815260138101919091526c1736bab63a34b9b4b3a0b2323960991b603382015260400190565b600080821280156001600160ff1b0384900385131615612f1457612f14612ad5565b600160ff1b8390038412811615612f2d57612f2d612ad5565b50500190565b600060208284031215612f4557600080fd5b5051919050565b60006102008284031215612f5f57600080fd5b612f67612882565b612f7083612df0565b81526020830151602082015260408301516040820152606083015160608201526080830151608082015260a083015160a082015260c083015160c082015260e083015160e08201526101008084015181830152506101208084015181830152506101408084015181830152506101608084015181830152506101808084015181830152506101a0613002818501612df0565b908201526101c0613014848201612df0565b908201526101e0928301519281019290925250919050565b6f636f6e74726163742e6164647265737360801b815260006107456010830184612b9e565b600081600019048311821515161561306b5761306b612ad5565b500290565b60008261308d57634e487b7160e01b600052601260045260246000fd5b500490565b600080604083850312156130a557600080fd5b50508051602090910151909290915056fe64656c65676174696f6e4e6f64652e6974656d00000000000000000000000000e9f11251b33eeb877f9371d68f6050a8cae30f1076b757474f0752ef22ca2de263718ebb8dc7ce6275108268e6e2e99d4d42bec1050ac3bacd392a2f1e835d5ba2646970667358221220f766c8233a6061c22493125d440be952d6e7d8a4ccc9b9901cb5904e3bf3b20964736f6c634300080d0033",
  "linkReferences": {},
  "deployedLinkReferences": {}
}