{
  "_format": "hh-sol-artifact-1",
  "contractName": "DelegationManager",
  "sourceName": "contracts/contract/DelegationManager.sol",
  "abi": [
    {
      "inputs": [
        {
          "internalType": "contract IStorage",
          "name": "storageAddress",
          "type": "address"
        },
        {
          "internalType": "contract ERC20",
          "name": "ggp_",
          "type": "address"
        }
      ],
      "stateMutability": "nonpayable",
      "type": "constructor"
    },
    {
      "inputs": [],
      "name": "InvalidAvaxAmt",
      "type": "error"
    },
    {
      "inputs": [],
      "name": "InvalidDelegationFee",
      "type": "error"
    },
    {
      "inputs": [],
      "name": "InvalidDuration",
      "type": "error"
    },
    {
      "inputs": [],
      "name": "InvalidGGPBondAmt",
      "type": "error"
    },
    {
      "inputs": [],
      "name": "InvalidNodeId",
      "type": "error"
    },
    {
      "inputs": [],
      "name": "InvalidTimeZone",
      "type": "error"
    },
    {
      "anonymous": false,
      "inputs": [
        {
          "indexed": true,
          "internalType": "address",
          "name": "nodeID",
          "type": "address"
        }
      ],
      "name": "NodeRegistered",
      "type": "event"
    },
    {
      "inputs": [
        {
          "internalType": "address",
          "name": "nodeID",
          "type": "address"
        }
      ],
      "name": "getIndexOf",
      "outputs": [
        {
          "internalType": "int256",
          "name": "",
          "type": "int256"
        }
      ],
      "stateMutability": "view",
      "type": "function"
    },
    {
      "inputs": [
        {
          "internalType": "string",
          "name": "_contractName",
          "type": "string"
        }
      ],
      "name": "getPublicContractAddress",
      "outputs": [
        {
          "internalType": "address",
          "name": "",
          "type": "address"
        }
      ],
      "stateMutability": "view",
      "type": "function"
    },
    {
      "inputs": [
        {
          "internalType": "bytes32",
          "name": "settingNameSpace",
          "type": "bytes32"
        },
        {
          "internalType": "string",
          "name": "_settingPath",
          "type": "string"
        }
      ],
      "name": "getSettingAddress",
      "outputs": [
        {
          "internalType": "address",
          "name": "",
          "type": "address"
        }
      ],
      "stateMutability": "view",
      "type": "function"
    },
    {
      "inputs": [
        {
          "internalType": "bytes32",
          "name": "settingNameSpace",
          "type": "bytes32"
        },
        {
          "internalType": "string",
          "name": "_settingPath",
          "type": "string"
        }
      ],
      "name": "getSettingBool",
      "outputs": [
        {
          "internalType": "bool",
          "name": "",
          "type": "bool"
        }
      ],
      "stateMutability": "view",
      "type": "function"
    },
    {
      "inputs": [
        {
          "internalType": "bytes32",
          "name": "settingNameSpace",
          "type": "bytes32"
        },
        {
          "internalType": "string",
          "name": "_settingPath",
          "type": "string"
        }
      ],
      "name": "getSettingUint",
      "outputs": [
        {
          "internalType": "uint256",
          "name": "",
          "type": "uint256"
        }
      ],
      "stateMutability": "view",
      "type": "function"
    },
    {
      "inputs": [],
      "name": "ggp",
      "outputs": [
        {
          "internalType": "contract ERC20",
          "name": "",
          "type": "address"
        }
      ],
      "stateMutability": "view",
      "type": "function"
    },
    {
      "inputs": [
        {
          "internalType": "address",
          "name": "nodeID",
          "type": "address"
        },
        {
          "internalType": "bytes32",
          "name": "timeZone",
          "type": "bytes32"
        },
        {
          "internalType": "uint256",
          "name": "startTime",
          "type": "uint256"
        },
        {
          "internalType": "uint256",
          "name": "endTime",
          "type": "uint256"
        },
        {
          "internalType": "uint256",
          "name": "avaxAmt",
          "type": "uint256"
        },
        {
          "internalType": "uint256",
          "name": "delegationFee",
          "type": "uint256"
        },
        {
          "internalType": "uint256",
          "name": "ggpBondAmt",
          "type": "uint256"
        }
      ],
      "name": "registerNode",
      "outputs": [
        {
          "internalType": "bool",
          "name": "successfulRegistration",
          "type": "bool"
        }
      ],
      "stateMutability": "payable",
      "type": "function"
    },
    {
      "inputs": [
        {
          "internalType": "uint256",
          "name": "avaxAmt",
          "type": "uint256"
        }
      ],
      "name": "requireAvaxAmt",
      "outputs": [],
      "stateMutability": "pure",
      "type": "function"
    },
    {
      "inputs": [
        {
          "internalType": "uint256",
          "name": "delegationFee",
          "type": "uint256"
        }
      ],
      "name": "requireDelegationFee",
      "outputs": [],
      "stateMutability": "pure",
      "type": "function"
    },
    {
      "inputs": [
        {
          "internalType": "uint256",
          "name": "duration",
          "type": "uint256"
        }
      ],
      "name": "requireDuration",
      "outputs": [],
      "stateMutability": "pure",
      "type": "function"
    },
    {
      "inputs": [
        {
          "internalType": "uint256",
          "name": "ggpBondAmt",
          "type": "uint256"
        }
      ],
      "name": "requireGGPBondAmt",
      "outputs": [],
      "stateMutability": "pure",
      "type": "function"
    },
    {
      "inputs": [],
      "name": "version",
      "outputs": [
        {
          "internalType": "uint8",
          "name": "",
          "type": "uint8"
        }
      ],
      "stateMutability": "view",
      "type": "function"
    }
  ],
  "bytecode": "0x60a060405234801561001057600080fd5b506040516109ea3803806109ea83398101604081905261002f91610079565b6000805460ff196001600160a01b0394851661010002166001600160a81b0319909116176001179055166080526100b3565b6001600160a01b038116811461007657600080fd5b50565b6000806040838503121561008c57600080fd5b825161009781610061565b60208401519092506100a881610061565b809150509250929050565b60805161091c6100ce6000396000610238015261091c6000f3fe6080604052600436106100a75760003560e01c80636865356c116100645780636865356c146101a85780638d2cf9d5146101c6578063b4509dad146101e6578063cff0b64814610206578063f321df4914610226578063f4d70e781461025a57600080fd5b8063017df522146100ac57806306eaa68b146100df578063232de716146101175780632fe82e6114610147578063492c1da41461015a57806354fd4d501461017c575b600080fd5b3480156100b857600080fd5b506100cc6100c73660046105fe565b61027a565b6040519081526020015b60405180910390f35b3480156100eb57600080fd5b506100ff6100fa3660046106be565b6102ea565b6040516001600160a01b0390911681526020016100d6565b34801561012357600080fd5b506101376101323660046106be565b610324565b60405190151581526020016100d6565b610137610155366004610705565b610357565b34801561016657600080fd5b5061017a61017536600461075a565b610388565b005b34801561018857600080fd5b506000546101969060ff1681565b60405160ff90911681526020016100d6565b3480156101b457600080fd5b5061017a6101c336600461075a565b50565b3480156101d257600080fd5b5061017a6101e136600461075a565b6103b8565b3480156101f257600080fd5b5061017a61020136600461075a565b6103e5565b34801561021257600080fd5b506100ff610221366004610773565b610417565b34801561023257600080fd5b506100ff7f000000000000000000000000000000000000000000000000000000000000000081565b34801561026657600080fd5b506100cc6102753660046106be565b61047b565b604051710dcdec8ca9ee0cae4c2e8dee45cd2dcc8caf60731b60208201526bffffffffffffffffffffffff19606083901b1660328201526000906001906102da906046015b60405160208183030381529060405280519060200120610493565b6102e491906107c6565b92915050565b600061031d8383604051602001610302929190610840565b60405160208183030381529060405280519060200120610505565b9392505050565b600061031d838360405160200161033c929190610840565b60405160208183030381529060405280519060200120610577565b6000806103648787610852565b9050604051631a79d75f60e31b815260040160405180910390fd5b60405180910390fd5b6103e881108061039a5750622dc6c081115b156101c357604051631a79d75f60e31b815260040160405180910390fd5b60028110806103c75750601481115b156101c35760405163c98d73a760e01b815260040160405180910390fd5b621275008110806103f957506301e1338081115b156101c357604051637616640160e01b815260040160405180910390fd5b60008061042e83604051602001610302919061088b565b90506001600160a01b0381166102e45760405162461bcd60e51b815260206004820152601260248201527110dbdb9d1c9858dd081b9bdd08199bdd5b9960721b604482015260640161037f565b600061031d83836040516020016102bf929190610840565b6000805460405163bd02d0f560e01b8152600481018490526101009091046001600160a01b03169063bd02d0f590602401602060405180830381865afa1580156104e1573d6000803e3d6000fd5b505050506040513d601f19601f820116820180604052508101906102e491906108b0565b600080546040516321f8a72160e01b8152600481018490526101009091046001600160a01b0316906321f8a72190602401602060405180830381865afa158015610553573d6000803e3d6000fd5b505050506040513d601f19601f820116820180604052508101906102e491906108c9565b60008054604051633d70e7e560e11b8152600481018490526101009091046001600160a01b031690637ae1cfca90602401602060405180830381865afa1580156105c5573d6000803e3d6000fd5b505050506040513d601f19601f820116820180604052508101906102e49190610869565b6001600160a01b03811681146101c357600080fd5b60006020828403121561061057600080fd5b813561031d816105e9565b634e487b7160e01b600052604160045260246000fd5b600082601f83011261064257600080fd5b813567ffffffffffffffff8082111561065d5761065d61061b565b604051601f8301601f19908116603f011681019082821181831017156106855761068561061b565b8160405283815286602085880101111561069e57600080fd5b836020870160208301376000602085830101528094505050505092915050565b600080604083850312156106d157600080fd5b82359150602083013567ffffffffffffffff8111156106ef57600080fd5b6106fb85828601610631565b9150509250929050565b600080600080600080600060e0888a03121561072057600080fd5b873561072b816105e9565b9960208901359950604089013598606081013598506080810135975060a0810135965060c00135945092505050565b60006020828403121561076c57600080fd5b5035919050565b60006020828403121561078557600080fd5b813567ffffffffffffffff81111561079c57600080fd5b6107a884828501610631565b949350505050565b634e487b7160e01b600052601160045260246000fd5b60008083128015600160ff1b8501841216156107e4576107e46107b0565b6001600160ff1b03840183138116156107ff576107ff6107b0565b50500390565b6000815160005b81811015610826576020818501810151868301520161080c565b81811115610835576000828601525b509290920192915050565b82815260006107a86020830184610805565b600082821015610864576108646107b0565b500390565b60006020828403121561087b57600080fd5b8151801515811461031d57600080fd5b6f636f6e74726163742e6164647265737360801b8152600061031d6010830184610805565b6000602082840312156108c257600080fd5b5051919050565b6000602082840312156108db57600080fd5b815161031d816105e956fea26469706673582212207a2a1eb7860a3fe07e2facd154d399a5b3a885b025933ad99d3a55f505f759b064736f6c634300080d0033",
  "linkReferences": {},
  "deployedLinkReferences": {}
}